{
  "contractName": "Jobs",
  "abi": [
    {
      "inputs": [
        {
          "internalType": "address",
          "name": "tokenAddress",
          "type": "address"
        }
      ],
      "stateMutability": "nonpayable",
      "type": "constructor"
    },
    {
      "anonymous": false,
      "inputs": [
        {
          "indexed": true,
          "internalType": "address",
          "name": "previousOwner",
          "type": "address"
        },
        {
          "indexed": true,
          "internalType": "address",
          "name": "newOwner",
          "type": "address"
        }
      ],
      "name": "OwnershipTransferred",
      "type": "event"
    },
    {
      "inputs": [
        {
          "internalType": "uint256",
          "name": "",
          "type": "uint256"
        }
      ],
      "name": "allJobs",
      "outputs": [
        {
          "internalType": "uint256",
          "name": "id",
          "type": "uint256"
        },
        {
          "internalType": "address",
          "name": "owner",
          "type": "address"
        },
        {
          "internalType": "string",
          "name": "title",
          "type": "string"
        },
        {
          "internalType": "string",
          "name": "description",
          "type": "string"
        },
        {
          "internalType": "bool",
          "name": "monthly",
          "type": "bool"
        },
        {
          "internalType": "uint256",
          "name": "salary",
          "type": "uint256"
        },
        {
          "internalType": "bool",
          "name": "live",
          "type": "bool"
        }
      ],
      "stateMutability": "view",
      "type": "function",
      "constant": true
    },
    {
      "inputs": [],
      "name": "owner",
      "outputs": [
        {
          "internalType": "address",
          "name": "",
          "type": "address"
        }
      ],
      "stateMutability": "view",
      "type": "function",
      "constant": true
    },
    {
      "inputs": [],
      "name": "renounceOwnership",
      "outputs": [],
      "stateMutability": "nonpayable",
      "type": "function"
    },
    {
      "inputs": [
        {
          "internalType": "address",
          "name": "newOwner",
          "type": "address"
        }
      ],
      "name": "transferOwnership",
      "outputs": [],
      "stateMutability": "nonpayable",
      "type": "function"
    },
    {
      "inputs": [
        {
          "internalType": "string",
          "name": "_title",
          "type": "string"
        },
        {
          "internalType": "string",
          "name": "_description",
          "type": "string"
        },
        {
          "internalType": "bool",
          "name": "_monthly",
          "type": "bool"
        },
        {
          "internalType": "uint256",
          "name": "_salary",
          "type": "uint256"
        }
      ],
      "name": "createJob",
      "outputs": [],
      "stateMutability": "nonpayable",
      "type": "function"
    },
    {
      "inputs": [
        {
          "internalType": "uint256",
          "name": "_id",
          "type": "uint256"
        }
      ],
      "name": "removeJob",
      "outputs": [],
      "stateMutability": "nonpayable",
      "type": "function"
    },
    {
      "inputs": [
        {
          "internalType": "uint256",
          "name": "_id",
          "type": "uint256"
        }
      ],
      "name": "getJob",
      "outputs": [
        {
          "components": [
            {
              "internalType": "uint256",
              "name": "id",
              "type": "uint256"
            },
            {
              "internalType": "address",
              "name": "owner",
              "type": "address"
            },
            {
              "internalType": "string",
              "name": "title",
              "type": "string"
            },
            {
              "internalType": "string",
              "name": "description",
              "type": "string"
            },
            {
              "internalType": "bool",
              "name": "monthly",
              "type": "bool"
            },
            {
              "internalType": "uint256",
              "name": "salary",
              "type": "uint256"
            },
            {
              "internalType": "bool",
              "name": "live",
              "type": "bool"
            }
          ],
          "internalType": "struct Jobs.job",
          "name": "",
          "type": "tuple"
        }
      ],
      "stateMutability": "view",
      "type": "function",
      "constant": true
    },
    {
      "inputs": [],
      "name": "getAllJobs",
      "outputs": [
        {
          "components": [
            {
              "internalType": "uint256",
              "name": "id",
              "type": "uint256"
            },
            {
              "internalType": "address",
              "name": "owner",
              "type": "address"
            },
            {
              "internalType": "string",
              "name": "title",
              "type": "string"
            },
            {
              "internalType": "string",
              "name": "description",
              "type": "string"
            },
            {
              "internalType": "bool",
              "name": "monthly",
              "type": "bool"
            },
            {
              "internalType": "uint256",
              "name": "salary",
              "type": "uint256"
            },
            {
              "internalType": "bool",
              "name": "live",
              "type": "bool"
            }
          ],
          "internalType": "struct Jobs.job[]",
          "name": "",
          "type": "tuple[]"
        }
      ],
      "stateMutability": "view",
      "type": "function",
      "constant": true
    }
  ],
  "bytecode": "0x60806040523480156200001157600080fd5b5060405162001d6b38038062001d6b833981810160405281019062000037919062000156565b6000620000496200013760201b60201c565b9050806000806101000a81548173ffffffffffffffffffffffffffffffffffffffff021916908373ffffffffffffffffffffffffffffffffffffffff1602179055508073ffffffffffffffffffffffffffffffffffffffff16600073ffffffffffffffffffffffffffffffffffffffff167f8be0079c531659141344cd1fd0a4f28419497f9722a3daafe3b4186f6b6457e060405160405180910390a35080600160006101000a81548173ffffffffffffffffffffffffffffffffffffffff021916908373ffffffffffffffffffffffffffffffffffffffff160217905550600060028190555050620001d0565b600033905090565b6000815190506200015081620001b6565b92915050565b6000602082840312156200016957600080fd5b600062000179848285016200013f565b91505092915050565b60006200018f8262000196565b9050919050565b600073ffffffffffffffffffffffffffffffffffffffff82169050919050565b620001c18162000182565b8114620001cd57600080fd5b50565b611b8b80620001e06000396000f3fe608060405234801561001057600080fd5b50600436106100885760003560e01c8063965a79fb1161005b578063965a79fb146101075780639cb29cbd14610125578063bf22c45714610141578063f2fde38b1461017157610088565b8063655c098d1461008d578063715018a6146100a95780638da5cb5b146100b357806390c3e979146100d1575b600080fd5b6100a760048036038101906100a29190611398565b61018d565b005b6100b1610540565b005b6100bb610693565b6040516100c891906117e4565b60405180910390f35b6100eb60048036038101906100e6919061142b565b6106bc565b6040516100fe9796959493929190611903565b60405180910390f35b61010f610875565b60405161011c919061185f565b60405180910390f35b61013f600480360381019061013a919061142b565b610ab8565b005b61015b6004803603810190610156919061142b565b610d00565b60405161016891906118e1565b60405180910390f35b61018b60048036038101906101869190611346565b610f11565b005b60011515600160009054906101000a900473ffffffffffffffffffffffffffffffffffffffff1673ffffffffffffffffffffffffffffffffffffffff166323b872dd3330856040518463ffffffff1660e01b81526004016101f0939291906117ff565b602060405180830381600087803b15801561020a57600080fd5b505af115801561021e573d6000803e3d6000fd5b505050506040513d601f19601f82011682018060405250810190610242919061136f565b151514610284576040517f08c379a000000000000000000000000000000000000000000000000000000000815260040161027b906118a1565b60405180910390fd5b6040518060e0016040528060025481526020013373ffffffffffffffffffffffffffffffffffffffff1681526020018581526020018481526020018315158152602001828152602001600115158152506004600060025481526020019081526020016000206000820151816000015560208201518160010160006101000a81548173ffffffffffffffffffffffffffffffffffffffff021916908373ffffffffffffffffffffffffffffffffffffffff16021790555060408201518160020190805190602001906103569291906110db565b5060608201518160030190805190602001906103739291906110db565b5060808201518160040160006101000a81548160ff02191690831515021790555060a0820151816005015560c08201518160060160006101000a81548160ff02191690831515021790555090505060036004600060025481526020019081526020016000209080600181540180825580915050600190039060005260206000209060070201600090919091909150600082015481600001556001820160009054906101000a900473ffffffffffffffffffffffffffffffffffffffff168160010160006101000a81548173ffffffffffffffffffffffffffffffffffffffff021916908373ffffffffffffffffffffffffffffffffffffffff1602179055506002820181600201908054600181600116156101000203166002900461049992919061115b565b50600382018160030190805460018160011615610100020316600290046104c192919061115b565b506004820160009054906101000a900460ff168160040160006101000a81548160ff021916908315150217905550600582015481600501556006820160009054906101000a900460ff168160060160006101000a81548160ff021916908315150217905550505060026000815480929190600101919050555050505050565b6105486110d3565b73ffffffffffffffffffffffffffffffffffffffff1660008054906101000a900473ffffffffffffffffffffffffffffffffffffffff1673ffffffffffffffffffffffffffffffffffffffff16146105d5576040517f08c379a00000000000000000000000000000000000000000000000000000000081526004016105cc906118c1565b60405180910390fd5b600073ffffffffffffffffffffffffffffffffffffffff1660008054906101000a900473ffffffffffffffffffffffffffffffffffffffff1673ffffffffffffffffffffffffffffffffffffffff167f8be0079c531659141344cd1fd0a4f28419497f9722a3daafe3b4186f6b6457e060405160405180910390a360008060006101000a81548173ffffffffffffffffffffffffffffffffffffffff021916908373ffffffffffffffffffffffffffffffffffffffff160217905550565b60008060009054906101000a900473ffffffffffffffffffffffffffffffffffffffff16905090565b600381815481106106c957fe5b90600052602060002090600702016000915090508060000154908060010160009054906101000a900473ffffffffffffffffffffffffffffffffffffffff1690806002018054600181600116156101000203166002900480601f0160208091040260200160405190810160405280929190818152602001828054600181600116156101000203166002900480156107a15780601f10610776576101008083540402835291602001916107a1565b820191906000526020600020905b81548152906001019060200180831161078457829003601f168201915b505050505090806003018054600181600116156101000203166002900480601f01602080910402602001604051908101604052809291908181526020018280546001816001161561010002031660029004801561083f5780601f106108145761010080835404028352916020019161083f565b820191906000526020600020905b81548152906001019060200180831161082257829003601f168201915b5050505050908060040160009054906101000a900460ff16908060050154908060060160009054906101000a900460ff16905087565b60606003805480602002602001604051908101604052809291908181526020016000905b82821015610aaf57838290600052602060002090600702016040518060e0016040529081600082015481526020016001820160009054906101000a900473ffffffffffffffffffffffffffffffffffffffff1673ffffffffffffffffffffffffffffffffffffffff1673ffffffffffffffffffffffffffffffffffffffff168152602001600282018054600181600116156101000203166002900480601f0160208091040260200160405190810160405280929190818152602001828054600181600116156101000203166002900480156109b55780601f1061098a576101008083540402835291602001916109b5565b820191906000526020600020905b81548152906001019060200180831161099857829003601f168201915b50505050508152602001600382018054600181600116156101000203166002900480601f016020809104026020016040519081016040528092919081815260200182805460018160011615610100020316600290048015610a575780601f10610a2c57610100808354040283529160200191610a57565b820191906000526020600020905b815481529060010190602001808311610a3a57829003601f168201915b505050505081526020016004820160009054906101000a900460ff16151515158152602001600582015481526020016006820160009054906101000a900460ff16151515158152505081526020019060010190610899565b50505050905090565b6004600082815260200190815260200160002060010160009054906101000a900473ffffffffffffffffffffffffffffffffffffffff1673ffffffffffffffffffffffffffffffffffffffff163373ffffffffffffffffffffffffffffffffffffffff1614610b2657600080fd5b60011515600160009054906101000a900473ffffffffffffffffffffffffffffffffffffffff1673ffffffffffffffffffffffffffffffffffffffff1663a9059cbb3360046000868152602001908152602001600020600501546040518363ffffffff1660e01b8152600401610b9d929190611836565b602060405180830381600087803b158015610bb757600080fd5b505af1158015610bcb573d6000803e3d6000fd5b505050506040513d601f19601f82011682018060405250810190610bef919061136f565b151514610c31576040517f08c379a0000000000000000000000000000000000000000000000000000000008152600401610c28906118a1565b60405180910390fd5b600060038281548110610c4057fe5b906000526020600020906007020160060160006101000a81548160ff021916908315150217905550600460008281526020019081526020016000206000808201600090556001820160006101000a81549073ffffffffffffffffffffffffffffffffffffffff0219169055600282016000610cbb91906111e2565b600382016000610ccb91906111e2565b6004820160006101000a81549060ff021916905560058201600090556006820160006101000a81549060ff0219169055505050565b610d0861122a565b600460008381526020019081526020016000206040518060e0016040529081600082015481526020016001820160009054906101000a900473ffffffffffffffffffffffffffffffffffffffff1673ffffffffffffffffffffffffffffffffffffffff1673ffffffffffffffffffffffffffffffffffffffff168152602001600282018054600181600116156101000203166002900480601f016020809104026020016040519081016040528092919081815260200182805460018160011615610100020316600290048015610e1f5780601f10610df457610100808354040283529160200191610e1f565b820191906000526020600020905b815481529060010190602001808311610e0257829003601f168201915b50505050508152602001600382018054600181600116156101000203166002900480601f016020809104026020016040519081016040528092919081815260200182805460018160011615610100020316600290048015610ec15780601f10610e9657610100808354040283529160200191610ec1565b820191906000526020600020905b815481529060010190602001808311610ea457829003601f168201915b505050505081526020016004820160009054906101000a900460ff16151515158152602001600582015481526020016006820160009054906101000a900460ff1615151515815250509050919050565b610f196110d3565b73ffffffffffffffffffffffffffffffffffffffff1660008054906101000a900473ffffffffffffffffffffffffffffffffffffffff1673ffffffffffffffffffffffffffffffffffffffff1614610fa6576040517f08c379a0000000000000000000000000000000000000000000000000000000008152600401610f9d906118c1565b60405180910390fd5b600073ffffffffffffffffffffffffffffffffffffffff168173ffffffffffffffffffffffffffffffffffffffff161415611016576040517f08c379a000000000000000000000000000000000000000000000000000000000815260040161100d90611881565b60405180910390fd5b8073ffffffffffffffffffffffffffffffffffffffff1660008054906101000a900473ffffffffffffffffffffffffffffffffffffffff1673ffffffffffffffffffffffffffffffffffffffff167f8be0079c531659141344cd1fd0a4f28419497f9722a3daafe3b4186f6b6457e060405160405180910390a3806000806101000a81548173ffffffffffffffffffffffffffffffffffffffff021916908373ffffffffffffffffffffffffffffffffffffffff16021790555050565b600033905090565b828054600181600116156101000203166002900490600052602060002090601f016020900481019282601f1061111c57805160ff191683800117855561114a565b8280016001018555821561114a579182015b8281111561114957825182559160200191906001019061112e565b5b5090506111579190611281565b5090565b828054600181600116156101000203166002900490600052602060002090601f016020900481019282601f1061119457805485556111d1565b828001600101855582156111d157600052602060002091601f016020900482015b828111156111d05782548255916001019190600101906111b5565b5b5090506111de9190611281565b5090565b50805460018160011615610100020316600290046000825580601f106112085750611227565b601f0160209004906000526020600020908101906112269190611281565b5b50565b6040518060e0016040528060008152602001600073ffffffffffffffffffffffffffffffffffffffff1681526020016060815260200160608152602001600015158152602001600081526020016000151581525090565b5b8082111561129a576000816000905550600101611282565b5090565b6000813590506112ad81611b10565b92915050565b6000813590506112c281611b27565b92915050565b6000815190506112d781611b27565b92915050565b600082601f8301126112ee57600080fd5b81356113016112fc826119ad565b611980565b9150808252602083016020830185838301111561131d57600080fd5b611328838284611abd565b50505092915050565b60008135905061134081611b3e565b92915050565b60006020828403121561135857600080fd5b60006113668482850161129e565b91505092915050565b60006020828403121561138157600080fd5b600061138f848285016112c8565b91505092915050565b600080600080608085870312156113ae57600080fd5b600085013567ffffffffffffffff8111156113c857600080fd5b6113d4878288016112dd565b945050602085013567ffffffffffffffff8111156113f157600080fd5b6113fd878288016112dd565b935050604061140e878288016112b3565b925050606061141f87828801611331565b91505092959194509250565b60006020828403121561143d57600080fd5b600061144b84828501611331565b91505092915050565b60006114608383611680565b905092915050565b61147181611a87565b82525050565b61148081611a3f565b82525050565b61148f81611a3f565b82525050565b60006114a0826119e9565b6114aa8185611a0c565b9350836020820285016114bc856119d9565b8060005b858110156114f857848403895281516114d98582611454565b94506114e4836119ff565b925060208a019950506001810190506114c0565b50829750879550505050505092915050565b61151381611a51565b82525050565b61152281611a51565b82525050565b6000611533826119f4565b61153d8185611a1d565b935061154d818560208601611acc565b61155681611aff565b840191505092915050565b600061156c826119f4565b6115768185611a2e565b9350611586818560208601611acc565b61158f81611aff565b840191505092915050565b60006115a7602683611a2e565b91507f4f776e61626c653a206e6577206f776e657220697320746865207a65726f206160008301527f64647265737300000000000000000000000000000000000000000000000000006020830152604082019050919050565b600061160d601583611a2e565b91507f436f756c64206e6f742073656e6420746f6b656e7300000000000000000000006000830152602082019050919050565b600061164d602083611a2e565b91507f4f776e61626c653a2063616c6c6572206973206e6f7420746865206f776e65726000830152602082019050919050565b600060e08301600083015161169860008601826117c6565b5060208301516116ab6020860182611477565b50604083015184820360408601526116c38282611528565b915050606083015184820360608601526116dd8282611528565b91505060808301516116f2608086018261150a565b5060a083015161170560a08601826117c6565b5060c083015161171860c086018261150a565b508091505092915050565b600060e08301600083015161173b60008601826117c6565b50602083015161174e6020860182611477565b50604083015184820360408601526117668282611528565b915050606083015184820360608601526117808282611528565b9150506080830151611795608086018261150a565b5060a08301516117a860a08601826117c6565b5060c08301516117bb60c086018261150a565b508091505092915050565b6117cf81611a7d565b82525050565b6117de81611a7d565b82525050565b60006020820190506117f96000830184611486565b92915050565b60006060820190506118146000830186611468565b6118216020830185611486565b61182e60408301846117d5565b949350505050565b600060408201905061184b6000830185611468565b61185860208301846117d5565b9392505050565b600060208201905081810360008301526118798184611495565b905092915050565b6000602082019050818103600083015261189a8161159a565b9050919050565b600060208201905081810360008301526118ba81611600565b9050919050565b600060208201905081810360008301526118da81611640565b9050919050565b600060208201905081810360008301526118fb8184611723565b905092915050565b600060e082019050611918600083018a6117d5565b6119256020830189611486565b81810360408301526119378188611561565b9050818103606083015261194b8187611561565b905061195a6080830186611519565b61196760a08301856117d5565b61197460c0830184611519565b98975050505050505050565b6000604051905081810181811067ffffffffffffffff821117156119a357600080fd5b8060405250919050565b600067ffffffffffffffff8211156119c457600080fd5b601f19601f8301169050602081019050919050565b6000819050602082019050919050565b600081519050919050565b600081519050919050565b6000602082019050919050565b600082825260208201905092915050565b600082825260208201905092915050565b600082825260208201905092915050565b6000611a4a82611a5d565b9050919050565b60008115159050919050565b600073ffffffffffffffffffffffffffffffffffffffff82169050919050565b6000819050919050565b6000611a9282611a99565b9050919050565b6000611aa482611aab565b9050919050565b6000611ab682611a5d565b9050919050565b82818337600083830152505050565b60005b83811015611aea578082015181840152602081019050611acf565b83811115611af9576000848401525b50505050565b6000601f19601f8301169050919050565b611b1981611a3f565b8114611b2457600080fd5b50565b611b3081611a51565b8114611b3b57600080fd5b50565b611b4781611a7d565b8114611b5257600080fd5b5056fea264697066735822122068f6e198003bb46cf8a8d6fa829b989987522f8c4d8ae2a931d4b1841641e89564736f6c63430007010033",
  "immutableReferences": {},
  "source": "// SPDX-License-Identifier: MIT\r\npragma solidity >=0.7.0;\r\npragma experimental ABIEncoderV2;\r\n\r\nimport \"./Repository.sol\";\r\nimport \"./GLDToken.sol\";\r\nimport \"@openzeppelin/contracts/access/Ownable.sol\";\r\nimport \"@openzeppelin/contracts/math/SafeMath.sol\"; \r\n\r\ncontract Jobs is Ownable {\r\n    using SafeMath for uint256;\r\n    \r\n    struct job{\r\n        uint id;\r\n        address owner;\r\n        string title;\r\n        string description;\r\n        bool monthly;\r\n        uint salary;\r\n        bool live;\r\n    }\r\n\r\n    GLDToken private token;\r\n    uint index;\r\n    job[] public allJobs;\r\n    // mapping repo slug to Repo\r\n    mapping (uint => job) jobsMap;\r\n\r\n    constructor(address tokenAddress){\r\n        token = GLDToken(tokenAddress);\r\n        index = 0;\r\n    }\r\n    \r\n    // Create Promotion\r\n    function createJob(string memory _title, string memory _description, bool _monthly, uint _salary) public {\r\n       \r\n        // Stake salary\r\n        require(token.transferFrom(msg.sender, address(this), _salary) == true, \"Could not send tokens\");\r\n\r\n        // Create Job\r\n        jobsMap[index] = job(index, msg.sender, _title, _description, _monthly, _salary, true);\r\n        allJobs.push(jobsMap[index]);\r\n        index++;\r\n    }\r\n\r\n    // Remove Promotion\r\n    function removeJob(uint _id) public {\r\n       require(msg.sender == jobsMap[_id].owner);\r\n       \r\n        // Release Salary Stake \r\n        require(token.transfer(msg.sender, jobsMap[_id].salary) == true, \"Could not send tokens\");\r\n        allJobs[_id].live = false;\r\n        delete jobsMap[_id];\r\n    }\r\n\r\n    // Get One Jobs\r\n    function getJob(uint _id) public view returns(job memory) {\r\n        return jobsMap[_id];\r\n    }\r\n    // Get All Jobs\r\n    function getAllJobs() public view returns(job[] memory) {\r\n        return allJobs;\r\n    }\r\n}",
  "sourcePath": "C:/Users/jamie/Desktop/Thesis/planetGit/src/contracts/Jobs.sol",
  "compiler": {
    "name": "solc",
    "version": "0.7.1+commit.f4a555be.Emscripten.clang"
  },
  "schemaVersion": "3.2.5",
  "updatedAt": "2020-11-18T09:41:28.538Z",
  "networkType": "ethereum",
  "devdoc": {
    "kind": "dev",
    "methods": {
      "owner()": {
        "details": "Returns the address of the current owner."
      },
      "renounceOwnership()": {
        "details": "Leaves the contract without owner. It will not be possible to call `onlyOwner` functions anymore. Can only be called by the current owner. NOTE: Renouncing ownership will leave the contract without an owner, thereby removing any functionality that is only available to the owner."
      },
      "transferOwnership(address)": {
        "details": "Transfers ownership of the contract to a new account (`newOwner`). Can only be called by the current owner."
      }
    },
    "version": 1
  },
  "userdoc": {
    "kind": "user",
    "methods": {},
    "version": 1
  }
}