{
  "contractName": "MintReward",
  "abi": [
    {
      "inputs": [
        {
          "internalType": "address",
          "name": "tokenAddress",
          "type": "address"
        },
        {
          "internalType": "address",
          "name": "repoAddress",
          "type": "address"
        }
      ],
      "stateMutability": "nonpayable",
      "type": "constructor"
    },
    {
      "anonymous": false,
      "inputs": [
        {
          "indexed": true,
          "internalType": "address",
          "name": "_from",
          "type": "address"
        },
        {
          "indexed": false,
          "internalType": "string",
          "name": "_value",
          "type": "string"
        },
        {
          "indexed": false,
          "internalType": "string",
          "name": "_slug",
          "type": "string"
        },
        {
          "indexed": true,
          "internalType": "bytes4",
          "name": "nonce",
          "type": "bytes4"
        }
      ],
      "name": "Hash",
      "type": "event"
    },
    {
      "inputs": [
        {
          "internalType": "string",
          "name": "_projectSlug",
          "type": "string"
        },
        {
          "internalType": "bytes4",
          "name": "nonce",
          "type": "bytes4"
        }
      ],
      "name": "mintReward",
      "outputs": [],
      "stateMutability": "nonpayable",
      "type": "function"
    }
  ],
  "bytecode": "0x608060405234801561001057600080fd5b506040516106fc3803806106fc8339818101604052604081101561003357600080fd5b81019080805190602001909291908051906020019092919050505081600160006101000a81548173ffffffffffffffffffffffffffffffffffffffff021916908373ffffffffffffffffffffffffffffffffffffffff160217905550806000806101000a81548173ffffffffffffffffffffffffffffffffffffffff021916908373ffffffffffffffffffffffffffffffffffffffff160217905550505061061c806100e06000396000f3fe608060405234801561001057600080fd5b506004361061002b5760003560e01c8063ac8f368214610030575b600080fd5b6101126004803603604081101561004657600080fd5b810190808035906020019064010000000081111561006357600080fd5b82018360208201111561007557600080fd5b8035906020019184600183028401116401000000008311171561009757600080fd5b91908080601f016020809104026020016040519081016040528093929190818152602001838380828437600081840152601f19601f82011690508083019250505050505050919291929080357bffffffffffffffffffffffffffffffffffffffffffffffffffffffff19169060200190929190505050610114565b005b60008060009054906101000a900473ffffffffffffffffffffffffffffffffffffffff1673ffffffffffffffffffffffffffffffffffffffff1663e2c782a2846040518263ffffffff1660e01b81526004018080602001828103825283818151815260200191508051906020019080838360005b838110156101a3578082015181840152602081019050610188565b50505050905090810190601f1680156101d05780820380516001836020036101000a031916815260200191505b509250505060206040518083038186803b1580156101ed57600080fd5b505afa158015610201573d6000803e3d6000fd5b505050506040513d602081101561021757600080fd5b81019080805190602001909291905050509050600160009054906101000a900473ffffffffffffffffffffffffffffffffffffffff1673ffffffffffffffffffffffffffffffffffffffff166352d7bc96826040518263ffffffff1660e01b8152600401808273ffffffffffffffffffffffffffffffffffffffff168152602001915050600060405180830381600087803b1580156102b557600080fd5b505af11580156102c9573d6000803e3d6000fd5b50505050606060008054906101000a900473ffffffffffffffffffffffffffffffffffffffff1673ffffffffffffffffffffffffffffffffffffffff1663f4845d87856040518263ffffffff1660e01b81526004018080602001828103825283818151815260200191508051906020019080838360005b8381101561035b578082015181840152602081019050610340565b50505050905090810190601f1680156103885780820380516001836020036101000a031916815260200191505b509250505060006040518083038186803b1580156103a557600080fd5b505afa1580156103b9573d6000803e3d6000fd5b505050506040513d6000823e3d601f19601f8201168201806040525060208110156103e357600080fd5b810190808051604051939291908464010000000082111561040357600080fd5b8382019150602082018581111561041957600080fd5b825186600182028301116401000000008211171561043657600080fd5b8083526020830192505050908051906020019080838360005b8381101561046a57808201518184015260208101905061044f565b50505050905090810190601f1680156104975780820380516001836020036101000a031916815260200191505b506040525050509050827bffffffffffffffffffffffffffffffffffffffffffffffffffffffff19163373ffffffffffffffffffffffffffffffffffffffff167f17f69a331dea95f6319f9481b6d49a5c964da1a316b2f91fb275beb5d82924378387604051808060200180602001838103835285818151815260200191508051906020019080838360005b8381101561053e578082015181840152602081019050610523565b50505050905090810190601f16801561056b5780820380516001836020036101000a031916815260200191505b50838103825284818151815260200191508051906020019080838360005b838110156105a4578082015181840152602081019050610589565b50505050905090810190601f1680156105d15780820380516001836020036101000a031916815260200191505b5094505050505060405180910390a35050505056fea26469706673582212206fc74dec661eba5629866411b31844f9fa90597720559cacf873abcb1d9bbe3464736f6c63430007010033",
  "immutableReferences": {},
  "source": "// SPDX-License-Identifier: MIT\r\npragma solidity >=0.7.0;\r\n\r\n// Import User from Repository.sol\r\nimport \"./Repository.sol\";\r\n// Import GLDToken from GLDToken.sol.sol\r\nimport \"./GLDToken.sol\";\r\n\r\ncontract MintReward {\r\n    \r\n    Repository private repo;\r\n    GLDToken private token;\r\n\r\n    event Hash(address indexed _from, string _value, string _slug, bytes4 indexed nonce);\r\n\r\n    constructor(address tokenAddress, address repoAddress) {\r\n        token = GLDToken(tokenAddress);\r\n        repo = Repository(repoAddress);\r\n    }\r\n    \r\n    // Get Repo Name\r\n    function mintReward(string memory _projectSlug, bytes4 nonce) public {\r\n        address repoOwner = repo.getRepoOwner(_projectSlug);\r\n        token.mintMinerReward(repoOwner);\r\n        string memory repoHash = repo.getRepoHash(_projectSlug);\r\n        \r\n        emit Hash(msg.sender, repoHash, _projectSlug, nonce);\r\n    }\r\n}",
  "sourcePath": "C:/Users/jamie/Desktop/Thesis/planetGit/src/contracts/MintReward.sol",
  "compiler": {
    "name": "solc",
    "version": "0.7.1+commit.f4a555be.Emscripten.clang"
  },
  "schemaVersion": "3.2.5",
  "updatedAt": "2020-11-18T09:41:28.522Z",
  "networkType": "ethereum",
  "devdoc": {
    "kind": "dev",
    "methods": {},
    "version": 1
  },
  "userdoc": {
    "kind": "user",
    "methods": {},
    "version": 1
  }
}