{
  "contractName": "Promotions",
  "abi": [
    {
      "inputs": [
        {
          "internalType": "address",
          "name": "tokenAddress",
          "type": "address"
        },
        {
          "internalType": "address",
          "name": "repoAddress",
          "type": "address"
        }
      ],
      "stateMutability": "nonpayable",
      "type": "constructor"
    },
    {
      "anonymous": false,
      "inputs": [
        {
          "indexed": true,
          "internalType": "address",
          "name": "previousOwner",
          "type": "address"
        },
        {
          "indexed": true,
          "internalType": "address",
          "name": "newOwner",
          "type": "address"
        }
      ],
      "name": "OwnershipTransferred",
      "type": "event"
    },
    {
      "anonymous": false,
      "inputs": [
        {
          "indexed": true,
          "internalType": "address",
          "name": "_from",
          "type": "address"
        },
        {
          "indexed": false,
          "internalType": "uint256",
          "name": "price",
          "type": "uint256"
        },
        {
          "indexed": false,
          "internalType": "string",
          "name": "_slug",
          "type": "string"
        },
        {
          "indexed": false,
          "internalType": "uint256",
          "name": "index",
          "type": "uint256"
        },
        {
          "indexed": false,
          "internalType": "string",
          "name": "name",
          "type": "string"
        }
      ],
      "name": "Test",
      "type": "event"
    },
    {
      "anonymous": false,
      "inputs": [
        {
          "components": [
            {
              "components": [
                {
                  "internalType": "address",
                  "name": "owner",
                  "type": "address"
                },
                {
                  "internalType": "string",
                  "name": "repoName",
                  "type": "string"
                },
                {
                  "internalType": "string",
                  "name": "repoHash",
                  "type": "string"
                },
                {
                  "internalType": "bool",
                  "name": "exists",
                  "type": "bool"
                }
              ],
              "internalType": "struct Repository.Repo",
              "name": "promotedRepo",
              "type": "tuple"
            },
            {
              "internalType": "string",
              "name": "imgHash",
              "type": "string"
            },
            {
              "internalType": "uint256",
              "name": "pricePaid",
              "type": "uint256"
            }
          ],
          "indexed": false,
          "internalType": "struct Promotions.promotion",
          "name": "testPromotion",
          "type": "tuple"
        }
      ],
      "name": "Test2",
      "type": "event"
    },
    {
      "inputs": [
        {
          "internalType": "uint256",
          "name": "",
          "type": "uint256"
        }
      ],
      "name": "allRepos",
      "outputs": [
        {
          "internalType": "string",
          "name": "",
          "type": "string"
        }
      ],
      "stateMutability": "view",
      "type": "function",
      "constant": true
    },
    {
      "inputs": [
        {
          "internalType": "string",
          "name": "_projectSlug",
          "type": "string"
        },
        {
          "internalType": "string",
          "name": "_projectName",
          "type": "string"
        },
        {
          "internalType": "string",
          "name": "_repoHash",
          "type": "string"
        }
      ],
      "name": "createRepo",
      "outputs": [],
      "stateMutability": "nonpayable",
      "type": "function"
    },
    {
      "inputs": [],
      "name": "getAllRepos",
      "outputs": [
        {
          "internalType": "string[]",
          "name": "",
          "type": "string[]"
        }
      ],
      "stateMutability": "view",
      "type": "function",
      "constant": true
    },
    {
      "inputs": [
        {
          "internalType": "string",
          "name": "_projectSlug",
          "type": "string"
        }
      ],
      "name": "getRepo",
      "outputs": [
        {
          "components": [
            {
              "internalType": "address",
              "name": "owner",
              "type": "address"
            },
            {
              "internalType": "string",
              "name": "repoName",
              "type": "string"
            },
            {
              "internalType": "string",
              "name": "repoHash",
              "type": "string"
            },
            {
              "internalType": "bool",
              "name": "exists",
              "type": "bool"
            }
          ],
          "internalType": "struct Repository.Repo",
          "name": "",
          "type": "tuple"
        }
      ],
      "stateMutability": "view",
      "type": "function",
      "constant": true
    },
    {
      "inputs": [
        {
          "internalType": "string",
          "name": "_projectSlug",
          "type": "string"
        }
      ],
      "name": "getRepoHash",
      "outputs": [
        {
          "internalType": "string",
          "name": "",
          "type": "string"
        }
      ],
      "stateMutability": "view",
      "type": "function",
      "constant": true
    },
    {
      "inputs": [
        {
          "internalType": "string",
          "name": "_projectSlug",
          "type": "string"
        }
      ],
      "name": "getRepoName",
      "outputs": [
        {
          "internalType": "string",
          "name": "",
          "type": "string"
        }
      ],
      "stateMutability": "view",
      "type": "function",
      "constant": true
    },
    {
      "inputs": [
        {
          "internalType": "string",
          "name": "_projectSlug",
          "type": "string"
        }
      ],
      "name": "getRepoOwner",
      "outputs": [
        {
          "internalType": "address",
          "name": "",
          "type": "address"
        }
      ],
      "stateMutability": "view",
      "type": "function",
      "constant": true
    },
    {
      "inputs": [
        {
          "internalType": "uint256",
          "name": "",
          "type": "uint256"
        }
      ],
      "name": "livePromotions",
      "outputs": [
        {
          "components": [
            {
              "internalType": "address",
              "name": "owner",
              "type": "address"
            },
            {
              "internalType": "string",
              "name": "repoName",
              "type": "string"
            },
            {
              "internalType": "string",
              "name": "repoHash",
              "type": "string"
            },
            {
              "internalType": "bool",
              "name": "exists",
              "type": "bool"
            }
          ],
          "internalType": "struct Repository.Repo",
          "name": "promotedRepo",
          "type": "tuple"
        },
        {
          "internalType": "string",
          "name": "imgHash",
          "type": "string"
        },
        {
          "internalType": "uint256",
          "name": "pricePaid",
          "type": "uint256"
        }
      ],
      "stateMutability": "view",
      "type": "function",
      "constant": true
    },
    {
      "inputs": [],
      "name": "owner",
      "outputs": [
        {
          "internalType": "address",
          "name": "",
          "type": "address"
        }
      ],
      "stateMutability": "view",
      "type": "function",
      "constant": true
    },
    {
      "inputs": [],
      "name": "renounceOwnership",
      "outputs": [],
      "stateMutability": "nonpayable",
      "type": "function"
    },
    {
      "inputs": [
        {
          "internalType": "address",
          "name": "newOwner",
          "type": "address"
        }
      ],
      "name": "transferOwnership",
      "outputs": [],
      "stateMutability": "nonpayable",
      "type": "function"
    },
    {
      "inputs": [
        {
          "internalType": "string",
          "name": "_projectSlug",
          "type": "string"
        }
      ],
      "name": "uniqueRepoSlug",
      "outputs": [
        {
          "internalType": "bool",
          "name": "isUnique",
          "type": "bool"
        }
      ],
      "stateMutability": "view",
      "type": "function",
      "constant": true
    },
    {
      "inputs": [
        {
          "internalType": "string",
          "name": "_projectSlug",
          "type": "string"
        },
        {
          "internalType": "string",
          "name": "_repoHash",
          "type": "string"
        }
      ],
      "name": "updateRepo",
      "outputs": [],
      "stateMutability": "nonpayable",
      "type": "function"
    },
    {
      "inputs": [
        {
          "internalType": "string",
          "name": "_projectSlug",
          "type": "string"
        },
        {
          "internalType": "string",
          "name": "_imgHash",
          "type": "string"
        },
        {
          "internalType": "uint256",
          "name": "_amount",
          "type": "uint256"
        }
      ],
      "name": "createPromotion",
      "outputs": [],
      "stateMutability": "nonpayable",
      "type": "function"
    },
    {
      "inputs": [
        {
          "internalType": "string",
          "name": "_projectSlug",
          "type": "string"
        }
      ],
      "name": "removePromotion",
      "outputs": [],
      "stateMutability": "nonpayable",
      "type": "function"
    },
    {
      "inputs": [],
      "name": "getPrice",
      "outputs": [
        {
          "internalType": "uint256",
          "name": "",
          "type": "uint256"
        }
      ],
      "stateMutability": "view",
      "type": "function",
      "constant": true
    },
    {
      "inputs": [
        {
          "internalType": "string",
          "name": "_projectSlug",
          "type": "string"
        }
      ],
      "name": "getPromotion",
      "outputs": [
        {
          "components": [
            {
              "components": [
                {
                  "internalType": "address",
                  "name": "owner",
                  "type": "address"
                },
                {
                  "internalType": "string",
                  "name": "repoName",
                  "type": "string"
                },
                {
                  "internalType": "string",
                  "name": "repoHash",
                  "type": "string"
                },
                {
                  "internalType": "bool",
                  "name": "exists",
                  "type": "bool"
                }
              ],
              "internalType": "struct Repository.Repo",
              "name": "promotedRepo",
              "type": "tuple"
            },
            {
              "internalType": "string",
              "name": "imgHash",
              "type": "string"
            },
            {
              "internalType": "uint256",
              "name": "pricePaid",
              "type": "uint256"
            }
          ],
          "internalType": "struct Promotions.promotion",
          "name": "",
          "type": "tuple"
        }
      ],
      "stateMutability": "view",
      "type": "function",
      "constant": true
    },
    {
      "inputs": [],
      "name": "getAllPromotions",
      "outputs": [
        {
          "components": [
            {
              "components": [
                {
                  "internalType": "address",
                  "name": "owner",
                  "type": "address"
                },
                {
                  "internalType": "string",
                  "name": "repoName",
                  "type": "string"
                },
                {
                  "internalType": "string",
                  "name": "repoHash",
                  "type": "string"
                },
                {
                  "internalType": "bool",
                  "name": "exists",
                  "type": "bool"
                }
              ],
              "internalType": "struct Repository.Repo",
              "name": "promotedRepo",
              "type": "tuple"
            },
            {
              "internalType": "string",
              "name": "imgHash",
              "type": "string"
            },
            {
              "internalType": "uint256",
              "name": "pricePaid",
              "type": "uint256"
            }
          ],
          "internalType": "struct Promotions.promotion[10]",
          "name": "",
          "type": "tuple[10]"
        }
      ],
      "stateMutability": "view",
      "type": "function",
      "constant": true
    }
  ],
  "bytecode": "0x60806040523480156200001157600080fd5b5060405162002f3b38038062002f3b833981810160405281019062000037919062000214565b8160006200004a620001f560201b60201c565b9050806000806101000a81548173ffffffffffffffffffffffffffffffffffffffff021916908373ffffffffffffffffffffffffffffffffffffffff1602179055508073ffffffffffffffffffffffffffffffffffffffff16600073ffffffffffffffffffffffffffffffffffffffff167f8be0079c531659141344cd1fd0a4f28419497f9722a3daafe3b4186f6b6457e060405160405180910390a35080600160006101000a81548173ffffffffffffffffffffffffffffffffffffffff021916908373ffffffffffffffffffffffffffffffffffffffff1602179055505080600560006101000a81548173ffffffffffffffffffffffffffffffffffffffff021916908373ffffffffffffffffffffffffffffffffffffffff16021790555081600660006101000a81548173ffffffffffffffffffffffffffffffffffffffff021916908373ffffffffffffffffffffffffffffffffffffffff16021790555033604560006101000a81548173ffffffffffffffffffffffffffffffffffffffff021916908373ffffffffffffffffffffffffffffffffffffffff1602179055505050620002a3565b600033905090565b6000815190506200020e8162000289565b92915050565b600080604083850312156200022857600080fd5b60006200023885828601620001fd565b92505060206200024b85828601620001fd565b9150509250929050565b6000620002628262000269565b9050919050565b600073ffffffffffffffffffffffffffffffffffffffff82169050919050565b620002948162000255565b8114620002a057600080fd5b50565b612c8880620002b36000396000f3fe608060405234801561001057600080fd5b50600436106101165760003560e01c806398d5fdca116100a2578063e2c782a211610071578063e2c782a2146102f5578063f2fde38b14610325578063f4845d8714610341578063f5cc98c914610371578063f692603f1461038f57610116565b806398d5fdca1461026f5780639e20505a1461028d578063b4bc07c2146102a9578063ce654d22146102d957610116565b8063715018a6116100e9578063715018a6146101cb5780637f3b156f146101d557806382149bcb146102055780638da5cb5b1461023557806390ec291d1461025357610116565b80630446c5191461011b5780631a54386b1461014b57806339f917801461017b5780634ce9a012146101ad575b600080fd5b6101356004803603810190610130919061211e565b6103ab565b60405161014291906128ff565b60405180910390f35b6101656004803603810190610160919061211e565b61046e565b6040516101729190612a08565b60405180910390f35b61019560048036038101906101909190612322565b61071b565b6040516101a4939291906129c3565b60405180910390f35b6101b561099f565b6040516101c291906128c2565b60405180910390f35b6101d3610c66565b005b6101ef60048036038101906101ea9190612322565b610db9565b6040516101fc91906128ff565b60405180910390f35b61021f600480360381019061021a919061211e565b610e72565b60405161022c91906129a1565b60405180910390f35b61023d61105f565b60405161024a919061284e565b60405180910390f35b61026d600480360381019061026891906121cb565b611088565b005b6102776112e0565b6040516102849190612a2a565b60405180910390f35b6102a760048036038101906102a2919061215f565b6112ea565b005b6102c360048036038101906102be919061211e565b61140d565b6040516102d091906128e4565b60405180910390f35b6102f360048036038101906102ee919061211e565b61145c565b005b61030f600480360381019061030a919061211e565b61145f565b60405161031c919061284e565b60405180910390f35b61033f600480360381019061033a91906120cc565b6114aa565b005b61035b6004803603810190610356919061211e565b61166c565b60405161036891906128ff565b60405180910390f35b6103796117c4565b60405161038691906128a0565b60405180910390f35b6103a960048036038101906103a49190612262565b6118ad565b005b60606002826040516103bd9190612837565b90815260200160405180910390206001018054600181600116156101000203166002900480601f0160208091040260200160405190810160405280929190818152602001828054600181600116156101000203166002900480156104625780601f1061043757610100808354040283529160200191610462565b820191906000526020600020905b81548152906001019060200180831161044557829003601f168201915b50505050509050919050565b610476611d73565b6044826040516104869190612837565b9081526020016040518091039020604051806060016040529081600082016040518060800160405290816000820160009054906101000a900473ffffffffffffffffffffffffffffffffffffffff1673ffffffffffffffffffffffffffffffffffffffff1673ffffffffffffffffffffffffffffffffffffffff168152602001600182018054600181600116156101000203166002900480601f01602080910402602001604051908101604052809291908181526020018280546001816001161561010002031660029004801561059e5780601f106105735761010080835404028352916020019161059e565b820191906000526020600020905b81548152906001019060200180831161058157829003601f168201915b50505050508152602001600282018054600181600116156101000203166002900480601f0160208091040260200160405190810160405280929190818152602001828054600181600116156101000203166002900480156106405780601f1061061557610100808354040283529160200191610640565b820191906000526020600020905b81548152906001019060200180831161062357829003601f168201915b505050505081526020016003820160009054906101000a900460ff1615151515815250508152602001600482018054600181600116156101000203166002900480601f0160208091040260200160405190810160405280929190818152602001828054600181600116156101000203166002900480156107015780601f106106d657610100808354040283529160200191610701565b820191906000526020600020905b8154815290600101906020018083116106e457829003601f168201915b505050505081526020016005820154815250509050919050565b600881600a811061072857fe5b60060201600091509050806000016040518060800160405290816000820160009054906101000a900473ffffffffffffffffffffffffffffffffffffffff1673ffffffffffffffffffffffffffffffffffffffff1673ffffffffffffffffffffffffffffffffffffffff168152602001600182018054600181600116156101000203166002900480601f0160208091040260200160405190810160405280929190818152602001828054600181600116156101000203166002900480156108305780601f1061080557610100808354040283529160200191610830565b820191906000526020600020905b81548152906001019060200180831161081357829003601f168201915b50505050508152602001600282018054600181600116156101000203166002900480601f0160208091040260200160405190810160405280929190818152602001828054600181600116156101000203166002900480156108d25780601f106108a7576101008083540402835291602001916108d2565b820191906000526020600020905b8154815290600101906020018083116108b557829003601f168201915b505050505081526020016003820160009054906101000a900460ff16151515158152505090806004018054600181600116156101000203166002900480601f01602080910402602001604051908101604052809291908181526020018280546001816001161561010002031660029004801561098f5780601f106109645761010080835404028352916020019161098f565b820191906000526020600020905b81548152906001019060200180831161097257829003601f168201915b5050505050908060050154905083565b6109a7611d9a565b6008600a80602002604051908101604052809291906000905b82821015610c5d57838260060201604051806060016040529081600082016040518060800160405290816000820160009054906101000a900473ffffffffffffffffffffffffffffffffffffffff1673ffffffffffffffffffffffffffffffffffffffff1673ffffffffffffffffffffffffffffffffffffffff168152602001600182018054600181600116156101000203166002900480601f016020809104026020016040519081016040528092919081815260200182805460018160011615610100020316600290048015610ad85780601f10610aad57610100808354040283529160200191610ad8565b820191906000526020600020905b815481529060010190602001808311610abb57829003601f168201915b50505050508152602001600282018054600181600116156101000203166002900480601f016020809104026020016040519081016040528092919081815260200182805460018160011615610100020316600290048015610b7a5780601f10610b4f57610100808354040283529160200191610b7a565b820191906000526020600020905b815481529060010190602001808311610b5d57829003601f168201915b505050505081526020016003820160009054906101000a900460ff1615151515815250508152602001600482018054600181600116156101000203166002900480601f016020809104026020016040519081016040528092919081815260200182805460018160011615610100020316600290048015610c3b5780601f10610c1057610100808354040283529160200191610c3b565b820191906000526020600020905b815481529060010190602001808311610c1e57829003601f168201915b50505050508152602001600582015481525050815260200190600101906109c0565b50505050905090565b610c6e611d6b565b73ffffffffffffffffffffffffffffffffffffffff1660008054906101000a900473ffffffffffffffffffffffffffffffffffffffff1673ffffffffffffffffffffffffffffffffffffffff1614610cfb576040517f08c379a0000000000000000000000000000000000000000000000000000000008152600401610cf290612961565b60405180910390fd5b600073ffffffffffffffffffffffffffffffffffffffff1660008054906101000a900473ffffffffffffffffffffffffffffffffffffffff1673ffffffffffffffffffffffffffffffffffffffff167f8be0079c531659141344cd1fd0a4f28419497f9722a3daafe3b4186f6b6457e060405160405180910390a360008060006101000a81548173ffffffffffffffffffffffffffffffffffffffff021916908373ffffffffffffffffffffffffffffffffffffffff160217905550565b60048181548110610dc657fe5b906000526020600020016000915090508054600181600116156101000203166002900480601f016020809104026020016040519081016040528092919081815260200182805460018160011615610100020316600290048015610e6a5780601f10610e3f57610100808354040283529160200191610e6a565b820191906000526020600020905b815481529060010190602001808311610e4d57829003601f168201915b505050505081565b610e7a611dc8565b600282604051610e8a9190612837565b90815260200160405180910390206040518060800160405290816000820160009054906101000a900473ffffffffffffffffffffffffffffffffffffffff1673ffffffffffffffffffffffffffffffffffffffff1673ffffffffffffffffffffffffffffffffffffffff168152602001600182018054600181600116156101000203166002900480601f016020809104026020016040519081016040528092919081815260200182805460018160011615610100020316600290048015610f925780601f10610f6757610100808354040283529160200191610f92565b820191906000526020600020905b815481529060010190602001808311610f7557829003601f168201915b50505050508152602001600282018054600181600116156101000203166002900480601f0160208091040260200160405190810160405280929190818152602001828054600181600116156101000203166002900480156110345780601f1061100957610100808354040283529160200191611034565b820191906000526020600020905b81548152906001019060200180831161101757829003601f168201915b505050505081526020016003820160009054906101000a900460ff1615151515815250509050919050565b60008060009054906101000a900473ffffffffffffffffffffffffffffffffffffffff16905090565b6110918361140d565b156112db5761109e611dc8565b60405180608001604052803373ffffffffffffffffffffffffffffffffffffffff16815260200184815260200183815260200160011515815250905080600360003373ffffffffffffffffffffffffffffffffffffffff1673ffffffffffffffffffffffffffffffffffffffff168152602001908152602001600020856040516111289190612837565b908152602001604051809103902060008201518160000160006101000a81548173ffffffffffffffffffffffffffffffffffffffff021916908373ffffffffffffffffffffffffffffffffffffffff1602179055506020820151816001019080519060200190611199929190611e08565b5060408201518160020190805190602001906111b6929190611e08565b5060608201518160030160006101000a81548160ff021916908315150217905550905050806002856040516111eb9190612837565b908152602001604051809103902060008201518160000160006101000a81548173ffffffffffffffffffffffffffffffffffffffff021916908373ffffffffffffffffffffffffffffffffffffffff160217905550602082015181600101908051906020019061125c929190611e08565b506040820151816002019080519060200190611279929190611e08565b5060608201518160030160006101000a81548160ff0219169083151502179055509050506004849080600181540180825580915050600190039060005260206000200160009091909190915090805190602001906112d8929190611e08565b50505b505050565b6000600754905090565b6002826040516112fa9190612837565b908152602001604051809103902060000160009054906101000a900473ffffffffffffffffffffffffffffffffffffffff1673ffffffffffffffffffffffffffffffffffffffff163373ffffffffffffffffffffffffffffffffffffffff1614156114095780600360003373ffffffffffffffffffffffffffffffffffffffff1673ffffffffffffffffffffffffffffffffffffffff168152602001908152602001600020836040516113ad9190612837565b908152602001604051809103902060020190805190602001906113d1929190611e08565b50806002836040516113e39190612837565b90815260200160405180910390206002019080519060200190611407929190611e08565b505b5050565b6000600115156002836040516114239190612837565b908152602001604051809103902060030160009054906101000a900460ff161515146114525760019050611457565b600090505b919050565b50565b60006002826040516114719190612837565b908152602001604051809103902060000160009054906101000a900473ffffffffffffffffffffffffffffffffffffffff169050919050565b6114b2611d6b565b73ffffffffffffffffffffffffffffffffffffffff1660008054906101000a900473ffffffffffffffffffffffffffffffffffffffff1673ffffffffffffffffffffffffffffffffffffffff161461153f576040517f08c379a000000000000000000000000000000000000000000000000000000000815260040161153690612961565b60405180910390fd5b600073ffffffffffffffffffffffffffffffffffffffff168173ffffffffffffffffffffffffffffffffffffffff1614156115af576040517f08c379a00000000000000000000000000000000000000000000000000000000081526004016115a690612921565b60405180910390fd5b8073ffffffffffffffffffffffffffffffffffffffff1660008054906101000a900473ffffffffffffffffffffffffffffffffffffffff1673ffffffffffffffffffffffffffffffffffffffff167f8be0079c531659141344cd1fd0a4f28419497f9722a3daafe3b4186f6b6457e060405160405180910390a3806000806101000a81548173ffffffffffffffffffffffffffffffffffffffff021916908373ffffffffffffffffffffffffffffffffffffffff16021790555050565b6060611676611d6b565b73ffffffffffffffffffffffffffffffffffffffff1660008054906101000a900473ffffffffffffffffffffffffffffffffffffffff1673ffffffffffffffffffffffffffffffffffffffff1614611703576040517f08c379a00000000000000000000000000000000000000000000000000000000081526004016116fa90612961565b60405180910390fd5b6002826040516117139190612837565b90815260200160405180910390206002018054600181600116156101000203166002900480601f0160208091040260200160405190810160405280929190818152602001828054600181600116156101000203166002900480156117b85780601f1061178d576101008083540402835291602001916117b8565b820191906000526020600020905b81548152906001019060200180831161179b57829003601f168201915b50505050509050919050565b60606004805480602002602001604051908101604052809291908181526020016000905b828210156118a4578382906000526020600020018054600181600116156101000203166002900480601f0160208091040260200160405190810160405280929190818152602001828054600181600116156101000203166002900480156118905780601f1061186557610100808354040283529160200191611890565b820191906000526020600020905b81548152906001019060200180831161187357829003601f168201915b5050505050815260200190600101906117e8565b50505050905090565b60075481116118f1576040517f08c379a00000000000000000000000000000000000000000000000000000000081526004016118e890612981565b60405180910390fd5b60011515600660009054906101000a900473ffffffffffffffffffffffffffffffffffffffff1673ffffffffffffffffffffffffffffffffffffffff166323b872dd3330856040518463ffffffff1660e01b815260040161195493929190612869565b602060405180830381600087803b15801561196e57600080fd5b505af1158015611982573d6000803e3d6000fd5b505050506040513d601f19601f820116820180604052508101906119a691906120f5565b1515146119e8576040517f08c379a00000000000000000000000000000000000000000000000000000000081526004016119df90612941565b60405180910390fd5b6119f0611dc8565b600560009054906101000a900473ffffffffffffffffffffffffffffffffffffffff1673ffffffffffffffffffffffffffffffffffffffff166382149bcb856040518263ffffffff1660e01b8152600401611a4b91906128ff565b60006040518083038186803b158015611a6357600080fd5b505afa158015611a77573d6000803e3d6000fd5b505050506040513d6000823e3d601f19601f82011682018060405250810190611aa091906122e1565b9050604051806060016040528082815260200184815260200183815250604485604051611acd9190612837565b908152602001604051809103902060008201518160000160008201518160000160006101000a81548173ffffffffffffffffffffffffffffffffffffffff021916908373ffffffffffffffffffffffffffffffffffffffff1602179055506020820151816001019080519060200190611b47929190611e08565b506040820151816002019080519060200190611b64929190611e08565b5060608201518160030160006101000a81548160ff02191690831515021790555050506020820151816004019080519060200190611ba3929190611e08565b506040820151816005015590505060008060086000600a8110611bc257fe5b600602016005015490506000600190505b600a811015611c105781600882600a8110611bea57fe5b60060201600501541015611c0357816007819055508092505b8080600101915050611bd3565b50604486604051611c219190612837565b9081526020016040518091039020600883600a8110611c3c57fe5b6006020160008201816000016000820160009054906101000a900473ffffffffffffffffffffffffffffffffffffffff168160000160006101000a81548173ffffffffffffffffffffffffffffffffffffffff021916908373ffffffffffffffffffffffffffffffffffffffff16021790555060018201816001019080546001816001161561010002031660029004611cd6929190611e88565b5060028201816002019080546001816001161561010002031660029004611cfe929190611e88565b506003820160009054906101000a900460ff168160030160006101000a81548160ff021916908315150217905550505060048201816004019080546001816001161561010002031660029004611d55929190611e88565b5060058201548160050155905050505050505050565b600033905090565b6040518060600160405280611d86611dc8565b815260200160608152602001600081525090565b604051806101400160405280600a905b611db2611d73565b815260200190600190039081611daa5790505090565b6040518060800160405280600073ffffffffffffffffffffffffffffffffffffffff16815260200160608152602001606081526020016000151581525090565b828054600181600116156101000203166002900490600052602060002090601f016020900481019282601f10611e4957805160ff1916838001178555611e77565b82800160010185558215611e77579182015b82811115611e76578251825591602001919060010190611e5b565b5b509050611e849190611f0f565b5090565b828054600181600116156101000203166002900490600052602060002090601f016020900481019282601f10611ec15780548555611efe565b82800160010185558215611efe57600052602060002091601f016020900482015b82811115611efd578254825591600101919060010190611ee2565b5b509050611f0b9190611f0f565b5090565b5b80821115611f28576000816000905550600101611f10565b5090565b600081359050611f3b81612c0d565b92915050565b600081519050611f5081612c0d565b92915050565b600081519050611f6581612c24565b92915050565b600082601f830112611f7c57600080fd5b8135611f8f611f8a82612a72565b612a45565b91508082526020830160208301858383011115611fab57600080fd5b611fb6838284612bba565b50505092915050565b600082601f830112611fd057600080fd5b8151611fe3611fde82612a72565b612a45565b91508082526020830160208301858383011115611fff57600080fd5b61200a838284612bc9565b50505092915050565b60006080828403121561202557600080fd5b61202f6080612a45565b9050600061203f84828501611f41565b600083015250602082015167ffffffffffffffff81111561205f57600080fd5b61206b84828501611fbf565b602083015250604082015167ffffffffffffffff81111561208b57600080fd5b61209784828501611fbf565b60408301525060606120ab84828501611f56565b60608301525092915050565b6000813590506120c681612c3b565b92915050565b6000602082840312156120de57600080fd5b60006120ec84828501611f2c565b91505092915050565b60006020828403121561210757600080fd5b600061211584828501611f56565b91505092915050565b60006020828403121561213057600080fd5b600082013567ffffffffffffffff81111561214a57600080fd5b61215684828501611f6b565b91505092915050565b6000806040838503121561217257600080fd5b600083013567ffffffffffffffff81111561218c57600080fd5b61219885828601611f6b565b925050602083013567ffffffffffffffff8111156121b557600080fd5b6121c185828601611f6b565b9150509250929050565b6000806000606084860312156121e057600080fd5b600084013567ffffffffffffffff8111156121fa57600080fd5b61220686828701611f6b565b935050602084013567ffffffffffffffff81111561222357600080fd5b61222f86828701611f6b565b925050604084013567ffffffffffffffff81111561224c57600080fd5b61225886828701611f6b565b9150509250925092565b60008060006060848603121561227757600080fd5b600084013567ffffffffffffffff81111561229157600080fd5b61229d86828701611f6b565b935050602084013567ffffffffffffffff8111156122ba57600080fd5b6122c686828701611f6b565b92505060406122d7868287016120b7565b9150509250925092565b6000602082840312156122f357600080fd5b600082015167ffffffffffffffff81111561230d57600080fd5b61231984828501612013565b91505092915050565b60006020828403121561233457600080fd5b6000612342848285016120b7565b91505092915050565b600061235783836124a8565b905092915050565b600061236b838361276b565b905092915050565b61237c81612b84565b82525050565b61238b81612b3c565b82525050565b61239a81612b3c565b82525050565b60006123ab82612ab8565b6123b58185612af3565b9350836020820285016123c785612a9e565b8060005b8581101561240357848403895281516123e4858261234b565b94506123ef83612ad9565b925060208a019950506001810190506123cb565b50829750879550505050505092915050565b600061242082612ac3565b61242a8185612b04565b93508360208202850161243c85612aae565b8060005b858110156124785784840389528151612459858261235f565b945061246483612ae6565b925060208a01995050600181019050612440565b50829750879550505050505092915050565b61249381612b4e565b82525050565b6124a281612b4e565b82525050565b60006124b382612ace565b6124bd8185612b0f565b93506124cd818560208601612bc9565b6124d681612bfc565b840191505092915050565b60006124ec82612ace565b6124f68185612b20565b9350612506818560208601612bc9565b61250f81612bfc565b840191505092915050565b600061252582612ace565b61252f8185612b31565b935061253f818560208601612bc9565b80840191505092915050565b6000612558602683612b20565b91507f4f776e61626c653a206e6577206f776e657220697320746865207a65726f206160008301527f64647265737300000000000000000000000000000000000000000000000000006020830152604082019050919050565b60006125be601583612b20565b91507f436f756c64206e6f742073656e6420746f6b656e7300000000000000000000006000830152602082019050919050565b60006125fe602083612b20565b91507f4f776e61626c653a2063616c6c6572206973206e6f7420746865206f776e65726000830152602082019050919050565b600061263e602683612b20565b91507f56616c75652073656e74206d7573742062652067726561746572207468616e2060008301527f70726963652e00000000000000000000000000000000000000000000000000006020830152604082019050919050565b60006080830160008301516126af6000860182612382565b50602083015184820360208601526126c782826124a8565b915050604083015184820360408601526126e182826124a8565b91505060608301516126f6606086018261248a565b508091505092915050565b60006080830160008301516127196000860182612382565b506020830151848203602086015261273182826124a8565b9150506040830151848203604086015261274b82826124a8565b9150506060830151612760606086018261248a565b508091505092915050565b600060608301600083015184820360008601526127888282612697565b915050602083015184820360208601526127a282826124a8565b91505060408301516127b76040860182612819565b508091505092915050565b600060608301600083015184820360008601526127df8282612697565b915050602083015184820360208601526127f982826124a8565b915050604083015161280e6040860182612819565b508091505092915050565b61282281612b7a565b82525050565b61283181612b7a565b82525050565b6000612843828461251a565b915081905092915050565b60006020820190506128636000830184612391565b92915050565b600060608201905061287e6000830186612373565b61288b6020830185612391565b6128986040830184612828565b949350505050565b600060208201905081810360008301526128ba81846123a0565b905092915050565b600060208201905081810360008301526128dc8184612415565b905092915050565b60006020820190506128f96000830184612499565b92915050565b6000602082019050818103600083015261291981846124e1565b905092915050565b6000602082019050818103600083015261293a8161254b565b9050919050565b6000602082019050818103600083015261295a816125b1565b9050919050565b6000602082019050818103600083015261297a816125f1565b9050919050565b6000602082019050818103600083015261299a81612631565b9050919050565b600060208201905081810360008301526129bb8184612701565b905092915050565b600060608201905081810360008301526129dd8186612701565b905081810360208301526129f181856124e1565b9050612a006040830184612828565b949350505050565b60006020820190508181036000830152612a2281846127c2565b905092915050565b6000602082019050612a3f6000830184612828565b92915050565b6000604051905081810181811067ffffffffffffffff82111715612a6857600080fd5b8060405250919050565b600067ffffffffffffffff821115612a8957600080fd5b601f19601f8301169050602081019050919050565b6000819050602082019050919050565b6000819050919050565b600081519050919050565b6000600a9050919050565b600081519050919050565b6000602082019050919050565b6000602082019050919050565b600082825260208201905092915050565b600081905092915050565b600082825260208201905092915050565b600082825260208201905092915050565b600081905092915050565b6000612b4782612b5a565b9050919050565b60008115159050919050565b600073ffffffffffffffffffffffffffffffffffffffff82169050919050565b6000819050919050565b6000612b8f82612b96565b9050919050565b6000612ba182612ba8565b9050919050565b6000612bb382612b5a565b9050919050565b82818337600083830152505050565b60005b83811015612be7578082015181840152602081019050612bcc565b83811115612bf6576000848401525b50505050565b6000601f19601f8301169050919050565b612c1681612b3c565b8114612c2157600080fd5b50565b612c2d81612b4e565b8114612c3857600080fd5b50565b612c4481612b7a565b8114612c4f57600080fd5b5056fea2646970667358221220f286372fa8a08bfbe0236ee6c2bc1421c6989d1656b23ee553568e21e5f2c02964736f6c63430007010033",
  "immutableReferences": {},
  "source": "// SPDX-License-Identifier: MIT\r\npragma solidity >=0.7.0;\r\npragma experimental ABIEncoderV2;\r\n\r\nimport \"./Repository.sol\";\r\nimport \"./GLDToken.sol\";\r\nimport \"@openzeppelin/contracts/access/Ownable.sol\";\r\n\r\ncontract Promotions is Repository{\r\n    \r\n    struct promotion{\r\n        Repo promotedRepo;\r\n        string imgHash;\r\n        uint pricePaid;\r\n    }\r\n\r\n    Repository private repo;\r\n    GLDToken private token;\r\n    uint price;\r\n    promotion[10] public livePromotions;\r\n    mapping (string => promotion) promotions;\r\n    address thisOwner; // Contract owner\r\n    \r\n    event Test(address indexed _from, uint price, string _slug, uint index, string name);\r\n    event Test2(promotion testPromotion);\r\n\r\n    constructor(address tokenAddress, address repoAddress) Repository(tokenAddress){\r\n        repo = Repository(repoAddress);\r\n        token = GLDToken(tokenAddress);\r\n        thisOwner = msg.sender;\r\n    }\r\n    \r\n    // Create Promotion\r\n    function createPromotion(string memory _projectSlug, string memory _imgHash, uint _amount) public {\r\n        // Check amount\r\n        require(_amount > price, \"Value sent must be greater than price.\");\r\n\r\n        // send money\r\n        require(token.transferFrom(msg.sender, address(this), _amount) == true, \"Could not send tokens\");\r\n\r\n        // Get Repo\r\n        Repo memory promotedRepo = repo.getRepo(_projectSlug);\r\n\r\n        // Create Promotion\r\n        promotions[_projectSlug] = promotion(promotedRepo, _imgHash, _amount);\r\n\r\n        // Find lowest paid promotion\r\n        uint lowestIndex = 0;\r\n        uint lowestPaid = livePromotions[0].pricePaid;\r\n        for(uint i = 1; i < livePromotions.length; i++){\r\n            if(livePromotions[i].pricePaid < lowestPaid){\r\n                price = lowestPaid;\r\n                lowestIndex = i;\r\n            }\r\n        }\r\n        // Remove lowest paid promotion & Make New Promotion Live\r\n        livePromotions[lowestIndex] = promotions[_projectSlug]; \r\n    }\r\n\r\n    // Remove Promotion\r\n    function removePromotion(string memory _projectSlug) public {   \r\n    }\r\n    // Get Price\r\n    function getPrice() public view returns(uint) {\r\n        return price;\r\n    }\r\n    // Get One Promotion\r\n    function getPromotion(string memory _projectSlug) public view returns(promotion memory) {\r\n        return promotions[_projectSlug];\r\n    }\r\n\r\n    // Get Live Promotions\r\n    function getAllPromotions() public view returns(promotion[10] memory) {\r\n        return livePromotions;\r\n    }\r\n}",
  "sourcePath": "C:/Users/jamie/Desktop/Thesis/planetGit/src/contracts/Promotions.sol",
  "compiler": {
    "name": "solc",
    "version": "0.7.1+commit.f4a555be.Emscripten.clang"
  },
  "schemaVersion": "3.2.5",
  "updatedAt": "2020-11-18T09:41:28.532Z",
  "networkType": "ethereum",
  "devdoc": {
    "kind": "dev",
    "methods": {
      "owner()": {
        "details": "Returns the address of the current owner."
      },
      "renounceOwnership()": {
        "details": "Leaves the contract without owner. It will not be possible to call `onlyOwner` functions anymore. Can only be called by the current owner. NOTE: Renouncing ownership will leave the contract without an owner, thereby removing any functionality that is only available to the owner."
      },
      "transferOwnership(address)": {
        "details": "Transfers ownership of the contract to a new account (`newOwner`). Can only be called by the current owner."
      }
    },
    "version": 1
  },
  "userdoc": {
    "kind": "user",
    "methods": {},
    "version": 1
  }
}