{
  "contractName": "UserContract",
  "abi": [
    {
      "inputs": [
        {
          "internalType": "uint256",
          "name": "",
          "type": "uint256"
        }
      ],
      "name": "allUserAddrs",
      "outputs": [
        {
          "internalType": "address",
          "name": "",
          "type": "address"
        }
      ],
      "stateMutability": "view",
      "type": "function",
      "constant": true
    },
    {
      "inputs": [
        {
          "internalType": "uint256",
          "name": "",
          "type": "uint256"
        }
      ],
      "name": "allUserNames",
      "outputs": [
        {
          "internalType": "string",
          "name": "",
          "type": "string"
        }
      ],
      "stateMutability": "view",
      "type": "function",
      "constant": true
    },
    {
      "inputs": [
        {
          "internalType": "string",
          "name": "_userName",
          "type": "string"
        }
      ],
      "name": "uniqueUsername",
      "outputs": [
        {
          "internalType": "bool",
          "name": "isUnique",
          "type": "bool"
        }
      ],
      "stateMutability": "view",
      "type": "function",
      "constant": true
    },
    {
      "inputs": [
        {
          "internalType": "string",
          "name": "_userName",
          "type": "string"
        },
        {
          "internalType": "string",
          "name": "_imgHash",
          "type": "string"
        }
      ],
      "name": "createUser",
      "outputs": [],
      "stateMutability": "nonpayable",
      "type": "function"
    },
    {
      "inputs": [],
      "name": "getUserName",
      "outputs": [
        {
          "internalType": "string",
          "name": "",
          "type": "string"
        }
      ],
      "stateMutability": "view",
      "type": "function",
      "constant": true
    },
    {
      "inputs": [],
      "name": "getUserImg",
      "outputs": [
        {
          "internalType": "string",
          "name": "",
          "type": "string"
        }
      ],
      "stateMutability": "view",
      "type": "function",
      "constant": true
    },
    {
      "inputs": [],
      "name": "getAllUsers",
      "outputs": [
        {
          "internalType": "string[]",
          "name": "",
          "type": "string[]"
        }
      ],
      "stateMutability": "view",
      "type": "function",
      "constant": true
    }
  ],
  "bytecode": "0x608060405234801561001057600080fd5b50610daa806100206000396000f3fe608060405234801561001057600080fd5b506004361061007d5760003560e01c80636ef8fa3e1161005b5780636ef8fa3e1461010057806387b162b51461011e57806395f4b27c1461013a578063e2842d791461016a5761007d565b806312958f1c146100825780632eabe48c146100a057806350fc3ee2146100d0575b600080fd5b61008a610188565b6040516100979190610bd6565b60405180910390f35b6100ba60048036038101906100b591906109f4565b610269565b6040516100c79190610bd6565b60405180910390f35b6100ea60048036038101906100e59190610947565b610322565b6040516100f79190610bbb565b60405180910390f35b610108610371565b6040516101159190610bd6565b60405180910390f35b61013860048036038101906101339190610988565b610452565b005b610154600480360381019061014f91906109f4565b61071c565b6040516101619190610b7e565b60405180910390f35b610172610758565b60405161017f9190610b99565b60405180910390f35b60606000803373ffffffffffffffffffffffffffffffffffffffff1673ffffffffffffffffffffffffffffffffffffffff1681526020019081526020016000206001018054600181600116156101000203166002900480601f01602080910402602001604051908101604052809291908181526020018280546001816001161561010002031660029004801561025f5780601f106102345761010080835404028352916020019161025f565b820191906000526020600020905b81548152906001019060200180831161024257829003601f168201915b5050505050905090565b6003818154811061027657fe5b906000526020600020016000915090508054600181600116156101000203166002900480601f01602080910402602001604051908101604052809291908181526020018280546001816001161561010002031660029004801561031a5780601f106102ef5761010080835404028352916020019161031a565b820191906000526020600020905b8154815290600101906020018083116102fd57829003601f168201915b505050505081565b6000600115156002836040516103389190610b67565b908152602001604051809103902060030160009054906101000a900460ff16151514610367576001905061036c565b600090505b919050565b60606000803373ffffffffffffffffffffffffffffffffffffffff1673ffffffffffffffffffffffffffffffffffffffff1681526020019081526020016000206002018054600181600116156101000203166002900480601f0160208091040260200160405190810160405280929190818152602001828054600181600116156101000203166002900480156104485780601f1061041d57610100808354040283529160200191610448565b820191906000526020600020905b81548152906001019060200180831161042b57829003601f168201915b5050505050905090565b61045b82610322565b156107185760405180608001604052803373ffffffffffffffffffffffffffffffffffffffff168152602001838152602001828152602001600115158152506000803373ffffffffffffffffffffffffffffffffffffffff1673ffffffffffffffffffffffffffffffffffffffff16815260200190815260200160002060008201518160000160006101000a81548173ffffffffffffffffffffffffffffffffffffffff021916908373ffffffffffffffffffffffffffffffffffffffff160217905550602082015181600101908051906020019061053b929190610841565b506040820151816002019080519060200190610558929190610841565b5060608201518160030160006101000a81548160ff02191690831515021790555090505060405180608001604052803373ffffffffffffffffffffffffffffffffffffffff168152602001838152602001828152602001600115158152506002836040516105c69190610b67565b908152602001604051809103902060008201518160000160006101000a81548173ffffffffffffffffffffffffffffffffffffffff021916908373ffffffffffffffffffffffffffffffffffffffff1602179055506020820151816001019080519060200190610637929190610841565b506040820151816002019080519060200190610654929190610841565b5060608201518160030160006101000a81548160ff0219169083151502179055509050506001339080600181540180825580915050600190039060005260206000200160009091909190916101000a81548173ffffffffffffffffffffffffffffffffffffffff021916908373ffffffffffffffffffffffffffffffffffffffff160217905550600382908060018154018082558091505060019003906000526020600020016000909190919091509080519060200190610716929190610841565b505b5050565b6001818154811061072957fe5b906000526020600020016000915054906101000a900473ffffffffffffffffffffffffffffffffffffffff1681565b60606003805480602002602001604051908101604052809291908181526020016000905b82821015610838578382906000526020600020018054600181600116156101000203166002900480601f0160208091040260200160405190810160405280929190818152602001828054600181600116156101000203166002900480156108245780601f106107f957610100808354040283529160200191610824565b820191906000526020600020905b81548152906001019060200180831161080757829003601f168201915b50505050508152602001906001019061077c565b50505050905090565b828054600181600116156101000203166002900490600052602060002090601f016020900481019282601f1061088257805160ff19168380011785556108b0565b828001600101855582156108b0579182015b828111156108af578251825591602001919060010190610894565b5b5090506108bd91906108c1565b5090565b5b808211156108da5760008160009055506001016108c2565b5090565b600082601f8301126108ef57600080fd5b81356109026108fd82610c25565b610bf8565b9150808252602083016020830185838301111561091e57600080fd5b610929838284610d0a565b50505092915050565b60008135905061094181610d5d565b92915050565b60006020828403121561095957600080fd5b600082013567ffffffffffffffff81111561097357600080fd5b61097f848285016108de565b91505092915050565b6000806040838503121561099b57600080fd5b600083013567ffffffffffffffff8111156109b557600080fd5b6109c1858286016108de565b925050602083013567ffffffffffffffff8111156109de57600080fd5b6109ea858286016108de565b9150509250929050565b600060208284031215610a0657600080fd5b6000610a1484828501610932565b91505092915050565b6000610a298383610ac4565b905092915050565b610a3a81610cc2565b82525050565b6000610a4b82610c61565b610a558185610c84565b935083602082028501610a6785610c51565b8060005b85811015610aa35784840389528151610a848582610a1d565b9450610a8f83610c77565b925060208a01995050600181019050610a6b565b50829750879550505050505092915050565b610abe81610cd4565b82525050565b6000610acf82610c6c565b610ad98185610c95565b9350610ae9818560208601610d19565b610af281610d4c565b840191505092915050565b6000610b0882610c6c565b610b128185610ca6565b9350610b22818560208601610d19565b610b2b81610d4c565b840191505092915050565b6000610b4182610c6c565b610b4b8185610cb7565b9350610b5b818560208601610d19565b80840191505092915050565b6000610b738284610b36565b915081905092915050565b6000602082019050610b936000830184610a31565b92915050565b60006020820190508181036000830152610bb38184610a40565b905092915050565b6000602082019050610bd06000830184610ab5565b92915050565b60006020820190508181036000830152610bf08184610afd565b905092915050565b6000604051905081810181811067ffffffffffffffff82111715610c1b57600080fd5b8060405250919050565b600067ffffffffffffffff821115610c3c57600080fd5b601f19601f8301169050602081019050919050565b6000819050602082019050919050565b600081519050919050565b600081519050919050565b6000602082019050919050565b600082825260208201905092915050565b600082825260208201905092915050565b600082825260208201905092915050565b600081905092915050565b6000610ccd82610ce0565b9050919050565b60008115159050919050565b600073ffffffffffffffffffffffffffffffffffffffff82169050919050565b6000819050919050565b82818337600083830152505050565b60005b83811015610d37578082015181840152602081019050610d1c565b83811115610d46576000848401525b50505050565b6000601f19601f8301169050919050565b610d6681610d00565b8114610d7157600080fd5b5056fea26469706673582212202011d11948ce8fee3038e8ce9c4bf07243513cfaf5b48ed54998ae5331c0b6ff64736f6c63430007010033",
  "immutableReferences": {},
  "source": "// SPDX-License-Identifier: MIT\r\npragma solidity >=0.7.0;\r\npragma experimental ABIEncoderV2;\r\n\r\ncontract UserContract {\r\n    \r\n    struct User {\r\n        address _address;\r\n        string userName;\r\n        string imgHash;\r\n        bool exists;\r\n    }\r\n\r\n    // mapping address to User \r\n    mapping (address => User) UserAddrsMap;\r\n    address[] public allUserAddrs;\r\n    // mapping address to User \r\n    mapping (string => User) userNameMap;\r\n    string[] public allUserNames;\r\n    \r\n    \r\n    // Check Username is unique\r\n    function uniqueUsername(string memory _userName) public view returns(bool isUnique) {\r\n        if(userNameMap[_userName].exists != true){\r\n            return true;\r\n        } else{\r\n            return false;\r\n        }\r\n    }\r\n    // Create User with Img\r\n    function createUser(string memory _userName, string memory _imgHash) public{\r\n        if(uniqueUsername(_userName)){\r\n        UserAddrsMap[msg.sender] = User(msg.sender, _userName, _imgHash, true);\r\n        userNameMap[_userName] = User(msg.sender, _userName, _imgHash, true);\r\n        allUserAddrs.push(msg.sender);\r\n        allUserNames.push(_userName);\r\n        }\r\n    }\r\n    // Get Username with Address function\r\n    function getUserName() public view returns(string memory) {\r\n        return UserAddrsMap[msg.sender].userName;\r\n    }\r\n    // Get User Img with Address function\r\n    function getUserImg() public view returns(string memory) {\r\n        return UserAddrsMap[msg.sender].imgHash;\r\n    }\r\n    // Get All Users\r\n    function getAllUsers() public view returns(string[] memory) {\r\n        return allUserNames;\r\n    }\r\n}",
  "sourcePath": "C:\\Users\\jamie\\Desktop\\Thesis\\planetGit\\src\\contracts\\UserContract.sol",
  "compiler": {
    "name": "solc",
    "version": "0.7.1+commit.f4a555be.Emscripten.clang"
  },
  "schemaVersion": "3.2.5",
  "updatedAt": "2020-10-03T20:46:54.809Z",
  "networkType": "ethereum",
  "devdoc": {
    "kind": "dev",
    "methods": {},
    "version": 1
  },
  "userdoc": {
    "kind": "user",
    "methods": {},
    "version": 1
  }
}