{
  "contractName": "Data",
  "abi": [
    {
      "inputs": [
        {
          "internalType": "uint256",
          "name": "",
          "type": "uint256"
        }
      ],
      "name": "allRepos",
      "outputs": [
        {
          "internalType": "string",
          "name": "",
          "type": "string"
        }
      ],
      "stateMutability": "view",
      "type": "function"
    },
    {
      "inputs": [
        {
          "internalType": "uint256",
          "name": "",
          "type": "uint256"
        }
      ],
      "name": "allUsers",
      "outputs": [
        {
          "internalType": "address",
          "name": "",
          "type": "address"
        }
      ],
      "stateMutability": "view",
      "type": "function"
    },
    {
      "inputs": [
        {
          "internalType": "string",
          "name": "_userName",
          "type": "string"
        }
      ],
      "name": "createUser",
      "outputs": [],
      "stateMutability": "nonpayable",
      "type": "function"
    },
    {
      "inputs": [
        {
          "internalType": "string",
          "name": "_projectSlug",
          "type": "string"
        },
        {
          "internalType": "string",
          "name": "_projectName",
          "type": "string"
        },
        {
          "internalType": "string",
          "name": "_imgHash",
          "type": "string"
        },
        {
          "internalType": "string",
          "name": "_repoHash",
          "type": "string"
        }
      ],
      "name": "createRepo",
      "outputs": [],
      "stateMutability": "nonpayable",
      "type": "function"
    },
    {
      "inputs": [
        {
          "internalType": "string",
          "name": "_projectSlug",
          "type": "string"
        },
        {
          "internalType": "string",
          "name": "_repoHash",
          "type": "string"
        }
      ],
      "name": "updateRepo",
      "outputs": [],
      "stateMutability": "nonpayable",
      "type": "function"
    },
    {
      "inputs": [
        {
          "internalType": "string",
          "name": "_projectSlug",
          "type": "string"
        }
      ],
      "name": "getRepoName",
      "outputs": [
        {
          "internalType": "string",
          "name": "",
          "type": "string"
        }
      ],
      "stateMutability": "view",
      "type": "function"
    },
    {
      "inputs": [
        {
          "internalType": "string",
          "name": "_projectSlug",
          "type": "string"
        }
      ],
      "name": "getRepoImg",
      "outputs": [
        {
          "internalType": "string",
          "name": "",
          "type": "string"
        }
      ],
      "stateMutability": "view",
      "type": "function"
    },
    {
      "inputs": [
        {
          "internalType": "string",
          "name": "_projectSlug",
          "type": "string"
        }
      ],
      "name": "getRepoHash",
      "outputs": [
        {
          "internalType": "string",
          "name": "",
          "type": "string"
        }
      ],
      "stateMutability": "view",
      "type": "function"
    },
    {
      "inputs": [],
      "name": "getUser",
      "outputs": [
        {
          "internalType": "string",
          "name": "",
          "type": "string"
        }
      ],
      "stateMutability": "view",
      "type": "function"
    },
    {
      "inputs": [],
      "name": "getAllUser",
      "outputs": [
        {
          "internalType": "address[]",
          "name": "",
          "type": "address[]"
        }
      ],
      "stateMutability": "view",
      "type": "function"
    }
  ],
  "bytecode": "0x608060405234801561001057600080fd5b50611463806100206000396000f3fe608060405234801561001057600080fd5b506004361061009e5760003560e01c80639e20505a116100665780639e20505a1461041b578063a2bdedf41461056d578063ba4f3243146105c5578063d35fb41114610845578063f4845d87146109795761009e565b80630446c519146100a357806347531df8146101d7578063507ffba5146102365780637f3b156f146102f1578063832880e714610398575b600080fd5b61015c600480360360208110156100b957600080fd5b81019080803590602001906401000000008111156100d657600080fd5b8201836020820111156100e857600080fd5b8035906020019184600183028401116401000000008311171561010a57600080fd5b91908080601f016020809104026020016040519081016040528093929190818152602001838380828437600081840152601f19601f820116905080830192505050505050509192919290505050610aad565b6040518080602001828103825283818151815260200191508051906020019080838360005b8381101561019c578082015181840152602081019050610181565b50505050905090810190601f1680156101c95780820380516001836020036101000a031916815260200191505b509250505060405180910390f35b6101df610bbb565b6040518080602001828103825283818151815260200191508051906020019060200280838360005b83811015610222578082015181840152602081019050610207565b505050509050019250505060405180910390f35b6102ef6004803603602081101561024c57600080fd5b810190808035906020019064010000000081111561026957600080fd5b82018360208201111561027b57600080fd5b8035906020019184600183028401116401000000008311171561029d57600080fd5b91908080601f016020809104026020016040519081016040528093929190818152602001838380828437600081840152601f19601f820116905080830192505050505050509192919290505050610c49565b005b61031d6004803603602081101561030757600080fd5b8101908080359060200190929190505050610d7f565b6040518080602001828103825283818151815260200191508051906020019080838360005b8381101561035d578082015181840152602081019050610342565b50505050905090810190601f16801561038a5780820380516001836020036101000a031916815260200191505b509250505060405180910390f35b6103a0610e38565b6040518080602001828103825283818151815260200191508051906020019080838360005b838110156103e05780820151818401526020810190506103c5565b50505050905090810190601f16801561040d5780820380516001836020036101000a031916815260200191505b509250505060405180910390f35b61056b6004803603604081101561043157600080fd5b810190808035906020019064010000000081111561044e57600080fd5b82018360208201111561046057600080fd5b8035906020019184600183028401116401000000008311171561048257600080fd5b91908080601f016020809104026020016040519081016040528093929190818152602001838380828437600081840152601f19601f820116905080830192505050505050509192919290803590602001906401000000008111156104e557600080fd5b8201836020820111156104f757600080fd5b8035906020019184600183028401116401000000008311171561051957600080fd5b91908080601f016020809104026020016040519081016040528093929190818152602001838380828437600081840152601f19601f820116905080830192505050505050509192919290505050610f19565b005b6105996004803603602081101561058357600080fd5b8101908080359060200190929190505050610fdb565b604051808273ffffffffffffffffffffffffffffffffffffffff16815260200191505060405180910390f35b610843600480360360808110156105db57600080fd5b81019080803590602001906401000000008111156105f857600080fd5b82018360208201111561060a57600080fd5b8035906020019184600183028401116401000000008311171561062c57600080fd5b91908080601f016020809104026020016040519081016040528093929190818152602001838380828437600081840152601f19601f8201169050808301925050505050505091929192908035906020019064010000000081111561068f57600080fd5b8201836020820111156106a157600080fd5b803590602001918460018302840111640100000000831117156106c357600080fd5b91908080601f016020809104026020016040519081016040528093929190818152602001838380828437600081840152601f19601f8201169050808301925050505050505091929192908035906020019064010000000081111561072657600080fd5b82018360208201111561073857600080fd5b8035906020019184600183028401116401000000008311171561075a57600080fd5b91908080601f016020809104026020016040519081016040528093929190818152602001838380828437600081840152601f19601f820116905080830192505050505050509192919290803590602001906401000000008111156107bd57600080fd5b8201836020820111156107cf57600080fd5b803590602001918460018302840111640100000000831117156107f157600080fd5b91908080601f016020809104026020016040519081016040528093929190818152602001838380828437600081840152601f19601f820116905080830192505050505050509192919290505050611017565b005b6108fe6004803603602081101561085b57600080fd5b810190808035906020019064010000000081111561087857600080fd5b82018360208201111561088a57600080fd5b803590602001918460018302840111640100000000831117156108ac57600080fd5b91908080601f016020809104026020016040519081016040528093929190818152602001838380828437600081840152601f19601f820116905080830192505050505050509192919290505050611174565b6040518080602001828103825283818151815260200191508051906020019080838360005b8381101561093e578082015181840152602081019050610923565b50505050905090810190601f16801561096b5780820380516001836020036101000a031916815260200191505b509250505060405180910390f35b610a326004803603602081101561098f57600080fd5b81019080803590602001906401000000008111156109ac57600080fd5b8201836020820111156109be57600080fd5b803590602001918460018302840111640100000000831117156109e057600080fd5b91908080601f016020809104026020016040519081016040528093929190818152602001838380828437600081840152601f19601f820116905080830192505050505050509192919290505050611282565b6040518080602001828103825283818151815260200191508051906020019080838360005b83811015610a72578082015181840152602081019050610a57565b50505050905090810190601f168015610a9f5780820380516001836020036101000a031916815260200191505b509250505060405180910390f35b60606002826040518082805190602001908083835b60208310610ae55780518252602082019150602081019050602083039250610ac2565b6001836020036101000a03801982511681845116808217855250505050505090500191505090815260200160405180910390206000018054600181600116156101000203166002900480601f016020809104026020016040519081016040528092919081815260200182805460018160011615610100020316600290048015610baf5780601f10610b8457610100808354040283529160200191610baf565b820191906000526020600020905b815481529060010190602001808311610b9257829003601f168201915b50505050509050919050565b60606001805480602002602001604051908101604052809291908181526020018280548015610c3f57602002820191906000526020600020905b8160009054906101000a900473ffffffffffffffffffffffffffffffffffffffff1673ffffffffffffffffffffffffffffffffffffffff1681526020019060010190808311610bf5575b5050505050905090565b60405180604001604052803373ffffffffffffffffffffffffffffffffffffffff168152602001828152506000803373ffffffffffffffffffffffffffffffffffffffff1673ffffffffffffffffffffffffffffffffffffffff16815260200190815260200160002060008201518160000160006101000a81548173ffffffffffffffffffffffffffffffffffffffff021916908373ffffffffffffffffffffffffffffffffffffffff1602179055506020820151816001019080519060200190610d15929190611390565b509050506001339080600181540180825580915050600190039060005260206000200160009091909190916101000a81548173ffffffffffffffffffffffffffffffffffffffff021916908373ffffffffffffffffffffffffffffffffffffffff16021790555050565b60048181548110610d8c57fe5b906000526020600020016000915090508054600181600116156101000203166002900480601f016020809104026020016040519081016040528092919081815260200182805460018160011615610100020316600290048015610e305780601f10610e0557610100808354040283529160200191610e30565b820191906000526020600020905b815481529060010190602001808311610e1357829003601f168201915b505050505081565b60606000803373ffffffffffffffffffffffffffffffffffffffff1673ffffffffffffffffffffffffffffffffffffffff1681526020019081526020016000206001018054600181600116156101000203166002900480601f016020809104026020016040519081016040528092919081815260200182805460018160011615610100020316600290048015610f0f5780601f10610ee457610100808354040283529160200191610f0f565b820191906000526020600020905b815481529060010190602001808311610ef257829003601f168201915b5050505050905090565b80600360003373ffffffffffffffffffffffffffffffffffffffff1673ffffffffffffffffffffffffffffffffffffffff168152602001908152602001600020836040518082805190602001908083835b60208310610f8d5780518252602082019150602081019050602083039250610f6a565b6001836020036101000a03801982511681845116808217855250505050505090500191505090815260200160405180910390206002019080519060200190610fd6929190611390565b505050565b60018181548110610fe857fe5b906000526020600020016000915054906101000a900473ffffffffffffffffffffffffffffffffffffffff1681565b604051806060016040528084815260200183815260200182815250600360003373ffffffffffffffffffffffffffffffffffffffff1673ffffffffffffffffffffffffffffffffffffffff168152602001908152602001600020856040518082805190602001908083835b602083106110a55780518252602082019150602081019050602083039250611082565b6001836020036101000a038019825116818451168082178552505050505050905001915050908152602001604051809103902060008201518160000190805190602001906110f4929190611390565b506020820151816001019080519060200190611111929190611390565b50604082015181600201908051906020019061112e929190611390565b5090505060048490806001815401808255809150506001900390600052602060002001600090919091909150908051906020019061116d929190611390565b5050505050565b60606002826040518082805190602001908083835b602083106111ac5780518252602082019150602081019050602083039250611189565b6001836020036101000a03801982511681845116808217855250505050505090500191505090815260200160405180910390206002018054600181600116156101000203166002900480601f0160208091040260200160405190810160405280929190818152602001828054600181600116156101000203166002900480156112765780601f1061124b57610100808354040283529160200191611276565b820191906000526020600020905b81548152906001019060200180831161125957829003601f168201915b50505050509050919050565b60606002826040518082805190602001908083835b602083106112ba5780518252602082019150602081019050602083039250611297565b6001836020036101000a03801982511681845116808217855250505050505090500191505090815260200160405180910390206001018054600181600116156101000203166002900480601f0160208091040260200160405190810160405280929190818152602001828054600181600116156101000203166002900480156113845780601f1061135957610100808354040283529160200191611384565b820191906000526020600020905b81548152906001019060200180831161136757829003601f168201915b50505050509050919050565b828054600181600116156101000203166002900490600052602060002090601f016020900481019282601f106113d157805160ff19168380011785556113ff565b828001600101855582156113ff579182015b828111156113fe5782518255916020019190600101906113e3565b5b50905061140c9190611410565b5090565b5b80821115611429576000816000905550600101611411565b509056fea2646970667358221220c3301f787fe1658232782bb282e6444d22f911d99fc93d9c1534081ebb93e11664736f6c63430007010033",
  "immutableReferences": {},
  "source": "pragma solidity >=0.7.0;\r\n// pragma experimental ABIEncoderV2;\r\n\r\ncontract Data {\r\n    \r\n    struct User {\r\n        address _address;\r\n        string userName;\r\n    }\r\n\r\n    struct Repo {\r\n        string repoName;\r\n        string imgHash;\r\n        string repoHash;\r\n    }\r\n\r\n    // mapping address to User \r\n    mapping (address => User) users;\r\n    address[] public allUsers;\r\n    // mapping address to User to Repo\r\n    mapping (string => Repo) repos;\r\n    // mapping address to User to Repo\r\n    mapping (address => mapping (string => Repo)) userRepos;\r\n    string[] public allRepos;\r\n\r\n    // Create User\r\n    function createUser(string memory _userName) public{\r\n        users[msg.sender] = User(msg.sender, _userName);\r\n        allUsers.push(msg.sender);\r\n    }\r\n    // Create Repo\r\n    function createRepo(string memory _projectSlug, string memory _projectName, string memory _imgHash, string memory _repoHash) public{\r\n        userRepos[msg.sender][_projectSlug] = Repo(_projectName, _imgHash, _repoHash);\r\n        allRepos.push(_projectSlug);\r\n    }\r\n    // Update Repo\r\n    function updateRepo(string memory _projectSlug, string memory _repoHash) public{\r\n        userRepos[msg.sender][_projectSlug].repoHash =  _repoHash;\r\n    }\r\n   // Get Repo Name\r\n    function getRepoName(string memory _projectSlug) public view returns(string memory) {\r\n        return repos[_projectSlug].repoName;\r\n    }\r\n   // Get Repo Img\r\n    function getRepoImg(string memory _projectSlug) public view returns(string memory) {\r\n        return repos[_projectSlug].repoHash;\r\n    }\r\n   // Get Repo Name\r\n    function getRepoHash(string memory _projectSlug) public view returns(string memory) {\r\n        return repos[_projectSlug].imgHash;\r\n    }\r\n    // Get User function\r\n    function getUser() public view returns(string memory) {\r\n        return users[msg.sender].userName;\r\n    }\r\n    // Get All Users\r\n    function getAllUser() public view returns(address[] memory) {\r\n        return allUsers;\r\n    }\r\n    // Get All Users\r\n    // function getAllRepos() public view returns(string[] memory) {\r\n    //     return allRepos;\r\n    // }\r\n}",
  "sourcePath": "C:/Users/jamie/Desktop/Thesis/planetGit/src/contracts/data.sol",
  "compiler": {
    "name": "solc",
    "version": "0.7.1+commit.f4a555be.Emscripten.clang"
  },
  "schemaVersion": "3.2.5",
  "updatedAt": "2020-09-30T05:37:43.295Z",
  "devdoc": {
    "kind": "dev",
    "methods": {},
    "version": 1
  },
  "userdoc": {
    "kind": "user",
    "methods": {},
    "version": 1
  }
}