{
  "contractName": "Data",
  "abi": [
    {
      "inputs": [
        {
          "internalType": "string",
          "name": "_projectName",
          "type": "string"
        }
      ],
      "name": "setName",
      "outputs": [],
      "stateMutability": "nonpayable",
      "type": "function"
    },
    {
      "inputs": [
        {
          "internalType": "string",
          "name": "_projectName",
          "type": "string"
        },
        {
          "internalType": "string",
          "name": "_imgHash",
          "type": "string"
        }
      ],
      "name": "setAll",
      "outputs": [],
      "stateMutability": "nonpayable",
      "type": "function"
    },
    {
      "inputs": [],
      "name": "getName",
      "outputs": [
        {
          "internalType": "string",
          "name": "",
          "type": "string"
        }
      ],
      "stateMutability": "view",
      "type": "function",
      "constant": true
    },
    {
      "inputs": [],
      "name": "getImg",
      "outputs": [
        {
          "internalType": "string",
          "name": "",
          "type": "string"
        }
      ],
      "stateMutability": "view",
      "type": "function",
      "constant": true
    }
  ],
  "bytecode": "0x60806040526040518060600160405280602e81526020016106b8602e913960019080519060200190610032929190610045565b5034801561003f57600080fd5b506100e2565b828054600181600116156101000203166002900490600052602060002090601f016020900481019282601f1061008657805160ff19168380011785556100b4565b828001600101855582156100b4579182015b828111156100b3578251825591602001919060010190610098565b5b5090506100c191906100c5565b5090565b5b808211156100de5760008160009055506001016100c6565b5090565b6105c7806100f16000396000f3fe608060405234801561001057600080fd5b506004361061004c5760003560e01c806317d7de7c146100515780633fed5f5b146100d4578063c47f002714610157578063dd3a797e14610212575b600080fd5b610059610364565b6040518080602001828103825283818151815260200191508051906020019080838360005b8381101561009957808201518184015260208101905061007e565b50505050905090810190601f1680156100c65780820380516001836020036101000a031916815260200191505b509250505060405180910390f35b6100dc610406565b6040518080602001828103825283818151815260200191508051906020019080838360005b8381101561011c578082015181840152602081019050610101565b50505050905090810190601f1680156101495780820380516001836020036101000a031916815260200191505b509250505060405180910390f35b6102106004803603602081101561016d57600080fd5b810190808035906020019064010000000081111561018a57600080fd5b82018360208201111561019c57600080fd5b803590602001918460018302840111640100000000831117156101be57600080fd5b91908080601f016020809104026020016040519081016040528093929190818152602001838380828437600081840152601f19601f8201169050808301925050505050505091929192905050506104a8565b005b6103626004803603604081101561022857600080fd5b810190808035906020019064010000000081111561024557600080fd5b82018360208201111561025757600080fd5b8035906020019184600183028401116401000000008311171561027957600080fd5b91908080601f016020809104026020016040519081016040528093929190818152602001838380828437600081840152601f19601f820116905080830192505050505050509192919290803590602001906401000000008111156102dc57600080fd5b8201836020820111156102ee57600080fd5b8035906020019184600183028401116401000000008311171561031057600080fd5b91908080601f016020809104026020016040519081016040528093929190818152602001838380828437600081840152601f19601f8201169050808301925050505050505091929192905050506104c2565b005b606060008054600181600116156101000203166002900480601f0160208091040260200160405190810160405280929190818152602001828054600181600116156101000203166002900480156103fc5780601f106103d1576101008083540402835291602001916103fc565b820191906000526020600020905b8154815290600101906020018083116103df57829003601f168201915b5050505050905090565b606060018054600181600116156101000203166002900480601f01602080910402602001604051908101604052809291908181526020018280546001816001161561010002031660029004801561049e5780601f106104735761010080835404028352916020019161049e565b820191906000526020600020905b81548152906001019060200180831161048157829003601f168201915b5050505050905090565b80600090805190602001906104be9291906104f4565b5050565b81600090805190602001906104d89291906104f4565b5080600190805190602001906104ef9291906104f4565b505050565b828054600181600116156101000203166002900490600052602060002090601f016020900481019282601f1061053557805160ff1916838001178555610563565b82800160010185558215610563579182015b82811115610562578251825591602001919060010190610547565b5b5090506105709190610574565b5090565b5b8082111561058d576000816000905550600101610575565b509056fea264697066735822122089ded45de42c2355886ad094d953be1499c219bfb251ae64bbe39346243cb4a064736f6c63430007010033516d4e57785056707232366963685356396a4264507246646a505458427835663158514734726f5a74564e726168",
  "immutableReferences": {},
  "source": "pragma solidity >=0.7.0;\r\n\r\ncontract Data {\r\n    string projectName;\r\n    string imgHash = 'QmNWxPVpr26ichSV9jBdPrFdjPTXBx5f1XQG4roZtVNrah';\r\n\r\n    // Write function\r\n    function setName(string memory _projectName) public{\r\n        projectName = _projectName;\r\n    }\r\n    // Write function\r\n    function setAll(string memory _projectName, string memory _imgHash) public{\r\n        projectName = _projectName;\r\n        imgHash = _imgHash;\r\n    }\r\n    // Read function\r\n    function getName() public view returns(string memory) {\r\n        return projectName;\r\n    }\r\n    // Read function\r\n    function getImg() public view returns(string memory) {\r\n        return imgHash;\r\n    }\r\n}",
  "sourcePath": "C:/Users/jamie/Desktop/Thesis/planetGit/src/contracts/data.sol",
  "compiler": {
    "name": "solc",
    "version": "0.7.1+commit.f4a555be.Emscripten.clang"
  },
  "schemaVersion": "3.2.5",
  "updatedAt": "2020-09-27T16:28:40.154Z",
  "networkType": "ethereum",
  "devdoc": {
    "kind": "dev",
    "methods": {},
    "version": 1
  },
  "userdoc": {
    "kind": "user",
    "methods": {},
    "version": 1
  }
}