{
  "contractName": "Data",
  "abi": [
    {
      "inputs": [
        {
          "internalType": "string",
          "name": "_userName",
          "type": "string"
        }
      ],
      "name": "createUser",
      "outputs": [],
      "stateMutability": "nonpayable",
      "type": "function"
    },
    {
      "inputs": [
        {
          "internalType": "string",
          "name": "_projectName",
          "type": "string"
        }
      ],
      "name": "setName",
      "outputs": [],
      "stateMutability": "nonpayable",
      "type": "function"
    },
    {
      "inputs": [
        {
          "internalType": "string",
          "name": "_imgHash",
          "type": "string"
        }
      ],
      "name": "setImg",
      "outputs": [],
      "stateMutability": "nonpayable",
      "type": "function"
    },
    {
      "inputs": [
        {
          "internalType": "string",
          "name": "_repoHash",
          "type": "string"
        }
      ],
      "name": "setRepo",
      "outputs": [],
      "stateMutability": "nonpayable",
      "type": "function"
    },
    {
      "inputs": [
        {
          "internalType": "string",
          "name": "_projectName",
          "type": "string"
        },
        {
          "internalType": "string",
          "name": "_imgHash",
          "type": "string"
        },
        {
          "internalType": "string",
          "name": "_repoHash",
          "type": "string"
        }
      ],
      "name": "setAll",
      "outputs": [],
      "stateMutability": "nonpayable",
      "type": "function"
    },
    {
      "inputs": [],
      "name": "getName",
      "outputs": [
        {
          "internalType": "string",
          "name": "",
          "type": "string"
        }
      ],
      "stateMutability": "view",
      "type": "function",
      "constant": true
    },
    {
      "inputs": [],
      "name": "getImg",
      "outputs": [
        {
          "internalType": "string",
          "name": "",
          "type": "string"
        }
      ],
      "stateMutability": "view",
      "type": "function",
      "constant": true
    },
    {
      "inputs": [],
      "name": "getRepo",
      "outputs": [
        {
          "internalType": "string",
          "name": "",
          "type": "string"
        }
      ],
      "stateMutability": "view",
      "type": "function",
      "constant": true
    },
    {
      "inputs": [],
      "name": "getUser",
      "outputs": [
        {
          "internalType": "string",
          "name": "",
          "type": "string"
        }
      ],
      "stateMutability": "view",
      "type": "function",
      "constant": true
    }
  ],
  "bytecode": "0x60806040526040518060600160405280602e8152602001610d71602e913960029080519060200190610032929190610045565b5034801561003f57600080fd5b506100e2565b828054600181600116156101000203166002900490600052602060002090601f016020900481019282601f1061008657805160ff19168380011785556100b4565b828001600101855582156100b4579182015b828111156100b3578251825591602001919060010190610098565b5b5090506100c191906100c5565b5090565b5b808211156100de5760008160009055506001016100c6565b5090565b610c80806100f16000396000f3fe608060405234801561001057600080fd5b50600436106100935760003560e01c80636ce6e04f116100665780636ce6e04f146102dc578063832880e7146103975780639c4d2ca51461041a578063be1666bc146104d5578063c47f0027146106be57610093565b806317d7de7c146100985780633fed5f5b1461011b578063507ffba51461019e57806357ef65c514610259575b600080fd5b6100a0610779565b6040518080602001828103825283818151815260200191508051906020019080838360005b838110156100e05780820151818401526020810190506100c5565b50505050905090810190601f16801561010d5780820380516001836020036101000a031916815260200191505b509250505060405180910390f35b61012361081b565b6040518080602001828103825283818151815260200191508051906020019080838360005b83811015610163578082015181840152602081019050610148565b50505050905090810190601f1680156101905780820380516001836020036101000a031916815260200191505b509250505060405180910390f35b610257600480360360208110156101b457600080fd5b81019080803590602001906401000000008111156101d157600080fd5b8201836020820111156101e357600080fd5b8035906020019184600183028401116401000000008311171561020557600080fd5b91908080601f016020809104026020016040519081016040528093929190818152602001838380828437600081840152601f19601f8201169050808301925050505050505091929192905050506108bd565b005b610261610991565b6040518080602001828103825283818151815260200191508051906020019080838360005b838110156102a1578082015181840152602081019050610286565b50505050905090810190601f1680156102ce5780820380516001836020036101000a031916815260200191505b509250505060405180910390f35b610395600480360360208110156102f257600080fd5b810190808035906020019064010000000081111561030f57600080fd5b82018360208201111561032157600080fd5b8035906020019184600183028401116401000000008311171561034357600080fd5b91908080601f016020809104026020016040519081016040528093929190818152602001838380828437600081840152601f19601f820116905080830192505050505050509192919290505050610a33565b005b61039f610a4d565b6040518080602001828103825283818151815260200191508051906020019080838360005b838110156103df5780820151818401526020810190506103c4565b50505050905090810190601f16801561040c5780820380516001836020036101000a031916815260200191505b509250505060405180910390f35b6104d36004803603602081101561043057600080fd5b810190808035906020019064010000000081111561044d57600080fd5b82018360208201111561045f57600080fd5b8035906020019184600183028401116401000000008311171561048157600080fd5b91908080601f016020809104026020016040519081016040528093929190818152602001838380828437600081840152601f19601f820116905080830192505050505050509192919290505050610b2f565b005b6106bc600480360360608110156104eb57600080fd5b810190808035906020019064010000000081111561050857600080fd5b82018360208201111561051a57600080fd5b8035906020019184600183028401116401000000008311171561053c57600080fd5b91908080601f016020809104026020016040519081016040528093929190818152602001838380828437600081840152601f19601f8201169050808301925050505050505091929192908035906020019064010000000081111561059f57600080fd5b8201836020820111156105b157600080fd5b803590602001918460018302840111640100000000831117156105d357600080fd5b91908080601f016020809104026020016040519081016040528093929190818152602001838380828437600081840152601f19601f8201169050808301925050505050505091929192908035906020019064010000000081111561063657600080fd5b82018360208201111561064857600080fd5b8035906020019184600183028401116401000000008311171561066a57600080fd5b91908080601f016020809104026020016040519081016040528093929190818152602001838380828437600081840152601f19601f820116905080830192505050505050509192919290505050610b49565b005b610777600480360360208110156106d457600080fd5b81019080803590602001906401000000008111156106f157600080fd5b82018360208201111561070357600080fd5b8035906020019184600183028401116401000000008311171561072557600080fd5b91908080601f016020809104026020016040519081016040528093929190818152602001838380828437600081840152601f19601f820116905080830192505050505050509192919290505050610b93565b005b606060008054600181600116156101000203166002900480601f0160208091040260200160405190810160405280929190818152602001828054600181600116156101000203166002900480156108115780601f106107e657610100808354040283529160200191610811565b820191906000526020600020905b8154815290600101906020018083116107f457829003601f168201915b5050505050905090565b606060028054600181600116156101000203166002900480601f0160208091040260200160405190810160405280929190818152602001828054600181600116156101000203166002900480156108b35780601f10610888576101008083540402835291602001916108b3565b820191906000526020600020905b81548152906001019060200180831161089657829003601f168201915b5050505050905090565b60405180604001604052803373ffffffffffffffffffffffffffffffffffffffff16815260200182815250600360003373ffffffffffffffffffffffffffffffffffffffff1673ffffffffffffffffffffffffffffffffffffffff16815260200190815260200160002060008201518160000160006101000a81548173ffffffffffffffffffffffffffffffffffffffff021916908373ffffffffffffffffffffffffffffffffffffffff160217905550602082015181600101908051906020019061098a929190610bad565b5090505050565b606060018054600181600116156101000203166002900480601f016020809104026020016040519081016040528092919081815260200182805460018160011615610100020316600290048015610a295780601f106109fe57610100808354040283529160200191610a29565b820191906000526020600020905b815481529060010190602001808311610a0c57829003601f168201915b5050505050905090565b8060029080519060200190610a49929190610bad565b5050565b6060600360003373ffffffffffffffffffffffffffffffffffffffff1673ffffffffffffffffffffffffffffffffffffffff1681526020019081526020016000206001018054600181600116156101000203166002900480601f016020809104026020016040519081016040528092919081815260200182805460018160011615610100020316600290048015610b255780601f10610afa57610100808354040283529160200191610b25565b820191906000526020600020905b815481529060010190602001808311610b0857829003601f168201915b5050505050905090565b8060019080519060200190610b45929190610bad565b5050565b8260009080519060200190610b5f929190610bad565b508160029080519060200190610b76929190610bad565b508060019080519060200190610b8d929190610bad565b50505050565b8060009080519060200190610ba9929190610bad565b5050565b828054600181600116156101000203166002900490600052602060002090601f016020900481019282601f10610bee57805160ff1916838001178555610c1c565b82800160010185558215610c1c579182015b82811115610c1b578251825591602001919060010190610c00565b5b509050610c299190610c2d565b5090565b5b80821115610c46576000816000905550600101610c2e565b509056fea2646970667358221220c352ba2bfb4387ba55c8df8a0b077581ef716a599d98cf839337a8b3892dca1a64736f6c63430007010033516d4e57785056707232366963685356396a4264507246646a505458427835663158514734726f5a74564e726168",
  "immutableReferences": {},
  "source": "pragma solidity >=0.7.0;\r\n\r\ncontract Data {\r\n    string projectName;\r\n    string repoHash;\r\n    string imgHash = 'QmNWxPVpr26ichSV9jBdPrFdjPTXBx5f1XQG4roZtVNrah';\r\n    \r\n    struct User {\r\n        address _address;\r\n        string userName;\r\n    }\r\n\r\n    struct Repo {\r\n        string userName;\r\n    }\r\n\r\n    // mapping address to User \r\n    mapping (address => User) users;\r\n\r\n    // Create User\r\n    function createUser(string memory _userName) public{\r\n        users[msg.sender] = User(msg.sender, _userName);\r\n    }\r\n\r\n    // Write Project Name function\r\n    function setName(string memory _projectName) public{\r\n        projectName = _projectName;\r\n    }\r\n    // Write REPO function\r\n    function setImg(string memory _imgHash) public{\r\n        imgHash = _imgHash;\r\n    }\r\n    // Write REPO function\r\n    function setRepo(string memory _repoHash) public{\r\n        repoHash = _repoHash;\r\n    }\r\n    // Write ALL function\r\n    function setAll(string memory _projectName, string memory _imgHash, string memory _repoHash) public{\r\n        projectName = _projectName;\r\n        imgHash = _imgHash;\r\n        repoHash = _repoHash;\r\n    }\r\n    // Read function\r\n    function getName() public view returns(string memory) {\r\n        return projectName;\r\n    }\r\n    // Read function\r\n    function getImg() public view returns(string memory) {\r\n        return imgHash;\r\n    }\r\n    // Read function\r\n    function getRepo() public view returns(string memory) {\r\n        return repoHash;\r\n    }\r\n    // Read function\r\n    function getUser() public view returns(string memory) {\r\n        return users[msg.sender].userName;\r\n    }\r\n}",
  "sourcePath": "C:/Users/jamie/Desktop/Thesis/planetGit/src/contracts/data.sol",
  "compiler": {
    "name": "solc",
    "version": "0.7.1+commit.f4a555be.Emscripten.clang"
  },
  "schemaVersion": "3.2.5",
  "updatedAt": "2020-09-29T06:13:28.100Z",
  "networkType": "ethereum",
  "devdoc": {
    "kind": "dev",
    "methods": {},
    "version": 1
  },
  "userdoc": {
    "kind": "user",
    "methods": {},
    "version": 1
  }
}