{
  "contractName": "Jobs",
  "abi": [
    {
      "inputs": [
        {
          "internalType": "address",
          "name": "tokenAddress",
          "type": "address"
        }
      ],
      "stateMutability": "nonpayable",
      "type": "constructor"
    },
    {
      "anonymous": false,
      "inputs": [
        {
          "indexed": true,
          "internalType": "address",
          "name": "previousOwner",
          "type": "address"
        },
        {
          "indexed": true,
          "internalType": "address",
          "name": "newOwner",
          "type": "address"
        }
      ],
      "name": "OwnershipTransferred",
      "type": "event"
    },
    {
      "inputs": [
        {
          "internalType": "uint256",
          "name": "",
          "type": "uint256"
        }
      ],
      "name": "allJobs",
      "outputs": [
        {
          "internalType": "uint256",
          "name": "id",
          "type": "uint256"
        },
        {
          "internalType": "address",
          "name": "owner",
          "type": "address"
        },
        {
          "internalType": "string",
          "name": "title",
          "type": "string"
        },
        {
          "internalType": "string",
          "name": "description",
          "type": "string"
        },
        {
          "internalType": "bool",
          "name": "monthly",
          "type": "bool"
        },
        {
          "internalType": "uint256",
          "name": "salary",
          "type": "uint256"
        },
        {
          "internalType": "bool",
          "name": "live",
          "type": "bool"
        }
      ],
      "stateMutability": "view",
      "type": "function",
      "constant": true
    },
    {
      "inputs": [],
      "name": "owner",
      "outputs": [
        {
          "internalType": "address",
          "name": "",
          "type": "address"
        }
      ],
      "stateMutability": "view",
      "type": "function",
      "constant": true
    },
    {
      "inputs": [],
      "name": "renounceOwnership",
      "outputs": [],
      "stateMutability": "nonpayable",
      "type": "function"
    },
    {
      "inputs": [
        {
          "internalType": "address",
          "name": "newOwner",
          "type": "address"
        }
      ],
      "name": "transferOwnership",
      "outputs": [],
      "stateMutability": "nonpayable",
      "type": "function"
    },
    {
      "inputs": [
        {
          "internalType": "string",
          "name": "_title",
          "type": "string"
        },
        {
          "internalType": "string",
          "name": "_description",
          "type": "string"
        },
        {
          "internalType": "bool",
          "name": "_monthly",
          "type": "bool"
        },
        {
          "internalType": "uint256",
          "name": "_salary",
          "type": "uint256"
        }
      ],
      "name": "createJob",
      "outputs": [],
      "stateMutability": "nonpayable",
      "type": "function"
    },
    {
      "inputs": [
        {
          "internalType": "uint256",
          "name": "_id",
          "type": "uint256"
        }
      ],
      "name": "removeJob",
      "outputs": [],
      "stateMutability": "nonpayable",
      "type": "function"
    },
    {
      "inputs": [
        {
          "internalType": "uint256",
          "name": "_id",
          "type": "uint256"
        }
      ],
      "name": "getJob",
      "outputs": [
        {
          "components": [
            {
              "internalType": "uint256",
              "name": "id",
              "type": "uint256"
            },
            {
              "internalType": "address",
              "name": "owner",
              "type": "address"
            },
            {
              "internalType": "string",
              "name": "title",
              "type": "string"
            },
            {
              "internalType": "string",
              "name": "description",
              "type": "string"
            },
            {
              "internalType": "bool",
              "name": "monthly",
              "type": "bool"
            },
            {
              "internalType": "uint256",
              "name": "salary",
              "type": "uint256"
            },
            {
              "internalType": "bool",
              "name": "live",
              "type": "bool"
            }
          ],
          "internalType": "struct Jobs.job",
          "name": "",
          "type": "tuple"
        }
      ],
      "stateMutability": "view",
      "type": "function",
      "constant": true
    },
    {
      "inputs": [],
      "name": "getAllJobs",
      "outputs": [
        {
          "components": [
            {
              "internalType": "uint256",
              "name": "id",
              "type": "uint256"
            },
            {
              "internalType": "address",
              "name": "owner",
              "type": "address"
            },
            {
              "internalType": "string",
              "name": "title",
              "type": "string"
            },
            {
              "internalType": "string",
              "name": "description",
              "type": "string"
            },
            {
              "internalType": "bool",
              "name": "monthly",
              "type": "bool"
            },
            {
              "internalType": "uint256",
              "name": "salary",
              "type": "uint256"
            },
            {
              "internalType": "bool",
              "name": "live",
              "type": "bool"
            }
          ],
          "internalType": "struct Jobs.job[]",
          "name": "",
          "type": "tuple[]"
        }
      ],
      "stateMutability": "view",
      "type": "function",
      "constant": true
    }
  ],
  "bytecode": "0x60806040523480156200001157600080fd5b5060405162001d4038038062001d40833981810160405281019062000037919062000156565b6000620000496200013760201b60201c565b9050806000806101000a81548173ffffffffffffffffffffffffffffffffffffffff021916908373ffffffffffffffffffffffffffffffffffffffff1602179055508073ffffffffffffffffffffffffffffffffffffffff16600073ffffffffffffffffffffffffffffffffffffffff167f8be0079c531659141344cd1fd0a4f28419497f9722a3daafe3b4186f6b6457e060405160405180910390a35080600160006101000a81548173ffffffffffffffffffffffffffffffffffffffff021916908373ffffffffffffffffffffffffffffffffffffffff160217905550600060028190555050620001d0565b600033905090565b6000815190506200015081620001b6565b92915050565b6000602082840312156200016957600080fd5b600062000179848285016200013f565b91505092915050565b60006200018f8262000196565b9050919050565b600073ffffffffffffffffffffffffffffffffffffffff82169050919050565b620001c18162000182565b8114620001cd57600080fd5b50565b611b6080620001e06000396000f3fe608060405234801561001057600080fd5b50600436106100885760003560e01c8063965a79fb1161005b578063965a79fb146101075780639cb29cbd14610125578063bf22c45714610141578063f2fde38b1461017157610088565b8063655c098d1461008d578063715018a6146100a95780638da5cb5b146100b357806390c3e979146100d1575b600080fd5b6100a760048036038101906100a2919061130d565b61018d565b005b6100b1610545565b005b6100bb610698565b6040516100c89190611799565b60405180910390f35b6100eb60048036038101906100e691906113a0565b6106c1565b6040516100fe97969594939291906118d8565b60405180910390f35b61010f61087a565b60405161011c9190611814565b60405180910390f35b61013f600480360381019061013a91906113a0565b610abd565b005b61015b600480360381019061015691906113a0565b610c68565b60405161016891906118b6565b60405180910390f35b61018b600480360381019061018691906112bb565b610e79565b005b60011515600160009054906101000a900473ffffffffffffffffffffffffffffffffffffffff1673ffffffffffffffffffffffffffffffffffffffff166323b872dd3330856040518463ffffffff1660e01b81526004016101f0939291906117b4565b602060405180830381600087803b15801561020a57600080fd5b505af115801561021e573d6000803e3d6000fd5b505050506040513d601f19601f8201168201806040525081019061024291906112e4565b151514610284576040517f08c379a000000000000000000000000000000000000000000000000000000000815260040161027b90611876565b60405180910390fd5b6040518060e0016040528060025481526020013373ffffffffffffffffffffffffffffffffffffffff1681526020018581526020018481526020018315158152602001828152602001600115158152506004600060025481526020019081526020016000206000820151816000015560208201518160010160006101000a81548173ffffffffffffffffffffffffffffffffffffffff021916908373ffffffffffffffffffffffffffffffffffffffff1602179055506040820151816002019080519060200190610356929190611098565b506060820151816003019080519060200190610373929190611098565b5060808201518160040160006101000a81548160ff02191690831515021790555060a0820151816005015560c08201518160060160006101000a81548160ff02191690831515021790555090505060036004600060025481526020019081526020016000209080600181540180825580915050600190039060005260206000209060070201600090919091909150600082015481600001556001820160009054906101000a900473ffffffffffffffffffffffffffffffffffffffff168160010160006101000a81548173ffffffffffffffffffffffffffffffffffffffff021916908373ffffffffffffffffffffffffffffffffffffffff16021790555060028201816002019080546001816001161561010002031660029004610499929190611118565b50600382018160030190805460018160011615610100020316600290046104c1929190611118565b506004820160009054906101000a900460ff168160040160006101000a81548160ff021916908315150217905550600582015481600501556006820160009054906101000a900460ff168160060160006101000a81548160ff021916908315150217905550505061053e600160025461103b90919063ffffffff16565b5050505050565b61054d611090565b73ffffffffffffffffffffffffffffffffffffffff1660008054906101000a900473ffffffffffffffffffffffffffffffffffffffff1673ffffffffffffffffffffffffffffffffffffffff16146105da576040517f08c379a00000000000000000000000000000000000000000000000000000000081526004016105d190611896565b60405180910390fd5b600073ffffffffffffffffffffffffffffffffffffffff1660008054906101000a900473ffffffffffffffffffffffffffffffffffffffff1673ffffffffffffffffffffffffffffffffffffffff167f8be0079c531659141344cd1fd0a4f28419497f9722a3daafe3b4186f6b6457e060405160405180910390a360008060006101000a81548173ffffffffffffffffffffffffffffffffffffffff021916908373ffffffffffffffffffffffffffffffffffffffff160217905550565b60008060009054906101000a900473ffffffffffffffffffffffffffffffffffffffff16905090565b600381815481106106ce57fe5b90600052602060002090600702016000915090508060000154908060010160009054906101000a900473ffffffffffffffffffffffffffffffffffffffff1690806002018054600181600116156101000203166002900480601f0160208091040260200160405190810160405280929190818152602001828054600181600116156101000203166002900480156107a65780601f1061077b576101008083540402835291602001916107a6565b820191906000526020600020905b81548152906001019060200180831161078957829003601f168201915b505050505090806003018054600181600116156101000203166002900480601f0160208091040260200160405190810160405280929190818152602001828054600181600116156101000203166002900480156108445780601f1061081957610100808354040283529160200191610844565b820191906000526020600020905b81548152906001019060200180831161082757829003601f168201915b5050505050908060040160009054906101000a900460ff16908060050154908060060160009054906101000a900460ff16905087565b60606003805480602002602001604051908101604052809291908181526020016000905b82821015610ab457838290600052602060002090600702016040518060e0016040529081600082015481526020016001820160009054906101000a900473ffffffffffffffffffffffffffffffffffffffff1673ffffffffffffffffffffffffffffffffffffffff1673ffffffffffffffffffffffffffffffffffffffff168152602001600282018054600181600116156101000203166002900480601f0160208091040260200160405190810160405280929190818152602001828054600181600116156101000203166002900480156109ba5780601f1061098f576101008083540402835291602001916109ba565b820191906000526020600020905b81548152906001019060200180831161099d57829003601f168201915b50505050508152602001600382018054600181600116156101000203166002900480601f016020809104026020016040519081016040528092919081815260200182805460018160011615610100020316600290048015610a5c5780601f10610a3157610100808354040283529160200191610a5c565b820191906000526020600020905b815481529060010190602001808311610a3f57829003601f168201915b505050505081526020016004820160009054906101000a900460ff16151515158152602001600582015481526020016006820160009054906101000a900460ff1615151515815250508152602001906001019061089e565b50505050905090565b6004600082815260200190815260200160002060010160009054906101000a900473ffffffffffffffffffffffffffffffffffffffff1673ffffffffffffffffffffffffffffffffffffffff163373ffffffffffffffffffffffffffffffffffffffff1614610b2b57600080fd5b60011515600160009054906101000a900473ffffffffffffffffffffffffffffffffffffffff1673ffffffffffffffffffffffffffffffffffffffff1663a9059cbb3360046000868152602001908152602001600020600501546040518363ffffffff1660e01b8152600401610ba29291906117eb565b602060405180830381600087803b158015610bbc57600080fd5b505af1158015610bd0573d6000803e3d6000fd5b505050506040513d601f19601f82011682018060405250810190610bf491906112e4565b151514610c36576040517f08c379a0000000000000000000000000000000000000000000000000000000008152600401610c2d90611876565b60405180910390fd5b60006004600083815260200190815260200160002060060160006101000a81548160ff02191690831515021790555050565b610c7061119f565b600460008381526020019081526020016000206040518060e0016040529081600082015481526020016001820160009054906101000a900473ffffffffffffffffffffffffffffffffffffffff1673ffffffffffffffffffffffffffffffffffffffff1673ffffffffffffffffffffffffffffffffffffffff168152602001600282018054600181600116156101000203166002900480601f016020809104026020016040519081016040528092919081815260200182805460018160011615610100020316600290048015610d875780601f10610d5c57610100808354040283529160200191610d87565b820191906000526020600020905b815481529060010190602001808311610d6a57829003601f168201915b50505050508152602001600382018054600181600116156101000203166002900480601f016020809104026020016040519081016040528092919081815260200182805460018160011615610100020316600290048015610e295780601f10610dfe57610100808354040283529160200191610e29565b820191906000526020600020905b815481529060010190602001808311610e0c57829003601f168201915b505050505081526020016004820160009054906101000a900460ff16151515158152602001600582015481526020016006820160009054906101000a900460ff1615151515815250509050919050565b610e81611090565b73ffffffffffffffffffffffffffffffffffffffff1660008054906101000a900473ffffffffffffffffffffffffffffffffffffffff1673ffffffffffffffffffffffffffffffffffffffff1614610f0e576040517f08c379a0000000000000000000000000000000000000000000000000000000008152600401610f0590611896565b60405180910390fd5b600073ffffffffffffffffffffffffffffffffffffffff168173ffffffffffffffffffffffffffffffffffffffff161415610f7e576040517f08c379a0000000000000000000000000000000000000000000000000000000008152600401610f7590611836565b60405180910390fd5b8073ffffffffffffffffffffffffffffffffffffffff1660008054906101000a900473ffffffffffffffffffffffffffffffffffffffff1673ffffffffffffffffffffffffffffffffffffffff167f8be0079c531659141344cd1fd0a4f28419497f9722a3daafe3b4186f6b6457e060405160405180910390a3806000806101000a81548173ffffffffffffffffffffffffffffffffffffffff021916908373ffffffffffffffffffffffffffffffffffffffff16021790555050565b600080828401905083811015611086576040517f08c379a000000000000000000000000000000000000000000000000000000000815260040161107d90611856565b60405180910390fd5b8091505092915050565b600033905090565b828054600181600116156101000203166002900490600052602060002090601f016020900481019282601f106110d957805160ff1916838001178555611107565b82800160010185558215611107579182015b828111156111065782518255916020019190600101906110eb565b5b50905061111491906111f6565b5090565b828054600181600116156101000203166002900490600052602060002090601f016020900481019282601f10611151578054855561118e565b8280016001018555821561118e57600052602060002091601f016020900482015b8281111561118d578254825591600101919060010190611172565b5b50905061119b91906111f6565b5090565b6040518060e0016040528060008152602001600073ffffffffffffffffffffffffffffffffffffffff1681526020016060815260200160608152602001600015158152602001600081526020016000151581525090565b5b8082111561120f5760008160009055506001016111f7565b5090565b60008135905061122281611ae5565b92915050565b60008135905061123781611afc565b92915050565b60008151905061124c81611afc565b92915050565b600082601f83011261126357600080fd5b813561127661127182611982565b611955565b9150808252602083016020830185838301111561129257600080fd5b61129d838284611a92565b50505092915050565b6000813590506112b581611b13565b92915050565b6000602082840312156112cd57600080fd5b60006112db84828501611213565b91505092915050565b6000602082840312156112f657600080fd5b60006113048482850161123d565b91505092915050565b6000806000806080858703121561132357600080fd5b600085013567ffffffffffffffff81111561133d57600080fd5b61134987828801611252565b945050602085013567ffffffffffffffff81111561136657600080fd5b61137287828801611252565b935050604061138387828801611228565b9250506060611394878288016112a6565b91505092959194509250565b6000602082840312156113b257600080fd5b60006113c0848285016112a6565b91505092915050565b60006113d58383611635565b905092915050565b6113e681611a5c565b82525050565b6113f581611a14565b82525050565b61140481611a14565b82525050565b6000611415826119be565b61141f81856119e1565b935083602082028501611431856119ae565b8060005b8581101561146d578484038952815161144e85826113c9565b9450611459836119d4565b925060208a01995050600181019050611435565b50829750879550505050505092915050565b61148881611a26565b82525050565b61149781611a26565b82525050565b60006114a8826119c9565b6114b281856119f2565b93506114c2818560208601611aa1565b6114cb81611ad4565b840191505092915050565b60006114e1826119c9565b6114eb8185611a03565b93506114fb818560208601611aa1565b61150481611ad4565b840191505092915050565b600061151c602683611a03565b91507f4f776e61626c653a206e6577206f776e657220697320746865207a65726f206160008301527f64647265737300000000000000000000000000000000000000000000000000006020830152604082019050919050565b6000611582601b83611a03565b91507f536166654d6174683a206164646974696f6e206f766572666c6f7700000000006000830152602082019050919050565b60006115c2601583611a03565b91507f436f756c64206e6f742073656e6420746f6b656e7300000000000000000000006000830152602082019050919050565b6000611602602083611a03565b91507f4f776e61626c653a2063616c6c6572206973206e6f7420746865206f776e65726000830152602082019050919050565b600060e08301600083015161164d600086018261177b565b50602083015161166060208601826113ec565b5060408301518482036040860152611678828261149d565b91505060608301518482036060860152611692828261149d565b91505060808301516116a7608086018261147f565b5060a08301516116ba60a086018261177b565b5060c08301516116cd60c086018261147f565b508091505092915050565b600060e0830160008301516116f0600086018261177b565b50602083015161170360208601826113ec565b506040830151848203604086015261171b828261149d565b91505060608301518482036060860152611735828261149d565b915050608083015161174a608086018261147f565b5060a083015161175d60a086018261177b565b5060c083015161177060c086018261147f565b508091505092915050565b61178481611a52565b82525050565b61179381611a52565b82525050565b60006020820190506117ae60008301846113fb565b92915050565b60006060820190506117c960008301866113dd565b6117d660208301856113fb565b6117e3604083018461178a565b949350505050565b600060408201905061180060008301856113dd565b61180d602083018461178a565b9392505050565b6000602082019050818103600083015261182e818461140a565b905092915050565b6000602082019050818103600083015261184f8161150f565b9050919050565b6000602082019050818103600083015261186f81611575565b9050919050565b6000602082019050818103600083015261188f816115b5565b9050919050565b600060208201905081810360008301526118af816115f5565b9050919050565b600060208201905081810360008301526118d081846116d8565b905092915050565b600060e0820190506118ed600083018a61178a565b6118fa60208301896113fb565b818103604083015261190c81886114d6565b9050818103606083015261192081876114d6565b905061192f608083018661148e565b61193c60a083018561178a565b61194960c083018461148e565b98975050505050505050565b6000604051905081810181811067ffffffffffffffff8211171561197857600080fd5b8060405250919050565b600067ffffffffffffffff82111561199957600080fd5b601f19601f8301169050602081019050919050565b6000819050602082019050919050565b600081519050919050565b600081519050919050565b6000602082019050919050565b600082825260208201905092915050565b600082825260208201905092915050565b600082825260208201905092915050565b6000611a1f82611a32565b9050919050565b60008115159050919050565b600073ffffffffffffffffffffffffffffffffffffffff82169050919050565b6000819050919050565b6000611a6782611a6e565b9050919050565b6000611a7982611a80565b9050919050565b6000611a8b82611a32565b9050919050565b82818337600083830152505050565b60005b83811015611abf578082015181840152602081019050611aa4565b83811115611ace576000848401525b50505050565b6000601f19601f8301169050919050565b611aee81611a14565b8114611af957600080fd5b50565b611b0581611a26565b8114611b1057600080fd5b50565b611b1c81611a52565b8114611b2757600080fd5b5056fea264697066735822122006cfb83fadb85846b031c0f5dbfd56763f220c512993b90672f307dc2ddd101364736f6c63430007010033",
  "immutableReferences": {},
  "source": "// SPDX-License-Identifier: MIT\r\npragma solidity >=0.7.0;\r\npragma experimental ABIEncoderV2;\r\n\r\nimport \"./Repository.sol\";\r\nimport \"./GLDToken.sol\";\r\nimport \"@openzeppelin/contracts/access/Ownable.sol\";\r\nimport \"@openzeppelin/contracts/math/SafeMath.sol\"; \r\n\r\ncontract Jobs is Ownable {\r\n    using SafeMath for uint256;\r\n    \r\n    struct job{\r\n        uint id;\r\n        address owner;\r\n        string title;\r\n        string description;\r\n        bool monthly;\r\n        uint salary;\r\n        bool live;\r\n    }\r\n\r\n    GLDToken private token;\r\n    uint index;\r\n    job[] public allJobs;\r\n    // mapping repo slug to Repo\r\n    mapping (uint => job) jobsMap;\r\n\r\n    constructor(address tokenAddress){\r\n        token = GLDToken(tokenAddress);\r\n        index = 0;\r\n    }\r\n    \r\n    // Create Promotion\r\n    function createJob(string memory _title, string memory _description, bool _monthly, uint _salary) public {\r\n       \r\n        // Stake salary\r\n        require(token.transferFrom(msg.sender, address(this), _salary) == true, \"Could not send tokens\");\r\n\r\n        // Create Job\r\n        jobsMap[index] = job(index, msg.sender, _title, _description, _monthly, _salary, true);\r\n        allJobs.push(jobsMap[index]);\r\n        index.add(1);\r\n    }\r\n\r\n    // Remove Promotion\r\n    function removeJob(uint _id) public {\r\n       require(msg.sender == jobsMap[_id].owner);\r\n       \r\n        // Release Salary Stake \r\n        require(token.transfer(msg.sender, jobsMap[_id].salary) == true, \"Could not send tokens\");\r\n        jobsMap[_id].live = false;\r\n    }\r\n\r\n    // Get One Jobs\r\n    function getJob(uint _id) public view returns(job memory) {\r\n        return jobsMap[_id];\r\n    }\r\n    // Get All Jobs\r\n    function getAllJobs() public view returns(job[] memory) {\r\n        return allJobs;\r\n    }\r\n}",
  "sourcePath": "C:/Users/jamie/Desktop/Thesis/planetGit/src/contracts/Jobs.sol",
  "compiler": {
    "name": "solc",
    "version": "0.7.1+commit.f4a555be.Emscripten.clang"
  },
  "schemaVersion": "3.2.5",
  "updatedAt": "2020-11-04T08:59:59.991Z",
  "networkType": "ethereum",
  "devdoc": {
    "kind": "dev",
    "methods": {
      "owner()": {
        "details": "Returns the address of the current owner."
      },
      "renounceOwnership()": {
        "details": "Leaves the contract without owner. It will not be possible to call `onlyOwner` functions anymore. Can only be called by the current owner. NOTE: Renouncing ownership will leave the contract without an owner, thereby removing any functionality that is only available to the owner."
      },
      "transferOwnership(address)": {
        "details": "Transfers ownership of the contract to a new account (`newOwner`). Can only be called by the current owner."
      }
    },
    "version": 1
  },
  "userdoc": {
    "kind": "user",
    "methods": {},
    "version": 1
  }
}