{
  "contractName": "Jobs",
  "abi": [
    {
      "inputs": [
        {
          "internalType": "address",
          "name": "tokenAddress",
          "type": "address"
        }
      ],
      "stateMutability": "nonpayable",
      "type": "constructor"
    },
    {
      "anonymous": false,
      "inputs": [
        {
          "indexed": true,
          "internalType": "address",
          "name": "previousOwner",
          "type": "address"
        },
        {
          "indexed": true,
          "internalType": "address",
          "name": "newOwner",
          "type": "address"
        }
      ],
      "name": "OwnershipTransferred",
      "type": "event"
    },
    {
      "inputs": [
        {
          "internalType": "uint256",
          "name": "",
          "type": "uint256"
        }
      ],
      "name": "allJobs",
      "outputs": [
        {
          "internalType": "address",
          "name": "owner",
          "type": "address"
        },
        {
          "internalType": "string",
          "name": "title",
          "type": "string"
        },
        {
          "internalType": "string",
          "name": "description",
          "type": "string"
        },
        {
          "internalType": "bool",
          "name": "monthly",
          "type": "bool"
        },
        {
          "internalType": "uint256",
          "name": "salary",
          "type": "uint256"
        }
      ],
      "stateMutability": "view",
      "type": "function",
      "constant": true
    },
    {
      "inputs": [],
      "name": "owner",
      "outputs": [
        {
          "internalType": "address",
          "name": "",
          "type": "address"
        }
      ],
      "stateMutability": "view",
      "type": "function",
      "constant": true
    },
    {
      "inputs": [],
      "name": "renounceOwnership",
      "outputs": [],
      "stateMutability": "nonpayable",
      "type": "function"
    },
    {
      "inputs": [
        {
          "internalType": "address",
          "name": "newOwner",
          "type": "address"
        }
      ],
      "name": "transferOwnership",
      "outputs": [],
      "stateMutability": "nonpayable",
      "type": "function"
    },
    {
      "inputs": [
        {
          "internalType": "string",
          "name": "_title",
          "type": "string"
        },
        {
          "internalType": "string",
          "name": "_description",
          "type": "string"
        },
        {
          "internalType": "bool",
          "name": "_monthly",
          "type": "bool"
        },
        {
          "internalType": "uint256",
          "name": "_salary",
          "type": "uint256"
        }
      ],
      "name": "createJob",
      "outputs": [],
      "stateMutability": "nonpayable",
      "type": "function"
    },
    {
      "inputs": [
        {
          "internalType": "string",
          "name": "_projectSlug",
          "type": "string"
        }
      ],
      "name": "removeJob",
      "outputs": [],
      "stateMutability": "nonpayable",
      "type": "function"
    },
    {
      "inputs": [
        {
          "internalType": "string",
          "name": "_title",
          "type": "string"
        }
      ],
      "name": "getJob",
      "outputs": [
        {
          "components": [
            {
              "internalType": "address",
              "name": "owner",
              "type": "address"
            },
            {
              "internalType": "string",
              "name": "title",
              "type": "string"
            },
            {
              "internalType": "string",
              "name": "description",
              "type": "string"
            },
            {
              "internalType": "bool",
              "name": "monthly",
              "type": "bool"
            },
            {
              "internalType": "uint256",
              "name": "salary",
              "type": "uint256"
            }
          ],
          "internalType": "struct Jobs.job",
          "name": "",
          "type": "tuple"
        }
      ],
      "stateMutability": "view",
      "type": "function",
      "constant": true
    },
    {
      "inputs": [],
      "name": "getAllJobs",
      "outputs": [
        {
          "components": [
            {
              "internalType": "address",
              "name": "owner",
              "type": "address"
            },
            {
              "internalType": "string",
              "name": "title",
              "type": "string"
            },
            {
              "internalType": "string",
              "name": "description",
              "type": "string"
            },
            {
              "internalType": "bool",
              "name": "monthly",
              "type": "bool"
            },
            {
              "internalType": "uint256",
              "name": "salary",
              "type": "uint256"
            }
          ],
          "internalType": "struct Jobs.job[]",
          "name": "",
          "type": "tuple[]"
        }
      ],
      "stateMutability": "view",
      "type": "function",
      "constant": true
    }
  ],
  "bytecode": "0x60806040523480156200001157600080fd5b50604051620019fd380380620019fd83398181016040528101906200003791906200014e565b6000620000496200012f60201b60201c565b9050806000806101000a81548173ffffffffffffffffffffffffffffffffffffffff021916908373ffffffffffffffffffffffffffffffffffffffff1602179055508073ffffffffffffffffffffffffffffffffffffffff16600073ffffffffffffffffffffffffffffffffffffffff167f8be0079c531659141344cd1fd0a4f28419497f9722a3daafe3b4186f6b6457e060405160405180910390a35080600160006101000a81548173ffffffffffffffffffffffffffffffffffffffff021916908373ffffffffffffffffffffffffffffffffffffffff16021790555050620001c8565b600033905090565b6000815190506200014881620001ae565b92915050565b6000602082840312156200016157600080fd5b6000620001718482850162000137565b91505092915050565b600062000187826200018e565b9050919050565b600073ffffffffffffffffffffffffffffffffffffffff82169050919050565b620001b9816200017a565b8114620001c557600080fd5b50565b61182580620001d86000396000f3fe608060405234801561001057600080fd5b50600436106100885760003560e01c806390c3e9791161005b57806390c3e97914610101578063965a79fb14610135578063d639965414610153578063f2fde38b1461016f57610088565b8063655c098d1461008d578063715018a6146100a957806377e32407146100b35780638da5cb5b146100e3575b600080fd5b6100a760048036038101906100a29190611070565b61018b565b005b6100b16104cc565b005b6100cd60048036038101906100c8919061102f565b61061f565b6040516100da91906115ed565b60405180910390f35b6100eb610816565b6040516100f891906114b8565b60405180910390f35b61011b60048036038101906101169190611103565b61083f565b60405161012c95949392919061150a565b60405180910390f35b61013d6109df565b60405161014a919061156b565b60405180910390f35b61016d6004803603810190610168919061102f565b610bfd565b005b61018960048036038101906101849190610fdd565b610c00565b005b60011515600160009054906101000a900473ffffffffffffffffffffffffffffffffffffffff1673ffffffffffffffffffffffffffffffffffffffff166323b872dd3330856040518463ffffffff1660e01b81526004016101ee939291906114d3565b602060405180830381600087803b15801561020857600080fd5b505af115801561021c573d6000803e3d6000fd5b505050506040513d601f19601f820116820180604052508101906102409190611006565b151514610282576040517f08c379a0000000000000000000000000000000000000000000000000000000008152600401610279906115ad565b60405180910390fd5b6040518060a001604052803373ffffffffffffffffffffffffffffffffffffffff1681526020018581526020018481526020018315158152602001828152506004856040516102d191906114a1565b908152602001604051809103902060008201518160000160006101000a81548173ffffffffffffffffffffffffffffffffffffffff021916908373ffffffffffffffffffffffffffffffffffffffff1602179055506020820151816001019080519060200190610342929190610dca565b50604082015181600201908051906020019061035f929190610dca565b5060608201518160030160006101000a81548160ff02191690831515021790555060808201518160040155905050600360048560405161039f91906114a1565b908152602001604051809103902090806001815401808255809150506001900390600052602060002090600502016000909190919091506000820160009054906101000a900473ffffffffffffffffffffffffffffffffffffffff168160000160006101000a81548173ffffffffffffffffffffffffffffffffffffffff021916908373ffffffffffffffffffffffffffffffffffffffff16021790555060018201816001019080546001816001161561010002031660029004610464929190610e4a565b506002820181600201908054600181600116156101000203166002900461048c929190610e4a565b506003820160009054906101000a900460ff168160030160006101000a81548160ff02191690831515021790555060048201548160040155505050505050565b6104d4610dc2565b73ffffffffffffffffffffffffffffffffffffffff1660008054906101000a900473ffffffffffffffffffffffffffffffffffffffff1673ffffffffffffffffffffffffffffffffffffffff1614610561576040517f08c379a0000000000000000000000000000000000000000000000000000000008152600401610558906115cd565b60405180910390fd5b600073ffffffffffffffffffffffffffffffffffffffff1660008054906101000a900473ffffffffffffffffffffffffffffffffffffffff1673ffffffffffffffffffffffffffffffffffffffff167f8be0079c531659141344cd1fd0a4f28419497f9722a3daafe3b4186f6b6457e060405160405180910390a360008060006101000a81548173ffffffffffffffffffffffffffffffffffffffff021916908373ffffffffffffffffffffffffffffffffffffffff160217905550565b610627610ed1565b60048260405161063791906114a1565b90815260200160405180910390206040518060a00160405290816000820160009054906101000a900473ffffffffffffffffffffffffffffffffffffffff1673ffffffffffffffffffffffffffffffffffffffff1673ffffffffffffffffffffffffffffffffffffffff168152602001600182018054600181600116156101000203166002900480601f01602080910402602001604051908101604052809291908181526020018280546001816001161561010002031660029004801561073f5780601f106107145761010080835404028352916020019161073f565b820191906000526020600020905b81548152906001019060200180831161072257829003601f168201915b50505050508152602001600282018054600181600116156101000203166002900480601f0160208091040260200160405190810160405280929190818152602001828054600181600116156101000203166002900480156107e15780601f106107b6576101008083540402835291602001916107e1565b820191906000526020600020905b8154815290600101906020018083116107c457829003601f168201915b505050505081526020016003820160009054906101000a900460ff161515151581526020016004820154815250509050919050565b60008060009054906101000a900473ffffffffffffffffffffffffffffffffffffffff16905090565b6003818154811061084c57fe5b90600052602060002090600502016000915090508060000160009054906101000a900473ffffffffffffffffffffffffffffffffffffffff1690806001018054600181600116156101000203166002900480601f01602080910402602001604051908101604052809291908181526020018280546001816001161561010002031660029004801561091e5780601f106108f35761010080835404028352916020019161091e565b820191906000526020600020905b81548152906001019060200180831161090157829003601f168201915b505050505090806002018054600181600116156101000203166002900480601f0160208091040260200160405190810160405280929190818152602001828054600181600116156101000203166002900480156109bc5780601f10610991576101008083540402835291602001916109bc565b820191906000526020600020905b81548152906001019060200180831161099f57829003601f168201915b5050505050908060030160009054906101000a900460ff16908060040154905085565b60606003805480602002602001604051908101604052809291908181526020016000905b82821015610bf457838290600052602060002090600502016040518060a00160405290816000820160009054906101000a900473ffffffffffffffffffffffffffffffffffffffff1673ffffffffffffffffffffffffffffffffffffffff1673ffffffffffffffffffffffffffffffffffffffff168152602001600182018054600181600116156101000203166002900480601f016020809104026020016040519081016040528092919081815260200182805460018160011615610100020316600290048015610b155780601f10610aea57610100808354040283529160200191610b15565b820191906000526020600020905b815481529060010190602001808311610af857829003601f168201915b50505050508152602001600282018054600181600116156101000203166002900480601f016020809104026020016040519081016040528092919081815260200182805460018160011615610100020316600290048015610bb75780601f10610b8c57610100808354040283529160200191610bb7565b820191906000526020600020905b815481529060010190602001808311610b9a57829003601f168201915b505050505081526020016003820160009054906101000a900460ff1615151515815260200160048201548152505081526020019060010190610a03565b50505050905090565b50565b610c08610dc2565b73ffffffffffffffffffffffffffffffffffffffff1660008054906101000a900473ffffffffffffffffffffffffffffffffffffffff1673ffffffffffffffffffffffffffffffffffffffff1614610c95576040517f08c379a0000000000000000000000000000000000000000000000000000000008152600401610c8c906115cd565b60405180910390fd5b600073ffffffffffffffffffffffffffffffffffffffff168173ffffffffffffffffffffffffffffffffffffffff161415610d05576040517f08c379a0000000000000000000000000000000000000000000000000000000008152600401610cfc9061158d565b60405180910390fd5b8073ffffffffffffffffffffffffffffffffffffffff1660008054906101000a900473ffffffffffffffffffffffffffffffffffffffff1673ffffffffffffffffffffffffffffffffffffffff167f8be0079c531659141344cd1fd0a4f28419497f9722a3daafe3b4186f6b6457e060405160405180910390a3806000806101000a81548173ffffffffffffffffffffffffffffffffffffffff021916908373ffffffffffffffffffffffffffffffffffffffff16021790555050565b600033905090565b828054600181600116156101000203166002900490600052602060002090601f016020900481019282601f10610e0b57805160ff1916838001178555610e39565b82800160010185558215610e39579182015b82811115610e38578251825591602001919060010190610e1d565b5b509050610e469190610f18565b5090565b828054600181600116156101000203166002900490600052602060002090601f016020900481019282601f10610e835780548555610ec0565b82800160010185558215610ec057600052602060002091601f016020900482015b82811115610ebf578254825591600101919060010190610ea4565b5b509050610ecd9190610f18565b5090565b6040518060a00160405280600073ffffffffffffffffffffffffffffffffffffffff1681526020016060815260200160608152602001600015158152602001600081525090565b5b80821115610f31576000816000905550600101610f19565b5090565b600081359050610f44816117aa565b92915050565b600081359050610f59816117c1565b92915050565b600081519050610f6e816117c1565b92915050565b600082601f830112610f8557600080fd5b8135610f98610f938261163c565b61160f565b91508082526020830160208301858383011115610fb457600080fd5b610fbf838284611757565b50505092915050565b600081359050610fd7816117d8565b92915050565b600060208284031215610fef57600080fd5b6000610ffd84828501610f35565b91505092915050565b60006020828403121561101857600080fd5b600061102684828501610f5f565b91505092915050565b60006020828403121561104157600080fd5b600082013567ffffffffffffffff81111561105b57600080fd5b61106784828501610f74565b91505092915050565b6000806000806080858703121561108657600080fd5b600085013567ffffffffffffffff8111156110a057600080fd5b6110ac87828801610f74565b945050602085013567ffffffffffffffff8111156110c957600080fd5b6110d587828801610f74565b93505060406110e687828801610f4a565b92505060606110f787828801610fc8565b91505092959194509250565b60006020828403121561111557600080fd5b600061112384828501610fc8565b91505092915050565b60006111388383611389565b905092915050565b61114981611721565b82525050565b611158816116d9565b82525050565b611167816116d9565b82525050565b600061117882611678565b611182818561169b565b93508360208202850161119485611668565b8060005b858110156111d057848403895281516111b1858261112c565b94506111bc8361168e565b925060208a01995050600181019050611198565b50829750879550505050505092915050565b6111eb816116eb565b82525050565b6111fa816116eb565b82525050565b600061120b82611683565b61121581856116ac565b9350611225818560208601611766565b61122e81611799565b840191505092915050565b600061124482611683565b61124e81856116bd565b935061125e818560208601611766565b61126781611799565b840191505092915050565b600061127d82611683565b61128781856116ce565b9350611297818560208601611766565b80840191505092915050565b60006112b06026836116bd565b91507f4f776e61626c653a206e6577206f776e657220697320746865207a65726f206160008301527f64647265737300000000000000000000000000000000000000000000000000006020830152604082019050919050565b60006113166015836116bd565b91507f436f756c64206e6f742073656e6420746f6b656e7300000000000000000000006000830152602082019050919050565b60006113566020836116bd565b91507f4f776e61626c653a2063616c6c6572206973206e6f7420746865206f776e65726000830152602082019050919050565b600060a0830160008301516113a1600086018261114f565b50602083015184820360208601526113b98282611200565b915050604083015184820360408601526113d38282611200565b91505060608301516113e860608601826111e2565b5060808301516113fb6080860182611483565b508091505092915050565b600060a08301600083015161141e600086018261114f565b50602083015184820360208601526114368282611200565b915050604083015184820360408601526114508282611200565b915050606083015161146560608601826111e2565b5060808301516114786080860182611483565b508091505092915050565b61148c81611717565b82525050565b61149b81611717565b82525050565b60006114ad8284611272565b915081905092915050565b60006020820190506114cd600083018461115e565b92915050565b60006060820190506114e86000830186611140565b6114f5602083018561115e565b6115026040830184611492565b949350505050565b600060a08201905061151f600083018861115e565b81810360208301526115318187611239565b905081810360408301526115458186611239565b905061155460608301856111f1565b6115616080830184611492565b9695505050505050565b60006020820190508181036000830152611585818461116d565b905092915050565b600060208201905081810360008301526115a6816112a3565b9050919050565b600060208201905081810360008301526115c681611309565b9050919050565b600060208201905081810360008301526115e681611349565b9050919050565b600060208201905081810360008301526116078184611406565b905092915050565b6000604051905081810181811067ffffffffffffffff8211171561163257600080fd5b8060405250919050565b600067ffffffffffffffff82111561165357600080fd5b601f19601f8301169050602081019050919050565b6000819050602082019050919050565b600081519050919050565b600081519050919050565b6000602082019050919050565b600082825260208201905092915050565b600082825260208201905092915050565b600082825260208201905092915050565b600081905092915050565b60006116e4826116f7565b9050919050565b60008115159050919050565b600073ffffffffffffffffffffffffffffffffffffffff82169050919050565b6000819050919050565b600061172c82611733565b9050919050565b600061173e82611745565b9050919050565b6000611750826116f7565b9050919050565b82818337600083830152505050565b60005b83811015611784578082015181840152602081019050611769565b83811115611793576000848401525b50505050565b6000601f19601f8301169050919050565b6117b3816116d9565b81146117be57600080fd5b50565b6117ca816116eb565b81146117d557600080fd5b50565b6117e181611717565b81146117ec57600080fd5b5056fea2646970667358221220fe55bce242fb4b6021684606c8386f732d5dce98fe72e07a98ec170b4b2e8b3864736f6c63430007010033",
  "immutableReferences": {},
  "source": "// SPDX-License-Identifier: MIT\r\npragma solidity >=0.7.0;\r\npragma experimental ABIEncoderV2;\r\n\r\nimport \"./Repository.sol\";\r\nimport \"./GLDToken.sol\";\r\nimport \"@openzeppelin/contracts/access/Ownable.sol\";\r\n\r\ncontract Jobs is Ownable {\r\n    \r\n    struct job{\r\n        address owner;\r\n        string title;\r\n        string description;\r\n        bool monthly;\r\n        uint salary;\r\n    }\r\n\r\n    GLDToken private token;\r\n    uint index;\r\n    job[] public allJobs;\r\n    // mapping repo slug to Repo\r\n    mapping (string => job) jobNames;\r\n\r\n    constructor(address tokenAddress){\r\n        token = GLDToken(tokenAddress);\r\n    }\r\n    \r\n    // Create Promotion\r\n    function createJob(string memory _title, string memory _description, bool _monthly, uint _salary) public {\r\n       \r\n        // Stake salary\r\n        require(token.transferFrom(msg.sender, address(this), _salary) == true, \"Could not send tokens\");\r\n\r\n        // Create Job\r\n        jobNames[_title] = job(msg.sender, _title, _description, _monthly, _salary);\r\n        allJobs.push(jobNames[_title]);\r\n    }\r\n\r\n    // Remove Promotion\r\n    function removeJob(string memory _projectSlug) public {\r\n       \r\n       \r\n    }\r\n\r\n    // Get One Jobs\r\n    function getJob(string memory _title) public view returns(job memory) {\r\n        return jobNames[_title];\r\n    }\r\n    // Get All Jobs\r\n    function getAllJobs() public view returns(job[] memory) {\r\n        return allJobs;\r\n    }\r\n}",
  "sourcePath": "C:/Users/jamie/Desktop/Thesis/planetGit/src/contracts/Jobs.sol",
  "compiler": {
    "name": "solc",
    "version": "0.7.1+commit.f4a555be.Emscripten.clang"
  },
  "schemaVersion": "3.2.5",
  "updatedAt": "2020-11-03T08:49:58.993Z",
  "networkType": "ethereum",
  "devdoc": {
    "kind": "dev",
    "methods": {
      "owner()": {
        "details": "Returns the address of the current owner."
      },
      "renounceOwnership()": {
        "details": "Leaves the contract without owner. It will not be possible to call `onlyOwner` functions anymore. Can only be called by the current owner. NOTE: Renouncing ownership will leave the contract without an owner, thereby removing any functionality that is only available to the owner."
      },
      "transferOwnership(address)": {
        "details": "Transfers ownership of the contract to a new account (`newOwner`). Can only be called by the current owner."
      }
    },
    "version": 1
  },
  "userdoc": {
    "kind": "user",
    "methods": {},
    "version": 1
  }
}