{
  "contractName": "MintReward",
  "abi": [
    {
      "inputs": [
        {
          "internalType": "address",
          "name": "tokenAddress",
          "type": "address"
        },
        {
          "internalType": "address",
          "name": "repoAddress",
          "type": "address"
        }
      ],
      "stateMutability": "nonpayable",
      "type": "constructor"
    },
    {
      "inputs": [
        {
          "internalType": "string",
          "name": "_projectSlug",
          "type": "string"
        }
      ],
      "name": "mintReward",
      "outputs": [
        {
          "internalType": "string",
          "name": "",
          "type": "string"
        }
      ],
      "stateMutability": "nonpayable",
      "type": "function"
    }
  ],
  "bytecode": "0x608060405234801561001057600080fd5b506040516104dc3803806104dc8339818101604052604081101561003357600080fd5b81019080805190602001909291908051906020019092919050505081600160006101000a81548173ffffffffffffffffffffffffffffffffffffffff021916908373ffffffffffffffffffffffffffffffffffffffff160217905550806000806101000a81548173ffffffffffffffffffffffffffffffffffffffff021916908373ffffffffffffffffffffffffffffffffffffffff16021790555050506103fc806100e06000396000f3fe608060405234801561001057600080fd5b506004361061002b5760003560e01c80639a9ff08414610030575b600080fd5b6100e96004803603602081101561004657600080fd5b810190808035906020019064010000000081111561006357600080fd5b82018360208201111561007557600080fd5b8035906020019184600183028401116401000000008311171561009757600080fd5b91908080601f016020809104026020016040519081016040528093929190818152602001838380828437600081840152601f19601f820116905080830192505050505050509192919290505050610164565b6040518080602001828103825283818151815260200191508051906020019080838360005b8381101561012957808201518184015260208101905061010e565b50505050905090810190601f1680156101565780820380516001836020036101000a031916815260200191505b509250505060405180910390f35b6060600160009054906101000a900473ffffffffffffffffffffffffffffffffffffffff1673ffffffffffffffffffffffffffffffffffffffff1663d63c88a66040518163ffffffff1660e01b8152600401600060405180830381600087803b1580156101d057600080fd5b505af11580156101e4573d6000803e3d6000fd5b50505050606060008054906101000a900473ffffffffffffffffffffffffffffffffffffffff1673ffffffffffffffffffffffffffffffffffffffff1663f4845d87846040518263ffffffff1660e01b81526004018080602001828103825283818151815260200191508051906020019080838360005b8381101561027657808201518184015260208101905061025b565b50505050905090810190601f1680156102a35780820380516001836020036101000a031916815260200191505b5092505050600060405180830381600087803b1580156102c257600080fd5b505af11580156102d6573d6000803e3d6000fd5b505050506040513d6000823e3d601f19601f82011682018060405250602081101561030057600080fd5b810190808051604051939291908464010000000082111561032057600080fd5b8382019150602082018581111561033657600080fd5b825186600182028301116401000000008211171561035357600080fd5b8083526020830192505050908051906020019080838360005b8381101561038757808201518184015260208101905061036c565b50505050905090810190601f1680156103b45780820380516001836020036101000a031916815260200191505b5060405250505090508091505091905056fea2646970667358221220221c3b7f9dec3ddd1ea6932567ae053baacf37748c244ef261215fc6103966ba64736f6c63430007010033",
  "immutableReferences": {},
  "source": "// SPDX-License-Identifier: MIT\r\npragma solidity >=0.7.0;\r\n\r\n// Import User from RepoContract.sol\r\nimport \"./RepoContract.sol\";\r\n// Import GLDToken from GLDToken.sol.sol\r\nimport \"./GLDToken.sol\";\r\n\r\ncontract MintReward {\r\n    \r\n    RepoContract private repo;\r\n    GLDToken private token;\r\n    \r\n\r\n    constructor(address tokenAddress, address repoAddress) {\r\n        token = GLDToken(tokenAddress);\r\n        repo = RepoContract(repoAddress);\r\n    }\r\n    \r\n    // Get Repo Name\r\n    function mintReward(string memory _projectSlug) public returns(string memory) {\r\n        token.mintMinerReward();\r\n        string memory returnHash = repo.getRepoHash(_projectSlug);\r\n        return returnHash;\r\n    }\r\n}",
  "sourcePath": "C:/Users/jamie/Desktop/Thesis/planetGit/src/contracts/MintReward.sol",
  "compiler": {
    "name": "solc",
    "version": "0.7.1+commit.f4a555be.Emscripten.clang"
  },
  "schemaVersion": "3.2.5",
  "updatedAt": "2020-10-25T14:40:13.907Z",
  "networkType": "ethereum",
  "devdoc": {
    "kind": "dev",
    "methods": {},
    "version": 1
  },
  "userdoc": {
    "kind": "user",
    "methods": {},
    "version": 1
  }
}