{
  "contractName": "MintReward",
  "abi": [
    {
      "inputs": [
        {
          "internalType": "address",
          "name": "tokenAddress",
          "type": "address"
        },
        {
          "internalType": "address",
          "name": "repoAddress",
          "type": "address"
        }
      ],
      "stateMutability": "nonpayable",
      "type": "constructor"
    },
    {
      "anonymous": false,
      "inputs": [
        {
          "indexed": true,
          "internalType": "address",
          "name": "_from",
          "type": "address"
        },
        {
          "indexed": false,
          "internalType": "string",
          "name": "_value",
          "type": "string"
        }
      ],
      "name": "Hash",
      "type": "event"
    },
    {
      "inputs": [
        {
          "internalType": "string",
          "name": "_projectSlug",
          "type": "string"
        }
      ],
      "name": "mintReward",
      "outputs": [],
      "stateMutability": "nonpayable",
      "type": "function"
    }
  ],
  "bytecode": "0x608060405234801561001057600080fd5b5060405161050d38038061050d8339818101604052604081101561003357600080fd5b81019080805190602001909291908051906020019092919050505081600160006101000a81548173ffffffffffffffffffffffffffffffffffffffff021916908373ffffffffffffffffffffffffffffffffffffffff160217905550806000806101000a81548173ffffffffffffffffffffffffffffffffffffffff021916908373ffffffffffffffffffffffffffffffffffffffff160217905550505061042d806100e06000396000f3fe608060405234801561001057600080fd5b506004361061002b5760003560e01c80639a9ff08414610030575b600080fd5b6100e96004803603602081101561004657600080fd5b810190808035906020019064010000000081111561006357600080fd5b82018360208201111561007557600080fd5b8035906020019184600183028401116401000000008311171561009757600080fd5b91908080601f016020809104026020016040519081016040528093929190818152602001838380828437600081840152601f19601f8201169050808301925050505050505091929192905050506100eb565b005b600160009054906101000a900473ffffffffffffffffffffffffffffffffffffffff1673ffffffffffffffffffffffffffffffffffffffff1663d63c88a66040518163ffffffff1660e01b8152600401600060405180830381600087803b15801561015557600080fd5b505af1158015610169573d6000803e3d6000fd5b50505050606060008054906101000a900473ffffffffffffffffffffffffffffffffffffffff1673ffffffffffffffffffffffffffffffffffffffff1663f4845d87836040518263ffffffff1660e01b81526004018080602001828103825283818151815260200191508051906020019080838360005b838110156101fb5780820151818401526020810190506101e0565b50505050905090810190601f1680156102285780820380516001836020036101000a031916815260200191505b509250505060006040518083038186803b15801561024557600080fd5b505afa158015610259573d6000803e3d6000fd5b505050506040513d6000823e3d601f19601f82011682018060405250602081101561028357600080fd5b81019080805160405193929190846401000000008211156102a357600080fd5b838201915060208201858111156102b957600080fd5b82518660018202830111640100000000821117156102d657600080fd5b8083526020830192505050908051906020019080838360005b8381101561030a5780820151818401526020810190506102ef565b50505050905090810190601f1680156103375780820380516001836020036101000a031916815260200191505b5060405250505090503373ffffffffffffffffffffffffffffffffffffffff167f13301278af128780e704cb535cdfe8a60e7c85783ddc1e2c9b3033197f35c29a826040518080602001828103825283818151815260200191508051906020019080838360005b838110156103b957808201518184015260208101905061039e565b50505050905090810190601f1680156103e65780820380516001836020036101000a031916815260200191505b509250505060405180910390a2505056fea26469706673582212202bfc6309d4240dc5cb0ed4c1d09ffdb0a3f34f829e47a1e24adaf6b8f3e63aac64736f6c63430007010033",
  "immutableReferences": {},
  "source": "// SPDX-License-Identifier: MIT\r\npragma solidity >=0.7.0;\r\n\r\n// Import User from RepoContract.sol\r\nimport \"./RepoContract.sol\";\r\n// Import GLDToken from GLDToken.sol.sol\r\nimport \"./GLDToken.sol\";\r\n\r\ncontract MintReward {\r\n    \r\n    RepoContract private repo;\r\n    GLDToken private token;\r\n\r\n    event Hash(address indexed _from, string _value);\r\n\r\n    constructor(address tokenAddress, address repoAddress) {\r\n        token = GLDToken(tokenAddress);\r\n        repo = RepoContract(repoAddress);\r\n    }\r\n    \r\n    // Get Repo Name\r\n    function mintReward(string memory _projectSlug) public {\r\n        token.mintMinerReward();\r\n        string memory returnHash = repo.getRepoHash(_projectSlug);\r\n        emit Hash(msg.sender, returnHash);\r\n    }\r\n}",
  "sourcePath": "C:/Users/jamie/Desktop/Thesis/planetGit/src/contracts/MintReward.sol",
  "compiler": {
    "name": "solc",
    "version": "0.7.1+commit.f4a555be.Emscripten.clang"
  },
  "schemaVersion": "3.2.5",
  "updatedAt": "2020-10-25T15:28:21.383Z",
  "networkType": "ethereum",
  "devdoc": {
    "kind": "dev",
    "methods": {},
    "version": 1
  },
  "userdoc": {
    "kind": "user",
    "methods": {},
    "version": 1
  }
}