{
  "contractName": "OwnershipTransfer",
  "abi": [
    {
      "inputs": [
        {
          "internalType": "address",
          "name": "tokenAddress",
          "type": "address"
        },
        {
          "internalType": "address",
          "name": "newOwner",
          "type": "address"
        }
      ],
      "stateMutability": "nonpayable",
      "type": "constructor"
    },
    {
      "inputs": [],
      "name": "token",
      "outputs": [
        {
          "internalType": "contract GLDToken",
          "name": "",
          "type": "address"
        }
      ],
      "stateMutability": "view",
      "type": "function"
    }
  ],
  "bytecode": "0x608060405234801561001057600080fd5b506040516101f83803806101f88339818101604052604081101561003357600080fd5b810190808051906020019092919080519060200190929190505050816000806101000a81548173ffffffffffffffffffffffffffffffffffffffff021916908373ffffffffffffffffffffffffffffffffffffffff16021790555060008054906101000a900473ffffffffffffffffffffffffffffffffffffffff1673ffffffffffffffffffffffffffffffffffffffff1663f2fde38b826040518263ffffffff1660e01b8152600401808273ffffffffffffffffffffffffffffffffffffffff168152602001915050600060405180830381600087803b15801561011757600080fd5b505af115801561012b573d6000803e3d6000fd5b50505050505060b98061013f6000396000f3fe6080604052348015600f57600080fd5b506004361060285760003560e01c8063fc0c546a14602d575b600080fd5b6033605f565b604051808273ffffffffffffffffffffffffffffffffffffffff16815260200191505060405180910390f35b60008054906101000a900473ffffffffffffffffffffffffffffffffffffffff168156fea26469706673582212209e4fa097b651d0f46526d656536864eebee3038c03007d0ccb40c7976c2dc96e64736f6c63430007010033",
  "immutableReferences": {},
  "source": "// SPDX-License-Identifier: MIT\r\npragma solidity >=0.7.0;\r\n\r\n// Import GLDToken from GLDToken.sol.sol\r\nimport \"./GLDToken.sol\";\r\n\r\ncontract OwnershipTransfer {\r\n    \r\n    GLDToken public token;\r\n    \r\n    constructor(address tokenAddress, address newOwner) {\r\n        token = GLDToken(tokenAddress);\r\n        token.transferOwnership(newOwner);\r\n        // GLDToken(tokenAddress).transferOwnership(newOwner);\r\n    }\r\n\r\n    \r\n}",
  "sourcePath": "C:/Users/jamie/Desktop/Thesis/planetGit/src/contracts/OwnershipTransfer.sol",
  "compiler": {
    "name": "solc",
    "version": "0.7.1+commit.f4a555be.Emscripten.clang"
  },
  "schemaVersion": "3.2.5",
  "updatedAt": "2020-10-29T16:05:54.571Z",
  "devdoc": {
    "kind": "dev",
    "methods": {},
    "version": 1
  },
  "userdoc": {
    "kind": "user",
    "methods": {},
    "version": 1
  }
}