{
  "contractName": "Promotions",
  "abi": [
    {
      "inputs": [
        {
          "internalType": "address",
          "name": "tokenAddress",
          "type": "address"
        },
        {
          "internalType": "address",
          "name": "repoAddress",
          "type": "address"
        }
      ],
      "stateMutability": "nonpayable",
      "type": "constructor"
    },
    {
      "anonymous": false,
      "inputs": [
        {
          "indexed": true,
          "internalType": "address",
          "name": "previousOwner",
          "type": "address"
        },
        {
          "indexed": true,
          "internalType": "address",
          "name": "newOwner",
          "type": "address"
        }
      ],
      "name": "OwnershipTransferred",
      "type": "event"
    },
    {
      "anonymous": false,
      "inputs": [
        {
          "indexed": true,
          "internalType": "address",
          "name": "_from",
          "type": "address"
        },
        {
          "indexed": false,
          "internalType": "uint256",
          "name": "price",
          "type": "uint256"
        },
        {
          "indexed": false,
          "internalType": "string",
          "name": "_slug",
          "type": "string"
        },
        {
          "indexed": false,
          "internalType": "uint256",
          "name": "index",
          "type": "uint256"
        },
        {
          "indexed": false,
          "internalType": "string",
          "name": "name",
          "type": "string"
        }
      ],
      "name": "Test",
      "type": "event"
    },
    {
      "anonymous": false,
      "inputs": [
        {
          "components": [
            {
              "components": [
                {
                  "internalType": "address",
                  "name": "owner",
                  "type": "address"
                },
                {
                  "internalType": "string",
                  "name": "repoName",
                  "type": "string"
                },
                {
                  "internalType": "string",
                  "name": "repoHash",
                  "type": "string"
                },
                {
                  "internalType": "bool",
                  "name": "exists",
                  "type": "bool"
                }
              ],
              "internalType": "struct Repository.Repo",
              "name": "promotedRepo",
              "type": "tuple"
            },
            {
              "internalType": "uint256",
              "name": "pricePaid",
              "type": "uint256"
            }
          ],
          "indexed": false,
          "internalType": "struct Promotions.promotion",
          "name": "testPromotion",
          "type": "tuple"
        }
      ],
      "name": "Test2",
      "type": "event"
    },
    {
      "inputs": [
        {
          "internalType": "uint256",
          "name": "",
          "type": "uint256"
        }
      ],
      "name": "allRepos",
      "outputs": [
        {
          "internalType": "string",
          "name": "",
          "type": "string"
        }
      ],
      "stateMutability": "view",
      "type": "function"
    },
    {
      "inputs": [
        {
          "internalType": "string",
          "name": "_projectSlug",
          "type": "string"
        },
        {
          "internalType": "string",
          "name": "_projectName",
          "type": "string"
        },
        {
          "internalType": "string",
          "name": "_repoHash",
          "type": "string"
        }
      ],
      "name": "createRepo",
      "outputs": [],
      "stateMutability": "nonpayable",
      "type": "function"
    },
    {
      "inputs": [],
      "name": "getAllRepos",
      "outputs": [
        {
          "internalType": "string[]",
          "name": "",
          "type": "string[]"
        }
      ],
      "stateMutability": "view",
      "type": "function"
    },
    {
      "inputs": [
        {
          "internalType": "string",
          "name": "_projectSlug",
          "type": "string"
        }
      ],
      "name": "getRepo",
      "outputs": [
        {
          "components": [
            {
              "internalType": "address",
              "name": "owner",
              "type": "address"
            },
            {
              "internalType": "string",
              "name": "repoName",
              "type": "string"
            },
            {
              "internalType": "string",
              "name": "repoHash",
              "type": "string"
            },
            {
              "internalType": "bool",
              "name": "exists",
              "type": "bool"
            }
          ],
          "internalType": "struct Repository.Repo",
          "name": "",
          "type": "tuple"
        }
      ],
      "stateMutability": "view",
      "type": "function"
    },
    {
      "inputs": [
        {
          "internalType": "string",
          "name": "_projectSlug",
          "type": "string"
        }
      ],
      "name": "getRepoHash",
      "outputs": [
        {
          "internalType": "string",
          "name": "",
          "type": "string"
        }
      ],
      "stateMutability": "view",
      "type": "function"
    },
    {
      "inputs": [
        {
          "internalType": "string",
          "name": "_projectSlug",
          "type": "string"
        }
      ],
      "name": "getRepoName",
      "outputs": [
        {
          "internalType": "string",
          "name": "",
          "type": "string"
        }
      ],
      "stateMutability": "view",
      "type": "function"
    },
    {
      "inputs": [
        {
          "internalType": "string",
          "name": "_projectSlug",
          "type": "string"
        }
      ],
      "name": "getRepoOwner",
      "outputs": [
        {
          "internalType": "address",
          "name": "",
          "type": "address"
        }
      ],
      "stateMutability": "view",
      "type": "function"
    },
    {
      "inputs": [
        {
          "internalType": "uint256",
          "name": "",
          "type": "uint256"
        }
      ],
      "name": "livePromotions",
      "outputs": [
        {
          "components": [
            {
              "internalType": "address",
              "name": "owner",
              "type": "address"
            },
            {
              "internalType": "string",
              "name": "repoName",
              "type": "string"
            },
            {
              "internalType": "string",
              "name": "repoHash",
              "type": "string"
            },
            {
              "internalType": "bool",
              "name": "exists",
              "type": "bool"
            }
          ],
          "internalType": "struct Repository.Repo",
          "name": "promotedRepo",
          "type": "tuple"
        },
        {
          "internalType": "uint256",
          "name": "pricePaid",
          "type": "uint256"
        }
      ],
      "stateMutability": "view",
      "type": "function"
    },
    {
      "inputs": [],
      "name": "owner",
      "outputs": [
        {
          "internalType": "address",
          "name": "",
          "type": "address"
        }
      ],
      "stateMutability": "view",
      "type": "function"
    },
    {
      "inputs": [],
      "name": "renounceOwnership",
      "outputs": [],
      "stateMutability": "nonpayable",
      "type": "function"
    },
    {
      "inputs": [
        {
          "internalType": "address",
          "name": "newOwner",
          "type": "address"
        }
      ],
      "name": "transferOwnership",
      "outputs": [],
      "stateMutability": "nonpayable",
      "type": "function"
    },
    {
      "inputs": [
        {
          "internalType": "string",
          "name": "_projectSlug",
          "type": "string"
        }
      ],
      "name": "uniqueRepoSlug",
      "outputs": [
        {
          "internalType": "bool",
          "name": "isUnique",
          "type": "bool"
        }
      ],
      "stateMutability": "view",
      "type": "function"
    },
    {
      "inputs": [
        {
          "internalType": "string",
          "name": "_projectSlug",
          "type": "string"
        },
        {
          "internalType": "string",
          "name": "_repoHash",
          "type": "string"
        }
      ],
      "name": "updateRepo",
      "outputs": [],
      "stateMutability": "nonpayable",
      "type": "function"
    },
    {
      "inputs": [
        {
          "internalType": "string",
          "name": "_projectSlug",
          "type": "string"
        },
        {
          "internalType": "uint256",
          "name": "amount",
          "type": "uint256"
        }
      ],
      "name": "createPromotion",
      "outputs": [],
      "stateMutability": "nonpayable",
      "type": "function"
    },
    {
      "inputs": [
        {
          "internalType": "string",
          "name": "_projectSlug",
          "type": "string"
        }
      ],
      "name": "removePromotion",
      "outputs": [],
      "stateMutability": "nonpayable",
      "type": "function"
    },
    {
      "inputs": [],
      "name": "getPrice",
      "outputs": [
        {
          "internalType": "uint256",
          "name": "",
          "type": "uint256"
        }
      ],
      "stateMutability": "view",
      "type": "function"
    },
    {
      "inputs": [
        {
          "internalType": "string",
          "name": "_projectSlug",
          "type": "string"
        }
      ],
      "name": "getPromotion",
      "outputs": [
        {
          "components": [
            {
              "components": [
                {
                  "internalType": "address",
                  "name": "owner",
                  "type": "address"
                },
                {
                  "internalType": "string",
                  "name": "repoName",
                  "type": "string"
                },
                {
                  "internalType": "string",
                  "name": "repoHash",
                  "type": "string"
                },
                {
                  "internalType": "bool",
                  "name": "exists",
                  "type": "bool"
                }
              ],
              "internalType": "struct Repository.Repo",
              "name": "promotedRepo",
              "type": "tuple"
            },
            {
              "internalType": "uint256",
              "name": "pricePaid",
              "type": "uint256"
            }
          ],
          "internalType": "struct Promotions.promotion",
          "name": "",
          "type": "tuple"
        }
      ],
      "stateMutability": "view",
      "type": "function"
    },
    {
      "inputs": [],
      "name": "getAllPromotions",
      "outputs": [
        {
          "components": [
            {
              "components": [
                {
                  "internalType": "address",
                  "name": "owner",
                  "type": "address"
                },
                {
                  "internalType": "string",
                  "name": "repoName",
                  "type": "string"
                },
                {
                  "internalType": "string",
                  "name": "repoHash",
                  "type": "string"
                },
                {
                  "internalType": "bool",
                  "name": "exists",
                  "type": "bool"
                }
              ],
              "internalType": "struct Repository.Repo",
              "name": "promotedRepo",
              "type": "tuple"
            },
            {
              "internalType": "uint256",
              "name": "pricePaid",
              "type": "uint256"
            }
          ],
          "internalType": "struct Promotions.promotion[10]",
          "name": "",
          "type": "tuple[10]"
        }
      ],
      "stateMutability": "view",
      "type": "function"
    }
  ],
  "bytecode": "0x60806040523480156200001157600080fd5b50604051620031fc380380620031fc833981810160405281019062000037919062000214565b8160006200004a620001f560201b60201c565b9050806000806101000a81548173ffffffffffffffffffffffffffffffffffffffff021916908373ffffffffffffffffffffffffffffffffffffffff1602179055508073ffffffffffffffffffffffffffffffffffffffff16600073ffffffffffffffffffffffffffffffffffffffff167f8be0079c531659141344cd1fd0a4f28419497f9722a3daafe3b4186f6b6457e060405160405180910390a35080600160006101000a81548173ffffffffffffffffffffffffffffffffffffffff021916908373ffffffffffffffffffffffffffffffffffffffff1602179055505080600560006101000a81548173ffffffffffffffffffffffffffffffffffffffff021916908373ffffffffffffffffffffffffffffffffffffffff16021790555081600660006101000a81548173ffffffffffffffffffffffffffffffffffffffff021916908373ffffffffffffffffffffffffffffffffffffffff16021790555033603b60006101000a81548173ffffffffffffffffffffffffffffffffffffffff021916908373ffffffffffffffffffffffffffffffffffffffff1602179055505050620002a3565b600033905090565b6000815190506200020e8162000289565b92915050565b600080604083850312156200022857600080fd5b60006200023885828601620001fd565b92505060206200024b85828601620001fd565b9150509250929050565b6000620002628262000269565b9050919050565b600073ffffffffffffffffffffffffffffffffffffffff82169050919050565b620002948162000255565b8114620002a057600080fd5b50565b612f4980620002b36000396000f3fe608060405234801561001057600080fd5b50600436106101165760003560e01c806398d5fdca116100a2578063ce654d2211610071578063ce654d22146102f4578063e2c782a214610310578063f2fde38b14610340578063f4845d871461035c578063f5cc98c91461038c57610116565b806398d5fdca1461026e5780639e20505a1461028c578063ae0b11e7146102a8578063b4bc07c2146102c457610116565b8063715018a6116100e9578063715018a6146101ca5780637f3b156f146101d457806382149bcb146102045780638da5cb5b1461023457806390ec291d1461025257610116565b80630446c5191461011b5780631a54386b1461014b57806339f917801461017b5780634ce9a012146101ac575b600080fd5b6101356004803603810190610130919061207f565b6103aa565b6040516101429190612a19565b60405180910390f35b6101656004803603810190610160919061207f565b61046d565b6040516101729190612b0d565b60405180910390f35b61019560048036038101906101909190612258565b610678565b6040516101a3929190612add565b60405180910390f35b6101b461085e565b6040516101c191906129dc565b60405180910390f35b6101d2610a83565b005b6101ee60048036038101906101e99190612258565b610bd6565b6040516101fb9190612a19565b60405180910390f35b61021e6004803603810190610219919061207f565b610c8f565b60405161022b9190612abb565b60405180910390f35b61023c610e7c565b6040516102499190612968565b60405180910390f35b61026c6004803603810190610267919061212c565b610ea5565b005b6102766110fd565b6040516102839190612b51565b60405180910390f35b6102a660048036038101906102a191906120c0565b611107565b005b6102c260048036038101906102bd91906121c3565b61122a565b005b6102de60048036038101906102d9919061207f565b611833565b6040516102eb91906129fe565b60405180910390f35b61030e6004803603810190610309919061207f565b611882565b005b61032a6004803603810190610325919061207f565b611885565b6040516103379190612968565b60405180910390f35b61035a6004803603810190610355919061202d565b6118d0565b005b6103766004803603810190610371919061207f565b611a92565b6040516103839190612a19565b60405180910390f35b610394611bea565b6040516103a191906129ba565b60405180910390f35b60606002826040516103bc9190612951565b90815260200160405180910390206001018054600181600116156101000203166002900480601f0160208091040260200160405190810160405280929190818152602001828054600181600116156101000203166002900480156104615780601f1061043657610100808354040283529160200191610461565b820191906000526020600020905b81548152906001019060200180831161044457829003601f168201915b50505050509050919050565b610475611cdb565b603a826040516104859190612951565b9081526020016040518091039020604051806040016040529081600082016040518060800160405290816000820160009054906101000a900473ffffffffffffffffffffffffffffffffffffffff1673ffffffffffffffffffffffffffffffffffffffff1673ffffffffffffffffffffffffffffffffffffffff168152602001600182018054600181600116156101000203166002900480601f01602080910402602001604051908101604052809291908181526020018280546001816001161561010002031660029004801561059d5780601f106105725761010080835404028352916020019161059d565b820191906000526020600020905b81548152906001019060200180831161058057829003601f168201915b50505050508152602001600282018054600181600116156101000203166002900480601f01602080910402602001604051908101604052809291908181526020018280546001816001161561010002031660029004801561063f5780601f106106145761010080835404028352916020019161063f565b820191906000526020600020905b81548152906001019060200180831161062257829003601f168201915b505050505081526020016003820160009054906101000a900460ff16151515158152505081526020016004820154815250509050919050565b600881600a811061068557fe5b60050201600091509050806000016040518060800160405290816000820160009054906101000a900473ffffffffffffffffffffffffffffffffffffffff1673ffffffffffffffffffffffffffffffffffffffff1673ffffffffffffffffffffffffffffffffffffffff168152602001600182018054600181600116156101000203166002900480601f01602080910402602001604051908101604052809291908181526020018280546001816001161561010002031660029004801561078d5780601f106107625761010080835404028352916020019161078d565b820191906000526020600020905b81548152906001019060200180831161077057829003601f168201915b50505050508152602001600282018054600181600116156101000203166002900480601f01602080910402602001604051908101604052809291908181526020018280546001816001161561010002031660029004801561082f5780601f106108045761010080835404028352916020019161082f565b820191906000526020600020905b81548152906001019060200180831161081257829003601f168201915b505050505081526020016003820160009054906101000a900460ff161515151581525050908060040154905082565b610866611cfb565b6008600a80602002604051908101604052809291906000905b82821015610a7a57838260050201604051806040016040529081600082016040518060800160405290816000820160009054906101000a900473ffffffffffffffffffffffffffffffffffffffff1673ffffffffffffffffffffffffffffffffffffffff1673ffffffffffffffffffffffffffffffffffffffff168152602001600182018054600181600116156101000203166002900480601f0160208091040260200160405190810160405280929190818152602001828054600181600116156101000203166002900480156109975780601f1061096c57610100808354040283529160200191610997565b820191906000526020600020905b81548152906001019060200180831161097a57829003601f168201915b50505050508152602001600282018054600181600116156101000203166002900480601f016020809104026020016040519081016040528092919081815260200182805460018160011615610100020316600290048015610a395780601f10610a0e57610100808354040283529160200191610a39565b820191906000526020600020905b815481529060010190602001808311610a1c57829003601f168201915b505050505081526020016003820160009054906101000a900460ff16151515158152505081526020016004820154815250508152602001906001019061087f565b50505050905090565b610a8b611cd3565b73ffffffffffffffffffffffffffffffffffffffff1660008054906101000a900473ffffffffffffffffffffffffffffffffffffffff1673ffffffffffffffffffffffffffffffffffffffff1614610b18576040517f08c379a0000000000000000000000000000000000000000000000000000000008152600401610b0f90612a7b565b60405180910390fd5b600073ffffffffffffffffffffffffffffffffffffffff1660008054906101000a900473ffffffffffffffffffffffffffffffffffffffff1673ffffffffffffffffffffffffffffffffffffffff167f8be0079c531659141344cd1fd0a4f28419497f9722a3daafe3b4186f6b6457e060405160405180910390a360008060006101000a81548173ffffffffffffffffffffffffffffffffffffffff021916908373ffffffffffffffffffffffffffffffffffffffff160217905550565b60048181548110610be357fe5b906000526020600020016000915090508054600181600116156101000203166002900480601f016020809104026020016040519081016040528092919081815260200182805460018160011615610100020316600290048015610c875780601f10610c5c57610100808354040283529160200191610c87565b820191906000526020600020905b815481529060010190602001808311610c6a57829003601f168201915b505050505081565b610c97611d29565b600282604051610ca79190612951565b90815260200160405180910390206040518060800160405290816000820160009054906101000a900473ffffffffffffffffffffffffffffffffffffffff1673ffffffffffffffffffffffffffffffffffffffff1673ffffffffffffffffffffffffffffffffffffffff168152602001600182018054600181600116156101000203166002900480601f016020809104026020016040519081016040528092919081815260200182805460018160011615610100020316600290048015610daf5780601f10610d8457610100808354040283529160200191610daf565b820191906000526020600020905b815481529060010190602001808311610d9257829003601f168201915b50505050508152602001600282018054600181600116156101000203166002900480601f016020809104026020016040519081016040528092919081815260200182805460018160011615610100020316600290048015610e515780601f10610e2657610100808354040283529160200191610e51565b820191906000526020600020905b815481529060010190602001808311610e3457829003601f168201915b505050505081526020016003820160009054906101000a900460ff1615151515815250509050919050565b60008060009054906101000a900473ffffffffffffffffffffffffffffffffffffffff16905090565b610eae83611833565b156110f857610ebb611d29565b60405180608001604052803373ffffffffffffffffffffffffffffffffffffffff16815260200184815260200183815260200160011515815250905080600360003373ffffffffffffffffffffffffffffffffffffffff1673ffffffffffffffffffffffffffffffffffffffff16815260200190815260200160002085604051610f459190612951565b908152602001604051809103902060008201518160000160006101000a81548173ffffffffffffffffffffffffffffffffffffffff021916908373ffffffffffffffffffffffffffffffffffffffff1602179055506020820151816001019080519060200190610fb6929190611d69565b506040820151816002019080519060200190610fd3929190611d69565b5060608201518160030160006101000a81548160ff021916908315150217905550905050806002856040516110089190612951565b908152602001604051809103902060008201518160000160006101000a81548173ffffffffffffffffffffffffffffffffffffffff021916908373ffffffffffffffffffffffffffffffffffffffff1602179055506020820151816001019080519060200190611079929190611d69565b506040820151816002019080519060200190611096929190611d69565b5060608201518160030160006101000a81548160ff0219169083151502179055509050506004849080600181540180825580915050600190039060005260206000200160009091909190915090805190602001906110f5929190611d69565b50505b505050565b6000600754905090565b6002826040516111179190612951565b908152602001604051809103902060000160009054906101000a900473ffffffffffffffffffffffffffffffffffffffff1673ffffffffffffffffffffffffffffffffffffffff163373ffffffffffffffffffffffffffffffffffffffff1614156112265780600360003373ffffffffffffffffffffffffffffffffffffffff1673ffffffffffffffffffffffffffffffffffffffff168152602001908152602001600020836040516111ca9190612951565b908152602001604051809103902060020190805190602001906111ee929190611d69565b50806002836040516112009190612951565b90815260200160405180910390206002019080519060200190611224929190611d69565b505b5050565b600754811161126e576040517f08c379a000000000000000000000000000000000000000000000000000000000815260040161126590612a9b565b60405180910390fd5b60011515600660009054906101000a900473ffffffffffffffffffffffffffffffffffffffff1673ffffffffffffffffffffffffffffffffffffffff166323b872dd3330856040518463ffffffff1660e01b81526004016112d193929190612983565b602060405180830381600087803b1580156112eb57600080fd5b505af11580156112ff573d6000803e3d6000fd5b505050506040513d601f19601f820116820180604052508101906113239190612056565b151514611365576040517f08c379a000000000000000000000000000000000000000000000000000000000815260040161135c90612a5b565b60405180910390fd5b61136d611d29565b600560009054906101000a900473ffffffffffffffffffffffffffffffffffffffff1673ffffffffffffffffffffffffffffffffffffffff166382149bcb846040518263ffffffff1660e01b81526004016113c89190612a19565b60006040518083038186803b1580156113e057600080fd5b505afa1580156113f4573d6000803e3d6000fd5b505050506040513d6000823e3d601f19601f8201168201806040525081019061141d9190612217565b9050604051806040016040528082815260200183815250603a846040516114449190612951565b908152602001604051809103902060008201518160000160008201518160000160006101000a81548173ffffffffffffffffffffffffffffffffffffffff021916908373ffffffffffffffffffffffffffffffffffffffff16021790555060208201518160010190805190602001906114be929190611d69565b5060408201518160020190805190602001906114db929190611d69565b5060608201518160030160006101000a81548160ff02191690831515021790555050506020820151816004015590505060008060086000600a811061151c57fe5b600502016004015490506000600190505b600a811015611612573373ffffffffffffffffffffffffffffffffffffffff167f1558f7e3d78173fe100dea1de5c8344a8ceefeeeb986c171d45cbd385e645e9c600754888460405161158293929190612b6c565b60405180910390a281600882600a811061159857fe5b6005020160040154101561160557816007819055508092503373ffffffffffffffffffffffffffffffffffffffff167f1558f7e3d78173fe100dea1de5c8344a8ceefeeeb986c171d45cbd385e645e9c60075488846040516115fc93929190612c0e565b60405180910390a25b808060010191505061152d565b503373ffffffffffffffffffffffffffffffffffffffff167f1558f7e3d78173fe100dea1de5c8344a8ceefeeeb986c171d45cbd385e645e9c600754878560405161165f93929190612bbd565b60405180910390a27fa7d00facdbd6350050f5e3c8012fc14b8deb570ce5ae3bc0c23973454e0d0fea603a866040516116989190612951565b90815260200160405180910390206040516116b39190612b2f565b60405180910390a1603a856040516116cb9190612951565b9081526020016040518091039020600883600a81106116e657fe5b6005020160008201816000016000820160009054906101000a900473ffffffffffffffffffffffffffffffffffffffff168160000160006101000a81548173ffffffffffffffffffffffffffffffffffffffff021916908373ffffffffffffffffffffffffffffffffffffffff16021790555060018201816001019080546001816001161561010002031660029004611780929190611de9565b50600282018160020190805460018160011615610100020316600290046117a8929190611de9565b506003820160009054906101000a900460ff168160030160006101000a81548160ff0219169083151502179055505050600482015481600401559050507fa7d00facdbd6350050f5e3c8012fc14b8deb570ce5ae3bc0c23973454e0d0fea600883600a811061181357fe5b600502016040516118249190612b2f565b60405180910390a15050505050565b6000600115156002836040516118499190612951565b908152602001604051809103902060030160009054906101000a900460ff16151514611878576001905061187d565b600090505b919050565b50565b60006002826040516118979190612951565b908152602001604051809103902060000160009054906101000a900473ffffffffffffffffffffffffffffffffffffffff169050919050565b6118d8611cd3565b73ffffffffffffffffffffffffffffffffffffffff1660008054906101000a900473ffffffffffffffffffffffffffffffffffffffff1673ffffffffffffffffffffffffffffffffffffffff1614611965576040517f08c379a000000000000000000000000000000000000000000000000000000000815260040161195c90612a7b565b60405180910390fd5b600073ffffffffffffffffffffffffffffffffffffffff168173ffffffffffffffffffffffffffffffffffffffff1614156119d5576040517f08c379a00000000000000000000000000000000000000000000000000000000081526004016119cc90612a3b565b60405180910390fd5b8073ffffffffffffffffffffffffffffffffffffffff1660008054906101000a900473ffffffffffffffffffffffffffffffffffffffff1673ffffffffffffffffffffffffffffffffffffffff167f8be0079c531659141344cd1fd0a4f28419497f9722a3daafe3b4186f6b6457e060405160405180910390a3806000806101000a81548173ffffffffffffffffffffffffffffffffffffffff021916908373ffffffffffffffffffffffffffffffffffffffff16021790555050565b6060611a9c611cd3565b73ffffffffffffffffffffffffffffffffffffffff1660008054906101000a900473ffffffffffffffffffffffffffffffffffffffff1673ffffffffffffffffffffffffffffffffffffffff1614611b29576040517f08c379a0000000000000000000000000000000000000000000000000000000008152600401611b2090612a7b565b60405180910390fd5b600282604051611b399190612951565b90815260200160405180910390206002018054600181600116156101000203166002900480601f016020809104026020016040519081016040528092919081815260200182805460018160011615610100020316600290048015611bde5780601f10611bb357610100808354040283529160200191611bde565b820191906000526020600020905b815481529060010190602001808311611bc157829003601f168201915b50505050509050919050565b60606004805480602002602001604051908101604052809291908181526020016000905b82821015611cca578382906000526020600020018054600181600116156101000203166002900480601f016020809104026020016040519081016040528092919081815260200182805460018160011615610100020316600290048015611cb65780601f10611c8b57610100808354040283529160200191611cb6565b820191906000526020600020905b815481529060010190602001808311611c9957829003601f168201915b505050505081526020019060010190611c0e565b50505050905090565b600033905090565b6040518060400160405280611cee611d29565b8152602001600081525090565b604051806101400160405280600a905b611d13611cdb565b815260200190600190039081611d0b5790505090565b6040518060800160405280600073ffffffffffffffffffffffffffffffffffffffff16815260200160608152602001606081526020016000151581525090565b828054600181600116156101000203166002900490600052602060002090601f016020900481019282601f10611daa57805160ff1916838001178555611dd8565b82800160010185558215611dd8579182015b82811115611dd7578251825591602001919060010190611dbc565b5b509050611de59190611e70565b5090565b828054600181600116156101000203166002900490600052602060002090601f016020900481019282601f10611e225780548555611e5f565b82800160010185558215611e5f57600052602060002091601f016020900482015b82811115611e5e578254825591600101919060010190611e43565b5b509050611e6c9190611e70565b5090565b5b80821115611e89576000816000905550600101611e71565b5090565b600081359050611e9c81612ece565b92915050565b600081519050611eb181612ece565b92915050565b600081519050611ec681612ee5565b92915050565b600082601f830112611edd57600080fd5b8135611ef0611eeb82612c8c565b612c5f565b91508082526020830160208301858383011115611f0c57600080fd5b611f17838284612e20565b50505092915050565b600082601f830112611f3157600080fd5b8151611f44611f3f82612c8c565b612c5f565b91508082526020830160208301858383011115611f6057600080fd5b611f6b838284612e2f565b50505092915050565b600060808284031215611f8657600080fd5b611f906080612c5f565b90506000611fa084828501611ea2565b600083015250602082015167ffffffffffffffff811115611fc057600080fd5b611fcc84828501611f20565b602083015250604082015167ffffffffffffffff811115611fec57600080fd5b611ff884828501611f20565b604083015250606061200c84828501611eb7565b60608301525092915050565b60008135905061202781612efc565b92915050565b60006020828403121561203f57600080fd5b600061204d84828501611e8d565b91505092915050565b60006020828403121561206857600080fd5b600061207684828501611eb7565b91505092915050565b60006020828403121561209157600080fd5b600082013567ffffffffffffffff8111156120ab57600080fd5b6120b784828501611ecc565b91505092915050565b600080604083850312156120d357600080fd5b600083013567ffffffffffffffff8111156120ed57600080fd5b6120f985828601611ecc565b925050602083013567ffffffffffffffff81111561211657600080fd5b61212285828601611ecc565b9150509250929050565b60008060006060848603121561214157600080fd5b600084013567ffffffffffffffff81111561215b57600080fd5b61216786828701611ecc565b935050602084013567ffffffffffffffff81111561218457600080fd5b61219086828701611ecc565b925050604084013567ffffffffffffffff8111156121ad57600080fd5b6121b986828701611ecc565b9150509250925092565b600080604083850312156121d657600080fd5b600083013567ffffffffffffffff8111156121f057600080fd5b6121fc85828601611ecc565b925050602061220d85828601612018565b9150509250929050565b60006020828403121561222957600080fd5b600082015167ffffffffffffffff81111561224357600080fd5b61224f84828501611f74565b91505092915050565b60006020828403121561226a57600080fd5b600061227884828501612018565b91505092915050565b600061228d83836123de565b905092915050565b60006122a18383612870565b905092915050565b6122b281612dea565b82525050565b6122c181612da2565b82525050565b6122d081612da2565b82525050565b60006122e182612ce7565b6122eb8185612d22565b9350836020820285016122fd85612cb8565b8060005b85811015612339578484038952815161231a8582612281565b945061232583612d08565b925060208a01995050600181019050612301565b50829750879550505050505092915050565b600061235682612cf2565b6123608185612d33565b93508360208202850161237285612cc8565b8060005b858110156123ae578484038952815161238f8582612295565b945061239a83612d15565b925060208a01995050600181019050612376565b50829750879550505050505092915050565b6123c981612db4565b82525050565b6123d881612db4565b82525050565b60006123e982612cfd565b6123f38185612d3e565b9350612403818560208601612e2f565b61240c81612eb0565b840191505092915050565b600061242282612cfd565b61242c8185612d4f565b935061243c818560208601612e2f565b61244581612eb0565b840191505092915050565b600061245b82612cfd565b6124658185612d60565b9350612475818560208601612e2f565b80840191505092915050565b60008154600181166000811461249e57600181146124c457612508565b607f60028304166124af8187612d3e565b955060ff198316865260208601935050612508565b600282046124d28187612d3e565b95506124dd85612cd2565b60005b828110156124ff578154818901526001820191506020810190506124e0565b80880195505050505b505092915050565b600061251d600683612d4f565b91507f54657374203100000000000000000000000000000000000000000000000000006000830152602082019050919050565b600061255d600683612d4f565b91507f54657374203300000000000000000000000000000000000000000000000000006000830152602082019050919050565b600061259d602683612d4f565b91507f4f776e61626c653a206e6577206f776e657220697320746865207a65726f206160008301527f64647265737300000000000000000000000000000000000000000000000000006020830152604082019050919050565b6000612603600683612d4f565b91507f54657374203200000000000000000000000000000000000000000000000000006000830152602082019050919050565b6000612643601583612d4f565b91507f436f756c64206e6f742073656e6420746f6b656e7300000000000000000000006000830152602082019050919050565b6000612683602083612d4f565b91507f4f776e61626c653a2063616c6c6572206973206e6f7420746865206f776e65726000830152602082019050919050565b60006126c3602683612d4f565b91507f56616c75652073656e74206d7573742062652067726561746572207468616e2060008301527f70726963652e00000000000000000000000000000000000000000000000000006020830152604082019050919050565b600060808301600083015161273460008601826122b8565b506020830151848203602086015261274c82826123de565b9150506040830151848203604086015261276682826123de565b915050606083015161277b60608601826123c0565b508091505092915050565b600060808301600083015161279e60008601826122b8565b50602083015184820360208601526127b682826123de565b915050604083015184820360408601526127d082826123de565b91505060608301516127e560608601826123c0565b508091505092915050565b600060808301600080840154905061280781612e62565b61281460008701826122b8565b5060018401858303602087015261282b8382612481565b9250506002840185830360408701526128448382612481565b9250506003840154905061285781612e7c565b61286460608701826123c0565b50819250505092915050565b6000604083016000830151848203600086015261288d828261271c565b91505060208301516128a26020860182612933565b508091505092915050565b600060408301600083015184820360008601526128ca828261271c565b91505060208301516128df6020860182612933565b508091505092915050565b6000604083016000808401858303600087015261290783826127f0565b9250506004840154905061291a81612e96565b6129276020870182612933565b50819250505092915050565b61293c81612de0565b82525050565b61294b81612de0565b82525050565b600061295d8284612450565b915081905092915050565b600060208201905061297d60008301846122c7565b92915050565b600060608201905061299860008301866122a9565b6129a560208301856122c7565b6129b26040830184612942565b949350505050565b600060208201905081810360008301526129d481846122d6565b905092915050565b600060208201905081810360008301526129f6818461234b565b905092915050565b6000602082019050612a1360008301846123cf565b92915050565b60006020820190508181036000830152612a338184612417565b905092915050565b60006020820190508181036000830152612a5481612590565b9050919050565b60006020820190508181036000830152612a7481612636565b9050919050565b60006020820190508181036000830152612a9481612676565b9050919050565b60006020820190508181036000830152612ab4816126b6565b9050919050565b60006020820190508181036000830152612ad58184612786565b905092915050565b60006040820190508181036000830152612af78185612786565b9050612b066020830184612942565b9392505050565b60006020820190508181036000830152612b2781846128ad565b905092915050565b60006020820190508181036000830152612b4981846128ea565b905092915050565b6000602082019050612b666000830184612942565b92915050565b6000608082019050612b816000830186612942565b8181036020830152612b938185612417565b9050612ba26040830184612942565b8181036060830152612bb381612510565b9050949350505050565b6000608082019050612bd26000830186612942565b8181036020830152612be48185612417565b9050612bf36040830184612942565b8181036060830152612c0481612550565b9050949350505050565b6000608082019050612c236000830186612942565b8181036020830152612c358185612417565b9050612c446040830184612942565b8181036060830152612c55816125f6565b9050949350505050565b6000604051905081810181811067ffffffffffffffff82111715612c8257600080fd5b8060405250919050565b600067ffffffffffffffff821115612ca357600080fd5b601f19601f8301169050602081019050919050565b6000819050602082019050919050565b6000819050919050565b60008190508160005260206000209050919050565b600081519050919050565b6000600a9050919050565b600081519050919050565b6000602082019050919050565b6000602082019050919050565b600082825260208201905092915050565b600081905092915050565b600082825260208201905092915050565b600082825260208201905092915050565b600081905092915050565b600073ffffffffffffffffffffffffffffffffffffffff82169050919050565b600060ff82169050919050565b6000819050919050565b6000612dad82612dc0565b9050919050565b60008115159050919050565b600073ffffffffffffffffffffffffffffffffffffffff82169050919050565b6000819050919050565b6000612df582612dfc565b9050919050565b6000612e0782612e0e565b9050919050565b6000612e1982612dc0565b9050919050565b82818337600083830152505050565b60005b83811015612e4d578082015181840152602081019050612e32565b83811115612e5c576000848401525b50505050565b6000612e75612e7083612ec1565b612d6b565b9050919050565b6000612e8f612e8a83612ec1565b612d8b565b9050919050565b6000612ea9612ea483612ec1565b612d98565b9050919050565b6000601f19601f8301169050919050565b60008160001c9050919050565b612ed781612da2565b8114612ee257600080fd5b50565b612eee81612db4565b8114612ef957600080fd5b50565b612f0581612de0565b8114612f1057600080fd5b5056fea26469706673582212207cc1560e521d29837a04362f7e1d38b93e4f19d8d1bfe12238acbf2792cca84c64736f6c63430007010033",
  "immutableReferences": {},
  "source": "// SPDX-License-Identifier: MIT\r\npragma solidity >=0.7.0;\r\npragma experimental ABIEncoderV2;\r\n\r\nimport \"./Repository.sol\";\r\nimport \"./GLDToken.sol\";\r\nimport \"@openzeppelin/contracts/access/Ownable.sol\";\r\n\r\ncontract Promotions is Repository{\r\n    \r\n    struct promotion{\r\n        Repo promotedRepo;\r\n        uint pricePaid;\r\n    }\r\n\r\n    Repository private repo;\r\n    GLDToken private token;\r\n    uint price;\r\n    promotion[10] public livePromotions;\r\n    mapping (string => promotion) promotions;\r\n    address thisOwner; // Contract owner\r\n    \r\n    event Test(address indexed _from, uint price, string _slug, uint index, string name);\r\n    event Test2(promotion testPromotion);\r\n\r\n    constructor(address tokenAddress, address repoAddress) Repository(tokenAddress){\r\n        repo = Repository(repoAddress);\r\n        token = GLDToken(tokenAddress);\r\n        thisOwner = msg.sender;\r\n    }\r\n    \r\n    // Create Promotion\r\n    function createPromotion(string memory _projectSlug, uint amount) public {\r\n        // Check amount\r\n        require(amount > price, \"Value sent must be greater than price.\");\r\n\r\n        // send money\r\n        require(token.transferFrom(msg.sender, address(this), amount) == true, \"Could not send tokens\");\r\n\r\n        // Get Repo\r\n        Repo memory promotedRepo = repo.getRepo(_projectSlug);\r\n\r\n        // Create Promotion\r\n        promotions[_projectSlug] = promotion(promotedRepo, amount);\r\n\r\n        // Find lowest paid promotion\r\n        uint lowestIndex = 0;\r\n        uint lowestPaid = livePromotions[0].pricePaid;\r\n        for(uint i = 1; i < livePromotions.length; i++){\r\n            emit Test(msg.sender, price, _projectSlug, i, \"Test 1\");\r\n            if(livePromotions[i].pricePaid < lowestPaid){\r\n                price = lowestPaid;\r\n                lowestIndex = i;\r\n                emit Test(msg.sender, price, _projectSlug, i, \"Test 2\");\r\n            }\r\n        }\r\n        // Remove lowest paid promotion & Make New Promotion Live\r\n        emit Test(msg.sender, price, _projectSlug, lowestIndex, \"Test 3\");\r\n        Test2(promotions[_projectSlug]);\r\n        livePromotions[lowestIndex] = promotions[_projectSlug]; // promotion(promotedRepo, amount);\r\n        Test2(livePromotions[lowestIndex]);\r\n    }\r\n    // Remove Promotion\r\n    function removePromotion(string memory _projectSlug) public {\r\n       \r\n       \r\n    }\r\n    // Get Price\r\n    function getPrice() public view returns(uint) {\r\n        return price;\r\n    }\r\n    // Get One Promotion\r\n    function getPromotion(string memory _projectSlug) public view returns(promotion memory) {\r\n        return promotions[_projectSlug];\r\n    }\r\n\r\n    // Get Live Promotions\r\n    function getAllPromotions() public view returns(promotion[10] memory) {\r\n        return livePromotions;\r\n    }\r\n}",
  "sourcePath": "C:/Users/jamie/Desktop/Thesis/planetGit/src/contracts/Promotions.sol",
  "compiler": {
    "name": "solc",
    "version": "0.7.1+commit.f4a555be.Emscripten.clang"
  },
  "schemaVersion": "3.2.5",
  "updatedAt": "2020-11-01T10:37:19.701Z",
  "devdoc": {
    "kind": "dev",
    "methods": {
      "owner()": {
        "details": "Returns the address of the current owner."
      },
      "renounceOwnership()": {
        "details": "Leaves the contract without owner. It will not be possible to call `onlyOwner` functions anymore. Can only be called by the current owner. NOTE: Renouncing ownership will leave the contract without an owner, thereby removing any functionality that is only available to the owner."
      },
      "transferOwnership(address)": {
        "details": "Transfers ownership of the contract to a new account (`newOwner`). Can only be called by the current owner."
      }
    },
    "version": 1
  },
  "userdoc": {
    "kind": "user",
    "methods": {},
    "version": 1
  }
}