{
  "contractName": "Promotions",
  "abi": [
    {
      "inputs": [
        {
          "internalType": "address",
          "name": "tokenAddress",
          "type": "address"
        },
        {
          "internalType": "address",
          "name": "repoAddress",
          "type": "address"
        }
      ],
      "stateMutability": "nonpayable",
      "type": "constructor"
    },
    {
      "anonymous": false,
      "inputs": [
        {
          "indexed": true,
          "internalType": "address",
          "name": "previousOwner",
          "type": "address"
        },
        {
          "indexed": true,
          "internalType": "address",
          "name": "newOwner",
          "type": "address"
        }
      ],
      "name": "OwnershipTransferred",
      "type": "event"
    },
    {
      "anonymous": false,
      "inputs": [
        {
          "indexed": true,
          "internalType": "address",
          "name": "_from",
          "type": "address"
        },
        {
          "indexed": false,
          "internalType": "uint256",
          "name": "price",
          "type": "uint256"
        },
        {
          "indexed": false,
          "internalType": "string",
          "name": "_slug",
          "type": "string"
        },
        {
          "indexed": false,
          "internalType": "uint256",
          "name": "index",
          "type": "uint256"
        },
        {
          "indexed": false,
          "internalType": "string",
          "name": "name",
          "type": "string"
        }
      ],
      "name": "Test",
      "type": "event"
    },
    {
      "anonymous": false,
      "inputs": [
        {
          "components": [
            {
              "components": [
                {
                  "internalType": "address",
                  "name": "owner",
                  "type": "address"
                },
                {
                  "internalType": "string",
                  "name": "repoName",
                  "type": "string"
                },
                {
                  "internalType": "string",
                  "name": "repoHash",
                  "type": "string"
                },
                {
                  "internalType": "bool",
                  "name": "exists",
                  "type": "bool"
                }
              ],
              "internalType": "struct Repository.Repo",
              "name": "promotedRepo",
              "type": "tuple"
            },
            {
              "internalType": "string",
              "name": "imgHash",
              "type": "string"
            },
            {
              "internalType": "uint256",
              "name": "pricePaid",
              "type": "uint256"
            }
          ],
          "indexed": false,
          "internalType": "struct Promotions.promotion",
          "name": "testPromotion",
          "type": "tuple"
        }
      ],
      "name": "Test2",
      "type": "event"
    },
    {
      "inputs": [
        {
          "internalType": "uint256",
          "name": "",
          "type": "uint256"
        }
      ],
      "name": "allRepos",
      "outputs": [
        {
          "internalType": "string",
          "name": "",
          "type": "string"
        }
      ],
      "stateMutability": "view",
      "type": "function",
      "constant": true
    },
    {
      "inputs": [
        {
          "internalType": "string",
          "name": "_projectSlug",
          "type": "string"
        },
        {
          "internalType": "string",
          "name": "_projectName",
          "type": "string"
        },
        {
          "internalType": "string",
          "name": "_repoHash",
          "type": "string"
        }
      ],
      "name": "createRepo",
      "outputs": [],
      "stateMutability": "nonpayable",
      "type": "function"
    },
    {
      "inputs": [],
      "name": "getAllRepos",
      "outputs": [
        {
          "internalType": "string[]",
          "name": "",
          "type": "string[]"
        }
      ],
      "stateMutability": "view",
      "type": "function",
      "constant": true
    },
    {
      "inputs": [
        {
          "internalType": "string",
          "name": "_projectSlug",
          "type": "string"
        }
      ],
      "name": "getRepo",
      "outputs": [
        {
          "components": [
            {
              "internalType": "address",
              "name": "owner",
              "type": "address"
            },
            {
              "internalType": "string",
              "name": "repoName",
              "type": "string"
            },
            {
              "internalType": "string",
              "name": "repoHash",
              "type": "string"
            },
            {
              "internalType": "bool",
              "name": "exists",
              "type": "bool"
            }
          ],
          "internalType": "struct Repository.Repo",
          "name": "",
          "type": "tuple"
        }
      ],
      "stateMutability": "view",
      "type": "function",
      "constant": true
    },
    {
      "inputs": [
        {
          "internalType": "string",
          "name": "_projectSlug",
          "type": "string"
        }
      ],
      "name": "getRepoHash",
      "outputs": [
        {
          "internalType": "string",
          "name": "",
          "type": "string"
        }
      ],
      "stateMutability": "view",
      "type": "function",
      "constant": true
    },
    {
      "inputs": [
        {
          "internalType": "string",
          "name": "_projectSlug",
          "type": "string"
        }
      ],
      "name": "getRepoName",
      "outputs": [
        {
          "internalType": "string",
          "name": "",
          "type": "string"
        }
      ],
      "stateMutability": "view",
      "type": "function",
      "constant": true
    },
    {
      "inputs": [
        {
          "internalType": "string",
          "name": "_projectSlug",
          "type": "string"
        }
      ],
      "name": "getRepoOwner",
      "outputs": [
        {
          "internalType": "address",
          "name": "",
          "type": "address"
        }
      ],
      "stateMutability": "view",
      "type": "function",
      "constant": true
    },
    {
      "inputs": [
        {
          "internalType": "uint256",
          "name": "",
          "type": "uint256"
        }
      ],
      "name": "livePromotions",
      "outputs": [
        {
          "components": [
            {
              "internalType": "address",
              "name": "owner",
              "type": "address"
            },
            {
              "internalType": "string",
              "name": "repoName",
              "type": "string"
            },
            {
              "internalType": "string",
              "name": "repoHash",
              "type": "string"
            },
            {
              "internalType": "bool",
              "name": "exists",
              "type": "bool"
            }
          ],
          "internalType": "struct Repository.Repo",
          "name": "promotedRepo",
          "type": "tuple"
        },
        {
          "internalType": "string",
          "name": "imgHash",
          "type": "string"
        },
        {
          "internalType": "uint256",
          "name": "pricePaid",
          "type": "uint256"
        }
      ],
      "stateMutability": "view",
      "type": "function",
      "constant": true
    },
    {
      "inputs": [],
      "name": "owner",
      "outputs": [
        {
          "internalType": "address",
          "name": "",
          "type": "address"
        }
      ],
      "stateMutability": "view",
      "type": "function",
      "constant": true
    },
    {
      "inputs": [],
      "name": "renounceOwnership",
      "outputs": [],
      "stateMutability": "nonpayable",
      "type": "function"
    },
    {
      "inputs": [
        {
          "internalType": "address",
          "name": "newOwner",
          "type": "address"
        }
      ],
      "name": "transferOwnership",
      "outputs": [],
      "stateMutability": "nonpayable",
      "type": "function"
    },
    {
      "inputs": [
        {
          "internalType": "string",
          "name": "_projectSlug",
          "type": "string"
        }
      ],
      "name": "uniqueRepoSlug",
      "outputs": [
        {
          "internalType": "bool",
          "name": "isUnique",
          "type": "bool"
        }
      ],
      "stateMutability": "view",
      "type": "function",
      "constant": true
    },
    {
      "inputs": [
        {
          "internalType": "string",
          "name": "_projectSlug",
          "type": "string"
        },
        {
          "internalType": "string",
          "name": "_repoHash",
          "type": "string"
        }
      ],
      "name": "updateRepo",
      "outputs": [],
      "stateMutability": "nonpayable",
      "type": "function"
    },
    {
      "inputs": [
        {
          "internalType": "string",
          "name": "_projectSlug",
          "type": "string"
        },
        {
          "internalType": "string",
          "name": "_imgHash",
          "type": "string"
        },
        {
          "internalType": "uint256",
          "name": "_amount",
          "type": "uint256"
        }
      ],
      "name": "createPromotion",
      "outputs": [],
      "stateMutability": "nonpayable",
      "type": "function"
    },
    {
      "inputs": [
        {
          "internalType": "string",
          "name": "_projectSlug",
          "type": "string"
        }
      ],
      "name": "removePromotion",
      "outputs": [],
      "stateMutability": "nonpayable",
      "type": "function"
    },
    {
      "inputs": [],
      "name": "getPrice",
      "outputs": [
        {
          "internalType": "uint256",
          "name": "",
          "type": "uint256"
        }
      ],
      "stateMutability": "view",
      "type": "function",
      "constant": true
    },
    {
      "inputs": [
        {
          "internalType": "string",
          "name": "_projectSlug",
          "type": "string"
        }
      ],
      "name": "getPromotion",
      "outputs": [
        {
          "components": [
            {
              "components": [
                {
                  "internalType": "address",
                  "name": "owner",
                  "type": "address"
                },
                {
                  "internalType": "string",
                  "name": "repoName",
                  "type": "string"
                },
                {
                  "internalType": "string",
                  "name": "repoHash",
                  "type": "string"
                },
                {
                  "internalType": "bool",
                  "name": "exists",
                  "type": "bool"
                }
              ],
              "internalType": "struct Repository.Repo",
              "name": "promotedRepo",
              "type": "tuple"
            },
            {
              "internalType": "string",
              "name": "imgHash",
              "type": "string"
            },
            {
              "internalType": "uint256",
              "name": "pricePaid",
              "type": "uint256"
            }
          ],
          "internalType": "struct Promotions.promotion",
          "name": "",
          "type": "tuple"
        }
      ],
      "stateMutability": "view",
      "type": "function",
      "constant": true
    },
    {
      "inputs": [],
      "name": "getAllPromotions",
      "outputs": [
        {
          "components": [
            {
              "components": [
                {
                  "internalType": "address",
                  "name": "owner",
                  "type": "address"
                },
                {
                  "internalType": "string",
                  "name": "repoName",
                  "type": "string"
                },
                {
                  "internalType": "string",
                  "name": "repoHash",
                  "type": "string"
                },
                {
                  "internalType": "bool",
                  "name": "exists",
                  "type": "bool"
                }
              ],
              "internalType": "struct Repository.Repo",
              "name": "promotedRepo",
              "type": "tuple"
            },
            {
              "internalType": "string",
              "name": "imgHash",
              "type": "string"
            },
            {
              "internalType": "uint256",
              "name": "pricePaid",
              "type": "uint256"
            }
          ],
          "internalType": "struct Promotions.promotion[10]",
          "name": "",
          "type": "tuple[10]"
        }
      ],
      "stateMutability": "view",
      "type": "function",
      "constant": true
    }
  ],
  "bytecode": "0x60806040523480156200001157600080fd5b50604051620035a4380380620035a4833981810160405281019062000037919062000214565b8160006200004a620001f560201b60201c565b9050806000806101000a81548173ffffffffffffffffffffffffffffffffffffffff021916908373ffffffffffffffffffffffffffffffffffffffff1602179055508073ffffffffffffffffffffffffffffffffffffffff16600073ffffffffffffffffffffffffffffffffffffffff167f8be0079c531659141344cd1fd0a4f28419497f9722a3daafe3b4186f6b6457e060405160405180910390a35080600160006101000a81548173ffffffffffffffffffffffffffffffffffffffff021916908373ffffffffffffffffffffffffffffffffffffffff1602179055505080600560006101000a81548173ffffffffffffffffffffffffffffffffffffffff021916908373ffffffffffffffffffffffffffffffffffffffff16021790555081600660006101000a81548173ffffffffffffffffffffffffffffffffffffffff021916908373ffffffffffffffffffffffffffffffffffffffff16021790555033604560006101000a81548173ffffffffffffffffffffffffffffffffffffffff021916908373ffffffffffffffffffffffffffffffffffffffff1602179055505050620002a3565b600033905090565b6000815190506200020e8162000289565b92915050565b600080604083850312156200022857600080fd5b60006200023885828601620001fd565b92505060206200024b85828601620001fd565b9150509250929050565b6000620002628262000269565b9050919050565b600073ffffffffffffffffffffffffffffffffffffffff82169050919050565b620002948162000255565b8114620002a057600080fd5b50565b6132f180620002b36000396000f3fe608060405234801561001057600080fd5b50600436106101165760003560e01c806398d5fdca116100a2578063e2c782a211610071578063e2c782a2146102f5578063f2fde38b14610325578063f4845d8714610341578063f5cc98c914610371578063f692603f1461038f57610116565b806398d5fdca1461026f5780639e20505a1461028d578063b4bc07c2146102a9578063ce654d22146102d957610116565b8063715018a6116100e9578063715018a6146101cb5780637f3b156f146101d557806382149bcb146102055780638da5cb5b1461023557806390ec291d1461025357610116565b80630446c5191461011b5780631a54386b1461014b57806339f917801461017b5780634ce9a012146101ad575b600080fd5b61013560048036038101906101309190612309565b6103ab565b6040516101429190612d5b565b60405180910390f35b61016560048036038101906101609190612309565b61046e565b6040516101729190612e64565b60405180910390f35b6101956004803603810190610190919061250d565b61071b565b6040516101a493929190612e1f565b60405180910390f35b6101b561099f565b6040516101c29190612d1e565b60405180910390f35b6101d3610c66565b005b6101ef60048036038101906101ea919061250d565b610db9565b6040516101fc9190612d5b565b60405180910390f35b61021f600480360381019061021a9190612309565b610e72565b60405161022c9190612dfd565b60405180910390f35b61023d61105f565b60405161024a9190612caa565b60405180910390f35b61026d600480360381019061026891906123b6565b611088565b005b6102776112e0565b6040516102849190612ea8565b60405180910390f35b6102a760048036038101906102a2919061234a565b6112ea565b005b6102c360048036038101906102be9190612309565b61140d565b6040516102d09190612d40565b60405180910390f35b6102f360048036038101906102ee9190612309565b61145c565b005b61030f600480360381019061030a9190612309565b61145f565b60405161031c9190612caa565b60405180910390f35b61033f600480360381019061033a91906122b7565b6114aa565b005b61035b60048036038101906103569190612309565b61166c565b6040516103689190612d5b565b60405180910390f35b6103796117c4565b6040516103869190612cfc565b60405180910390f35b6103a960048036038101906103a4919061244d565b6118ad565b005b60606002826040516103bd9190612c93565b90815260200160405180910390206001018054600181600116156101000203166002900480601f0160208091040260200160405190810160405280929190818152602001828054600181600116156101000203166002900480156104625780601f1061043757610100808354040283529160200191610462565b820191906000526020600020905b81548152906001019060200180831161044557829003601f168201915b50505050509050919050565b610476611f5e565b6044826040516104869190612c93565b9081526020016040518091039020604051806060016040529081600082016040518060800160405290816000820160009054906101000a900473ffffffffffffffffffffffffffffffffffffffff1673ffffffffffffffffffffffffffffffffffffffff1673ffffffffffffffffffffffffffffffffffffffff168152602001600182018054600181600116156101000203166002900480601f01602080910402602001604051908101604052809291908181526020018280546001816001161561010002031660029004801561059e5780601f106105735761010080835404028352916020019161059e565b820191906000526020600020905b81548152906001019060200180831161058157829003601f168201915b50505050508152602001600282018054600181600116156101000203166002900480601f0160208091040260200160405190810160405280929190818152602001828054600181600116156101000203166002900480156106405780601f1061061557610100808354040283529160200191610640565b820191906000526020600020905b81548152906001019060200180831161062357829003601f168201915b505050505081526020016003820160009054906101000a900460ff1615151515815250508152602001600482018054600181600116156101000203166002900480601f0160208091040260200160405190810160405280929190818152602001828054600181600116156101000203166002900480156107015780601f106106d657610100808354040283529160200191610701565b820191906000526020600020905b8154815290600101906020018083116106e457829003601f168201915b505050505081526020016005820154815250509050919050565b600881600a811061072857fe5b60060201600091509050806000016040518060800160405290816000820160009054906101000a900473ffffffffffffffffffffffffffffffffffffffff1673ffffffffffffffffffffffffffffffffffffffff1673ffffffffffffffffffffffffffffffffffffffff168152602001600182018054600181600116156101000203166002900480601f0160208091040260200160405190810160405280929190818152602001828054600181600116156101000203166002900480156108305780601f1061080557610100808354040283529160200191610830565b820191906000526020600020905b81548152906001019060200180831161081357829003601f168201915b50505050508152602001600282018054600181600116156101000203166002900480601f0160208091040260200160405190810160405280929190818152602001828054600181600116156101000203166002900480156108d25780601f106108a7576101008083540402835291602001916108d2565b820191906000526020600020905b8154815290600101906020018083116108b557829003601f168201915b505050505081526020016003820160009054906101000a900460ff16151515158152505090806004018054600181600116156101000203166002900480601f01602080910402602001604051908101604052809291908181526020018280546001816001161561010002031660029004801561098f5780601f106109645761010080835404028352916020019161098f565b820191906000526020600020905b81548152906001019060200180831161097257829003601f168201915b5050505050908060050154905083565b6109a7611f85565b6008600a80602002604051908101604052809291906000905b82821015610c5d57838260060201604051806060016040529081600082016040518060800160405290816000820160009054906101000a900473ffffffffffffffffffffffffffffffffffffffff1673ffffffffffffffffffffffffffffffffffffffff1673ffffffffffffffffffffffffffffffffffffffff168152602001600182018054600181600116156101000203166002900480601f016020809104026020016040519081016040528092919081815260200182805460018160011615610100020316600290048015610ad85780601f10610aad57610100808354040283529160200191610ad8565b820191906000526020600020905b815481529060010190602001808311610abb57829003601f168201915b50505050508152602001600282018054600181600116156101000203166002900480601f016020809104026020016040519081016040528092919081815260200182805460018160011615610100020316600290048015610b7a5780601f10610b4f57610100808354040283529160200191610b7a565b820191906000526020600020905b815481529060010190602001808311610b5d57829003601f168201915b505050505081526020016003820160009054906101000a900460ff1615151515815250508152602001600482018054600181600116156101000203166002900480601f016020809104026020016040519081016040528092919081815260200182805460018160011615610100020316600290048015610c3b5780601f10610c1057610100808354040283529160200191610c3b565b820191906000526020600020905b815481529060010190602001808311610c1e57829003601f168201915b50505050508152602001600582015481525050815260200190600101906109c0565b50505050905090565b610c6e611f56565b73ffffffffffffffffffffffffffffffffffffffff1660008054906101000a900473ffffffffffffffffffffffffffffffffffffffff1673ffffffffffffffffffffffffffffffffffffffff1614610cfb576040517f08c379a0000000000000000000000000000000000000000000000000000000008152600401610cf290612dbd565b60405180910390fd5b600073ffffffffffffffffffffffffffffffffffffffff1660008054906101000a900473ffffffffffffffffffffffffffffffffffffffff1673ffffffffffffffffffffffffffffffffffffffff167f8be0079c531659141344cd1fd0a4f28419497f9722a3daafe3b4186f6b6457e060405160405180910390a360008060006101000a81548173ffffffffffffffffffffffffffffffffffffffff021916908373ffffffffffffffffffffffffffffffffffffffff160217905550565b60048181548110610dc657fe5b906000526020600020016000915090508054600181600116156101000203166002900480601f016020809104026020016040519081016040528092919081815260200182805460018160011615610100020316600290048015610e6a5780601f10610e3f57610100808354040283529160200191610e6a565b820191906000526020600020905b815481529060010190602001808311610e4d57829003601f168201915b505050505081565b610e7a611fb3565b600282604051610e8a9190612c93565b90815260200160405180910390206040518060800160405290816000820160009054906101000a900473ffffffffffffffffffffffffffffffffffffffff1673ffffffffffffffffffffffffffffffffffffffff1673ffffffffffffffffffffffffffffffffffffffff168152602001600182018054600181600116156101000203166002900480601f016020809104026020016040519081016040528092919081815260200182805460018160011615610100020316600290048015610f925780601f10610f6757610100808354040283529160200191610f92565b820191906000526020600020905b815481529060010190602001808311610f7557829003601f168201915b50505050508152602001600282018054600181600116156101000203166002900480601f0160208091040260200160405190810160405280929190818152602001828054600181600116156101000203166002900480156110345780601f1061100957610100808354040283529160200191611034565b820191906000526020600020905b81548152906001019060200180831161101757829003601f168201915b505050505081526020016003820160009054906101000a900460ff1615151515815250509050919050565b60008060009054906101000a900473ffffffffffffffffffffffffffffffffffffffff16905090565b6110918361140d565b156112db5761109e611fb3565b60405180608001604052803373ffffffffffffffffffffffffffffffffffffffff16815260200184815260200183815260200160011515815250905080600360003373ffffffffffffffffffffffffffffffffffffffff1673ffffffffffffffffffffffffffffffffffffffff168152602001908152602001600020856040516111289190612c93565b908152602001604051809103902060008201518160000160006101000a81548173ffffffffffffffffffffffffffffffffffffffff021916908373ffffffffffffffffffffffffffffffffffffffff1602179055506020820151816001019080519060200190611199929190611ff3565b5060408201518160020190805190602001906111b6929190611ff3565b5060608201518160030160006101000a81548160ff021916908315150217905550905050806002856040516111eb9190612c93565b908152602001604051809103902060008201518160000160006101000a81548173ffffffffffffffffffffffffffffffffffffffff021916908373ffffffffffffffffffffffffffffffffffffffff160217905550602082015181600101908051906020019061125c929190611ff3565b506040820151816002019080519060200190611279929190611ff3565b5060608201518160030160006101000a81548160ff0219169083151502179055509050506004849080600181540180825580915050600190039060005260206000200160009091909190915090805190602001906112d8929190611ff3565b50505b505050565b6000600754905090565b6002826040516112fa9190612c93565b908152602001604051809103902060000160009054906101000a900473ffffffffffffffffffffffffffffffffffffffff1673ffffffffffffffffffffffffffffffffffffffff163373ffffffffffffffffffffffffffffffffffffffff1614156114095780600360003373ffffffffffffffffffffffffffffffffffffffff1673ffffffffffffffffffffffffffffffffffffffff168152602001908152602001600020836040516113ad9190612c93565b908152602001604051809103902060020190805190602001906113d1929190611ff3565b50806002836040516113e39190612c93565b90815260200160405180910390206002019080519060200190611407929190611ff3565b505b5050565b6000600115156002836040516114239190612c93565b908152602001604051809103902060030160009054906101000a900460ff161515146114525760019050611457565b600090505b919050565b50565b60006002826040516114719190612c93565b908152602001604051809103902060000160009054906101000a900473ffffffffffffffffffffffffffffffffffffffff169050919050565b6114b2611f56565b73ffffffffffffffffffffffffffffffffffffffff1660008054906101000a900473ffffffffffffffffffffffffffffffffffffffff1673ffffffffffffffffffffffffffffffffffffffff161461153f576040517f08c379a000000000000000000000000000000000000000000000000000000000815260040161153690612dbd565b60405180910390fd5b600073ffffffffffffffffffffffffffffffffffffffff168173ffffffffffffffffffffffffffffffffffffffff1614156115af576040517f08c379a00000000000000000000000000000000000000000000000000000000081526004016115a690612d7d565b60405180910390fd5b8073ffffffffffffffffffffffffffffffffffffffff1660008054906101000a900473ffffffffffffffffffffffffffffffffffffffff1673ffffffffffffffffffffffffffffffffffffffff167f8be0079c531659141344cd1fd0a4f28419497f9722a3daafe3b4186f6b6457e060405160405180910390a3806000806101000a81548173ffffffffffffffffffffffffffffffffffffffff021916908373ffffffffffffffffffffffffffffffffffffffff16021790555050565b6060611676611f56565b73ffffffffffffffffffffffffffffffffffffffff1660008054906101000a900473ffffffffffffffffffffffffffffffffffffffff1673ffffffffffffffffffffffffffffffffffffffff1614611703576040517f08c379a00000000000000000000000000000000000000000000000000000000081526004016116fa90612dbd565b60405180910390fd5b6002826040516117139190612c93565b90815260200160405180910390206002018054600181600116156101000203166002900480601f0160208091040260200160405190810160405280929190818152602001828054600181600116156101000203166002900480156117b85780601f1061178d576101008083540402835291602001916117b8565b820191906000526020600020905b81548152906001019060200180831161179b57829003601f168201915b50505050509050919050565b60606004805480602002602001604051908101604052809291908181526020016000905b828210156118a4578382906000526020600020018054600181600116156101000203166002900480601f0160208091040260200160405190810160405280929190818152602001828054600181600116156101000203166002900480156118905780601f1061186557610100808354040283529160200191611890565b820191906000526020600020905b81548152906001019060200180831161187357829003601f168201915b5050505050815260200190600101906117e8565b50505050905090565b60075481116118f1576040517f08c379a00000000000000000000000000000000000000000000000000000000081526004016118e890612ddd565b60405180910390fd5b60011515600660009054906101000a900473ffffffffffffffffffffffffffffffffffffffff1673ffffffffffffffffffffffffffffffffffffffff166323b872dd3330856040518463ffffffff1660e01b815260040161195493929190612cc5565b602060405180830381600087803b15801561196e57600080fd5b505af1158015611982573d6000803e3d6000fd5b505050506040513d601f19601f820116820180604052508101906119a691906122e0565b1515146119e8576040517f08c379a00000000000000000000000000000000000000000000000000000000081526004016119df90612d9d565b60405180910390fd5b6119f0611fb3565b600560009054906101000a900473ffffffffffffffffffffffffffffffffffffffff1673ffffffffffffffffffffffffffffffffffffffff166382149bcb856040518263ffffffff1660e01b8152600401611a4b9190612d5b565b60006040518083038186803b158015611a6357600080fd5b505afa158015611a77573d6000803e3d6000fd5b505050506040513d6000823e3d601f19601f82011682018060405250810190611aa091906124cc565b9050604051806060016040528082815260200184815260200183815250604485604051611acd9190612c93565b908152602001604051809103902060008201518160000160008201518160000160006101000a81548173ffffffffffffffffffffffffffffffffffffffff021916908373ffffffffffffffffffffffffffffffffffffffff1602179055506020820151816001019080519060200190611b47929190611ff3565b506040820151816002019080519060200190611b64929190611ff3565b5060608201518160030160006101000a81548160ff02191690831515021790555050506020820151816004019080519060200190611ba3929190611ff3565b506040820151816005015590505060008060086000600a8110611bc257fe5b600602016005015490503373ffffffffffffffffffffffffffffffffffffffff167f1558f7e3d78173fe100dea1de5c8344a8ceefeeeb986c171d45cbd385e645e9c6007548885604051611c1893929190612fb6565b60405180910390a26000600190505b600a811015611d0c573373ffffffffffffffffffffffffffffffffffffffff167f1558f7e3d78173fe100dea1de5c8344a8ceefeeeb986c171d45cbd385e645e9c6007548984604051611c7c93929190612ec3565b60405180910390a281600882600a8110611c9257fe5b60060201600501541015611cff57816007819055508092503373ffffffffffffffffffffffffffffffffffffffff167f1558f7e3d78173fe100dea1de5c8344a8ceefeeeb986c171d45cbd385e645e9c6007548984604051611cf693929190612f65565b60405180910390a25b8080600101915050611c27565b503373ffffffffffffffffffffffffffffffffffffffff167f1558f7e3d78173fe100dea1de5c8344a8ceefeeeb986c171d45cbd385e645e9c6007548885604051611d5993929190612f14565b60405180910390a27f07d7f9c26fc96d8a255f63dfbca2bfcfeb9983732a1ea5686a541cd24596cc53604487604051611d929190612c93565b9081526020016040518091039020604051611dad9190612e86565b60405180910390a1604486604051611dc59190612c93565b9081526020016040518091039020600883600a8110611de057fe5b6006020160008201816000016000820160009054906101000a900473ffffffffffffffffffffffffffffffffffffffff168160000160006101000a81548173ffffffffffffffffffffffffffffffffffffffff021916908373ffffffffffffffffffffffffffffffffffffffff16021790555060018201816001019080546001816001161561010002031660029004611e7a929190612073565b5060028201816002019080546001816001161561010002031660029004611ea2929190612073565b506003820160009054906101000a900460ff168160030160006101000a81548160ff021916908315150217905550505060048201816004019080546001816001161561010002031660029004611ef9929190612073565b50600582015481600501559050507f07d7f9c26fc96d8a255f63dfbca2bfcfeb9983732a1ea5686a541cd24596cc53600883600a8110611f3557fe5b60060201604051611f469190612e86565b60405180910390a1505050505050565b600033905090565b6040518060600160405280611f71611fb3565b815260200160608152602001600081525090565b604051806101400160405280600a905b611f9d611f5e565b815260200190600190039081611f955790505090565b6040518060800160405280600073ffffffffffffffffffffffffffffffffffffffff16815260200160608152602001606081526020016000151581525090565b828054600181600116156101000203166002900490600052602060002090601f016020900481019282601f1061203457805160ff1916838001178555612062565b82800160010185558215612062579182015b82811115612061578251825591602001919060010190612046565b5b50905061206f91906120fa565b5090565b828054600181600116156101000203166002900490600052602060002090601f016020900481019282601f106120ac57805485556120e9565b828001600101855582156120e957600052602060002091601f016020900482015b828111156120e85782548255916001019190600101906120cd565b5b5090506120f691906120fa565b5090565b5b808211156121135760008160009055506001016120fb565b5090565b60008135905061212681613276565b92915050565b60008151905061213b81613276565b92915050565b6000815190506121508161328d565b92915050565b600082601f83011261216757600080fd5b813561217a61217582613034565b613007565b9150808252602083016020830185838301111561219657600080fd5b6121a18382846131c8565b50505092915050565b600082601f8301126121bb57600080fd5b81516121ce6121c982613034565b613007565b915080825260208301602083018583830111156121ea57600080fd5b6121f58382846131d7565b50505092915050565b60006080828403121561221057600080fd5b61221a6080613007565b9050600061222a8482850161212c565b600083015250602082015167ffffffffffffffff81111561224a57600080fd5b612256848285016121aa565b602083015250604082015167ffffffffffffffff81111561227657600080fd5b612282848285016121aa565b604083015250606061229684828501612141565b60608301525092915050565b6000813590506122b1816132a4565b92915050565b6000602082840312156122c957600080fd5b60006122d784828501612117565b91505092915050565b6000602082840312156122f257600080fd5b600061230084828501612141565b91505092915050565b60006020828403121561231b57600080fd5b600082013567ffffffffffffffff81111561233557600080fd5b61234184828501612156565b91505092915050565b6000806040838503121561235d57600080fd5b600083013567ffffffffffffffff81111561237757600080fd5b61238385828601612156565b925050602083013567ffffffffffffffff8111156123a057600080fd5b6123ac85828601612156565b9150509250929050565b6000806000606084860312156123cb57600080fd5b600084013567ffffffffffffffff8111156123e557600080fd5b6123f186828701612156565b935050602084013567ffffffffffffffff81111561240e57600080fd5b61241a86828701612156565b925050604084013567ffffffffffffffff81111561243757600080fd5b61244386828701612156565b9150509250925092565b60008060006060848603121561246257600080fd5b600084013567ffffffffffffffff81111561247c57600080fd5b61248886828701612156565b935050602084013567ffffffffffffffff8111156124a557600080fd5b6124b186828701612156565b92505060406124c2868287016122a2565b9150509250925092565b6000602082840312156124de57600080fd5b600082015167ffffffffffffffff8111156124f857600080fd5b612504848285016121fe565b91505092915050565b60006020828403121561251f57600080fd5b600061252d848285016122a2565b91505092915050565b60006125428383612693565b905092915050565b60006125568383612b65565b905092915050565b61256781613192565b82525050565b6125768161314a565b82525050565b6125858161314a565b82525050565b60006125968261308f565b6125a081856130ca565b9350836020820285016125b285613060565b8060005b858110156125ee57848403895281516125cf8582612536565b94506125da836130b0565b925060208a019950506001810190506125b6565b50829750879550505050505092915050565b600061260b8261309a565b61261581856130db565b93508360208202850161262785613070565b8060005b858110156126635784840389528151612644858261254a565b945061264f836130bd565b925060208a0199505060018101905061262b565b50829750879550505050505092915050565b61267e8161315c565b82525050565b61268d8161315c565b82525050565b600061269e826130a5565b6126a881856130e6565b93506126b88185602086016131d7565b6126c181613258565b840191505092915050565b60006126d7826130a5565b6126e181856130f7565b93506126f18185602086016131d7565b6126fa81613258565b840191505092915050565b6000612710826130a5565b61271a8185613108565b935061272a8185602086016131d7565b80840191505092915050565b6000815460018116600081146127535760018114612779576127bd565b607f600283041661276481876130e6565b955060ff1983168652602086019350506127bd565b6002820461278781876130e6565b95506127928561307a565b60005b828110156127b457815481890152600182019150602081019050612795565b80880195505050505b505092915050565b60006127d26006836130f7565b91507f54657374203100000000000000000000000000000000000000000000000000006000830152602082019050919050565b60006128126006836130f7565b91507f54657374203300000000000000000000000000000000000000000000000000006000830152602082019050919050565b60006128526026836130f7565b91507f4f776e61626c653a206e6577206f776e657220697320746865207a65726f206160008301527f64647265737300000000000000000000000000000000000000000000000000006020830152604082019050919050565b60006128b86006836130f7565b91507f54657374203200000000000000000000000000000000000000000000000000006000830152602082019050919050565b60006128f86015836130f7565b91507f436f756c64206e6f742073656e6420746f6b656e7300000000000000000000006000830152602082019050919050565b60006129386020836130f7565b91507f4f776e61626c653a2063616c6c6572206973206e6f7420746865206f776e65726000830152602082019050919050565b60006129786006836130f7565b91507f54657374203000000000000000000000000000000000000000000000000000006000830152602082019050919050565b60006129b86026836130f7565b91507f56616c75652073656e74206d7573742062652067726561746572207468616e2060008301527f70726963652e00000000000000000000000000000000000000000000000000006020830152604082019050919050565b6000608083016000830151612a29600086018261256d565b5060208301518482036020860152612a418282612693565b91505060408301518482036040860152612a5b8282612693565b9150506060830151612a706060860182612675565b508091505092915050565b6000608083016000830151612a93600086018261256d565b5060208301518482036020860152612aab8282612693565b91505060408301518482036040860152612ac58282612693565b9150506060830151612ada6060860182612675565b508091505092915050565b6000608083016000808401549050612afc8161320a565b612b09600087018261256d565b50600184018583036020870152612b208382612736565b925050600284018583036040870152612b398382612736565b92505060038401549050612b4c81613224565b612b596060870182612675565b50819250505092915050565b60006060830160008301518482036000860152612b828282612a11565b91505060208301518482036020860152612b9c8282612693565b9150506040830151612bb16040860182612c75565b508091505092915050565b60006060830160008301518482036000860152612bd98282612a11565b91505060208301518482036020860152612bf38282612693565b9150506040830151612c086040860182612c75565b508091505092915050565b60006060830160008084018583036000870152612c308382612ae5565b925050600484018583036020870152612c498382612736565b92505060058401549050612c5c8161323e565b612c696040870182612c75565b50819250505092915050565b612c7e81613188565b82525050565b612c8d81613188565b82525050565b6000612c9f8284612705565b915081905092915050565b6000602082019050612cbf600083018461257c565b92915050565b6000606082019050612cda600083018661255e565b612ce7602083018561257c565b612cf46040830184612c84565b949350505050565b60006020820190508181036000830152612d16818461258b565b905092915050565b60006020820190508181036000830152612d388184612600565b905092915050565b6000602082019050612d556000830184612684565b92915050565b60006020820190508181036000830152612d7581846126cc565b905092915050565b60006020820190508181036000830152612d9681612845565b9050919050565b60006020820190508181036000830152612db6816128eb565b9050919050565b60006020820190508181036000830152612dd68161292b565b9050919050565b60006020820190508181036000830152612df6816129ab565b9050919050565b60006020820190508181036000830152612e178184612a7b565b905092915050565b60006060820190508181036000830152612e398186612a7b565b90508181036020830152612e4d81856126cc565b9050612e5c6040830184612c84565b949350505050565b60006020820190508181036000830152612e7e8184612bbc565b905092915050565b60006020820190508181036000830152612ea08184612c13565b905092915050565b6000602082019050612ebd6000830184612c84565b92915050565b6000608082019050612ed86000830186612c84565b8181036020830152612eea81856126cc565b9050612ef96040830184612c84565b8181036060830152612f0a816127c5565b9050949350505050565b6000608082019050612f296000830186612c84565b8181036020830152612f3b81856126cc565b9050612f4a6040830184612c84565b8181036060830152612f5b81612805565b9050949350505050565b6000608082019050612f7a6000830186612c84565b8181036020830152612f8c81856126cc565b9050612f9b6040830184612c84565b8181036060830152612fac816128ab565b9050949350505050565b6000608082019050612fcb6000830186612c84565b8181036020830152612fdd81856126cc565b9050612fec6040830184612c84565b8181036060830152612ffd8161296b565b9050949350505050565b6000604051905081810181811067ffffffffffffffff8211171561302a57600080fd5b8060405250919050565b600067ffffffffffffffff82111561304b57600080fd5b601f19601f8301169050602081019050919050565b6000819050602082019050919050565b6000819050919050565b60008190508160005260206000209050919050565b600081519050919050565b6000600a9050919050565b600081519050919050565b6000602082019050919050565b6000602082019050919050565b600082825260208201905092915050565b600081905092915050565b600082825260208201905092915050565b600082825260208201905092915050565b600081905092915050565b600073ffffffffffffffffffffffffffffffffffffffff82169050919050565b600060ff82169050919050565b6000819050919050565b600061315582613168565b9050919050565b60008115159050919050565b600073ffffffffffffffffffffffffffffffffffffffff82169050919050565b6000819050919050565b600061319d826131a4565b9050919050565b60006131af826131b6565b9050919050565b60006131c182613168565b9050919050565b82818337600083830152505050565b60005b838110156131f55780820151818401526020810190506131da565b83811115613204576000848401525b50505050565b600061321d61321883613269565b613113565b9050919050565b600061323761323283613269565b613133565b9050919050565b600061325161324c83613269565b613140565b9050919050565b6000601f19601f8301169050919050565b60008160001c9050919050565b61327f8161314a565b811461328a57600080fd5b50565b6132968161315c565b81146132a157600080fd5b50565b6132ad81613188565b81146132b857600080fd5b5056fea2646970667358221220b940635ad10cda61657f9201428af76fb05890d9b34b6cb822ab1ed54a338f9364736f6c63430007010033",
  "immutableReferences": {},
  "source": "// SPDX-License-Identifier: MIT\r\npragma solidity >=0.7.0;\r\npragma experimental ABIEncoderV2;\r\n\r\nimport \"./Repository.sol\";\r\nimport \"./GLDToken.sol\";\r\nimport \"@openzeppelin/contracts/access/Ownable.sol\";\r\n\r\ncontract Promotions is Repository{\r\n    \r\n    struct promotion{\r\n        Repo promotedRepo;\r\n        string imgHash;\r\n        uint pricePaid;\r\n    }\r\n\r\n    Repository private repo;\r\n    GLDToken private token;\r\n    uint price;\r\n    promotion[10] public livePromotions;\r\n    mapping (string => promotion) promotions;\r\n    address thisOwner; // Contract owner\r\n    \r\n    event Test(address indexed _from, uint price, string _slug, uint index, string name);\r\n    event Test2(promotion testPromotion);\r\n\r\n    constructor(address tokenAddress, address repoAddress) Repository(tokenAddress){\r\n        repo = Repository(repoAddress);\r\n        token = GLDToken(tokenAddress);\r\n        thisOwner = msg.sender;\r\n    }\r\n    \r\n    // Create Promotion\r\n    function createPromotion(string memory _projectSlug, string memory _imgHash, uint _amount) public {\r\n        // Check amount\r\n        require(_amount > price, \"Value sent must be greater than price.\");\r\n\r\n        // send money\r\n        require(token.transferFrom(msg.sender, address(this), _amount) == true, \"Could not send tokens\");\r\n\r\n        // Get Repo\r\n        Repo memory promotedRepo = repo.getRepo(_projectSlug);\r\n\r\n        // Create Promotion\r\n        promotions[_projectSlug] = promotion(promotedRepo, _imgHash, _amount);\r\n\r\n        // Find lowest paid promotion\r\n        uint lowestIndex = 0;\r\n        uint lowestPaid = livePromotions[0].pricePaid;\r\n        emit Test(msg.sender, price, _projectSlug, lowestIndex, \"Test 0\");\r\n        for(uint i = 1; i < livePromotions.length; i++){\r\n            emit Test(msg.sender, price, _projectSlug, i, \"Test 1\");\r\n            if(livePromotions[i].pricePaid < lowestPaid){\r\n                price = lowestPaid;\r\n                lowestIndex = i;\r\n                emit Test(msg.sender, price, _projectSlug, i, \"Test 2\");\r\n            }\r\n        }\r\n        // Remove lowest paid promotion & Make New Promotion Live\r\n        emit Test(msg.sender, price, _projectSlug, lowestIndex, \"Test 3\");\r\n        Test2(promotions[_projectSlug]);\r\n        livePromotions[lowestIndex] = promotions[_projectSlug]; // promotion(promotedRepo, amount);\r\n        Test2(livePromotions[lowestIndex]);\r\n    }\r\n    // Remove Promotion\r\n    function removePromotion(string memory _projectSlug) public {\r\n       \r\n       \r\n    }\r\n    // Get Price\r\n    function getPrice() public view returns(uint) {\r\n        return price;\r\n    }\r\n    // Get One Promotion\r\n    function getPromotion(string memory _projectSlug) public view returns(promotion memory) {\r\n        return promotions[_projectSlug];\r\n    }\r\n\r\n    // Get Live Promotions\r\n    function getAllPromotions() public view returns(promotion[10] memory) {\r\n        return livePromotions;\r\n    }\r\n}",
  "sourcePath": "C:/Users/jamie/Desktop/Thesis/planetGit/src/contracts/Promotions.sol",
  "compiler": {
    "name": "solc",
    "version": "0.7.1+commit.f4a555be.Emscripten.clang"
  },
  "schemaVersion": "3.2.5",
  "updatedAt": "2020-11-05T10:40:37.002Z",
  "networkType": "ethereum",
  "devdoc": {
    "kind": "dev",
    "methods": {
      "owner()": {
        "details": "Returns the address of the current owner."
      },
      "renounceOwnership()": {
        "details": "Leaves the contract without owner. It will not be possible to call `onlyOwner` functions anymore. Can only be called by the current owner. NOTE: Renouncing ownership will leave the contract without an owner, thereby removing any functionality that is only available to the owner."
      },
      "transferOwnership(address)": {
        "details": "Transfers ownership of the contract to a new account (`newOwner`). Can only be called by the current owner."
      }
    },
    "version": 1
  },
  "userdoc": {
    "kind": "user",
    "methods": {},
    "version": 1
  }
}