{
  "contractName": "Promotions",
  "abi": [
    {
      "inputs": [
        {
          "internalType": "address",
          "name": "tokenAddress",
          "type": "address"
        },
        {
          "internalType": "address",
          "name": "repoAddress",
          "type": "address"
        }
      ],
      "stateMutability": "nonpayable",
      "type": "constructor"
    },
    {
      "anonymous": false,
      "inputs": [
        {
          "indexed": true,
          "internalType": "address",
          "name": "previousOwner",
          "type": "address"
        },
        {
          "indexed": true,
          "internalType": "address",
          "name": "newOwner",
          "type": "address"
        }
      ],
      "name": "OwnershipTransferred",
      "type": "event"
    },
    {
      "anonymous": false,
      "inputs": [
        {
          "indexed": true,
          "internalType": "address",
          "name": "_from",
          "type": "address"
        },
        {
          "indexed": false,
          "internalType": "uint256",
          "name": "price",
          "type": "uint256"
        },
        {
          "indexed": false,
          "internalType": "string",
          "name": "_slug",
          "type": "string"
        },
        {
          "indexed": false,
          "internalType": "uint256",
          "name": "index",
          "type": "uint256"
        },
        {
          "indexed": false,
          "internalType": "string",
          "name": "logName",
          "type": "string"
        }
      ],
      "name": "Test",
      "type": "event"
    },
    {
      "inputs": [
        {
          "internalType": "uint256",
          "name": "",
          "type": "uint256"
        }
      ],
      "name": "allRepos",
      "outputs": [
        {
          "internalType": "string",
          "name": "",
          "type": "string"
        }
      ],
      "stateMutability": "view",
      "type": "function",
      "constant": true
    },
    {
      "inputs": [
        {
          "internalType": "string",
          "name": "_projectSlug",
          "type": "string"
        },
        {
          "internalType": "string",
          "name": "_projectName",
          "type": "string"
        },
        {
          "internalType": "string",
          "name": "_repoHash",
          "type": "string"
        }
      ],
      "name": "createRepo",
      "outputs": [],
      "stateMutability": "nonpayable",
      "type": "function"
    },
    {
      "inputs": [],
      "name": "getAllRepos",
      "outputs": [
        {
          "internalType": "string[]",
          "name": "",
          "type": "string[]"
        }
      ],
      "stateMutability": "view",
      "type": "function",
      "constant": true
    },
    {
      "inputs": [
        {
          "internalType": "string",
          "name": "_projectSlug",
          "type": "string"
        }
      ],
      "name": "getRepo",
      "outputs": [
        {
          "components": [
            {
              "internalType": "address",
              "name": "owner",
              "type": "address"
            },
            {
              "internalType": "string",
              "name": "repoName",
              "type": "string"
            },
            {
              "internalType": "string",
              "name": "repoHash",
              "type": "string"
            },
            {
              "internalType": "bool",
              "name": "exists",
              "type": "bool"
            }
          ],
          "internalType": "struct Repository.Repo",
          "name": "",
          "type": "tuple"
        }
      ],
      "stateMutability": "view",
      "type": "function",
      "constant": true
    },
    {
      "inputs": [
        {
          "internalType": "string",
          "name": "_projectSlug",
          "type": "string"
        }
      ],
      "name": "getRepoHash",
      "outputs": [
        {
          "internalType": "string",
          "name": "",
          "type": "string"
        }
      ],
      "stateMutability": "view",
      "type": "function",
      "constant": true
    },
    {
      "inputs": [
        {
          "internalType": "string",
          "name": "_projectSlug",
          "type": "string"
        }
      ],
      "name": "getRepoName",
      "outputs": [
        {
          "internalType": "string",
          "name": "",
          "type": "string"
        }
      ],
      "stateMutability": "view",
      "type": "function",
      "constant": true
    },
    {
      "inputs": [
        {
          "internalType": "string",
          "name": "_projectSlug",
          "type": "string"
        }
      ],
      "name": "getRepoOwner",
      "outputs": [
        {
          "internalType": "address",
          "name": "",
          "type": "address"
        }
      ],
      "stateMutability": "view",
      "type": "function",
      "constant": true
    },
    {
      "inputs": [
        {
          "internalType": "uint256",
          "name": "",
          "type": "uint256"
        }
      ],
      "name": "livePromotions",
      "outputs": [
        {
          "components": [
            {
              "internalType": "address",
              "name": "owner",
              "type": "address"
            },
            {
              "internalType": "string",
              "name": "repoName",
              "type": "string"
            },
            {
              "internalType": "string",
              "name": "repoHash",
              "type": "string"
            },
            {
              "internalType": "bool",
              "name": "exists",
              "type": "bool"
            }
          ],
          "internalType": "struct Repository.Repo",
          "name": "promotedRepo",
          "type": "tuple"
        },
        {
          "internalType": "uint256",
          "name": "pricePaid",
          "type": "uint256"
        }
      ],
      "stateMutability": "view",
      "type": "function",
      "constant": true
    },
    {
      "inputs": [],
      "name": "owner",
      "outputs": [
        {
          "internalType": "address",
          "name": "",
          "type": "address"
        }
      ],
      "stateMutability": "view",
      "type": "function",
      "constant": true
    },
    {
      "inputs": [],
      "name": "renounceOwnership",
      "outputs": [],
      "stateMutability": "nonpayable",
      "type": "function"
    },
    {
      "inputs": [
        {
          "internalType": "address",
          "name": "newOwner",
          "type": "address"
        }
      ],
      "name": "transferOwnership",
      "outputs": [],
      "stateMutability": "nonpayable",
      "type": "function"
    },
    {
      "inputs": [
        {
          "internalType": "string",
          "name": "_projectSlug",
          "type": "string"
        }
      ],
      "name": "uniqueRepoSlug",
      "outputs": [
        {
          "internalType": "bool",
          "name": "isUnique",
          "type": "bool"
        }
      ],
      "stateMutability": "view",
      "type": "function",
      "constant": true
    },
    {
      "inputs": [
        {
          "internalType": "string",
          "name": "_projectSlug",
          "type": "string"
        },
        {
          "internalType": "string",
          "name": "_repoHash",
          "type": "string"
        }
      ],
      "name": "updateRepo",
      "outputs": [],
      "stateMutability": "nonpayable",
      "type": "function"
    },
    {
      "inputs": [
        {
          "internalType": "string",
          "name": "_projectSlug",
          "type": "string"
        },
        {
          "internalType": "uint256",
          "name": "amount",
          "type": "uint256"
        }
      ],
      "name": "createPromotion",
      "outputs": [],
      "stateMutability": "nonpayable",
      "type": "function"
    },
    {
      "inputs": [
        {
          "internalType": "string",
          "name": "_projectSlug",
          "type": "string"
        }
      ],
      "name": "removePromotion",
      "outputs": [],
      "stateMutability": "nonpayable",
      "type": "function"
    },
    {
      "inputs": [],
      "name": "getPrice",
      "outputs": [
        {
          "internalType": "uint256",
          "name": "",
          "type": "uint256"
        }
      ],
      "stateMutability": "view",
      "type": "function",
      "constant": true
    },
    {
      "inputs": [
        {
          "internalType": "string",
          "name": "_projectSlug",
          "type": "string"
        }
      ],
      "name": "getPromotion",
      "outputs": [
        {
          "components": [
            {
              "components": [
                {
                  "internalType": "address",
                  "name": "owner",
                  "type": "address"
                },
                {
                  "internalType": "string",
                  "name": "repoName",
                  "type": "string"
                },
                {
                  "internalType": "string",
                  "name": "repoHash",
                  "type": "string"
                },
                {
                  "internalType": "bool",
                  "name": "exists",
                  "type": "bool"
                }
              ],
              "internalType": "struct Repository.Repo",
              "name": "promotedRepo",
              "type": "tuple"
            },
            {
              "internalType": "uint256",
              "name": "pricePaid",
              "type": "uint256"
            }
          ],
          "internalType": "struct Promotions.promotion",
          "name": "",
          "type": "tuple"
        }
      ],
      "stateMutability": "view",
      "type": "function",
      "constant": true
    },
    {
      "inputs": [],
      "name": "getAllPromotions",
      "outputs": [
        {
          "components": [
            {
              "components": [
                {
                  "internalType": "address",
                  "name": "owner",
                  "type": "address"
                },
                {
                  "internalType": "string",
                  "name": "repoName",
                  "type": "string"
                },
                {
                  "internalType": "string",
                  "name": "repoHash",
                  "type": "string"
                },
                {
                  "internalType": "bool",
                  "name": "exists",
                  "type": "bool"
                }
              ],
              "internalType": "struct Repository.Repo",
              "name": "promotedRepo",
              "type": "tuple"
            },
            {
              "internalType": "uint256",
              "name": "pricePaid",
              "type": "uint256"
            }
          ],
          "internalType": "struct Promotions.promotion[10]",
          "name": "",
          "type": "tuple[10]"
        }
      ],
      "stateMutability": "view",
      "type": "function",
      "constant": true
    }
  ],
  "bytecode": "0x60806040523480156200001157600080fd5b5060405162002dcb38038062002dcb833981810160405281019062000037919062000214565b8160006200004a620001f560201b60201c565b9050806000806101000a81548173ffffffffffffffffffffffffffffffffffffffff021916908373ffffffffffffffffffffffffffffffffffffffff1602179055508073ffffffffffffffffffffffffffffffffffffffff16600073ffffffffffffffffffffffffffffffffffffffff167f8be0079c531659141344cd1fd0a4f28419497f9722a3daafe3b4186f6b6457e060405160405180910390a35080600160006101000a81548173ffffffffffffffffffffffffffffffffffffffff021916908373ffffffffffffffffffffffffffffffffffffffff1602179055505080600560006101000a81548173ffffffffffffffffffffffffffffffffffffffff021916908373ffffffffffffffffffffffffffffffffffffffff16021790555081600660006101000a81548173ffffffffffffffffffffffffffffffffffffffff021916908373ffffffffffffffffffffffffffffffffffffffff16021790555033603b60006101000a81548173ffffffffffffffffffffffffffffffffffffffff021916908373ffffffffffffffffffffffffffffffffffffffff1602179055505050620002a3565b600033905090565b6000815190506200020e8162000289565b92915050565b600080604083850312156200022857600080fd5b60006200023885828601620001fd565b92505060206200024b85828601620001fd565b9150509250929050565b6000620002628262000269565b9050919050565b600073ffffffffffffffffffffffffffffffffffffffff82169050919050565b620002948162000255565b8114620002a057600080fd5b50565b612b1880620002b36000396000f3fe608060405234801561001057600080fd5b50600436106101165760003560e01c806398d5fdca116100a2578063ce654d2211610071578063ce654d22146102f4578063e2c782a214610310578063f2fde38b14610340578063f4845d871461035c578063f5cc98c91461038c57610116565b806398d5fdca1461026e5780639e20505a1461028c578063ae0b11e7146102a8578063b4bc07c2146102c457610116565b8063715018a6116100e9578063715018a6146101ca5780637f3b156f146101d457806382149bcb146102045780638da5cb5b1461023457806390ec291d1461025257610116565b80630446c5191461011b5780631a54386b1461014b57806339f917801461017b5780634ce9a012146101ac575b600080fd5b61013560048036038101906101309190611f91565b6103aa565b6040516101429190612753565b60405180910390f35b61016560048036038101906101609190611f91565b61046d565b6040516101729190612847565b60405180910390f35b6101956004803603810190610190919061216a565b610678565b6040516101a3929190612817565b60405180910390f35b6101b461085e565b6040516101c19190612716565b60405180910390f35b6101d2610a83565b005b6101ee60048036038101906101e9919061216a565b610bd6565b6040516101fb9190612753565b60405180910390f35b61021e60048036038101906102199190611f91565b610c8f565b60405161022b91906127f5565b60405180910390f35b61023c610e7c565b60405161024991906126a2565b60405180910390f35b61026c6004803603810190610267919061203e565b610ea5565b005b6102766110fd565b6040516102839190612869565b60405180910390f35b6102a660048036038101906102a19190611fd2565b611107565b005b6102c260048036038101906102bd91906120d5565b61122a565b005b6102de60048036038101906102d99190611f91565b611745565b6040516102eb9190612738565b60405180910390f35b61030e60048036038101906103099190611f91565b611794565b005b61032a60048036038101906103259190611f91565b611797565b60405161033791906126a2565b60405180910390f35b61035a60048036038101906103559190611f3f565b6117e2565b005b61037660048036038101906103719190611f91565b6119a4565b6040516103839190612753565b60405180910390f35b610394611afc565b6040516103a191906126f4565b60405180910390f35b60606002826040516103bc919061268b565b90815260200160405180910390206001018054600181600116156101000203166002900480601f0160208091040260200160405190810160405280929190818152602001828054600181600116156101000203166002900480156104615780601f1061043657610100808354040283529160200191610461565b820191906000526020600020905b81548152906001019060200180831161044457829003601f168201915b50505050509050919050565b610475611bed565b603a82604051610485919061268b565b9081526020016040518091039020604051806040016040529081600082016040518060800160405290816000820160009054906101000a900473ffffffffffffffffffffffffffffffffffffffff1673ffffffffffffffffffffffffffffffffffffffff1673ffffffffffffffffffffffffffffffffffffffff168152602001600182018054600181600116156101000203166002900480601f01602080910402602001604051908101604052809291908181526020018280546001816001161561010002031660029004801561059d5780601f106105725761010080835404028352916020019161059d565b820191906000526020600020905b81548152906001019060200180831161058057829003601f168201915b50505050508152602001600282018054600181600116156101000203166002900480601f01602080910402602001604051908101604052809291908181526020018280546001816001161561010002031660029004801561063f5780601f106106145761010080835404028352916020019161063f565b820191906000526020600020905b81548152906001019060200180831161062257829003601f168201915b505050505081526020016003820160009054906101000a900460ff16151515158152505081526020016004820154815250509050919050565b600881600a811061068557fe5b60050201600091509050806000016040518060800160405290816000820160009054906101000a900473ffffffffffffffffffffffffffffffffffffffff1673ffffffffffffffffffffffffffffffffffffffff1673ffffffffffffffffffffffffffffffffffffffff168152602001600182018054600181600116156101000203166002900480601f01602080910402602001604051908101604052809291908181526020018280546001816001161561010002031660029004801561078d5780601f106107625761010080835404028352916020019161078d565b820191906000526020600020905b81548152906001019060200180831161077057829003601f168201915b50505050508152602001600282018054600181600116156101000203166002900480601f01602080910402602001604051908101604052809291908181526020018280546001816001161561010002031660029004801561082f5780601f106108045761010080835404028352916020019161082f565b820191906000526020600020905b81548152906001019060200180831161081257829003601f168201915b505050505081526020016003820160009054906101000a900460ff161515151581525050908060040154905082565b610866611c0d565b6008600a80602002604051908101604052809291906000905b82821015610a7a57838260050201604051806040016040529081600082016040518060800160405290816000820160009054906101000a900473ffffffffffffffffffffffffffffffffffffffff1673ffffffffffffffffffffffffffffffffffffffff1673ffffffffffffffffffffffffffffffffffffffff168152602001600182018054600181600116156101000203166002900480601f0160208091040260200160405190810160405280929190818152602001828054600181600116156101000203166002900480156109975780601f1061096c57610100808354040283529160200191610997565b820191906000526020600020905b81548152906001019060200180831161097a57829003601f168201915b50505050508152602001600282018054600181600116156101000203166002900480601f016020809104026020016040519081016040528092919081815260200182805460018160011615610100020316600290048015610a395780601f10610a0e57610100808354040283529160200191610a39565b820191906000526020600020905b815481529060010190602001808311610a1c57829003601f168201915b505050505081526020016003820160009054906101000a900460ff16151515158152505081526020016004820154815250508152602001906001019061087f565b50505050905090565b610a8b611be5565b73ffffffffffffffffffffffffffffffffffffffff1660008054906101000a900473ffffffffffffffffffffffffffffffffffffffff1673ffffffffffffffffffffffffffffffffffffffff1614610b18576040517f08c379a0000000000000000000000000000000000000000000000000000000008152600401610b0f906127b5565b60405180910390fd5b600073ffffffffffffffffffffffffffffffffffffffff1660008054906101000a900473ffffffffffffffffffffffffffffffffffffffff1673ffffffffffffffffffffffffffffffffffffffff167f8be0079c531659141344cd1fd0a4f28419497f9722a3daafe3b4186f6b6457e060405160405180910390a360008060006101000a81548173ffffffffffffffffffffffffffffffffffffffff021916908373ffffffffffffffffffffffffffffffffffffffff160217905550565b60048181548110610be357fe5b906000526020600020016000915090508054600181600116156101000203166002900480601f016020809104026020016040519081016040528092919081815260200182805460018160011615610100020316600290048015610c875780601f10610c5c57610100808354040283529160200191610c87565b820191906000526020600020905b815481529060010190602001808311610c6a57829003601f168201915b505050505081565b610c97611c3b565b600282604051610ca7919061268b565b90815260200160405180910390206040518060800160405290816000820160009054906101000a900473ffffffffffffffffffffffffffffffffffffffff1673ffffffffffffffffffffffffffffffffffffffff1673ffffffffffffffffffffffffffffffffffffffff168152602001600182018054600181600116156101000203166002900480601f016020809104026020016040519081016040528092919081815260200182805460018160011615610100020316600290048015610daf5780601f10610d8457610100808354040283529160200191610daf565b820191906000526020600020905b815481529060010190602001808311610d9257829003601f168201915b50505050508152602001600282018054600181600116156101000203166002900480601f016020809104026020016040519081016040528092919081815260200182805460018160011615610100020316600290048015610e515780601f10610e2657610100808354040283529160200191610e51565b820191906000526020600020905b815481529060010190602001808311610e3457829003601f168201915b505050505081526020016003820160009054906101000a900460ff1615151515815250509050919050565b60008060009054906101000a900473ffffffffffffffffffffffffffffffffffffffff16905090565b610eae83611745565b156110f857610ebb611c3b565b60405180608001604052803373ffffffffffffffffffffffffffffffffffffffff16815260200184815260200183815260200160011515815250905080600360003373ffffffffffffffffffffffffffffffffffffffff1673ffffffffffffffffffffffffffffffffffffffff16815260200190815260200160002085604051610f45919061268b565b908152602001604051809103902060008201518160000160006101000a81548173ffffffffffffffffffffffffffffffffffffffff021916908373ffffffffffffffffffffffffffffffffffffffff1602179055506020820151816001019080519060200190610fb6929190611c7b565b506040820151816002019080519060200190610fd3929190611c7b565b5060608201518160030160006101000a81548160ff02191690831515021790555090505080600285604051611008919061268b565b908152602001604051809103902060008201518160000160006101000a81548173ffffffffffffffffffffffffffffffffffffffff021916908373ffffffffffffffffffffffffffffffffffffffff1602179055506020820151816001019080519060200190611079929190611c7b565b506040820151816002019080519060200190611096929190611c7b565b5060608201518160030160006101000a81548160ff0219169083151502179055509050506004849080600181540180825580915050600190039060005260206000200160009091909190915090805190602001906110f5929190611c7b565b50505b505050565b6000600754905090565b600282604051611117919061268b565b908152602001604051809103902060000160009054906101000a900473ffffffffffffffffffffffffffffffffffffffff1673ffffffffffffffffffffffffffffffffffffffff163373ffffffffffffffffffffffffffffffffffffffff1614156112265780600360003373ffffffffffffffffffffffffffffffffffffffff1673ffffffffffffffffffffffffffffffffffffffff168152602001908152602001600020836040516111ca919061268b565b908152602001604051809103902060020190805190602001906111ee929190611c7b565b5080600283604051611200919061268b565b90815260200160405180910390206002019080519060200190611224929190611c7b565b505b5050565b600754811161126e576040517f08c379a0000000000000000000000000000000000000000000000000000000008152600401611265906127d5565b60405180910390fd5b60011515600660009054906101000a900473ffffffffffffffffffffffffffffffffffffffff1673ffffffffffffffffffffffffffffffffffffffff166323b872dd3330856040518463ffffffff1660e01b81526004016112d1939291906126bd565b602060405180830381600087803b1580156112eb57600080fd5b505af11580156112ff573d6000803e3d6000fd5b505050506040513d601f19601f820116820180604052508101906113239190611f68565b151514611365576040517f08c379a000000000000000000000000000000000000000000000000000000000815260040161135c90612795565b60405180910390fd5b61136d611c3b565b600560009054906101000a900473ffffffffffffffffffffffffffffffffffffffff1673ffffffffffffffffffffffffffffffffffffffff166382149bcb846040518263ffffffff1660e01b81526004016113c89190612753565b60006040518083038186803b1580156113e057600080fd5b505afa1580156113f4573d6000803e3d6000fd5b505050506040513d6000823e3d601f19601f8201168201806040525081019061141d9190612129565b9050604051806040016040528082815260200183815250603a84604051611444919061268b565b908152602001604051809103902060008201518160000160008201518160000160006101000a81548173ffffffffffffffffffffffffffffffffffffffff021916908373ffffffffffffffffffffffffffffffffffffffff16021790555060208201518160010190805190602001906114be929190611c7b565b5060408201518160020190805190602001906114db929190611c7b565b5060608201518160030160006101000a81548160ff02191690831515021790555050506020820151816004015590505060008060086000600a811061151c57fe5b600502016004015490506000600190505b600a811015611612573373ffffffffffffffffffffffffffffffffffffffff167f1558f7e3d78173fe100dea1de5c8344a8ceefeeeb986c171d45cbd385e645e9c600754888460405161158293929190612884565b60405180910390a281600882600a811061159857fe5b6005020160040154101561160557816007819055508092503373ffffffffffffffffffffffffffffffffffffffff167f1558f7e3d78173fe100dea1de5c8344a8ceefeeeb986c171d45cbd385e645e9c60075488846040516115fc93929190612884565b60405180910390a25b808060010191505061152d565b50603a85604051611623919061268b565b908152602001604051809103902060086009600a811061163f57fe5b6005020160008201816000016000820160009054906101000a900473ffffffffffffffffffffffffffffffffffffffff168160000160006101000a81548173ffffffffffffffffffffffffffffffffffffffff021916908373ffffffffffffffffffffffffffffffffffffffff160217905550600182018160010190805460018160011615610100020316600290046116d9929190611cfb565b5060028201816002019080546001816001161561010002031660029004611701929190611cfb565b506003820160009054906101000a900460ff168160030160006101000a81548160ff0219169083151502179055505050600482015481600401559050505050505050565b60006001151560028360405161175b919061268b565b908152602001604051809103902060030160009054906101000a900460ff1615151461178a576001905061178f565b600090505b919050565b50565b60006002826040516117a9919061268b565b908152602001604051809103902060000160009054906101000a900473ffffffffffffffffffffffffffffffffffffffff169050919050565b6117ea611be5565b73ffffffffffffffffffffffffffffffffffffffff1660008054906101000a900473ffffffffffffffffffffffffffffffffffffffff1673ffffffffffffffffffffffffffffffffffffffff1614611877576040517f08c379a000000000000000000000000000000000000000000000000000000000815260040161186e906127b5565b60405180910390fd5b600073ffffffffffffffffffffffffffffffffffffffff168173ffffffffffffffffffffffffffffffffffffffff1614156118e7576040517f08c379a00000000000000000000000000000000000000000000000000000000081526004016118de90612775565b60405180910390fd5b8073ffffffffffffffffffffffffffffffffffffffff1660008054906101000a900473ffffffffffffffffffffffffffffffffffffffff1673ffffffffffffffffffffffffffffffffffffffff167f8be0079c531659141344cd1fd0a4f28419497f9722a3daafe3b4186f6b6457e060405160405180910390a3806000806101000a81548173ffffffffffffffffffffffffffffffffffffffff021916908373ffffffffffffffffffffffffffffffffffffffff16021790555050565b60606119ae611be5565b73ffffffffffffffffffffffffffffffffffffffff1660008054906101000a900473ffffffffffffffffffffffffffffffffffffffff1673ffffffffffffffffffffffffffffffffffffffff1614611a3b576040517f08c379a0000000000000000000000000000000000000000000000000000000008152600401611a32906127b5565b60405180910390fd5b600282604051611a4b919061268b565b90815260200160405180910390206002018054600181600116156101000203166002900480601f016020809104026020016040519081016040528092919081815260200182805460018160011615610100020316600290048015611af05780601f10611ac557610100808354040283529160200191611af0565b820191906000526020600020905b815481529060010190602001808311611ad357829003601f168201915b50505050509050919050565b60606004805480602002602001604051908101604052809291908181526020016000905b82821015611bdc578382906000526020600020018054600181600116156101000203166002900480601f016020809104026020016040519081016040528092919081815260200182805460018160011615610100020316600290048015611bc85780601f10611b9d57610100808354040283529160200191611bc8565b820191906000526020600020905b815481529060010190602001808311611bab57829003601f168201915b505050505081526020019060010190611b20565b50505050905090565b600033905090565b6040518060400160405280611c00611c3b565b8152602001600081525090565b604051806101400160405280600a905b611c25611bed565b815260200190600190039081611c1d5790505090565b6040518060800160405280600073ffffffffffffffffffffffffffffffffffffffff16815260200160608152602001606081526020016000151581525090565b828054600181600116156101000203166002900490600052602060002090601f016020900481019282601f10611cbc57805160ff1916838001178555611cea565b82800160010185558215611cea579182015b82811115611ce9578251825591602001919060010190611cce565b5b509050611cf79190611d82565b5090565b828054600181600116156101000203166002900490600052602060002090601f016020900481019282601f10611d345780548555611d71565b82800160010185558215611d7157600052602060002091601f016020900482015b82811115611d70578254825591600101919060010190611d55565b5b509050611d7e9190611d82565b5090565b5b80821115611d9b576000816000905550600101611d83565b5090565b600081359050611dae81612a9d565b92915050565b600081519050611dc381612a9d565b92915050565b600081519050611dd881612ab4565b92915050565b600082601f830112611def57600080fd5b8135611e02611dfd82612902565b6128d5565b91508082526020830160208301858383011115611e1e57600080fd5b611e29838284612a4a565b50505092915050565b600082601f830112611e4357600080fd5b8151611e56611e5182612902565b6128d5565b91508082526020830160208301858383011115611e7257600080fd5b611e7d838284612a59565b50505092915050565b600060808284031215611e9857600080fd5b611ea260806128d5565b90506000611eb284828501611db4565b600083015250602082015167ffffffffffffffff811115611ed257600080fd5b611ede84828501611e32565b602083015250604082015167ffffffffffffffff811115611efe57600080fd5b611f0a84828501611e32565b6040830152506060611f1e84828501611dc9565b60608301525092915050565b600081359050611f3981612acb565b92915050565b600060208284031215611f5157600080fd5b6000611f5f84828501611d9f565b91505092915050565b600060208284031215611f7a57600080fd5b6000611f8884828501611dc9565b91505092915050565b600060208284031215611fa357600080fd5b600082013567ffffffffffffffff811115611fbd57600080fd5b611fc984828501611dde565b91505092915050565b60008060408385031215611fe557600080fd5b600083013567ffffffffffffffff811115611fff57600080fd5b61200b85828601611dde565b925050602083013567ffffffffffffffff81111561202857600080fd5b61203485828601611dde565b9150509250929050565b60008060006060848603121561205357600080fd5b600084013567ffffffffffffffff81111561206d57600080fd5b61207986828701611dde565b935050602084013567ffffffffffffffff81111561209657600080fd5b6120a286828701611dde565b925050604084013567ffffffffffffffff8111156120bf57600080fd5b6120cb86828701611dde565b9150509250925092565b600080604083850312156120e857600080fd5b600083013567ffffffffffffffff81111561210257600080fd5b61210e85828601611dde565b925050602061211f85828601611f2a565b9150509250929050565b60006020828403121561213b57600080fd5b600082015167ffffffffffffffff81111561215557600080fd5b61216184828501611e86565b91505092915050565b60006020828403121561217c57600080fd5b600061218a84828501611f2a565b91505092915050565b600061219f83836122f0565b905092915050565b60006121b383836125f3565b905092915050565b6121c481612a14565b82525050565b6121d3816129cc565b82525050565b6121e2816129cc565b82525050565b60006121f382612948565b6121fd8185612983565b93508360208202850161220f8561292e565b8060005b8581101561224b578484038952815161222c8582612193565b945061223783612969565b925060208a01995050600181019050612213565b50829750879550505050505092915050565b600061226882612953565b6122728185612994565b9350836020820285016122848561293e565b8060005b858110156122c057848403895281516122a185826121a7565b94506122ac83612976565b925060208a01995050600181019050612288565b50829750879550505050505092915050565b6122db816129de565b82525050565b6122ea816129de565b82525050565b60006122fb8261295e565b612305818561299f565b9350612315818560208601612a59565b61231e81612a8c565b840191505092915050565b60006123348261295e565b61233e81856129b0565b935061234e818560208601612a59565b61235781612a8c565b840191505092915050565b600061236d8261295e565b61237781856129c1565b9350612387818560208601612a59565b80840191505092915050565b60006123a06026836129b0565b91507f4f776e61626c653a206e6577206f776e657220697320746865207a65726f206160008301527f64647265737300000000000000000000000000000000000000000000000000006020830152604082019050919050565b60006124066015836129b0565b91507f436f756c64206e6f742073656e6420746f6b656e7300000000000000000000006000830152602082019050919050565b60006124466020836129b0565b91507f4f776e61626c653a2063616c6c6572206973206e6f7420746865206f776e65726000830152602082019050919050565b60006124866006836129b0565b91507f4576656e743100000000000000000000000000000000000000000000000000006000830152602082019050919050565b60006124c66026836129b0565b91507f56616c75652073656e74206d7573742062652067726561746572207468616e2060008301527f70726963652e00000000000000000000000000000000000000000000000000006020830152604082019050919050565b600060808301600083015161253760008601826121ca565b506020830151848203602086015261254f82826122f0565b9150506040830151848203604086015261256982826122f0565b915050606083015161257e60608601826122d2565b508091505092915050565b60006080830160008301516125a160008601826121ca565b50602083015184820360208601526125b982826122f0565b915050604083015184820360408601526125d382826122f0565b91505060608301516125e860608601826122d2565b508091505092915050565b60006040830160008301518482036000860152612610828261251f565b9150506020830151612625602086018261266d565b508091505092915050565b6000604083016000830151848203600086015261264d828261251f565b9150506020830151612662602086018261266d565b508091505092915050565b61267681612a0a565b82525050565b61268581612a0a565b82525050565b60006126978284612362565b915081905092915050565b60006020820190506126b760008301846121d9565b92915050565b60006060820190506126d260008301866121bb565b6126df60208301856121d9565b6126ec604083018461267c565b949350505050565b6000602082019050818103600083015261270e81846121e8565b905092915050565b60006020820190508181036000830152612730818461225d565b905092915050565b600060208201905061274d60008301846122e1565b92915050565b6000602082019050818103600083015261276d8184612329565b905092915050565b6000602082019050818103600083015261278e81612393565b9050919050565b600060208201905081810360008301526127ae816123f9565b9050919050565b600060208201905081810360008301526127ce81612439565b9050919050565b600060208201905081810360008301526127ee816124b9565b9050919050565b6000602082019050818103600083015261280f8184612589565b905092915050565b600060408201905081810360008301526128318185612589565b9050612840602083018461267c565b9392505050565b600060208201905081810360008301526128618184612630565b905092915050565b600060208201905061287e600083018461267c565b92915050565b6000608082019050612899600083018661267c565b81810360208301526128ab8185612329565b90506128ba604083018461267c565b81810360608301526128cb81612479565b9050949350505050565b6000604051905081810181811067ffffffffffffffff821117156128f857600080fd5b8060405250919050565b600067ffffffffffffffff82111561291957600080fd5b601f19601f8301169050602081019050919050565b6000819050602082019050919050565b6000819050919050565b600081519050919050565b6000600a9050919050565b600081519050919050565b6000602082019050919050565b6000602082019050919050565b600082825260208201905092915050565b600081905092915050565b600082825260208201905092915050565b600082825260208201905092915050565b600081905092915050565b60006129d7826129ea565b9050919050565b60008115159050919050565b600073ffffffffffffffffffffffffffffffffffffffff82169050919050565b6000819050919050565b6000612a1f82612a26565b9050919050565b6000612a3182612a38565b9050919050565b6000612a43826129ea565b9050919050565b82818337600083830152505050565b60005b83811015612a77578082015181840152602081019050612a5c565b83811115612a86576000848401525b50505050565b6000601f19601f8301169050919050565b612aa6816129cc565b8114612ab157600080fd5b50565b612abd816129de565b8114612ac857600080fd5b50565b612ad481612a0a565b8114612adf57600080fd5b5056fea264697066735822122011c13776a7def48c2cdac1c2e5f40d17703828ef46074c121bc13f975f6a29cf64736f6c63430007010033",
  "immutableReferences": {},
  "source": "// SPDX-License-Identifier: MIT\r\npragma solidity >=0.7.0;\r\npragma experimental ABIEncoderV2;\r\n\r\nimport \"./Repository.sol\";\r\nimport \"./GLDToken.sol\";\r\nimport \"@openzeppelin/contracts/access/Ownable.sol\";\r\n\r\ncontract Promotions is Repository{\r\n    \r\n    struct promotion{\r\n        Repo promotedRepo;\r\n        uint pricePaid;\r\n    }\r\n\r\n    Repository private repo;\r\n    GLDToken private token;\r\n    uint price;\r\n    promotion[10] public livePromotions;\r\n    mapping (string => promotion) promotions;\r\n    address thisOwner; // Contract owner\r\n    \r\n    event Test(address indexed _from, uint price, string _slug, uint index, string logName);\r\n\r\n\r\n    constructor(address tokenAddress, address repoAddress) Repository(tokenAddress){\r\n        repo = Repository(repoAddress);\r\n        token = GLDToken(tokenAddress);\r\n        thisOwner = msg.sender;\r\n    }\r\n    \r\n    // Create Promotion\r\n    function createPromotion(string memory _projectSlug, uint amount) public {\r\n        // Check amount\r\n        require(amount > price, \"Value sent must be greater than price.\"); \r\n\r\n        // send money\r\n        require(token.transferFrom(msg.sender, address(this), amount) == true, \"Could not send tokens\");\r\n\r\n        // Get Repo\r\n        Repo memory promotedRepo = repo.getRepo(_projectSlug);\r\n\r\n        // Create Promotion\r\n        promotions[_projectSlug] = promotion(promotedRepo, amount);\r\n\r\n        // Find lowest paid promotion\r\n        uint lowestIndex = 0;\r\n        uint lowestPaid = livePromotions[0].pricePaid;\r\n        for(uint i = 1; i < livePromotions.length; i++){\r\n            emit Test(msg.sender, price, _projectSlug, i, \"Event1\");\r\n            if(livePromotions[i].pricePaid < lowestPaid){\r\n                price = lowestPaid;\r\n                lowestIndex = i;\r\n                emit Test(msg.sender, price, _projectSlug, i, \"Event1\");\r\n            }\r\n        }\r\n        // Remove lowest paid promotion & Make New Promotion Live\r\n        // emit Test(msg.sender, price, _projectSlug, lowestIndex);\r\n        livePromotions[9] = promotions[_projectSlug]; // promotion(promotedRepo, amount);\r\n    }\r\n    // Remove Promotion\r\n    function removePromotion(string memory _projectSlug) public {\r\n       \r\n       \r\n    }\r\n    // Get Price\r\n    function getPrice() public view returns(uint) {\r\n        return price;\r\n    }\r\n    // Get One Promotion\r\n    function getPromotion(string memory _projectSlug) public view returns(promotion memory) {\r\n        return promotions[_projectSlug];\r\n    }\r\n\r\n    // Get Live Promotions\r\n    function getAllPromotions() public view returns(promotion[10] memory) {\r\n        return livePromotions;\r\n    }\r\n}",
  "sourcePath": "C:/Users/jamie/Desktop/Thesis/planetGit/src/contracts/Promotions.sol",
  "compiler": {
    "name": "solc",
    "version": "0.7.1+commit.f4a555be.Emscripten.clang"
  },
  "schemaVersion": "3.2.5",
  "updatedAt": "2020-10-30T07:37:40.090Z",
  "networkType": "ethereum",
  "devdoc": {
    "kind": "dev",
    "methods": {
      "owner()": {
        "details": "Returns the address of the current owner."
      },
      "renounceOwnership()": {
        "details": "Leaves the contract without owner. It will not be possible to call `onlyOwner` functions anymore. Can only be called by the current owner. NOTE: Renouncing ownership will leave the contract without an owner, thereby removing any functionality that is only available to the owner."
      },
      "transferOwnership(address)": {
        "details": "Transfers ownership of the contract to a new account (`newOwner`). Can only be called by the current owner."
      }
    },
    "version": 1
  },
  "userdoc": {
    "kind": "user",
    "methods": {},
    "version": 1
  }
}