{
  "contractName": "Promotions",
  "abi": [
    {
      "inputs": [
        {
          "internalType": "address",
          "name": "tokenAddress",
          "type": "address"
        },
        {
          "internalType": "address",
          "name": "repoAddress",
          "type": "address"
        }
      ],
      "stateMutability": "nonpayable",
      "type": "constructor"
    },
    {
      "anonymous": false,
      "inputs": [
        {
          "indexed": true,
          "internalType": "address",
          "name": "previousOwner",
          "type": "address"
        },
        {
          "indexed": true,
          "internalType": "address",
          "name": "newOwner",
          "type": "address"
        }
      ],
      "name": "OwnershipTransferred",
      "type": "event"
    },
    {
      "inputs": [
        {
          "internalType": "uint256",
          "name": "",
          "type": "uint256"
        }
      ],
      "name": "allRepos",
      "outputs": [
        {
          "internalType": "string",
          "name": "",
          "type": "string"
        }
      ],
      "stateMutability": "view",
      "type": "function",
      "constant": true
    },
    {
      "inputs": [
        {
          "internalType": "string",
          "name": "_projectSlug",
          "type": "string"
        },
        {
          "internalType": "string",
          "name": "_projectName",
          "type": "string"
        },
        {
          "internalType": "string",
          "name": "_repoHash",
          "type": "string"
        }
      ],
      "name": "createRepo",
      "outputs": [],
      "stateMutability": "nonpayable",
      "type": "function"
    },
    {
      "inputs": [],
      "name": "getAllRepos",
      "outputs": [
        {
          "internalType": "string[]",
          "name": "",
          "type": "string[]"
        }
      ],
      "stateMutability": "view",
      "type": "function",
      "constant": true
    },
    {
      "inputs": [
        {
          "internalType": "string",
          "name": "_projectSlug",
          "type": "string"
        }
      ],
      "name": "getRepo",
      "outputs": [
        {
          "components": [
            {
              "internalType": "address",
              "name": "owner",
              "type": "address"
            },
            {
              "internalType": "string",
              "name": "repoName",
              "type": "string"
            },
            {
              "internalType": "string",
              "name": "repoHash",
              "type": "string"
            },
            {
              "internalType": "bool",
              "name": "exists",
              "type": "bool"
            }
          ],
          "internalType": "struct Repository.Repo",
          "name": "",
          "type": "tuple"
        }
      ],
      "stateMutability": "view",
      "type": "function",
      "constant": true
    },
    {
      "inputs": [
        {
          "internalType": "string",
          "name": "_projectSlug",
          "type": "string"
        }
      ],
      "name": "getRepoHash",
      "outputs": [
        {
          "internalType": "string",
          "name": "",
          "type": "string"
        }
      ],
      "stateMutability": "view",
      "type": "function",
      "constant": true
    },
    {
      "inputs": [
        {
          "internalType": "string",
          "name": "_projectSlug",
          "type": "string"
        }
      ],
      "name": "getRepoName",
      "outputs": [
        {
          "internalType": "string",
          "name": "",
          "type": "string"
        }
      ],
      "stateMutability": "view",
      "type": "function",
      "constant": true
    },
    {
      "inputs": [
        {
          "internalType": "string",
          "name": "_projectSlug",
          "type": "string"
        }
      ],
      "name": "getRepoOwner",
      "outputs": [
        {
          "internalType": "address",
          "name": "",
          "type": "address"
        }
      ],
      "stateMutability": "view",
      "type": "function",
      "constant": true
    },
    {
      "inputs": [
        {
          "internalType": "uint256",
          "name": "",
          "type": "uint256"
        }
      ],
      "name": "livePromotions",
      "outputs": [
        {
          "components": [
            {
              "internalType": "address",
              "name": "owner",
              "type": "address"
            },
            {
              "internalType": "string",
              "name": "repoName",
              "type": "string"
            },
            {
              "internalType": "string",
              "name": "repoHash",
              "type": "string"
            },
            {
              "internalType": "bool",
              "name": "exists",
              "type": "bool"
            }
          ],
          "internalType": "struct Repository.Repo",
          "name": "promotedRepo",
          "type": "tuple"
        },
        {
          "internalType": "uint256",
          "name": "pricePaid",
          "type": "uint256"
        }
      ],
      "stateMutability": "view",
      "type": "function",
      "constant": true
    },
    {
      "inputs": [],
      "name": "owner",
      "outputs": [
        {
          "internalType": "address",
          "name": "",
          "type": "address"
        }
      ],
      "stateMutability": "view",
      "type": "function",
      "constant": true
    },
    {
      "inputs": [],
      "name": "renounceOwnership",
      "outputs": [],
      "stateMutability": "nonpayable",
      "type": "function"
    },
    {
      "inputs": [
        {
          "internalType": "address",
          "name": "newOwner",
          "type": "address"
        }
      ],
      "name": "transferOwnership",
      "outputs": [],
      "stateMutability": "nonpayable",
      "type": "function"
    },
    {
      "inputs": [
        {
          "internalType": "string",
          "name": "_projectSlug",
          "type": "string"
        }
      ],
      "name": "uniqueRepoSlug",
      "outputs": [
        {
          "internalType": "bool",
          "name": "isUnique",
          "type": "bool"
        }
      ],
      "stateMutability": "view",
      "type": "function",
      "constant": true
    },
    {
      "inputs": [
        {
          "internalType": "string",
          "name": "_projectSlug",
          "type": "string"
        },
        {
          "internalType": "string",
          "name": "_repoHash",
          "type": "string"
        }
      ],
      "name": "updateRepo",
      "outputs": [],
      "stateMutability": "nonpayable",
      "type": "function"
    },
    {
      "inputs": [
        {
          "internalType": "string",
          "name": "_projectSlug",
          "type": "string"
        },
        {
          "internalType": "uint256",
          "name": "amount",
          "type": "uint256"
        }
      ],
      "name": "createPromotion",
      "outputs": [],
      "stateMutability": "nonpayable",
      "type": "function"
    },
    {
      "inputs": [
        {
          "internalType": "string",
          "name": "_projectSlug",
          "type": "string"
        }
      ],
      "name": "removePromotion",
      "outputs": [],
      "stateMutability": "nonpayable",
      "type": "function"
    },
    {
      "inputs": [],
      "name": "getPrice",
      "outputs": [
        {
          "internalType": "uint256",
          "name": "",
          "type": "uint256"
        }
      ],
      "stateMutability": "view",
      "type": "function",
      "constant": true
    },
    {
      "inputs": [
        {
          "internalType": "string",
          "name": "_projectSlug",
          "type": "string"
        }
      ],
      "name": "getPromotion",
      "outputs": [
        {
          "components": [
            {
              "components": [
                {
                  "internalType": "address",
                  "name": "owner",
                  "type": "address"
                },
                {
                  "internalType": "string",
                  "name": "repoName",
                  "type": "string"
                },
                {
                  "internalType": "string",
                  "name": "repoHash",
                  "type": "string"
                },
                {
                  "internalType": "bool",
                  "name": "exists",
                  "type": "bool"
                }
              ],
              "internalType": "struct Repository.Repo",
              "name": "promotedRepo",
              "type": "tuple"
            },
            {
              "internalType": "uint256",
              "name": "pricePaid",
              "type": "uint256"
            }
          ],
          "internalType": "struct Promotions.promotion",
          "name": "",
          "type": "tuple"
        }
      ],
      "stateMutability": "view",
      "type": "function",
      "constant": true
    }
  ],
  "bytecode": "0x60806040523480156200001157600080fd5b50604051620027c6380380620027c6833981810160405281019062000037919062000214565b8160006200004a620001f560201b60201c565b9050806000806101000a81548173ffffffffffffffffffffffffffffffffffffffff021916908373ffffffffffffffffffffffffffffffffffffffff1602179055508073ffffffffffffffffffffffffffffffffffffffff16600073ffffffffffffffffffffffffffffffffffffffff167f8be0079c531659141344cd1fd0a4f28419497f9722a3daafe3b4186f6b6457e060405160405180910390a35080600160006101000a81548173ffffffffffffffffffffffffffffffffffffffff021916908373ffffffffffffffffffffffffffffffffffffffff1602179055505080600560006101000a81548173ffffffffffffffffffffffffffffffffffffffff021916908373ffffffffffffffffffffffffffffffffffffffff16021790555081600660006101000a81548173ffffffffffffffffffffffffffffffffffffffff021916908373ffffffffffffffffffffffffffffffffffffffff16021790555033603b60006101000a81548173ffffffffffffffffffffffffffffffffffffffff021916908373ffffffffffffffffffffffffffffffffffffffff1602179055505050620002a3565b600033905090565b6000815190506200020e8162000289565b92915050565b600080604083850312156200022857600080fd5b60006200023885828601620001fd565b92505060206200024b85828601620001fd565b9150509250929050565b6000620002628262000269565b9050919050565b600073ffffffffffffffffffffffffffffffffffffffff82169050919050565b620002948162000255565b8114620002a057600080fd5b50565b61251380620002b36000396000f3fe608060405234801561001057600080fd5b506004361061010b5760003560e01c806398d5fdca116100a2578063ce654d2211610071578063ce654d22146102cb578063e2c782a2146102e7578063f2fde38b14610317578063f4845d8714610333578063f5cc98c9146103635761010b565b806398d5fdca146102455780639e20505a14610263578063ae0b11e71461027f578063b4bc07c21461029b5761010b565b80637f3b156f116100de5780637f3b156f146101ab57806382149bcb146101db5780638da5cb5b1461020b57806390ec291d146102295761010b565b80630446c519146101105780631a54386b1461014057806339f9178014610170578063715018a6146101a1575b600080fd5b61012a60048036038101906101259190611b09565b610381565b60405161013791906121cc565b60405180910390f35b61015a60048036038101906101559190611b09565b610444565b60405161016791906122c0565b60405180910390f35b61018a60048036038101906101859190611ce2565b61064f565b604051610198929190612290565b60405180910390f35b6101a9610835565b005b6101c560048036038101906101c09190611ce2565b610988565b6040516101d291906121cc565b60405180910390f35b6101f560048036038101906101f09190611b09565b610a41565b604051610202919061226e565b60405180910390f35b610213610c2e565b6040516102209190612114565b60405180910390f35b610243600480360381019061023e9190611bb6565b610c57565b005b61024d610eaf565b60405161025a91906122e2565b60405180910390f35b61027d60048036038101906102789190611b4a565b610eb9565b005b61029960048036038101906102949190611c4d565b610fdc565b005b6102b560048036038101906102b09190611b09565b611372565b6040516102c291906121b1565b60405180910390f35b6102e560048036038101906102e09190611b09565b6113c1565b005b61030160048036038101906102fc9190611b09565b6113c4565b60405161030e9190612114565b60405180910390f35b610331600480360381019061032c9190611ab7565b61140f565b005b61034d60048036038101906103489190611b09565b6115d1565b60405161035a91906121cc565b60405180910390f35b61036b611729565b604051610378919061218f565b60405180910390f35b606060028260405161039391906120fd565b90815260200160405180910390206001018054600181600116156101000203166002900480601f0160208091040260200160405190810160405280929190818152602001828054600181600116156101000203166002900480156104385780601f1061040d57610100808354040283529160200191610438565b820191906000526020600020905b81548152906001019060200180831161041b57829003601f168201915b50505050509050919050565b61044c61181a565b603a8260405161045c91906120fd565b9081526020016040518091039020604051806040016040529081600082016040518060800160405290816000820160009054906101000a900473ffffffffffffffffffffffffffffffffffffffff1673ffffffffffffffffffffffffffffffffffffffff1673ffffffffffffffffffffffffffffffffffffffff168152602001600182018054600181600116156101000203166002900480601f0160208091040260200160405190810160405280929190818152602001828054600181600116156101000203166002900480156105745780601f1061054957610100808354040283529160200191610574565b820191906000526020600020905b81548152906001019060200180831161055757829003601f168201915b50505050508152602001600282018054600181600116156101000203166002900480601f0160208091040260200160405190810160405280929190818152602001828054600181600116156101000203166002900480156106165780601f106105eb57610100808354040283529160200191610616565b820191906000526020600020905b8154815290600101906020018083116105f957829003601f168201915b505050505081526020016003820160009054906101000a900460ff16151515158152505081526020016004820154815250509050919050565b600881600a811061065c57fe5b60050201600091509050806000016040518060800160405290816000820160009054906101000a900473ffffffffffffffffffffffffffffffffffffffff1673ffffffffffffffffffffffffffffffffffffffff1673ffffffffffffffffffffffffffffffffffffffff168152602001600182018054600181600116156101000203166002900480601f0160208091040260200160405190810160405280929190818152602001828054600181600116156101000203166002900480156107645780601f1061073957610100808354040283529160200191610764565b820191906000526020600020905b81548152906001019060200180831161074757829003601f168201915b50505050508152602001600282018054600181600116156101000203166002900480601f0160208091040260200160405190810160405280929190818152602001828054600181600116156101000203166002900480156108065780601f106107db57610100808354040283529160200191610806565b820191906000526020600020905b8154815290600101906020018083116107e957829003601f168201915b505050505081526020016003820160009054906101000a900460ff161515151581525050908060040154905082565b61083d611812565b73ffffffffffffffffffffffffffffffffffffffff1660008054906101000a900473ffffffffffffffffffffffffffffffffffffffff1673ffffffffffffffffffffffffffffffffffffffff16146108ca576040517f08c379a00000000000000000000000000000000000000000000000000000000081526004016108c19061222e565b60405180910390fd5b600073ffffffffffffffffffffffffffffffffffffffff1660008054906101000a900473ffffffffffffffffffffffffffffffffffffffff1673ffffffffffffffffffffffffffffffffffffffff167f8be0079c531659141344cd1fd0a4f28419497f9722a3daafe3b4186f6b6457e060405160405180910390a360008060006101000a81548173ffffffffffffffffffffffffffffffffffffffff021916908373ffffffffffffffffffffffffffffffffffffffff160217905550565b6004818154811061099557fe5b906000526020600020016000915090508054600181600116156101000203166002900480601f016020809104026020016040519081016040528092919081815260200182805460018160011615610100020316600290048015610a395780601f10610a0e57610100808354040283529160200191610a39565b820191906000526020600020905b815481529060010190602001808311610a1c57829003601f168201915b505050505081565b610a4961183a565b600282604051610a5991906120fd565b90815260200160405180910390206040518060800160405290816000820160009054906101000a900473ffffffffffffffffffffffffffffffffffffffff1673ffffffffffffffffffffffffffffffffffffffff1673ffffffffffffffffffffffffffffffffffffffff168152602001600182018054600181600116156101000203166002900480601f016020809104026020016040519081016040528092919081815260200182805460018160011615610100020316600290048015610b615780601f10610b3657610100808354040283529160200191610b61565b820191906000526020600020905b815481529060010190602001808311610b4457829003601f168201915b50505050508152602001600282018054600181600116156101000203166002900480601f016020809104026020016040519081016040528092919081815260200182805460018160011615610100020316600290048015610c035780601f10610bd857610100808354040283529160200191610c03565b820191906000526020600020905b815481529060010190602001808311610be657829003601f168201915b505050505081526020016003820160009054906101000a900460ff1615151515815250509050919050565b60008060009054906101000a900473ffffffffffffffffffffffffffffffffffffffff16905090565b610c6083611372565b15610eaa57610c6d61183a565b60405180608001604052803373ffffffffffffffffffffffffffffffffffffffff16815260200184815260200183815260200160011515815250905080600360003373ffffffffffffffffffffffffffffffffffffffff1673ffffffffffffffffffffffffffffffffffffffff16815260200190815260200160002085604051610cf791906120fd565b908152602001604051809103902060008201518160000160006101000a81548173ffffffffffffffffffffffffffffffffffffffff021916908373ffffffffffffffffffffffffffffffffffffffff1602179055506020820151816001019080519060200190610d6892919061187a565b506040820151816002019080519060200190610d8592919061187a565b5060608201518160030160006101000a81548160ff02191690831515021790555090505080600285604051610dba91906120fd565b908152602001604051809103902060008201518160000160006101000a81548173ffffffffffffffffffffffffffffffffffffffff021916908373ffffffffffffffffffffffffffffffffffffffff1602179055506020820151816001019080519060200190610e2b92919061187a565b506040820151816002019080519060200190610e4892919061187a565b5060608201518160030160006101000a81548160ff021916908315150217905550905050600484908060018154018082558091505060019003906000526020600020016000909190919091509080519060200190610ea792919061187a565b50505b505050565b6000600754905090565b600282604051610ec991906120fd565b908152602001604051809103902060000160009054906101000a900473ffffffffffffffffffffffffffffffffffffffff1673ffffffffffffffffffffffffffffffffffffffff163373ffffffffffffffffffffffffffffffffffffffff161415610fd85780600360003373ffffffffffffffffffffffffffffffffffffffff1673ffffffffffffffffffffffffffffffffffffffff16815260200190815260200160002083604051610f7c91906120fd565b90815260200160405180910390206002019080519060200190610fa092919061187a565b5080600283604051610fb291906120fd565b90815260200160405180910390206002019080519060200190610fd692919061187a565b505b5050565b6007548111611020576040517f08c379a00000000000000000000000000000000000000000000000000000000081526004016110179061224e565b60405180910390fd5b600660009054906101000a900473ffffffffffffffffffffffffffffffffffffffff1673ffffffffffffffffffffffffffffffffffffffff1663095ea7b330836040518363ffffffff1660e01b815260040161107d929190612166565b602060405180830381600087803b15801561109757600080fd5b505af11580156110ab573d6000803e3d6000fd5b505050506040513d601f19601f820116820180604052508101906110cf9190611ae0565b5060011515600660009054906101000a900473ffffffffffffffffffffffffffffffffffffffff1673ffffffffffffffffffffffffffffffffffffffff166323b872dd3330856040518463ffffffff1660e01b81526004016111339392919061212f565b602060405180830381600087803b15801561114d57600080fd5b505af1158015611161573d6000803e3d6000fd5b505050506040513d601f19601f820116820180604052508101906111859190611ae0565b1515146111c7576040517f08c379a00000000000000000000000000000000000000000000000000000000081526004016111be9061220e565b60405180910390fd5b6111cf61183a565b600560009054906101000a900473ffffffffffffffffffffffffffffffffffffffff1673ffffffffffffffffffffffffffffffffffffffff166382149bcb846040518263ffffffff1660e01b815260040161122a91906121cc565b60006040518083038186803b15801561124257600080fd5b505afa158015611256573d6000803e3d6000fd5b505050506040513d6000823e3d601f19601f8201168201806040525081019061127f9190611ca1565b9050604051806040016040528082815260200183815250603a846040516112a691906120fd565b908152602001604051809103902060008201518160000160008201518160000160006101000a81548173ffffffffffffffffffffffffffffffffffffffff021916908373ffffffffffffffffffffffffffffffffffffffff160217905550602082015181600101908051906020019061132092919061187a565b50604082015181600201908051906020019061133d92919061187a565b5060608201518160030160006101000a81548160ff021916908315150217905550505060208201518160040155905050505050565b60006001151560028360405161138891906120fd565b908152602001604051809103902060030160009054906101000a900460ff161515146113b757600190506113bc565b600090505b919050565b50565b60006002826040516113d691906120fd565b908152602001604051809103902060000160009054906101000a900473ffffffffffffffffffffffffffffffffffffffff169050919050565b611417611812565b73ffffffffffffffffffffffffffffffffffffffff1660008054906101000a900473ffffffffffffffffffffffffffffffffffffffff1673ffffffffffffffffffffffffffffffffffffffff16146114a4576040517f08c379a000000000000000000000000000000000000000000000000000000000815260040161149b9061222e565b60405180910390fd5b600073ffffffffffffffffffffffffffffffffffffffff168173ffffffffffffffffffffffffffffffffffffffff161415611514576040517f08c379a000000000000000000000000000000000000000000000000000000000815260040161150b906121ee565b60405180910390fd5b8073ffffffffffffffffffffffffffffffffffffffff1660008054906101000a900473ffffffffffffffffffffffffffffffffffffffff1673ffffffffffffffffffffffffffffffffffffffff167f8be0079c531659141344cd1fd0a4f28419497f9722a3daafe3b4186f6b6457e060405160405180910390a3806000806101000a81548173ffffffffffffffffffffffffffffffffffffffff021916908373ffffffffffffffffffffffffffffffffffffffff16021790555050565b60606115db611812565b73ffffffffffffffffffffffffffffffffffffffff1660008054906101000a900473ffffffffffffffffffffffffffffffffffffffff1673ffffffffffffffffffffffffffffffffffffffff1614611668576040517f08c379a000000000000000000000000000000000000000000000000000000000815260040161165f9061222e565b60405180910390fd5b60028260405161167891906120fd565b90815260200160405180910390206002018054600181600116156101000203166002900480601f01602080910402602001604051908101604052809291908181526020018280546001816001161561010002031660029004801561171d5780601f106116f25761010080835404028352916020019161171d565b820191906000526020600020905b81548152906001019060200180831161170057829003601f168201915b50505050509050919050565b60606004805480602002602001604051908101604052809291908181526020016000905b82821015611809578382906000526020600020018054600181600116156101000203166002900480601f0160208091040260200160405190810160405280929190818152602001828054600181600116156101000203166002900480156117f55780601f106117ca576101008083540402835291602001916117f5565b820191906000526020600020905b8154815290600101906020018083116117d857829003601f168201915b50505050508152602001906001019061174d565b50505050905090565b600033905090565b604051806040016040528061182d61183a565b8152602001600081525090565b6040518060800160405280600073ffffffffffffffffffffffffffffffffffffffff16815260200160608152602001606081526020016000151581525090565b828054600181600116156101000203166002900490600052602060002090601f016020900481019282601f106118bb57805160ff19168380011785556118e9565b828001600101855582156118e9579182015b828111156118e85782518255916020019190600101906118cd565b5b5090506118f691906118fa565b5090565b5b808211156119135760008160009055506001016118fb565b5090565b60008135905061192681612498565b92915050565b60008151905061193b81612498565b92915050565b600081519050611950816124af565b92915050565b600082601f83011261196757600080fd5b813561197a6119758261232a565b6122fd565b9150808252602083016020830185838301111561199657600080fd5b6119a1838284612445565b50505092915050565b600082601f8301126119bb57600080fd5b81516119ce6119c98261232a565b6122fd565b915080825260208301602083018583830111156119ea57600080fd5b6119f5838284612454565b50505092915050565b600060808284031215611a1057600080fd5b611a1a60806122fd565b90506000611a2a8482850161192c565b600083015250602082015167ffffffffffffffff811115611a4a57600080fd5b611a56848285016119aa565b602083015250604082015167ffffffffffffffff811115611a7657600080fd5b611a82848285016119aa565b6040830152506060611a9684828501611941565b60608301525092915050565b600081359050611ab1816124c6565b92915050565b600060208284031215611ac957600080fd5b6000611ad784828501611917565b91505092915050565b600060208284031215611af257600080fd5b6000611b0084828501611941565b91505092915050565b600060208284031215611b1b57600080fd5b600082013567ffffffffffffffff811115611b3557600080fd5b611b4184828501611956565b91505092915050565b60008060408385031215611b5d57600080fd5b600083013567ffffffffffffffff811115611b7757600080fd5b611b8385828601611956565b925050602083013567ffffffffffffffff811115611ba057600080fd5b611bac85828601611956565b9150509250929050565b600080600060608486031215611bcb57600080fd5b600084013567ffffffffffffffff811115611be557600080fd5b611bf186828701611956565b935050602084013567ffffffffffffffff811115611c0e57600080fd5b611c1a86828701611956565b925050604084013567ffffffffffffffff811115611c3757600080fd5b611c4386828701611956565b9150509250925092565b60008060408385031215611c6057600080fd5b600083013567ffffffffffffffff811115611c7a57600080fd5b611c8685828601611956565b9250506020611c9785828601611aa2565b9150509250929050565b600060208284031215611cb357600080fd5b600082015167ffffffffffffffff811115611ccd57600080fd5b611cd9848285016119fe565b91505092915050565b600060208284031215611cf457600080fd5b6000611d0284828501611aa2565b91505092915050565b6000611d178383611ddf565b905092915050565b611d288161240f565b82525050565b611d37816123c7565b82525050565b611d46816123c7565b82525050565b6000611d5782612366565b611d618185612389565b935083602082028501611d7385612356565b8060005b85811015611daf5784840389528151611d908582611d0b565b9450611d9b8361237c565b925060208a01995050600181019050611d77565b50829750879550505050505092915050565b611dca816123d9565b82525050565b611dd9816123d9565b82525050565b6000611dea82612371565b611df4818561239a565b9350611e04818560208601612454565b611e0d81612487565b840191505092915050565b6000611e2382612371565b611e2d81856123ab565b9350611e3d818560208601612454565b611e4681612487565b840191505092915050565b6000611e5c82612371565b611e6681856123bc565b9350611e76818560208601612454565b80840191505092915050565b6000611e8f6026836123ab565b91507f4f776e61626c653a206e6577206f776e657220697320746865207a65726f206160008301527f64647265737300000000000000000000000000000000000000000000000000006020830152604082019050919050565b6000611ef56015836123ab565b91507f436f756c64206e6f742073656e6420746f6b656e7300000000000000000000006000830152602082019050919050565b6000611f356020836123ab565b91507f4f776e61626c653a2063616c6c6572206973206e6f7420746865206f776e65726000830152602082019050919050565b6000611f756026836123ab565b91507f56616c75652073656e74206d7573742062652067726561746572207468616e2060008301527f70726963652e00000000000000000000000000000000000000000000000000006020830152604082019050919050565b6000608083016000830151611fe66000860182611d2e565b5060208301518482036020860152611ffe8282611ddf565b915050604083015184820360408601526120188282611ddf565b915050606083015161202d6060860182611dc1565b508091505092915050565b60006080830160008301516120506000860182611d2e565b50602083015184820360208601526120688282611ddf565b915050604083015184820360408601526120828282611ddf565b91505060608301516120976060860182611dc1565b508091505092915050565b600060408301600083015184820360008601526120bf8282611fce565b91505060208301516120d460208601826120df565b508091505092915050565b6120e881612405565b82525050565b6120f781612405565b82525050565b60006121098284611e51565b915081905092915050565b60006020820190506121296000830184611d3d565b92915050565b60006060820190506121446000830186611d1f565b6121516020830185611d3d565b61215e60408301846120ee565b949350505050565b600060408201905061217b6000830185611d3d565b61218860208301846120ee565b9392505050565b600060208201905081810360008301526121a98184611d4c565b905092915050565b60006020820190506121c66000830184611dd0565b92915050565b600060208201905081810360008301526121e68184611e18565b905092915050565b6000602082019050818103600083015261220781611e82565b9050919050565b6000602082019050818103600083015261222781611ee8565b9050919050565b6000602082019050818103600083015261224781611f28565b9050919050565b6000602082019050818103600083015261226781611f68565b9050919050565b600060208201905081810360008301526122888184612038565b905092915050565b600060408201905081810360008301526122aa8185612038565b90506122b960208301846120ee565b9392505050565b600060208201905081810360008301526122da81846120a2565b905092915050565b60006020820190506122f760008301846120ee565b92915050565b6000604051905081810181811067ffffffffffffffff8211171561232057600080fd5b8060405250919050565b600067ffffffffffffffff82111561234157600080fd5b601f19601f8301169050602081019050919050565b6000819050602082019050919050565b600081519050919050565b600081519050919050565b6000602082019050919050565b600082825260208201905092915050565b600082825260208201905092915050565b600082825260208201905092915050565b600081905092915050565b60006123d2826123e5565b9050919050565b60008115159050919050565b600073ffffffffffffffffffffffffffffffffffffffff82169050919050565b6000819050919050565b600061241a82612421565b9050919050565b600061242c82612433565b9050919050565b600061243e826123e5565b9050919050565b82818337600083830152505050565b60005b83811015612472578082015181840152602081019050612457565b83811115612481576000848401525b50505050565b6000601f19601f8301169050919050565b6124a1816123c7565b81146124ac57600080fd5b50565b6124b8816123d9565b81146124c357600080fd5b50565b6124cf81612405565b81146124da57600080fd5b5056fea26469706673582212200bfaa8a7495ff344a24b0e9b955ae8e25755233e8330ccf6810a09cbeb0ff5df64736f6c63430007010033",
  "immutableReferences": {},
  "source": "// SPDX-License-Identifier: MIT\r\npragma solidity >=0.7.0;\r\npragma experimental ABIEncoderV2;\r\n\r\nimport \"./Repository.sol\";\r\nimport \"./GLDToken.sol\";\r\nimport \"@openzeppelin/contracts/access/Ownable.sol\";\r\n\r\ncontract Promotions is Repository{\r\n    \r\n    Repository private repo;\r\n    GLDToken private token;\r\n    uint price;\r\n    promotion[10] public livePromotions;\r\n    mapping (string => promotion) promotions;\r\n    address thisOwner; // Contract owner\r\n    \r\n    struct promotion{\r\n        Repo promotedRepo;\r\n        uint pricePaid;\r\n    }\r\n\r\n    constructor(address tokenAddress, address repoAddress) Repository(tokenAddress){\r\n        repo = Repository(repoAddress);\r\n        token = GLDToken(tokenAddress);\r\n        thisOwner = msg.sender;\r\n    }\r\n    \r\n    // Create Promotion\r\n    function createPromotion(string memory _projectSlug, uint amount) public {\r\n        // Check amount\r\n        require(amount > price, \"Value sent must be greater than price.\"); \r\n\r\n        // send money\r\n        // require(token.transfer(thisOwner, amount) == true, \"Could not send tokens\");\r\n        token.approve(address(this), amount);\r\n        require(token.transferFrom(msg.sender, address(this), amount) == true, \"Could not send tokens\");\r\n\r\n        // Get Repo\r\n        Repo memory promotedRepo = repo.getRepo(_projectSlug);\r\n        // Create Promotion\r\n        promotions[_projectSlug] = promotion(promotedRepo, amount);\r\n\r\n        // create promotion\r\n        // livePromotions.push(promo);\r\n    }\r\n    // Remove Promotion\r\n    function removePromotion(string memory _projectSlug) public {\r\n       \r\n       \r\n    }\r\n    // Get Price\r\n    function getPrice() public view returns(uint) {\r\n        return price;\r\n    }\r\n    // Get One Promotion\r\n    function getPromotion(string memory _projectSlug) public view returns(promotion memory) {\r\n        return promotions[_projectSlug];\r\n    }\r\n\r\n    // Get All Promotions\r\n    // function getAllPromotions() public view returns(Repository[] memory) {\r\n    //     return price;\r\n    // }\r\n}",
  "sourcePath": "C:/Users/jamie/Desktop/Thesis/planetGit/src/contracts/Promotions.sol",
  "compiler": {
    "name": "solc",
    "version": "0.7.1+commit.f4a555be.Emscripten.clang"
  },
  "schemaVersion": "3.2.5",
  "updatedAt": "2020-10-27T13:53:45.374Z",
  "networkType": "ethereum",
  "devdoc": {
    "kind": "dev",
    "methods": {
      "owner()": {
        "details": "Returns the address of the current owner."
      },
      "renounceOwnership()": {
        "details": "Leaves the contract without owner. It will not be possible to call `onlyOwner` functions anymore. Can only be called by the current owner. NOTE: Renouncing ownership will leave the contract without an owner, thereby removing any functionality that is only available to the owner."
      },
      "transferOwnership(address)": {
        "details": "Transfers ownership of the contract to a new account (`newOwner`). Can only be called by the current owner."
      }
    },
    "version": 1
  },
  "userdoc": {
    "kind": "user",
    "methods": {},
    "version": 1
  }
}