{
  "contractName": "Promotions",
  "abi": [
    {
      "inputs": [
        {
          "internalType": "address",
          "name": "tokenAddress",
          "type": "address"
        },
        {
          "internalType": "address",
          "name": "repoAddress",
          "type": "address"
        }
      ],
      "stateMutability": "nonpayable",
      "type": "constructor"
    },
    {
      "anonymous": false,
      "inputs": [
        {
          "indexed": true,
          "internalType": "address",
          "name": "previousOwner",
          "type": "address"
        },
        {
          "indexed": true,
          "internalType": "address",
          "name": "newOwner",
          "type": "address"
        }
      ],
      "name": "OwnershipTransferred",
      "type": "event"
    },
    {
      "inputs": [
        {
          "internalType": "uint256",
          "name": "",
          "type": "uint256"
        }
      ],
      "name": "allRepos",
      "outputs": [
        {
          "internalType": "string",
          "name": "",
          "type": "string"
        }
      ],
      "stateMutability": "view",
      "type": "function",
      "constant": true
    },
    {
      "inputs": [
        {
          "internalType": "string",
          "name": "_projectSlug",
          "type": "string"
        },
        {
          "internalType": "string",
          "name": "_projectName",
          "type": "string"
        },
        {
          "internalType": "string",
          "name": "_repoHash",
          "type": "string"
        }
      ],
      "name": "createRepo",
      "outputs": [],
      "stateMutability": "nonpayable",
      "type": "function"
    },
    {
      "inputs": [],
      "name": "getAllRepos",
      "outputs": [
        {
          "internalType": "string[]",
          "name": "",
          "type": "string[]"
        }
      ],
      "stateMutability": "view",
      "type": "function",
      "constant": true
    },
    {
      "inputs": [
        {
          "internalType": "string",
          "name": "_projectSlug",
          "type": "string"
        }
      ],
      "name": "getRepo",
      "outputs": [
        {
          "components": [
            {
              "internalType": "address",
              "name": "owner",
              "type": "address"
            },
            {
              "internalType": "string",
              "name": "repoName",
              "type": "string"
            },
            {
              "internalType": "string",
              "name": "repoHash",
              "type": "string"
            },
            {
              "internalType": "bool",
              "name": "exists",
              "type": "bool"
            }
          ],
          "internalType": "struct Repository.Repo",
          "name": "",
          "type": "tuple"
        }
      ],
      "stateMutability": "view",
      "type": "function",
      "constant": true
    },
    {
      "inputs": [
        {
          "internalType": "string",
          "name": "_projectSlug",
          "type": "string"
        }
      ],
      "name": "getRepoHash",
      "outputs": [
        {
          "internalType": "string",
          "name": "",
          "type": "string"
        }
      ],
      "stateMutability": "view",
      "type": "function",
      "constant": true
    },
    {
      "inputs": [
        {
          "internalType": "string",
          "name": "_projectSlug",
          "type": "string"
        }
      ],
      "name": "getRepoName",
      "outputs": [
        {
          "internalType": "string",
          "name": "",
          "type": "string"
        }
      ],
      "stateMutability": "view",
      "type": "function",
      "constant": true
    },
    {
      "inputs": [
        {
          "internalType": "string",
          "name": "_projectSlug",
          "type": "string"
        }
      ],
      "name": "getRepoOwner",
      "outputs": [
        {
          "internalType": "address",
          "name": "",
          "type": "address"
        }
      ],
      "stateMutability": "view",
      "type": "function",
      "constant": true
    },
    {
      "inputs": [
        {
          "internalType": "uint256",
          "name": "",
          "type": "uint256"
        }
      ],
      "name": "livePromotions",
      "outputs": [
        {
          "components": [
            {
              "internalType": "address",
              "name": "owner",
              "type": "address"
            },
            {
              "internalType": "string",
              "name": "repoName",
              "type": "string"
            },
            {
              "internalType": "string",
              "name": "repoHash",
              "type": "string"
            },
            {
              "internalType": "bool",
              "name": "exists",
              "type": "bool"
            }
          ],
          "internalType": "struct Repository.Repo",
          "name": "promotedRepo",
          "type": "tuple"
        },
        {
          "internalType": "uint256",
          "name": "pricePaid",
          "type": "uint256"
        }
      ],
      "stateMutability": "view",
      "type": "function",
      "constant": true
    },
    {
      "inputs": [],
      "name": "owner",
      "outputs": [
        {
          "internalType": "address",
          "name": "",
          "type": "address"
        }
      ],
      "stateMutability": "view",
      "type": "function",
      "constant": true
    },
    {
      "inputs": [],
      "name": "renounceOwnership",
      "outputs": [],
      "stateMutability": "nonpayable",
      "type": "function"
    },
    {
      "inputs": [
        {
          "internalType": "address",
          "name": "newOwner",
          "type": "address"
        }
      ],
      "name": "transferOwnership",
      "outputs": [],
      "stateMutability": "nonpayable",
      "type": "function"
    },
    {
      "inputs": [
        {
          "internalType": "string",
          "name": "_projectSlug",
          "type": "string"
        }
      ],
      "name": "uniqueRepoSlug",
      "outputs": [
        {
          "internalType": "bool",
          "name": "isUnique",
          "type": "bool"
        }
      ],
      "stateMutability": "view",
      "type": "function",
      "constant": true
    },
    {
      "inputs": [
        {
          "internalType": "string",
          "name": "_projectSlug",
          "type": "string"
        },
        {
          "internalType": "string",
          "name": "_repoHash",
          "type": "string"
        }
      ],
      "name": "updateRepo",
      "outputs": [],
      "stateMutability": "nonpayable",
      "type": "function"
    },
    {
      "inputs": [
        {
          "internalType": "string",
          "name": "_projectSlug",
          "type": "string"
        },
        {
          "internalType": "uint256",
          "name": "amount",
          "type": "uint256"
        }
      ],
      "name": "createPromotion",
      "outputs": [],
      "stateMutability": "nonpayable",
      "type": "function"
    },
    {
      "inputs": [
        {
          "internalType": "string",
          "name": "_projectSlug",
          "type": "string"
        }
      ],
      "name": "removePromotion",
      "outputs": [],
      "stateMutability": "nonpayable",
      "type": "function"
    },
    {
      "inputs": [],
      "name": "getPrice",
      "outputs": [
        {
          "internalType": "uint256",
          "name": "",
          "type": "uint256"
        }
      ],
      "stateMutability": "view",
      "type": "function",
      "constant": true
    },
    {
      "inputs": [
        {
          "internalType": "string",
          "name": "_projectSlug",
          "type": "string"
        }
      ],
      "name": "getPromotion",
      "outputs": [
        {
          "components": [
            {
              "components": [
                {
                  "internalType": "address",
                  "name": "owner",
                  "type": "address"
                },
                {
                  "internalType": "string",
                  "name": "repoName",
                  "type": "string"
                },
                {
                  "internalType": "string",
                  "name": "repoHash",
                  "type": "string"
                },
                {
                  "internalType": "bool",
                  "name": "exists",
                  "type": "bool"
                }
              ],
              "internalType": "struct Repository.Repo",
              "name": "promotedRepo",
              "type": "tuple"
            },
            {
              "internalType": "uint256",
              "name": "pricePaid",
              "type": "uint256"
            }
          ],
          "internalType": "struct Promotions.promotion",
          "name": "",
          "type": "tuple"
        }
      ],
      "stateMutability": "view",
      "type": "function",
      "constant": true
    }
  ],
  "bytecode": "0x60806040523480156200001157600080fd5b506040516200270f3803806200270f833981810160405281019062000037919062000214565b8160006200004a620001f560201b60201c565b9050806000806101000a81548173ffffffffffffffffffffffffffffffffffffffff021916908373ffffffffffffffffffffffffffffffffffffffff1602179055508073ffffffffffffffffffffffffffffffffffffffff16600073ffffffffffffffffffffffffffffffffffffffff167f8be0079c531659141344cd1fd0a4f28419497f9722a3daafe3b4186f6b6457e060405160405180910390a35080600160006101000a81548173ffffffffffffffffffffffffffffffffffffffff021916908373ffffffffffffffffffffffffffffffffffffffff1602179055505080600560006101000a81548173ffffffffffffffffffffffffffffffffffffffff021916908373ffffffffffffffffffffffffffffffffffffffff16021790555081600660006101000a81548173ffffffffffffffffffffffffffffffffffffffff021916908373ffffffffffffffffffffffffffffffffffffffff16021790555033603b60006101000a81548173ffffffffffffffffffffffffffffffffffffffff021916908373ffffffffffffffffffffffffffffffffffffffff1602179055505050620002a3565b600033905090565b6000815190506200020e8162000289565b92915050565b600080604083850312156200022857600080fd5b60006200023885828601620001fd565b92505060206200024b85828601620001fd565b9150509250929050565b6000620002628262000269565b9050919050565b600073ffffffffffffffffffffffffffffffffffffffff82169050919050565b620002948162000255565b8114620002a057600080fd5b50565b61245c80620002b36000396000f3fe608060405234801561001057600080fd5b506004361061010b5760003560e01c806398d5fdca116100a2578063ce654d2211610071578063ce654d22146102cb578063e2c782a2146102e7578063f2fde38b14610317578063f4845d8714610333578063f5cc98c9146103635761010b565b806398d5fdca146102455780639e20505a14610263578063ae0b11e71461027f578063b4bc07c21461029b5761010b565b80637f3b156f116100de5780637f3b156f146101ab57806382149bcb146101db5780638da5cb5b1461020b57806390ec291d146102295761010b565b80630446c519146101105780631a54386b1461014057806339f9178014610170578063715018a6146101a1575b600080fd5b61012a60048036038101906101259190611a7b565b610381565b6040516101379190612115565b60405180910390f35b61015a60048036038101906101559190611a7b565b610444565b6040516101679190612209565b60405180910390f35b61018a60048036038101906101859190611c54565b61064f565b6040516101989291906121d9565b60405180910390f35b6101a9610835565b005b6101c560048036038101906101c09190611c54565b610988565b6040516101d29190612115565b60405180910390f35b6101f560048036038101906101f09190611a7b565b610a41565b60405161020291906121b7565b60405180910390f35b610213610c2e565b6040516102209190612086565b60405180910390f35b610243600480360381019061023e9190611b28565b610c57565b005b61024d610eaf565b60405161025a919061222b565b60405180910390f35b61027d60048036038101906102789190611abc565b610eb9565b005b61029960048036038101906102949190611bbf565b610fdc565b005b6102b560048036038101906102b09190611a7b565b6112e4565b6040516102c291906120fa565b60405180910390f35b6102e560048036038101906102e09190611a7b565b611333565b005b61030160048036038101906102fc9190611a7b565b611336565b60405161030e9190612086565b60405180910390f35b610331600480360381019061032c9190611a29565b611381565b005b61034d60048036038101906103489190611a7b565b611543565b60405161035a9190612115565b60405180910390f35b61036b61169b565b60405161037891906120d8565b60405180910390f35b6060600282604051610393919061206f565b90815260200160405180910390206001018054600181600116156101000203166002900480601f0160208091040260200160405190810160405280929190818152602001828054600181600116156101000203166002900480156104385780601f1061040d57610100808354040283529160200191610438565b820191906000526020600020905b81548152906001019060200180831161041b57829003601f168201915b50505050509050919050565b61044c61178c565b603a8260405161045c919061206f565b9081526020016040518091039020604051806040016040529081600082016040518060800160405290816000820160009054906101000a900473ffffffffffffffffffffffffffffffffffffffff1673ffffffffffffffffffffffffffffffffffffffff1673ffffffffffffffffffffffffffffffffffffffff168152602001600182018054600181600116156101000203166002900480601f0160208091040260200160405190810160405280929190818152602001828054600181600116156101000203166002900480156105745780601f1061054957610100808354040283529160200191610574565b820191906000526020600020905b81548152906001019060200180831161055757829003601f168201915b50505050508152602001600282018054600181600116156101000203166002900480601f0160208091040260200160405190810160405280929190818152602001828054600181600116156101000203166002900480156106165780601f106105eb57610100808354040283529160200191610616565b820191906000526020600020905b8154815290600101906020018083116105f957829003601f168201915b505050505081526020016003820160009054906101000a900460ff16151515158152505081526020016004820154815250509050919050565b600881600a811061065c57fe5b60050201600091509050806000016040518060800160405290816000820160009054906101000a900473ffffffffffffffffffffffffffffffffffffffff1673ffffffffffffffffffffffffffffffffffffffff1673ffffffffffffffffffffffffffffffffffffffff168152602001600182018054600181600116156101000203166002900480601f0160208091040260200160405190810160405280929190818152602001828054600181600116156101000203166002900480156107645780601f1061073957610100808354040283529160200191610764565b820191906000526020600020905b81548152906001019060200180831161074757829003601f168201915b50505050508152602001600282018054600181600116156101000203166002900480601f0160208091040260200160405190810160405280929190818152602001828054600181600116156101000203166002900480156108065780601f106107db57610100808354040283529160200191610806565b820191906000526020600020905b8154815290600101906020018083116107e957829003601f168201915b505050505081526020016003820160009054906101000a900460ff161515151581525050908060040154905082565b61083d611784565b73ffffffffffffffffffffffffffffffffffffffff1660008054906101000a900473ffffffffffffffffffffffffffffffffffffffff1673ffffffffffffffffffffffffffffffffffffffff16146108ca576040517f08c379a00000000000000000000000000000000000000000000000000000000081526004016108c190612177565b60405180910390fd5b600073ffffffffffffffffffffffffffffffffffffffff1660008054906101000a900473ffffffffffffffffffffffffffffffffffffffff1673ffffffffffffffffffffffffffffffffffffffff167f8be0079c531659141344cd1fd0a4f28419497f9722a3daafe3b4186f6b6457e060405160405180910390a360008060006101000a81548173ffffffffffffffffffffffffffffffffffffffff021916908373ffffffffffffffffffffffffffffffffffffffff160217905550565b6004818154811061099557fe5b906000526020600020016000915090508054600181600116156101000203166002900480601f016020809104026020016040519081016040528092919081815260200182805460018160011615610100020316600290048015610a395780601f10610a0e57610100808354040283529160200191610a39565b820191906000526020600020905b815481529060010190602001808311610a1c57829003601f168201915b505050505081565b610a496117ac565b600282604051610a59919061206f565b90815260200160405180910390206040518060800160405290816000820160009054906101000a900473ffffffffffffffffffffffffffffffffffffffff1673ffffffffffffffffffffffffffffffffffffffff1673ffffffffffffffffffffffffffffffffffffffff168152602001600182018054600181600116156101000203166002900480601f016020809104026020016040519081016040528092919081815260200182805460018160011615610100020316600290048015610b615780601f10610b3657610100808354040283529160200191610b61565b820191906000526020600020905b815481529060010190602001808311610b4457829003601f168201915b50505050508152602001600282018054600181600116156101000203166002900480601f016020809104026020016040519081016040528092919081815260200182805460018160011615610100020316600290048015610c035780601f10610bd857610100808354040283529160200191610c03565b820191906000526020600020905b815481529060010190602001808311610be657829003601f168201915b505050505081526020016003820160009054906101000a900460ff1615151515815250509050919050565b60008060009054906101000a900473ffffffffffffffffffffffffffffffffffffffff16905090565b610c60836112e4565b15610eaa57610c6d6117ac565b60405180608001604052803373ffffffffffffffffffffffffffffffffffffffff16815260200184815260200183815260200160011515815250905080600360003373ffffffffffffffffffffffffffffffffffffffff1673ffffffffffffffffffffffffffffffffffffffff16815260200190815260200160002085604051610cf7919061206f565b908152602001604051809103902060008201518160000160006101000a81548173ffffffffffffffffffffffffffffffffffffffff021916908373ffffffffffffffffffffffffffffffffffffffff1602179055506020820151816001019080519060200190610d689291906117ec565b506040820151816002019080519060200190610d859291906117ec565b5060608201518160030160006101000a81548160ff02191690831515021790555090505080600285604051610dba919061206f565b908152602001604051809103902060008201518160000160006101000a81548173ffffffffffffffffffffffffffffffffffffffff021916908373ffffffffffffffffffffffffffffffffffffffff1602179055506020820151816001019080519060200190610e2b9291906117ec565b506040820151816002019080519060200190610e489291906117ec565b5060608201518160030160006101000a81548160ff021916908315150217905550905050600484908060018154018082558091505060019003906000526020600020016000909190919091509080519060200190610ea79291906117ec565b50505b505050565b6000600754905090565b600282604051610ec9919061206f565b908152602001604051809103902060000160009054906101000a900473ffffffffffffffffffffffffffffffffffffffff1673ffffffffffffffffffffffffffffffffffffffff163373ffffffffffffffffffffffffffffffffffffffff161415610fd85780600360003373ffffffffffffffffffffffffffffffffffffffff1673ffffffffffffffffffffffffffffffffffffffff16815260200190815260200160002083604051610f7c919061206f565b90815260200160405180910390206002019080519060200190610fa09291906117ec565b5080600283604051610fb2919061206f565b90815260200160405180910390206002019080519060200190610fd69291906117ec565b505b5050565b6007548111611020576040517f08c379a000000000000000000000000000000000000000000000000000000000815260040161101790612197565b60405180910390fd5b60011515600660009054906101000a900473ffffffffffffffffffffffffffffffffffffffff1673ffffffffffffffffffffffffffffffffffffffff166323b872dd33603b60009054906101000a900473ffffffffffffffffffffffffffffffffffffffff16856040518463ffffffff1660e01b81526004016110a5939291906120a1565b602060405180830381600087803b1580156110bf57600080fd5b505af11580156110d3573d6000803e3d6000fd5b505050506040513d601f19601f820116820180604052508101906110f79190611a52565b151514611139576040517f08c379a000000000000000000000000000000000000000000000000000000000815260040161113090612157565b60405180910390fd5b6111416117ac565b600560009054906101000a900473ffffffffffffffffffffffffffffffffffffffff1673ffffffffffffffffffffffffffffffffffffffff166382149bcb846040518263ffffffff1660e01b815260040161119c9190612115565b60006040518083038186803b1580156111b457600080fd5b505afa1580156111c8573d6000803e3d6000fd5b505050506040513d6000823e3d601f19601f820116820180604052508101906111f19190611c13565b9050604051806040016040528082815260200183815250603a84604051611218919061206f565b908152602001604051809103902060008201518160000160008201518160000160006101000a81548173ffffffffffffffffffffffffffffffffffffffff021916908373ffffffffffffffffffffffffffffffffffffffff16021790555060208201518160010190805190602001906112929291906117ec565b5060408201518160020190805190602001906112af9291906117ec565b5060608201518160030160006101000a81548160ff021916908315150217905550505060208201518160040155905050505050565b6000600115156002836040516112fa919061206f565b908152602001604051809103902060030160009054906101000a900460ff16151514611329576001905061132e565b600090505b919050565b50565b6000600282604051611348919061206f565b908152602001604051809103902060000160009054906101000a900473ffffffffffffffffffffffffffffffffffffffff169050919050565b611389611784565b73ffffffffffffffffffffffffffffffffffffffff1660008054906101000a900473ffffffffffffffffffffffffffffffffffffffff1673ffffffffffffffffffffffffffffffffffffffff1614611416576040517f08c379a000000000000000000000000000000000000000000000000000000000815260040161140d90612177565b60405180910390fd5b600073ffffffffffffffffffffffffffffffffffffffff168173ffffffffffffffffffffffffffffffffffffffff161415611486576040517f08c379a000000000000000000000000000000000000000000000000000000000815260040161147d90612137565b60405180910390fd5b8073ffffffffffffffffffffffffffffffffffffffff1660008054906101000a900473ffffffffffffffffffffffffffffffffffffffff1673ffffffffffffffffffffffffffffffffffffffff167f8be0079c531659141344cd1fd0a4f28419497f9722a3daafe3b4186f6b6457e060405160405180910390a3806000806101000a81548173ffffffffffffffffffffffffffffffffffffffff021916908373ffffffffffffffffffffffffffffffffffffffff16021790555050565b606061154d611784565b73ffffffffffffffffffffffffffffffffffffffff1660008054906101000a900473ffffffffffffffffffffffffffffffffffffffff1673ffffffffffffffffffffffffffffffffffffffff16146115da576040517f08c379a00000000000000000000000000000000000000000000000000000000081526004016115d190612177565b60405180910390fd5b6002826040516115ea919061206f565b90815260200160405180910390206002018054600181600116156101000203166002900480601f01602080910402602001604051908101604052809291908181526020018280546001816001161561010002031660029004801561168f5780601f106116645761010080835404028352916020019161168f565b820191906000526020600020905b81548152906001019060200180831161167257829003601f168201915b50505050509050919050565b60606004805480602002602001604051908101604052809291908181526020016000905b8282101561177b578382906000526020600020018054600181600116156101000203166002900480601f0160208091040260200160405190810160405280929190818152602001828054600181600116156101000203166002900480156117675780601f1061173c57610100808354040283529160200191611767565b820191906000526020600020905b81548152906001019060200180831161174a57829003601f168201915b5050505050815260200190600101906116bf565b50505050905090565b600033905090565b604051806040016040528061179f6117ac565b8152602001600081525090565b6040518060800160405280600073ffffffffffffffffffffffffffffffffffffffff16815260200160608152602001606081526020016000151581525090565b828054600181600116156101000203166002900490600052602060002090601f016020900481019282601f1061182d57805160ff191683800117855561185b565b8280016001018555821561185b579182015b8281111561185a57825182559160200191906001019061183f565b5b509050611868919061186c565b5090565b5b8082111561188557600081600090555060010161186d565b5090565b600081359050611898816123e1565b92915050565b6000815190506118ad816123e1565b92915050565b6000815190506118c2816123f8565b92915050565b600082601f8301126118d957600080fd5b81356118ec6118e782612273565b612246565b9150808252602083016020830185838301111561190857600080fd5b61191383828461238e565b50505092915050565b600082601f83011261192d57600080fd5b815161194061193b82612273565b612246565b9150808252602083016020830185838301111561195c57600080fd5b61196783828461239d565b50505092915050565b60006080828403121561198257600080fd5b61198c6080612246565b9050600061199c8482850161189e565b600083015250602082015167ffffffffffffffff8111156119bc57600080fd5b6119c88482850161191c565b602083015250604082015167ffffffffffffffff8111156119e857600080fd5b6119f48482850161191c565b6040830152506060611a08848285016118b3565b60608301525092915050565b600081359050611a238161240f565b92915050565b600060208284031215611a3b57600080fd5b6000611a4984828501611889565b91505092915050565b600060208284031215611a6457600080fd5b6000611a72848285016118b3565b91505092915050565b600060208284031215611a8d57600080fd5b600082013567ffffffffffffffff811115611aa757600080fd5b611ab3848285016118c8565b91505092915050565b60008060408385031215611acf57600080fd5b600083013567ffffffffffffffff811115611ae957600080fd5b611af5858286016118c8565b925050602083013567ffffffffffffffff811115611b1257600080fd5b611b1e858286016118c8565b9150509250929050565b600080600060608486031215611b3d57600080fd5b600084013567ffffffffffffffff811115611b5757600080fd5b611b63868287016118c8565b935050602084013567ffffffffffffffff811115611b8057600080fd5b611b8c868287016118c8565b925050604084013567ffffffffffffffff811115611ba957600080fd5b611bb5868287016118c8565b9150509250925092565b60008060408385031215611bd257600080fd5b600083013567ffffffffffffffff811115611bec57600080fd5b611bf8858286016118c8565b9250506020611c0985828601611a14565b9150509250929050565b600060208284031215611c2557600080fd5b600082015167ffffffffffffffff811115611c3f57600080fd5b611c4b84828501611970565b91505092915050565b600060208284031215611c6657600080fd5b6000611c7484828501611a14565b91505092915050565b6000611c898383611d51565b905092915050565b611c9a81612358565b82525050565b611ca981612310565b82525050565b611cb881612310565b82525050565b6000611cc9826122af565b611cd381856122d2565b935083602082028501611ce58561229f565b8060005b85811015611d215784840389528151611d028582611c7d565b9450611d0d836122c5565b925060208a01995050600181019050611ce9565b50829750879550505050505092915050565b611d3c81612322565b82525050565b611d4b81612322565b82525050565b6000611d5c826122ba565b611d6681856122e3565b9350611d7681856020860161239d565b611d7f816123d0565b840191505092915050565b6000611d95826122ba565b611d9f81856122f4565b9350611daf81856020860161239d565b611db8816123d0565b840191505092915050565b6000611dce826122ba565b611dd88185612305565b9350611de881856020860161239d565b80840191505092915050565b6000611e016026836122f4565b91507f4f776e61626c653a206e6577206f776e657220697320746865207a65726f206160008301527f64647265737300000000000000000000000000000000000000000000000000006020830152604082019050919050565b6000611e676015836122f4565b91507f436f756c64206e6f742073656e6420746f6b656e7300000000000000000000006000830152602082019050919050565b6000611ea76020836122f4565b91507f4f776e61626c653a2063616c6c6572206973206e6f7420746865206f776e65726000830152602082019050919050565b6000611ee76026836122f4565b91507f56616c75652073656e74206d7573742062652067726561746572207468616e2060008301527f70726963652e00000000000000000000000000000000000000000000000000006020830152604082019050919050565b6000608083016000830151611f586000860182611ca0565b5060208301518482036020860152611f708282611d51565b91505060408301518482036040860152611f8a8282611d51565b9150506060830151611f9f6060860182611d33565b508091505092915050565b6000608083016000830151611fc26000860182611ca0565b5060208301518482036020860152611fda8282611d51565b91505060408301518482036040860152611ff48282611d51565b91505060608301516120096060860182611d33565b508091505092915050565b600060408301600083015184820360008601526120318282611f40565b91505060208301516120466020860182612051565b508091505092915050565b61205a8161234e565b82525050565b6120698161234e565b82525050565b600061207b8284611dc3565b915081905092915050565b600060208201905061209b6000830184611caf565b92915050565b60006060820190506120b66000830186611c91565b6120c36020830185611caf565b6120d06040830184612060565b949350505050565b600060208201905081810360008301526120f28184611cbe565b905092915050565b600060208201905061210f6000830184611d42565b92915050565b6000602082019050818103600083015261212f8184611d8a565b905092915050565b6000602082019050818103600083015261215081611df4565b9050919050565b6000602082019050818103600083015261217081611e5a565b9050919050565b6000602082019050818103600083015261219081611e9a565b9050919050565b600060208201905081810360008301526121b081611eda565b9050919050565b600060208201905081810360008301526121d18184611faa565b905092915050565b600060408201905081810360008301526121f38185611faa565b90506122026020830184612060565b9392505050565b600060208201905081810360008301526122238184612014565b905092915050565b60006020820190506122406000830184612060565b92915050565b6000604051905081810181811067ffffffffffffffff8211171561226957600080fd5b8060405250919050565b600067ffffffffffffffff82111561228a57600080fd5b601f19601f8301169050602081019050919050565b6000819050602082019050919050565b600081519050919050565b600081519050919050565b6000602082019050919050565b600082825260208201905092915050565b600082825260208201905092915050565b600082825260208201905092915050565b600081905092915050565b600061231b8261232e565b9050919050565b60008115159050919050565b600073ffffffffffffffffffffffffffffffffffffffff82169050919050565b6000819050919050565b60006123638261236a565b9050919050565b60006123758261237c565b9050919050565b60006123878261232e565b9050919050565b82818337600083830152505050565b60005b838110156123bb5780820151818401526020810190506123a0565b838111156123ca576000848401525b50505050565b6000601f19601f8301169050919050565b6123ea81612310565b81146123f557600080fd5b50565b61240181612322565b811461240c57600080fd5b50565b6124188161234e565b811461242357600080fd5b5056fea2646970667358221220bddad6172c77bc396bc8fbef4a976be428ec6d3dbf6ad1ae20d2bffbfe0ed28064736f6c63430007010033",
  "immutableReferences": {},
  "source": "// SPDX-License-Identifier: MIT\r\npragma solidity >=0.7.0;\r\npragma experimental ABIEncoderV2;\r\n\r\nimport \"./Repository.sol\";\r\nimport \"./GLDToken.sol\";\r\nimport \"@openzeppelin/contracts/access/Ownable.sol\";\r\n\r\ncontract Promotions is Repository{\r\n    \r\n    Repository private repo;\r\n    GLDToken private token;\r\n    uint price;\r\n    promotion[10] public livePromotions;\r\n    mapping (string => promotion) promotions;\r\n    address thisOwner; // Contract owner\r\n    \r\n    struct promotion{\r\n        Repo promotedRepo;\r\n        uint pricePaid;\r\n    }\r\n\r\n    constructor(address tokenAddress, address repoAddress) Repository(tokenAddress){\r\n        repo = Repository(repoAddress);\r\n        token = GLDToken(tokenAddress);\r\n        thisOwner = msg.sender;\r\n    }\r\n    \r\n    // Create Promotion\r\n    function createPromotion(string memory _projectSlug, uint amount) public {\r\n        // Check amount\r\n        require(amount > price, \"Value sent must be greater than price.\"); \r\n\r\n        // send money\r\n        require(token.transferFrom(msg.sender, thisOwner, amount) == true, \"Could not send tokens\");\r\n\r\n        // Get Repo\r\n        Repo memory promotedRepo = repo.getRepo(_projectSlug);\r\n        // Create Promotion\r\n        promotions[_projectSlug] = promotion(promotedRepo, amount);\r\n\r\n        // create promotion\r\n        // livePromotions.push(promo);\r\n    }\r\n    // Remove Promotion\r\n    function removePromotion(string memory _projectSlug) public {\r\n       \r\n       \r\n    }\r\n    // Get Price\r\n    function getPrice() public view returns(uint) {\r\n        return price;\r\n    }\r\n    // Get One Promotion\r\n    function getPromotion(string memory _projectSlug) public view returns(promotion memory) {\r\n        return promotions[_projectSlug];\r\n    }\r\n\r\n    // Get All Promotions\r\n    // function getAllPromotions() public view returns(Repository[] memory) {\r\n    //     return price;\r\n    // }\r\n}",
  "sourcePath": "C:/Users/jamie/Desktop/Thesis/planetGit/src/contracts/Promotions.sol",
  "compiler": {
    "name": "solc",
    "version": "0.7.1+commit.f4a555be.Emscripten.clang"
  },
  "schemaVersion": "3.2.5",
  "updatedAt": "2020-10-27T13:28:30.922Z",
  "networkType": "ethereum",
  "devdoc": {
    "kind": "dev",
    "methods": {
      "owner()": {
        "details": "Returns the address of the current owner."
      },
      "renounceOwnership()": {
        "details": "Leaves the contract without owner. It will not be possible to call `onlyOwner` functions anymore. Can only be called by the current owner. NOTE: Renouncing ownership will leave the contract without an owner, thereby removing any functionality that is only available to the owner."
      },
      "transferOwnership(address)": {
        "details": "Transfers ownership of the contract to a new account (`newOwner`). Can only be called by the current owner."
      }
    },
    "version": 1
  },
  "userdoc": {
    "kind": "user",
    "methods": {},
    "version": 1
  }
}