{
  "contractName": "RepoContract",
  "abi": [
    {
      "inputs": [
        {
          "internalType": "address",
          "name": "tokenAddress",
          "type": "address"
        }
      ],
      "stateMutability": "nonpayable",
      "type": "constructor"
    },
    {
      "anonymous": false,
      "inputs": [
        {
          "indexed": true,
          "internalType": "address",
          "name": "previousOwner",
          "type": "address"
        },
        {
          "indexed": true,
          "internalType": "address",
          "name": "newOwner",
          "type": "address"
        }
      ],
      "name": "OwnershipTransferred",
      "type": "event"
    },
    {
      "inputs": [
        {
          "internalType": "uint256",
          "name": "",
          "type": "uint256"
        }
      ],
      "name": "allRepos",
      "outputs": [
        {
          "internalType": "string",
          "name": "",
          "type": "string"
        }
      ],
      "stateMutability": "view",
      "type": "function",
      "constant": true
    },
    {
      "inputs": [],
      "name": "owner",
      "outputs": [
        {
          "internalType": "address",
          "name": "",
          "type": "address"
        }
      ],
      "stateMutability": "view",
      "type": "function",
      "constant": true
    },
    {
      "inputs": [],
      "name": "renounceOwnership",
      "outputs": [],
      "stateMutability": "nonpayable",
      "type": "function"
    },
    {
      "inputs": [
        {
          "internalType": "address",
          "name": "newOwner",
          "type": "address"
        }
      ],
      "name": "transferOwnership",
      "outputs": [],
      "stateMutability": "nonpayable",
      "type": "function"
    },
    {
      "inputs": [
        {
          "internalType": "string",
          "name": "_projectSlug",
          "type": "string"
        }
      ],
      "name": "uniqueRepoSlug",
      "outputs": [
        {
          "internalType": "bool",
          "name": "isUnique",
          "type": "bool"
        }
      ],
      "stateMutability": "view",
      "type": "function",
      "constant": true
    },
    {
      "inputs": [
        {
          "internalType": "string",
          "name": "_projectSlug",
          "type": "string"
        },
        {
          "internalType": "string",
          "name": "_projectName",
          "type": "string"
        },
        {
          "internalType": "string",
          "name": "_repoHash",
          "type": "string"
        }
      ],
      "name": "createRepo",
      "outputs": [],
      "stateMutability": "nonpayable",
      "type": "function"
    },
    {
      "inputs": [
        {
          "internalType": "string",
          "name": "_projectSlug",
          "type": "string"
        },
        {
          "internalType": "string",
          "name": "_repoHash",
          "type": "string"
        }
      ],
      "name": "updateRepo",
      "outputs": [],
      "stateMutability": "nonpayable",
      "type": "function"
    },
    {
      "inputs": [
        {
          "internalType": "string",
          "name": "_projectSlug",
          "type": "string"
        }
      ],
      "name": "getRepoName",
      "outputs": [
        {
          "internalType": "string",
          "name": "",
          "type": "string"
        }
      ],
      "stateMutability": "view",
      "type": "function",
      "constant": true
    },
    {
      "inputs": [
        {
          "internalType": "string",
          "name": "_projectSlug",
          "type": "string"
        }
      ],
      "name": "getRepoHash",
      "outputs": [
        {
          "internalType": "string",
          "name": "",
          "type": "string"
        }
      ],
      "stateMutability": "view",
      "type": "function",
      "constant": true
    },
    {
      "inputs": [],
      "name": "getAllRepos",
      "outputs": [
        {
          "internalType": "string[]",
          "name": "",
          "type": "string[]"
        }
      ],
      "stateMutability": "view",
      "type": "function",
      "constant": true
    },
    {
      "inputs": [],
      "name": "getOwner",
      "outputs": [
        {
          "internalType": "address",
          "name": "",
          "type": "address"
        }
      ],
      "stateMutability": "view",
      "type": "function",
      "constant": true
    }
  ],
  "bytecode": "0x60806040523480156200001157600080fd5b506040516200172b3803806200172b83398181016040528101906200003791906200014e565b6000620000496200012f60201b60201c565b9050806000806101000a81548173ffffffffffffffffffffffffffffffffffffffff021916908373ffffffffffffffffffffffffffffffffffffffff1602179055508073ffffffffffffffffffffffffffffffffffffffff16600073ffffffffffffffffffffffffffffffffffffffff167f8be0079c531659141344cd1fd0a4f28419497f9722a3daafe3b4186f6b6457e060405160405180910390a35080600160006101000a81548173ffffffffffffffffffffffffffffffffffffffff021916908373ffffffffffffffffffffffffffffffffffffffff16021790555050620001c8565b600033905090565b6000815190506200014881620001ae565b92915050565b6000602082840312156200016157600080fd5b6000620001718482850162000137565b91505092915050565b600062000187826200018e565b9050919050565b600073ffffffffffffffffffffffffffffffffffffffff82169050919050565b620001b9816200017a565b8114620001c557600080fd5b50565b61155380620001d86000396000f3fe608060405234801561001057600080fd5b50600436106100a95760003560e01c806390ec291d1161007157806390ec291d146101545780639e20505a14610170578063b4bc07c21461018c578063f2fde38b146101bc578063f4845d87146101d8578063f5cc98c914610208576100a9565b80630446c519146100ae578063715018a6146100de5780637f3b156f146100e8578063893d20e8146101185780638da5cb5b14610136575b600080fd5b6100c860048036038101906100c39190610f5c565b610226565b6040516100d59190611328565b60405180910390f35b6100e66102e9565b005b61010260048036038101906100fd91906110a0565b61043c565b60405161010f9190611328565b60405180910390f35b6101206104f5565b60405161012d91906112d0565b60405180910390f35b61013e61059c565b60405161014b91906112d0565b60405180910390f35b61016e60048036038101906101699190611009565b6105c5565b005b61018a60048036038101906101859190610f9d565b61081d565b005b6101a660048036038101906101a19190610f5c565b610940565b6040516101b3919061130d565b60405180910390f35b6101d660048036038101906101d19190610f0a565b61098f565b005b6101f260048036038101906101ed9190610f5c565b610b51565b6040516101ff9190611328565b60405180910390f35b610210610ca9565b60405161021d91906112eb565b60405180910390f35b606060028260405161023891906112b9565b90815260200160405180910390206001018054600181600116156101000203166002900480601f0160208091040260200160405190810160405280929190818152602001828054600181600116156101000203166002900480156102dd5780601f106102b2576101008083540402835291602001916102dd565b820191906000526020600020905b8154815290600101906020018083116102c057829003601f168201915b50505050509050919050565b6102f1610d92565b73ffffffffffffffffffffffffffffffffffffffff1660008054906101000a900473ffffffffffffffffffffffffffffffffffffffff1673ffffffffffffffffffffffffffffffffffffffff161461037e576040517f08c379a00000000000000000000000000000000000000000000000000000000081526004016103759061136a565b60405180910390fd5b600073ffffffffffffffffffffffffffffffffffffffff1660008054906101000a900473ffffffffffffffffffffffffffffffffffffffff1673ffffffffffffffffffffffffffffffffffffffff167f8be0079c531659141344cd1fd0a4f28419497f9722a3daafe3b4186f6b6457e060405160405180910390a360008060006101000a81548173ffffffffffffffffffffffffffffffffffffffff021916908373ffffffffffffffffffffffffffffffffffffffff160217905550565b6004818154811061044957fe5b906000526020600020016000915090508054600181600116156101000203166002900480601f0160208091040260200160405190810160405280929190818152602001828054600181600116156101000203166002900480156104ed5780601f106104c2576101008083540402835291602001916104ed565b820191906000526020600020905b8154815290600101906020018083116104d057829003601f168201915b505050505081565b6000600160009054906101000a900473ffffffffffffffffffffffffffffffffffffffff1673ffffffffffffffffffffffffffffffffffffffff16638da5cb5b6040518163ffffffff1660e01b815260040160206040518083038186803b15801561055f57600080fd5b505afa158015610573573d6000803e3d6000fd5b505050506040513d601f19601f820116820180604052508101906105979190610f33565b905090565b60008060009054906101000a900473ffffffffffffffffffffffffffffffffffffffff16905090565b6105ce83610940565b15610818576105db610d9a565b60405180608001604052803373ffffffffffffffffffffffffffffffffffffffff16815260200184815260200183815260200160011515815250905080600360003373ffffffffffffffffffffffffffffffffffffffff1673ffffffffffffffffffffffffffffffffffffffff1681526020019081526020016000208560405161066591906112b9565b908152602001604051809103902060008201518160000160006101000a81548173ffffffffffffffffffffffffffffffffffffffff021916908373ffffffffffffffffffffffffffffffffffffffff16021790555060208201518160010190805190602001906106d6929190610dda565b5060408201518160020190805190602001906106f3929190610dda565b5060608201518160030160006101000a81548160ff0219169083151502179055509050508060028560405161072891906112b9565b908152602001604051809103902060008201518160000160006101000a81548173ffffffffffffffffffffffffffffffffffffffff021916908373ffffffffffffffffffffffffffffffffffffffff1602179055506020820151816001019080519060200190610799929190610dda565b5060408201518160020190805190602001906107b6929190610dda565b5060608201518160030160006101000a81548160ff021916908315150217905550905050600484908060018154018082558091505060019003906000526020600020016000909190919091509080519060200190610815929190610dda565b50505b505050565b60028260405161082d91906112b9565b908152602001604051809103902060000160009054906101000a900473ffffffffffffffffffffffffffffffffffffffff1673ffffffffffffffffffffffffffffffffffffffff163373ffffffffffffffffffffffffffffffffffffffff16141561093c5780600360003373ffffffffffffffffffffffffffffffffffffffff1673ffffffffffffffffffffffffffffffffffffffff168152602001908152602001600020836040516108e091906112b9565b90815260200160405180910390206002019080519060200190610904929190610dda565b508060028360405161091691906112b9565b9081526020016040518091039020600201908051906020019061093a929190610dda565b505b5050565b60006001151560028360405161095691906112b9565b908152602001604051809103902060030160009054906101000a900460ff16151514610985576001905061098a565b600090505b919050565b610997610d92565b73ffffffffffffffffffffffffffffffffffffffff1660008054906101000a900473ffffffffffffffffffffffffffffffffffffffff1673ffffffffffffffffffffffffffffffffffffffff1614610a24576040517f08c379a0000000000000000000000000000000000000000000000000000000008152600401610a1b9061136a565b60405180910390fd5b600073ffffffffffffffffffffffffffffffffffffffff168173ffffffffffffffffffffffffffffffffffffffff161415610a94576040517f08c379a0000000000000000000000000000000000000000000000000000000008152600401610a8b9061134a565b60405180910390fd5b8073ffffffffffffffffffffffffffffffffffffffff1660008054906101000a900473ffffffffffffffffffffffffffffffffffffffff1673ffffffffffffffffffffffffffffffffffffffff167f8be0079c531659141344cd1fd0a4f28419497f9722a3daafe3b4186f6b6457e060405160405180910390a3806000806101000a81548173ffffffffffffffffffffffffffffffffffffffff021916908373ffffffffffffffffffffffffffffffffffffffff16021790555050565b6060610b5b610d92565b73ffffffffffffffffffffffffffffffffffffffff1660008054906101000a900473ffffffffffffffffffffffffffffffffffffffff1673ffffffffffffffffffffffffffffffffffffffff1614610be8576040517f08c379a0000000000000000000000000000000000000000000000000000000008152600401610bdf9061136a565b60405180910390fd5b600282604051610bf891906112b9565b90815260200160405180910390206002018054600181600116156101000203166002900480601f016020809104026020016040519081016040528092919081815260200182805460018160011615610100020316600290048015610c9d5780601f10610c7257610100808354040283529160200191610c9d565b820191906000526020600020905b815481529060010190602001808311610c8057829003601f168201915b50505050509050919050565b60606004805480602002602001604051908101604052809291908181526020016000905b82821015610d89578382906000526020600020018054600181600116156101000203166002900480601f016020809104026020016040519081016040528092919081815260200182805460018160011615610100020316600290048015610d755780601f10610d4a57610100808354040283529160200191610d75565b820191906000526020600020905b815481529060010190602001808311610d5857829003601f168201915b505050505081526020019060010190610ccd565b50505050905090565b600033905090565b6040518060800160405280600073ffffffffffffffffffffffffffffffffffffffff16815260200160608152602001606081526020016000151581525090565b828054600181600116156101000203166002900490600052602060002090601f016020900481019282601f10610e1b57805160ff1916838001178555610e49565b82800160010185558215610e49579182015b82811115610e48578251825591602001919060010190610e2d565b5b509050610e569190610e5a565b5090565b5b80821115610e73576000816000905550600101610e5b565b5090565b600081359050610e86816114ef565b92915050565b600081519050610e9b816114ef565b92915050565b600082601f830112610eb257600080fd5b8135610ec5610ec0826113b7565b61138a565b91508082526020830160208301858383011115610ee157600080fd5b610eec83828461149c565b50505092915050565b600081359050610f0481611506565b92915050565b600060208284031215610f1c57600080fd5b6000610f2a84828501610e77565b91505092915050565b600060208284031215610f4557600080fd5b6000610f5384828501610e8c565b91505092915050565b600060208284031215610f6e57600080fd5b600082013567ffffffffffffffff811115610f8857600080fd5b610f9484828501610ea1565b91505092915050565b60008060408385031215610fb057600080fd5b600083013567ffffffffffffffff811115610fca57600080fd5b610fd685828601610ea1565b925050602083013567ffffffffffffffff811115610ff357600080fd5b610fff85828601610ea1565b9150509250929050565b60008060006060848603121561101e57600080fd5b600084013567ffffffffffffffff81111561103857600080fd5b61104486828701610ea1565b935050602084013567ffffffffffffffff81111561106157600080fd5b61106d86828701610ea1565b925050604084013567ffffffffffffffff81111561108a57600080fd5b61109686828701610ea1565b9150509250925092565b6000602082840312156110b257600080fd5b60006110c084828501610ef5565b91505092915050565b60006110d58383611170565b905092915050565b6110e681611454565b82525050565b60006110f7826113f3565b6111018185611416565b935083602082028501611113856113e3565b8060005b8581101561114f578484038952815161113085826110c9565b945061113b83611409565b925060208a01995050600181019050611117565b50829750879550505050505092915050565b61116a81611466565b82525050565b600061117b826113fe565b6111858185611427565b93506111958185602086016114ab565b61119e816114de565b840191505092915050565b60006111b4826113fe565b6111be8185611438565b93506111ce8185602086016114ab565b6111d7816114de565b840191505092915050565b60006111ed826113fe565b6111f78185611449565b93506112078185602086016114ab565b80840191505092915050565b6000611220602683611438565b91507f4f776e61626c653a206e6577206f776e657220697320746865207a65726f206160008301527f64647265737300000000000000000000000000000000000000000000000000006020830152604082019050919050565b6000611286602083611438565b91507f4f776e61626c653a2063616c6c6572206973206e6f7420746865206f776e65726000830152602082019050919050565b60006112c582846111e2565b915081905092915050565b60006020820190506112e560008301846110dd565b92915050565b6000602082019050818103600083015261130581846110ec565b905092915050565b60006020820190506113226000830184611161565b92915050565b6000602082019050818103600083015261134281846111a9565b905092915050565b6000602082019050818103600083015261136381611213565b9050919050565b6000602082019050818103600083015261138381611279565b9050919050565b6000604051905081810181811067ffffffffffffffff821117156113ad57600080fd5b8060405250919050565b600067ffffffffffffffff8211156113ce57600080fd5b601f19601f8301169050602081019050919050565b6000819050602082019050919050565b600081519050919050565b600081519050919050565b6000602082019050919050565b600082825260208201905092915050565b600082825260208201905092915050565b600082825260208201905092915050565b600081905092915050565b600061145f82611472565b9050919050565b60008115159050919050565b600073ffffffffffffffffffffffffffffffffffffffff82169050919050565b6000819050919050565b82818337600083830152505050565b60005b838110156114c95780820151818401526020810190506114ae565b838111156114d8576000848401525b50505050565b6000601f19601f8301169050919050565b6114f881611454565b811461150357600080fd5b50565b61150f81611492565b811461151a57600080fd5b5056fea2646970667358221220cea151d8107a95f79eac037b8283e7a9b19f64472e0e5474f1db73e315ae560064736f6c63430007010033",
  "immutableReferences": {},
  "source": "// SPDX-License-Identifier: MIT\r\npragma solidity >=0.7.0;\r\npragma experimental ABIEncoderV2;\r\n\r\n// Import User from User.sol\r\nimport \"./UserContract.sol\";\r\n// Import GLDToken from GLDToken.sol.sol\r\nimport \"./GLDToken.sol\";\r\nimport \"@openzeppelin/contracts/access/Ownable.sol\";\r\n\r\ncontract RepoContract is Ownable {\r\n    \r\n    GLDToken private token;\r\n    \r\n    constructor(address tokenAddress) {\r\n        token = GLDToken(tokenAddress);\r\n    }\r\n\r\n    struct Repo {\r\n        address owner;\r\n        string repoName;\r\n        string repoHash;\r\n        bool exists;\r\n    }\r\n    // mapping repo slug to Repo\r\n    mapping (string => Repo) repoNames;\r\n    // mapping User address to Repo\r\n    mapping (address => mapping (string => Repo)) userRepos;\r\n    string[] public allRepos;\r\n\r\n    // Check RepoName is unique\r\n    function uniqueRepoSlug(string memory _projectSlug) public view returns(bool isUnique) {\r\n        if(repoNames[_projectSlug].exists != true){\r\n            return true;\r\n        } else{\r\n            return false;\r\n        }\r\n    }\r\n    // Create Repo\r\n    function createRepo(string memory _projectSlug, string memory _projectName, string memory _repoHash) public{\r\n        if(uniqueRepoSlug(_projectSlug)){\r\n            Repo memory newRepo = Repo(msg.sender, _projectName, _repoHash, true);\r\n            userRepos[msg.sender][_projectSlug] = newRepo;\r\n            repoNames[_projectSlug] = newRepo;\r\n            allRepos.push(_projectSlug);\r\n        }\r\n    }\r\n    // Update Repo\r\n    function updateRepo(string memory _projectSlug, string memory _repoHash) public{\r\n        if(msg.sender == repoNames[_projectSlug].owner){\r\n        userRepos[msg.sender][_projectSlug].repoHash =  _repoHash;\r\n        repoNames[_projectSlug].repoHash =  _repoHash;\r\n        }\r\n    }\r\n   // Get Repo Name\r\n    function getRepoName(string memory _projectSlug) public view returns(string memory) {\r\n        return repoNames[_projectSlug].repoName;\r\n    }\r\n   // Get Repo Name\r\n    function getRepoHash(string memory _projectSlug) public onlyOwner view returns(string memory) {\r\n        return repoNames[_projectSlug].repoHash;\r\n    }\r\n    // Get All Repos\r\n    function getAllRepos() public view returns(string[] memory) {\r\n        return allRepos;\r\n    }\r\n    \r\n    // Get Token Contract Owner\r\n    function getOwner() public view returns(address)  {\r\n        return token.owner();\r\n    }\r\n    \r\n}",
  "sourcePath": "C:\\Users\\jamie\\Desktop\\Thesis\\planetGit\\src\\contracts\\RepoContract.sol",
  "compiler": {
    "name": "solc",
    "version": "0.7.1+commit.f4a555be.Emscripten.clang"
  },
  "schemaVersion": "3.2.5",
  "updatedAt": "2020-10-25T14:51:42.833Z",
  "networkType": "ethereum",
  "devdoc": {
    "kind": "dev",
    "methods": {
      "owner()": {
        "details": "Returns the address of the current owner."
      },
      "renounceOwnership()": {
        "details": "Leaves the contract without owner. It will not be possible to call `onlyOwner` functions anymore. Can only be called by the current owner. NOTE: Renouncing ownership will leave the contract without an owner, thereby removing any functionality that is only available to the owner."
      },
      "transferOwnership(address)": {
        "details": "Transfers ownership of the contract to a new account (`newOwner`). Can only be called by the current owner."
      }
    },
    "version": 1
  },
  "userdoc": {
    "kind": "user",
    "methods": {},
    "version": 1
  }
}