{
  "contractName": "RepoContract",
  "abi": [
    {
      "inputs": [
        {
          "internalType": "address",
          "name": "tokenAddress",
          "type": "address"
        }
      ],
      "stateMutability": "nonpayable",
      "type": "constructor"
    },
    {
      "anonymous": false,
      "inputs": [
        {
          "indexed": true,
          "internalType": "address",
          "name": "previousOwner",
          "type": "address"
        },
        {
          "indexed": true,
          "internalType": "address",
          "name": "newOwner",
          "type": "address"
        }
      ],
      "name": "OwnershipTransferred",
      "type": "event"
    },
    {
      "inputs": [
        {
          "internalType": "uint256",
          "name": "",
          "type": "uint256"
        }
      ],
      "name": "allRepos",
      "outputs": [
        {
          "internalType": "string",
          "name": "",
          "type": "string"
        }
      ],
      "stateMutability": "view",
      "type": "function",
      "constant": true
    },
    {
      "inputs": [],
      "name": "owner",
      "outputs": [
        {
          "internalType": "address",
          "name": "",
          "type": "address"
        }
      ],
      "stateMutability": "view",
      "type": "function",
      "constant": true
    },
    {
      "inputs": [],
      "name": "renounceOwnership",
      "outputs": [],
      "stateMutability": "nonpayable",
      "type": "function"
    },
    {
      "inputs": [
        {
          "internalType": "address",
          "name": "newOwner",
          "type": "address"
        }
      ],
      "name": "transferOwnership",
      "outputs": [],
      "stateMutability": "nonpayable",
      "type": "function"
    },
    {
      "inputs": [
        {
          "internalType": "string",
          "name": "_projectSlug",
          "type": "string"
        }
      ],
      "name": "uniqueRepoSlug",
      "outputs": [
        {
          "internalType": "bool",
          "name": "isUnique",
          "type": "bool"
        }
      ],
      "stateMutability": "view",
      "type": "function",
      "constant": true
    },
    {
      "inputs": [
        {
          "internalType": "string",
          "name": "_projectSlug",
          "type": "string"
        },
        {
          "internalType": "string",
          "name": "_projectName",
          "type": "string"
        },
        {
          "internalType": "string",
          "name": "_repoHash",
          "type": "string"
        }
      ],
      "name": "createRepo",
      "outputs": [],
      "stateMutability": "nonpayable",
      "type": "function"
    },
    {
      "inputs": [
        {
          "internalType": "string",
          "name": "_projectSlug",
          "type": "string"
        },
        {
          "internalType": "string",
          "name": "_repoHash",
          "type": "string"
        }
      ],
      "name": "updateRepo",
      "outputs": [],
      "stateMutability": "nonpayable",
      "type": "function"
    },
    {
      "inputs": [
        {
          "internalType": "string",
          "name": "_projectSlug",
          "type": "string"
        }
      ],
      "name": "getRepoName",
      "outputs": [
        {
          "internalType": "string",
          "name": "",
          "type": "string"
        }
      ],
      "stateMutability": "view",
      "type": "function",
      "constant": true
    },
    {
      "inputs": [
        {
          "internalType": "string",
          "name": "_projectSlug",
          "type": "string"
        }
      ],
      "name": "getRepoHash",
      "outputs": [
        {
          "internalType": "string",
          "name": "",
          "type": "string"
        }
      ],
      "stateMutability": "view",
      "type": "function",
      "constant": true
    },
    {
      "inputs": [],
      "name": "getAllRepos",
      "outputs": [
        {
          "internalType": "string[]",
          "name": "",
          "type": "string[]"
        }
      ],
      "stateMutability": "view",
      "type": "function",
      "constant": true
    },
    {
      "inputs": [
        {
          "internalType": "string",
          "name": "_projectSlug",
          "type": "string"
        }
      ],
      "name": "getRepoOwner",
      "outputs": [
        {
          "internalType": "address",
          "name": "",
          "type": "address"
        }
      ],
      "stateMutability": "view",
      "type": "function",
      "constant": true
    }
  ],
  "bytecode": "0x60806040523480156200001157600080fd5b50604051620016a3380380620016a383398181016040528101906200003791906200014e565b6000620000496200012f60201b60201c565b9050806000806101000a81548173ffffffffffffffffffffffffffffffffffffffff021916908373ffffffffffffffffffffffffffffffffffffffff1602179055508073ffffffffffffffffffffffffffffffffffffffff16600073ffffffffffffffffffffffffffffffffffffffff167f8be0079c531659141344cd1fd0a4f28419497f9722a3daafe3b4186f6b6457e060405160405180910390a35080600160006101000a81548173ffffffffffffffffffffffffffffffffffffffff021916908373ffffffffffffffffffffffffffffffffffffffff16021790555050620001c8565b600033905090565b6000815190506200014881620001ae565b92915050565b6000602082840312156200016157600080fd5b6000620001718482850162000137565b91505092915050565b600062000187826200018e565b9050919050565b600073ffffffffffffffffffffffffffffffffffffffff82169050919050565b620001b9816200017a565b8114620001c557600080fd5b50565b6114cb80620001d86000396000f3fe608060405234801561001057600080fd5b50600436106100a95760003560e01c80639e20505a116100715780639e20505a14610152578063b4bc07c21461016e578063e2c782a21461019e578063f2fde38b146101ce578063f4845d87146101ea578063f5cc98c91461021a576100a9565b80630446c519146100ae578063715018a6146100de5780637f3b156f146100e85780638da5cb5b1461011857806390ec291d14610136575b600080fd5b6100c860048036038101906100c39190610ed4565b610238565b6040516100d591906112a0565b60405180910390f35b6100e66102fb565b005b61010260048036038101906100fd9190611018565b61044e565b60405161010f91906112a0565b60405180910390f35b610120610507565b60405161012d9190611248565b60405180910390f35b610150600480360381019061014b9190610f81565b610530565b005b61016c60048036038101906101679190610f15565b610788565b005b61018860048036038101906101839190610ed4565b6108ab565b6040516101959190611285565b60405180910390f35b6101b860048036038101906101b39190610ed4565b6108fa565b6040516101c59190611248565b60405180910390f35b6101e860048036038101906101e39190610eab565b610945565b005b61020460048036038101906101ff9190610ed4565b610b07565b60405161021191906112a0565b60405180910390f35b610222610c5f565b60405161022f9190611263565b60405180910390f35b606060028260405161024a9190611231565b90815260200160405180910390206001018054600181600116156101000203166002900480601f0160208091040260200160405190810160405280929190818152602001828054600181600116156101000203166002900480156102ef5780601f106102c4576101008083540402835291602001916102ef565b820191906000526020600020905b8154815290600101906020018083116102d257829003601f168201915b50505050509050919050565b610303610d48565b73ffffffffffffffffffffffffffffffffffffffff1660008054906101000a900473ffffffffffffffffffffffffffffffffffffffff1673ffffffffffffffffffffffffffffffffffffffff1614610390576040517f08c379a0000000000000000000000000000000000000000000000000000000008152600401610387906112e2565b60405180910390fd5b600073ffffffffffffffffffffffffffffffffffffffff1660008054906101000a900473ffffffffffffffffffffffffffffffffffffffff1673ffffffffffffffffffffffffffffffffffffffff167f8be0079c531659141344cd1fd0a4f28419497f9722a3daafe3b4186f6b6457e060405160405180910390a360008060006101000a81548173ffffffffffffffffffffffffffffffffffffffff021916908373ffffffffffffffffffffffffffffffffffffffff160217905550565b6004818154811061045b57fe5b906000526020600020016000915090508054600181600116156101000203166002900480601f0160208091040260200160405190810160405280929190818152602001828054600181600116156101000203166002900480156104ff5780601f106104d4576101008083540402835291602001916104ff565b820191906000526020600020905b8154815290600101906020018083116104e257829003601f168201915b505050505081565b60008060009054906101000a900473ffffffffffffffffffffffffffffffffffffffff16905090565b610539836108ab565b1561078357610546610d50565b60405180608001604052803373ffffffffffffffffffffffffffffffffffffffff16815260200184815260200183815260200160011515815250905080600360003373ffffffffffffffffffffffffffffffffffffffff1673ffffffffffffffffffffffffffffffffffffffff168152602001908152602001600020856040516105d09190611231565b908152602001604051809103902060008201518160000160006101000a81548173ffffffffffffffffffffffffffffffffffffffff021916908373ffffffffffffffffffffffffffffffffffffffff1602179055506020820151816001019080519060200190610641929190610d90565b50604082015181600201908051906020019061065e929190610d90565b5060608201518160030160006101000a81548160ff021916908315150217905550905050806002856040516106939190611231565b908152602001604051809103902060008201518160000160006101000a81548173ffffffffffffffffffffffffffffffffffffffff021916908373ffffffffffffffffffffffffffffffffffffffff1602179055506020820151816001019080519060200190610704929190610d90565b506040820151816002019080519060200190610721929190610d90565b5060608201518160030160006101000a81548160ff021916908315150217905550905050600484908060018154018082558091505060019003906000526020600020016000909190919091509080519060200190610780929190610d90565b50505b505050565b6002826040516107989190611231565b908152602001604051809103902060000160009054906101000a900473ffffffffffffffffffffffffffffffffffffffff1673ffffffffffffffffffffffffffffffffffffffff163373ffffffffffffffffffffffffffffffffffffffff1614156108a75780600360003373ffffffffffffffffffffffffffffffffffffffff1673ffffffffffffffffffffffffffffffffffffffff1681526020019081526020016000208360405161084b9190611231565b9081526020016040518091039020600201908051906020019061086f929190610d90565b50806002836040516108819190611231565b908152602001604051809103902060020190805190602001906108a5929190610d90565b505b5050565b6000600115156002836040516108c19190611231565b908152602001604051809103902060030160009054906101000a900460ff161515146108f057600190506108f5565b600090505b919050565b600060028260405161090c9190611231565b908152602001604051809103902060000160009054906101000a900473ffffffffffffffffffffffffffffffffffffffff169050919050565b61094d610d48565b73ffffffffffffffffffffffffffffffffffffffff1660008054906101000a900473ffffffffffffffffffffffffffffffffffffffff1673ffffffffffffffffffffffffffffffffffffffff16146109da576040517f08c379a00000000000000000000000000000000000000000000000000000000081526004016109d1906112e2565b60405180910390fd5b600073ffffffffffffffffffffffffffffffffffffffff168173ffffffffffffffffffffffffffffffffffffffff161415610a4a576040517f08c379a0000000000000000000000000000000000000000000000000000000008152600401610a41906112c2565b60405180910390fd5b8073ffffffffffffffffffffffffffffffffffffffff1660008054906101000a900473ffffffffffffffffffffffffffffffffffffffff1673ffffffffffffffffffffffffffffffffffffffff167f8be0079c531659141344cd1fd0a4f28419497f9722a3daafe3b4186f6b6457e060405160405180910390a3806000806101000a81548173ffffffffffffffffffffffffffffffffffffffff021916908373ffffffffffffffffffffffffffffffffffffffff16021790555050565b6060610b11610d48565b73ffffffffffffffffffffffffffffffffffffffff1660008054906101000a900473ffffffffffffffffffffffffffffffffffffffff1673ffffffffffffffffffffffffffffffffffffffff1614610b9e576040517f08c379a0000000000000000000000000000000000000000000000000000000008152600401610b95906112e2565b60405180910390fd5b600282604051610bae9190611231565b90815260200160405180910390206002018054600181600116156101000203166002900480601f016020809104026020016040519081016040528092919081815260200182805460018160011615610100020316600290048015610c535780601f10610c2857610100808354040283529160200191610c53565b820191906000526020600020905b815481529060010190602001808311610c3657829003601f168201915b50505050509050919050565b60606004805480602002602001604051908101604052809291908181526020016000905b82821015610d3f578382906000526020600020018054600181600116156101000203166002900480601f016020809104026020016040519081016040528092919081815260200182805460018160011615610100020316600290048015610d2b5780601f10610d0057610100808354040283529160200191610d2b565b820191906000526020600020905b815481529060010190602001808311610d0e57829003601f168201915b505050505081526020019060010190610c83565b50505050905090565b600033905090565b6040518060800160405280600073ffffffffffffffffffffffffffffffffffffffff16815260200160608152602001606081526020016000151581525090565b828054600181600116156101000203166002900490600052602060002090601f016020900481019282601f10610dd157805160ff1916838001178555610dff565b82800160010185558215610dff579182015b82811115610dfe578251825591602001919060010190610de3565b5b509050610e0c9190610e10565b5090565b5b80821115610e29576000816000905550600101610e11565b5090565b600081359050610e3c81611467565b92915050565b600082601f830112610e5357600080fd5b8135610e66610e618261132f565b611302565b91508082526020830160208301858383011115610e8257600080fd5b610e8d838284611414565b50505092915050565b600081359050610ea58161147e565b92915050565b600060208284031215610ebd57600080fd5b6000610ecb84828501610e2d565b91505092915050565b600060208284031215610ee657600080fd5b600082013567ffffffffffffffff811115610f0057600080fd5b610f0c84828501610e42565b91505092915050565b60008060408385031215610f2857600080fd5b600083013567ffffffffffffffff811115610f4257600080fd5b610f4e85828601610e42565b925050602083013567ffffffffffffffff811115610f6b57600080fd5b610f7785828601610e42565b9150509250929050565b600080600060608486031215610f9657600080fd5b600084013567ffffffffffffffff811115610fb057600080fd5b610fbc86828701610e42565b935050602084013567ffffffffffffffff811115610fd957600080fd5b610fe586828701610e42565b925050604084013567ffffffffffffffff81111561100257600080fd5b61100e86828701610e42565b9150509250925092565b60006020828403121561102a57600080fd5b600061103884828501610e96565b91505092915050565b600061104d83836110e8565b905092915050565b61105e816113cc565b82525050565b600061106f8261136b565b611079818561138e565b93508360208202850161108b8561135b565b8060005b858110156110c757848403895281516110a88582611041565b94506110b383611381565b925060208a0199505060018101905061108f565b50829750879550505050505092915050565b6110e2816113de565b82525050565b60006110f382611376565b6110fd818561139f565b935061110d818560208601611423565b61111681611456565b840191505092915050565b600061112c82611376565b61113681856113b0565b9350611146818560208601611423565b61114f81611456565b840191505092915050565b600061116582611376565b61116f81856113c1565b935061117f818560208601611423565b80840191505092915050565b60006111986026836113b0565b91507f4f776e61626c653a206e6577206f776e657220697320746865207a65726f206160008301527f64647265737300000000000000000000000000000000000000000000000000006020830152604082019050919050565b60006111fe6020836113b0565b91507f4f776e61626c653a2063616c6c6572206973206e6f7420746865206f776e65726000830152602082019050919050565b600061123d828461115a565b915081905092915050565b600060208201905061125d6000830184611055565b92915050565b6000602082019050818103600083015261127d8184611064565b905092915050565b600060208201905061129a60008301846110d9565b92915050565b600060208201905081810360008301526112ba8184611121565b905092915050565b600060208201905081810360008301526112db8161118b565b9050919050565b600060208201905081810360008301526112fb816111f1565b9050919050565b6000604051905081810181811067ffffffffffffffff8211171561132557600080fd5b8060405250919050565b600067ffffffffffffffff82111561134657600080fd5b601f19601f8301169050602081019050919050565b6000819050602082019050919050565b600081519050919050565b600081519050919050565b6000602082019050919050565b600082825260208201905092915050565b600082825260208201905092915050565b600082825260208201905092915050565b600081905092915050565b60006113d7826113ea565b9050919050565b60008115159050919050565b600073ffffffffffffffffffffffffffffffffffffffff82169050919050565b6000819050919050565b82818337600083830152505050565b60005b83811015611441578082015181840152602081019050611426565b83811115611450576000848401525b50505050565b6000601f19601f8301169050919050565b611470816113cc565b811461147b57600080fd5b50565b6114878161140a565b811461149257600080fd5b5056fea26469706673582212207b2f7419e392e52061c01135bdb06efa00e00652b3641146d56d1d3b63f096b764736f6c63430007010033",
  "immutableReferences": {},
  "source": "// SPDX-License-Identifier: MIT\r\npragma solidity >=0.7.0;\r\npragma experimental ABIEncoderV2;\r\n\r\n// Import User from User.sol\r\nimport \"./UserContract.sol\";\r\n// Import GLDToken from GLDToken.sol.sol\r\nimport \"./GLDToken.sol\";\r\nimport \"@openzeppelin/contracts/access/Ownable.sol\";\r\n\r\ncontract RepoContract is Ownable {\r\n    \r\n    GLDToken private token;\r\n    \r\n    constructor(address tokenAddress) {\r\n        token = GLDToken(tokenAddress);\r\n    }\r\n\r\n    struct Repo {\r\n        address owner;\r\n        string repoName;\r\n        string repoHash;\r\n        bool exists;\r\n    }\r\n    // mapping repo slug to Repo\r\n    mapping (string => Repo) repoNames;\r\n    // mapping User address to Repo\r\n    mapping (address => mapping (string => Repo)) userRepos;\r\n    string[] public allRepos;\r\n\r\n    // Check RepoName is unique\r\n    function uniqueRepoSlug(string memory _projectSlug) public view returns(bool isUnique) {\r\n        if(repoNames[_projectSlug].exists != true){\r\n            return true;\r\n        } else{\r\n            return false;\r\n        }\r\n    }\r\n    // Create Repo\r\n    function createRepo(string memory _projectSlug, string memory _projectName, string memory _repoHash) public{\r\n        if(uniqueRepoSlug(_projectSlug)){\r\n            Repo memory newRepo = Repo(msg.sender, _projectName, _repoHash, true);\r\n            userRepos[msg.sender][_projectSlug] = newRepo;\r\n            repoNames[_projectSlug] = newRepo;\r\n            allRepos.push(_projectSlug);\r\n        }\r\n    }\r\n    // Update Repo\r\n    function updateRepo(string memory _projectSlug, string memory _repoHash) public{\r\n        if(msg.sender == repoNames[_projectSlug].owner){\r\n        userRepos[msg.sender][_projectSlug].repoHash =  _repoHash;\r\n        repoNames[_projectSlug].repoHash =  _repoHash;\r\n        }\r\n    }\r\n   // Get Repo Name\r\n    function getRepoName(string memory _projectSlug) public view returns(string memory) {\r\n        return repoNames[_projectSlug].repoName;\r\n    }\r\n   // Get Repo Name\r\n    function getRepoHash(string memory _projectSlug) public onlyOwner view returns(string memory) {\r\n        return repoNames[_projectSlug].repoHash;\r\n    }\r\n    // Get All Repos\r\n    function getAllRepos() public view returns(string[] memory) {\r\n        return allRepos;\r\n    }\r\n    // Get Repo Owner\r\n    function getRepoOwner(string memory _projectSlug) public view returns(address) {\r\n        return repoNames[_projectSlug].owner;\r\n    }\r\n    \r\n}",
  "sourcePath": "C:\\Users\\jamie\\Desktop\\Thesis\\planetGit\\src\\contracts\\RepoContract.sol",
  "compiler": {
    "name": "solc",
    "version": "0.7.1+commit.f4a555be.Emscripten.clang"
  },
  "schemaVersion": "3.2.5",
  "updatedAt": "2020-10-25T18:43:41.734Z",
  "networkType": "ethereum",
  "devdoc": {
    "kind": "dev",
    "methods": {
      "owner()": {
        "details": "Returns the address of the current owner."
      },
      "renounceOwnership()": {
        "details": "Leaves the contract without owner. It will not be possible to call `onlyOwner` functions anymore. Can only be called by the current owner. NOTE: Renouncing ownership will leave the contract without an owner, thereby removing any functionality that is only available to the owner."
      },
      "transferOwnership(address)": {
        "details": "Transfers ownership of the contract to a new account (`newOwner`). Can only be called by the current owner."
      }
    },
    "version": 1
  },
  "userdoc": {
    "kind": "user",
    "methods": {},
    "version": 1
  }
}