{
  "contractName": "RepoContract",
  "abi": [
    {
      "inputs": [
        {
          "internalType": "address",
          "name": "tokenAddress",
          "type": "address"
        }
      ],
      "stateMutability": "nonpayable",
      "type": "constructor"
    },
    {
      "inputs": [
        {
          "internalType": "uint256",
          "name": "",
          "type": "uint256"
        }
      ],
      "name": "allRepos",
      "outputs": [
        {
          "internalType": "string",
          "name": "",
          "type": "string"
        }
      ],
      "stateMutability": "view",
      "type": "function",
      "constant": true
    },
    {
      "inputs": [
        {
          "internalType": "string",
          "name": "_projectSlug",
          "type": "string"
        }
      ],
      "name": "uniqueRepoSlug",
      "outputs": [
        {
          "internalType": "bool",
          "name": "isUnique",
          "type": "bool"
        }
      ],
      "stateMutability": "view",
      "type": "function",
      "constant": true
    },
    {
      "inputs": [
        {
          "internalType": "string",
          "name": "_projectSlug",
          "type": "string"
        },
        {
          "internalType": "string",
          "name": "_projectName",
          "type": "string"
        },
        {
          "internalType": "string",
          "name": "_repoHash",
          "type": "string"
        }
      ],
      "name": "createRepo",
      "outputs": [],
      "stateMutability": "nonpayable",
      "type": "function"
    },
    {
      "inputs": [
        {
          "internalType": "string",
          "name": "_projectSlug",
          "type": "string"
        },
        {
          "internalType": "string",
          "name": "_repoHash",
          "type": "string"
        }
      ],
      "name": "updateRepo",
      "outputs": [],
      "stateMutability": "nonpayable",
      "type": "function"
    },
    {
      "inputs": [
        {
          "internalType": "string",
          "name": "_projectSlug",
          "type": "string"
        }
      ],
      "name": "getRepoName",
      "outputs": [
        {
          "internalType": "string",
          "name": "",
          "type": "string"
        }
      ],
      "stateMutability": "view",
      "type": "function",
      "constant": true
    },
    {
      "inputs": [
        {
          "internalType": "string",
          "name": "_projectSlug",
          "type": "string"
        }
      ],
      "name": "getRepoHash",
      "outputs": [
        {
          "internalType": "string",
          "name": "",
          "type": "string"
        }
      ],
      "stateMutability": "nonpayable",
      "type": "function"
    },
    {
      "inputs": [],
      "name": "mintReward",
      "outputs": [],
      "stateMutability": "nonpayable",
      "type": "function"
    },
    {
      "inputs": [],
      "name": "getAllRepos",
      "outputs": [
        {
          "internalType": "string[]",
          "name": "",
          "type": "string[]"
        }
      ],
      "stateMutability": "view",
      "type": "function",
      "constant": true
    },
    {
      "inputs": [],
      "name": "getOwner",
      "outputs": [
        {
          "internalType": "address",
          "name": "",
          "type": "address"
        }
      ],
      "stateMutability": "view",
      "type": "function",
      "constant": true
    }
  ],
  "bytecode": "0x608060405234801561001057600080fd5b5060405162001196380380620011968339818101604052810190610034919061008f565b806000806101000a81548173ffffffffffffffffffffffffffffffffffffffff021916908373ffffffffffffffffffffffffffffffffffffffff16021790555050610101565b600081519050610089816100ea565b92915050565b6000602082840312156100a157600080fd5b60006100af8482850161007a565b91505092915050565b60006100c3826100ca565b9050919050565b600073ffffffffffffffffffffffffffffffffffffffff82169050919050565b6100f3816100b8565b81146100fe57600080fd5b50565b61108580620001116000396000f3fe608060405234801561001057600080fd5b50600436106100935760003560e01c806390ec291d1161006657806390ec291d146101205780639e20505a1461013c578063b4bc07c214610158578063f4845d8714610188578063f5cc98c9146101b857610093565b80630446c51914610098578063174f57af146100c85780637f3b156f146100d2578063893d20e814610102575b600080fd5b6100b260048036038101906100ad9190610b74565b6101d6565b6040516100bf9190610e9a565b60405180910390f35b6100d0610299565b005b6100ec60048036038101906100e79190610cb8565b61031b565b6040516100f99190610e9a565b60405180910390f35b61010a6103d4565b6040516101179190610e42565b60405180910390f35b61013a60048036038101906101359190610c21565b61047a565b005b61015660048036038101906101519190610bb5565b6106d2565b005b610172600480360381019061016d9190610b74565b6107f5565b60405161017f9190610e7f565b60405180910390f35b6101a2600480360381019061019d9190610b74565b610844565b6040516101af9190610e9a565b60405180910390f35b6101c0610907565b6040516101cd9190610e5d565b60405180910390f35b60606001826040516101e89190610e2b565b90815260200160405180910390206001018054600181600116156101000203166002900480601f01602080910402602001604051908101604052809291908181526020018280546001816001161561010002031660029004801561028d5780601f106102625761010080835404028352916020019161028d565b820191906000526020600020905b81548152906001019060200180831161027057829003601f168201915b50505050509050919050565b60008054906101000a900473ffffffffffffffffffffffffffffffffffffffff1673ffffffffffffffffffffffffffffffffffffffff1663d63c88a66040518163ffffffff1660e01b8152600401600060405180830381600087803b15801561030157600080fd5b505af1158015610315573d6000803e3d6000fd5b50505050565b6003818154811061032857fe5b906000526020600020016000915090508054600181600116156101000203166002900480601f0160208091040260200160405190810160405280929190818152602001828054600181600116156101000203166002900480156103cc5780601f106103a1576101008083540402835291602001916103cc565b820191906000526020600020905b8154815290600101906020018083116103af57829003601f168201915b505050505081565b60008060009054906101000a900473ffffffffffffffffffffffffffffffffffffffff1673ffffffffffffffffffffffffffffffffffffffff16638da5cb5b6040518163ffffffff1660e01b815260040160206040518083038186803b15801561043d57600080fd5b505afa158015610451573d6000803e3d6000fd5b505050506040513d601f19601f820116820180604052508101906104759190610b4b565b905090565b610483836107f5565b156106cd576104906109f0565b60405180608001604052803373ffffffffffffffffffffffffffffffffffffffff16815260200184815260200183815260200160011515815250905080600260003373ffffffffffffffffffffffffffffffffffffffff1673ffffffffffffffffffffffffffffffffffffffff1681526020019081526020016000208560405161051a9190610e2b565b908152602001604051809103902060008201518160000160006101000a81548173ffffffffffffffffffffffffffffffffffffffff021916908373ffffffffffffffffffffffffffffffffffffffff160217905550602082015181600101908051906020019061058b929190610a30565b5060408201518160020190805190602001906105a8929190610a30565b5060608201518160030160006101000a81548160ff021916908315150217905550905050806001856040516105dd9190610e2b565b908152602001604051809103902060008201518160000160006101000a81548173ffffffffffffffffffffffffffffffffffffffff021916908373ffffffffffffffffffffffffffffffffffffffff160217905550602082015181600101908051906020019061064e929190610a30565b50604082015181600201908051906020019061066b929190610a30565b5060608201518160030160006101000a81548160ff0219169083151502179055509050506003849080600181540180825580915050600190039060005260206000200160009091909190915090805190602001906106ca929190610a30565b50505b505050565b6001826040516106e29190610e2b565b908152602001604051809103902060000160009054906101000a900473ffffffffffffffffffffffffffffffffffffffff1673ffffffffffffffffffffffffffffffffffffffff163373ffffffffffffffffffffffffffffffffffffffff1614156107f15780600260003373ffffffffffffffffffffffffffffffffffffffff1673ffffffffffffffffffffffffffffffffffffffff168152602001908152602001600020836040516107959190610e2b565b908152602001604051809103902060020190805190602001906107b9929190610a30565b50806001836040516107cb9190610e2b565b908152602001604051809103902060020190805190602001906107ef929190610a30565b505b5050565b60006001151560018360405161080b9190610e2b565b908152602001604051809103902060030160009054906101000a900460ff1615151461083a576001905061083f565b600090505b919050565b60606001826040516108569190610e2b565b90815260200160405180910390206002018054600181600116156101000203166002900480601f0160208091040260200160405190810160405280929190818152602001828054600181600116156101000203166002900480156108fb5780601f106108d0576101008083540402835291602001916108fb565b820191906000526020600020905b8154815290600101906020018083116108de57829003601f168201915b50505050509050919050565b60606003805480602002602001604051908101604052809291908181526020016000905b828210156109e7578382906000526020600020018054600181600116156101000203166002900480601f0160208091040260200160405190810160405280929190818152602001828054600181600116156101000203166002900480156109d35780601f106109a8576101008083540402835291602001916109d3565b820191906000526020600020905b8154815290600101906020018083116109b657829003601f168201915b50505050508152602001906001019061092b565b50505050905090565b6040518060800160405280600073ffffffffffffffffffffffffffffffffffffffff16815260200160608152602001606081526020016000151581525090565b828054600181600116156101000203166002900490600052602060002090601f016020900481019282601f10610a7157805160ff1916838001178555610a9f565b82800160010185558215610a9f579182015b82811115610a9e578251825591602001919060010190610a83565b5b509050610aac9190610ab0565b5090565b5b80821115610ac9576000816000905550600101610ab1565b5090565b600081519050610adc81611021565b92915050565b600082601f830112610af357600080fd5b8135610b06610b0182610ee9565b610ebc565b91508082526020830160208301858383011115610b2257600080fd5b610b2d838284610fce565b50505092915050565b600081359050610b4581611038565b92915050565b600060208284031215610b5d57600080fd5b6000610b6b84828501610acd565b91505092915050565b600060208284031215610b8657600080fd5b600082013567ffffffffffffffff811115610ba057600080fd5b610bac84828501610ae2565b91505092915050565b60008060408385031215610bc857600080fd5b600083013567ffffffffffffffff811115610be257600080fd5b610bee85828601610ae2565b925050602083013567ffffffffffffffff811115610c0b57600080fd5b610c1785828601610ae2565b9150509250929050565b600080600060608486031215610c3657600080fd5b600084013567ffffffffffffffff811115610c5057600080fd5b610c5c86828701610ae2565b935050602084013567ffffffffffffffff811115610c7957600080fd5b610c8586828701610ae2565b925050604084013567ffffffffffffffff811115610ca257600080fd5b610cae86828701610ae2565b9150509250925092565b600060208284031215610cca57600080fd5b6000610cd884828501610b36565b91505092915050565b6000610ced8383610d88565b905092915050565b610cfe81610f86565b82525050565b6000610d0f82610f25565b610d198185610f48565b935083602082028501610d2b85610f15565b8060005b85811015610d675784840389528151610d488582610ce1565b9450610d5383610f3b565b925060208a01995050600181019050610d2f565b50829750879550505050505092915050565b610d8281610f98565b82525050565b6000610d9382610f30565b610d9d8185610f59565b9350610dad818560208601610fdd565b610db681611010565b840191505092915050565b6000610dcc82610f30565b610dd68185610f6a565b9350610de6818560208601610fdd565b610def81611010565b840191505092915050565b6000610e0582610f30565b610e0f8185610f7b565b9350610e1f818560208601610fdd565b80840191505092915050565b6000610e378284610dfa565b915081905092915050565b6000602082019050610e576000830184610cf5565b92915050565b60006020820190508181036000830152610e778184610d04565b905092915050565b6000602082019050610e946000830184610d79565b92915050565b60006020820190508181036000830152610eb48184610dc1565b905092915050565b6000604051905081810181811067ffffffffffffffff82111715610edf57600080fd5b8060405250919050565b600067ffffffffffffffff821115610f0057600080fd5b601f19601f8301169050602081019050919050565b6000819050602082019050919050565b600081519050919050565b600081519050919050565b6000602082019050919050565b600082825260208201905092915050565b600082825260208201905092915050565b600082825260208201905092915050565b600081905092915050565b6000610f9182610fa4565b9050919050565b60008115159050919050565b600073ffffffffffffffffffffffffffffffffffffffff82169050919050565b6000819050919050565b82818337600083830152505050565b60005b83811015610ffb578082015181840152602081019050610fe0565b8381111561100a576000848401525b50505050565b6000601f19601f8301169050919050565b61102a81610f86565b811461103557600080fd5b50565b61104181610fc4565b811461104c57600080fd5b5056fea2646970667358221220ef47af2c1b126b8e84c2c7568904fea24506668a4cad0ab140d85e34f7fb5d0264736f6c63430007010033",
  "immutableReferences": {},
  "source": "// SPDX-License-Identifier: MIT\r\npragma solidity >=0.7.0;\r\npragma experimental ABIEncoderV2;\r\n\r\n// Import User from User.sol\r\nimport \"./UserContract.sol\";\r\n// Import GLDToken from GLDToken.sol.sol\r\nimport \"./GLDToken.sol\";\r\n\r\ncontract RepoContract {\r\n    \r\n    GLDToken private token;\r\n    \r\n    constructor(address tokenAddress) {\r\n        token = GLDToken(tokenAddress);\r\n    }\r\n\r\n    struct Repo {\r\n        address owner;\r\n        string repoName;\r\n        string repoHash;\r\n        bool exists;\r\n    }\r\n    // mapping repo slug to Repo\r\n    mapping (string => Repo) repoNames;\r\n    // mapping User address to Repo\r\n    mapping (address => mapping (string => Repo)) userRepos;\r\n    string[] public allRepos;\r\n\r\n    // Check RepoName is unique\r\n    function uniqueRepoSlug(string memory _projectSlug) public view returns(bool isUnique) {\r\n        if(repoNames[_projectSlug].exists != true){\r\n            return true;\r\n        } else{\r\n            return false;\r\n        }\r\n    }\r\n    // Create Repo\r\n    function createRepo(string memory _projectSlug, string memory _projectName, string memory _repoHash) public{\r\n        if(uniqueRepoSlug(_projectSlug)){\r\n            Repo memory newRepo = Repo(msg.sender, _projectName, _repoHash, true);\r\n            userRepos[msg.sender][_projectSlug] = newRepo;\r\n            repoNames[_projectSlug] = newRepo;\r\n            allRepos.push(_projectSlug);\r\n        }\r\n    }\r\n    // Update Repo\r\n    function updateRepo(string memory _projectSlug, string memory _repoHash) public{\r\n        if(msg.sender == repoNames[_projectSlug].owner){\r\n        userRepos[msg.sender][_projectSlug].repoHash =  _repoHash;\r\n        repoNames[_projectSlug].repoHash =  _repoHash;\r\n        }\r\n    }\r\n   // Get Repo Name\r\n    function getRepoName(string memory _projectSlug) public view returns(string memory) {\r\n        return repoNames[_projectSlug].repoName;\r\n    }\r\n   // Get Repo Name\r\n    function getRepoHash(string memory _projectSlug) public returns(string memory) {\r\n        return repoNames[_projectSlug].repoHash;\r\n    }\r\n    // Get Repo Name\r\n    function mintReward() public {\r\n        token.mintMinerReward();\r\n    }\r\n    // Get All Repos\r\n    function getAllRepos() public view returns(string[] memory) {\r\n        return allRepos;\r\n    }\r\n    \r\n    // Get Token Contract Owner\r\n    function getOwner() public view returns(address)  {\r\n        return token.owner();\r\n    }\r\n    \r\n}",
  "sourcePath": "C:\\Users\\jamie\\Desktop\\Thesis\\planetGit\\src\\contracts\\RepoContract.sol",
  "compiler": {
    "name": "solc",
    "version": "0.7.1+commit.f4a555be.Emscripten.clang"
  },
  "schemaVersion": "3.2.5",
  "updatedAt": "2020-10-25T14:40:13.895Z",
  "networkType": "ethereum",
  "devdoc": {
    "kind": "dev",
    "methods": {},
    "version": 1
  },
  "userdoc": {
    "kind": "user",
    "methods": {},
    "version": 1
  }
}