{
  "contractName": "Repository",
  "abi": [
    {
      "inputs": [
        {
          "internalType": "address",
          "name": "tokenAddress",
          "type": "address"
        }
      ],
      "stateMutability": "nonpayable",
      "type": "constructor"
    },
    {
      "anonymous": false,
      "inputs": [
        {
          "indexed": true,
          "internalType": "address",
          "name": "previousOwner",
          "type": "address"
        },
        {
          "indexed": true,
          "internalType": "address",
          "name": "newOwner",
          "type": "address"
        }
      ],
      "name": "OwnershipTransferred",
      "type": "event"
    },
    {
      "inputs": [
        {
          "internalType": "uint256",
          "name": "",
          "type": "uint256"
        }
      ],
      "name": "allRepos",
      "outputs": [
        {
          "internalType": "string",
          "name": "",
          "type": "string"
        }
      ],
      "stateMutability": "view",
      "type": "function",
      "constant": true
    },
    {
      "inputs": [],
      "name": "owner",
      "outputs": [
        {
          "internalType": "address",
          "name": "",
          "type": "address"
        }
      ],
      "stateMutability": "view",
      "type": "function",
      "constant": true
    },
    {
      "inputs": [],
      "name": "renounceOwnership",
      "outputs": [],
      "stateMutability": "nonpayable",
      "type": "function"
    },
    {
      "inputs": [
        {
          "internalType": "address",
          "name": "newOwner",
          "type": "address"
        }
      ],
      "name": "transferOwnership",
      "outputs": [],
      "stateMutability": "nonpayable",
      "type": "function"
    },
    {
      "inputs": [
        {
          "internalType": "string",
          "name": "_projectSlug",
          "type": "string"
        }
      ],
      "name": "uniqueRepoSlug",
      "outputs": [
        {
          "internalType": "bool",
          "name": "isUnique",
          "type": "bool"
        }
      ],
      "stateMutability": "view",
      "type": "function",
      "constant": true
    },
    {
      "inputs": [
        {
          "internalType": "string",
          "name": "_projectSlug",
          "type": "string"
        },
        {
          "internalType": "string",
          "name": "_projectName",
          "type": "string"
        },
        {
          "internalType": "string",
          "name": "_repoHash",
          "type": "string"
        }
      ],
      "name": "createRepo",
      "outputs": [],
      "stateMutability": "nonpayable",
      "type": "function"
    },
    {
      "inputs": [
        {
          "internalType": "string",
          "name": "_projectSlug",
          "type": "string"
        },
        {
          "internalType": "string",
          "name": "_repoHash",
          "type": "string"
        }
      ],
      "name": "updateRepo",
      "outputs": [],
      "stateMutability": "nonpayable",
      "type": "function"
    },
    {
      "inputs": [
        {
          "internalType": "string",
          "name": "_projectSlug",
          "type": "string"
        }
      ],
      "name": "getRepo",
      "outputs": [
        {
          "components": [
            {
              "internalType": "address",
              "name": "owner",
              "type": "address"
            },
            {
              "internalType": "string",
              "name": "repoName",
              "type": "string"
            },
            {
              "internalType": "string",
              "name": "repoHash",
              "type": "string"
            },
            {
              "internalType": "bool",
              "name": "exists",
              "type": "bool"
            }
          ],
          "internalType": "struct Repository.Repo",
          "name": "",
          "type": "tuple"
        }
      ],
      "stateMutability": "view",
      "type": "function",
      "constant": true
    },
    {
      "inputs": [
        {
          "internalType": "string",
          "name": "_projectSlug",
          "type": "string"
        }
      ],
      "name": "getRepoName",
      "outputs": [
        {
          "internalType": "string",
          "name": "",
          "type": "string"
        }
      ],
      "stateMutability": "view",
      "type": "function",
      "constant": true
    },
    {
      "inputs": [
        {
          "internalType": "string",
          "name": "_projectSlug",
          "type": "string"
        }
      ],
      "name": "getRepoHash",
      "outputs": [
        {
          "internalType": "string",
          "name": "",
          "type": "string"
        }
      ],
      "stateMutability": "view",
      "type": "function",
      "constant": true
    },
    {
      "inputs": [],
      "name": "getAllRepos",
      "outputs": [
        {
          "internalType": "string[]",
          "name": "",
          "type": "string[]"
        }
      ],
      "stateMutability": "view",
      "type": "function",
      "constant": true
    },
    {
      "inputs": [
        {
          "internalType": "string",
          "name": "_projectSlug",
          "type": "string"
        }
      ],
      "name": "getRepoOwner",
      "outputs": [
        {
          "internalType": "address",
          "name": "",
          "type": "address"
        }
      ],
      "stateMutability": "view",
      "type": "function",
      "constant": true
    }
  ],
  "bytecode": "0x60806040523480156200001157600080fd5b50604051620019753803806200197583398181016040528101906200003791906200014e565b6000620000496200012f60201b60201c565b9050806000806101000a81548173ffffffffffffffffffffffffffffffffffffffff021916908373ffffffffffffffffffffffffffffffffffffffff1602179055508073ffffffffffffffffffffffffffffffffffffffff16600073ffffffffffffffffffffffffffffffffffffffff167f8be0079c531659141344cd1fd0a4f28419497f9722a3daafe3b4186f6b6457e060405160405180910390a35080600160006101000a81548173ffffffffffffffffffffffffffffffffffffffff021916908373ffffffffffffffffffffffffffffffffffffffff16021790555050620001c8565b600033905090565b6000815190506200014881620001ae565b92915050565b6000602082840312156200016157600080fd5b6000620001718482850162000137565b91505092915050565b600062000187826200018e565b9050919050565b600073ffffffffffffffffffffffffffffffffffffffff82169050919050565b620001b9816200017a565b8114620001c557600080fd5b50565b61179d80620001d86000396000f3fe608060405234801561001057600080fd5b50600436106100b45760003560e01c80639e20505a116100715780639e20505a1461018d578063b4bc07c2146101a9578063e2c782a2146101d9578063f2fde38b14610209578063f4845d8714610225578063f5cc98c914610255576100b4565b80630446c519146100b9578063715018a6146100e95780637f3b156f146100f357806382149bcb146101235780638da5cb5b1461015357806390ec291d14610171575b600080fd5b6100d360048036038101906100ce91906110fc565b610273565b6040516100e09190611550565b60405180910390f35b6100f1610336565b005b61010d60048036038101906101089190611240565b610489565b60405161011a9190611550565b60405180910390f35b61013d600480360381019061013891906110fc565b610542565b60405161014a91906115b2565b60405180910390f35b61015b61072f565b60405161016891906114f8565b60405180910390f35b61018b600480360381019061018691906111a9565b610758565b005b6101a760048036038101906101a2919061113d565b6109b0565b005b6101c360048036038101906101be91906110fc565b610ad3565b6040516101d09190611535565b60405180910390f35b6101f360048036038101906101ee91906110fc565b610b22565b60405161020091906114f8565b60405180910390f35b610223600480360381019061021e91906110d3565b610b6d565b005b61023f600480360381019061023a91906110fc565b610d2f565b60405161024c9190611550565b60405180910390f35b61025d610e87565b60405161026a9190611513565b60405180910390f35b606060028260405161028591906114e1565b90815260200160405180910390206001018054600181600116156101000203166002900480601f01602080910402602001604051908101604052809291908181526020018280546001816001161561010002031660029004801561032a5780601f106102ff5761010080835404028352916020019161032a565b820191906000526020600020905b81548152906001019060200180831161030d57829003601f168201915b50505050509050919050565b61033e610f70565b73ffffffffffffffffffffffffffffffffffffffff1660008054906101000a900473ffffffffffffffffffffffffffffffffffffffff1673ffffffffffffffffffffffffffffffffffffffff16146103cb576040517f08c379a00000000000000000000000000000000000000000000000000000000081526004016103c290611592565b60405180910390fd5b600073ffffffffffffffffffffffffffffffffffffffff1660008054906101000a900473ffffffffffffffffffffffffffffffffffffffff1673ffffffffffffffffffffffffffffffffffffffff167f8be0079c531659141344cd1fd0a4f28419497f9722a3daafe3b4186f6b6457e060405160405180910390a360008060006101000a81548173ffffffffffffffffffffffffffffffffffffffff021916908373ffffffffffffffffffffffffffffffffffffffff160217905550565b6004818154811061049657fe5b906000526020600020016000915090508054600181600116156101000203166002900480601f01602080910402602001604051908101604052809291908181526020018280546001816001161561010002031660029004801561053a5780601f1061050f5761010080835404028352916020019161053a565b820191906000526020600020905b81548152906001019060200180831161051d57829003601f168201915b505050505081565b61054a610f78565b60028260405161055a91906114e1565b90815260200160405180910390206040518060800160405290816000820160009054906101000a900473ffffffffffffffffffffffffffffffffffffffff1673ffffffffffffffffffffffffffffffffffffffff1673ffffffffffffffffffffffffffffffffffffffff168152602001600182018054600181600116156101000203166002900480601f0160208091040260200160405190810160405280929190818152602001828054600181600116156101000203166002900480156106625780601f1061063757610100808354040283529160200191610662565b820191906000526020600020905b81548152906001019060200180831161064557829003601f168201915b50505050508152602001600282018054600181600116156101000203166002900480601f0160208091040260200160405190810160405280929190818152602001828054600181600116156101000203166002900480156107045780601f106106d957610100808354040283529160200191610704565b820191906000526020600020905b8154815290600101906020018083116106e757829003601f168201915b505050505081526020016003820160009054906101000a900460ff1615151515815250509050919050565b60008060009054906101000a900473ffffffffffffffffffffffffffffffffffffffff16905090565b61076183610ad3565b156109ab5761076e610f78565b60405180608001604052803373ffffffffffffffffffffffffffffffffffffffff16815260200184815260200183815260200160011515815250905080600360003373ffffffffffffffffffffffffffffffffffffffff1673ffffffffffffffffffffffffffffffffffffffff168152602001908152602001600020856040516107f891906114e1565b908152602001604051809103902060008201518160000160006101000a81548173ffffffffffffffffffffffffffffffffffffffff021916908373ffffffffffffffffffffffffffffffffffffffff1602179055506020820151816001019080519060200190610869929190610fb8565b506040820151816002019080519060200190610886929190610fb8565b5060608201518160030160006101000a81548160ff021916908315150217905550905050806002856040516108bb91906114e1565b908152602001604051809103902060008201518160000160006101000a81548173ffffffffffffffffffffffffffffffffffffffff021916908373ffffffffffffffffffffffffffffffffffffffff160217905550602082015181600101908051906020019061092c929190610fb8565b506040820151816002019080519060200190610949929190610fb8565b5060608201518160030160006101000a81548160ff0219169083151502179055509050506004849080600181540180825580915050600190039060005260206000200160009091909190915090805190602001906109a8929190610fb8565b50505b505050565b6002826040516109c091906114e1565b908152602001604051809103902060000160009054906101000a900473ffffffffffffffffffffffffffffffffffffffff1673ffffffffffffffffffffffffffffffffffffffff163373ffffffffffffffffffffffffffffffffffffffff161415610acf5780600360003373ffffffffffffffffffffffffffffffffffffffff1673ffffffffffffffffffffffffffffffffffffffff16815260200190815260200160002083604051610a7391906114e1565b90815260200160405180910390206002019080519060200190610a97929190610fb8565b5080600283604051610aa991906114e1565b90815260200160405180910390206002019080519060200190610acd929190610fb8565b505b5050565b600060011515600283604051610ae991906114e1565b908152602001604051809103902060030160009054906101000a900460ff16151514610b185760019050610b1d565b600090505b919050565b6000600282604051610b3491906114e1565b908152602001604051809103902060000160009054906101000a900473ffffffffffffffffffffffffffffffffffffffff169050919050565b610b75610f70565b73ffffffffffffffffffffffffffffffffffffffff1660008054906101000a900473ffffffffffffffffffffffffffffffffffffffff1673ffffffffffffffffffffffffffffffffffffffff1614610c02576040517f08c379a0000000000000000000000000000000000000000000000000000000008152600401610bf990611592565b60405180910390fd5b600073ffffffffffffffffffffffffffffffffffffffff168173ffffffffffffffffffffffffffffffffffffffff161415610c72576040517f08c379a0000000000000000000000000000000000000000000000000000000008152600401610c6990611572565b60405180910390fd5b8073ffffffffffffffffffffffffffffffffffffffff1660008054906101000a900473ffffffffffffffffffffffffffffffffffffffff1673ffffffffffffffffffffffffffffffffffffffff167f8be0079c531659141344cd1fd0a4f28419497f9722a3daafe3b4186f6b6457e060405160405180910390a3806000806101000a81548173ffffffffffffffffffffffffffffffffffffffff021916908373ffffffffffffffffffffffffffffffffffffffff16021790555050565b6060610d39610f70565b73ffffffffffffffffffffffffffffffffffffffff1660008054906101000a900473ffffffffffffffffffffffffffffffffffffffff1673ffffffffffffffffffffffffffffffffffffffff1614610dc6576040517f08c379a0000000000000000000000000000000000000000000000000000000008152600401610dbd90611592565b60405180910390fd5b600282604051610dd691906114e1565b90815260200160405180910390206002018054600181600116156101000203166002900480601f016020809104026020016040519081016040528092919081815260200182805460018160011615610100020316600290048015610e7b5780601f10610e5057610100808354040283529160200191610e7b565b820191906000526020600020905b815481529060010190602001808311610e5e57829003601f168201915b50505050509050919050565b60606004805480602002602001604051908101604052809291908181526020016000905b82821015610f67578382906000526020600020018054600181600116156101000203166002900480601f016020809104026020016040519081016040528092919081815260200182805460018160011615610100020316600290048015610f535780601f10610f2857610100808354040283529160200191610f53565b820191906000526020600020905b815481529060010190602001808311610f3657829003601f168201915b505050505081526020019060010190610eab565b50505050905090565b600033905090565b6040518060800160405280600073ffffffffffffffffffffffffffffffffffffffff16815260200160608152602001606081526020016000151581525090565b828054600181600116156101000203166002900490600052602060002090601f016020900481019282601f10610ff957805160ff1916838001178555611027565b82800160010185558215611027579182015b8281111561102657825182559160200191906001019061100b565b5b5090506110349190611038565b5090565b5b80821115611051576000816000905550600101611039565b5090565b60008135905061106481611739565b92915050565b600082601f83011261107b57600080fd5b813561108e61108982611601565b6115d4565b915080825260208301602083018583830111156110aa57600080fd5b6110b58382846116e6565b50505092915050565b6000813590506110cd81611750565b92915050565b6000602082840312156110e557600080fd5b60006110f384828501611055565b91505092915050565b60006020828403121561110e57600080fd5b600082013567ffffffffffffffff81111561112857600080fd5b6111348482850161106a565b91505092915050565b6000806040838503121561115057600080fd5b600083013567ffffffffffffffff81111561116a57600080fd5b6111768582860161106a565b925050602083013567ffffffffffffffff81111561119357600080fd5b61119f8582860161106a565b9150509250929050565b6000806000606084860312156111be57600080fd5b600084013567ffffffffffffffff8111156111d857600080fd5b6111e48682870161106a565b935050602084013567ffffffffffffffff81111561120157600080fd5b61120d8682870161106a565b925050604084013567ffffffffffffffff81111561122a57600080fd5b6112368682870161106a565b9150509250925092565b60006020828403121561125257600080fd5b6000611260848285016110be565b91505092915050565b6000611275838361132e565b905092915050565b6112868161169e565b82525050565b6112958161169e565b82525050565b60006112a68261163d565b6112b08185611660565b9350836020820285016112c28561162d565b8060005b858110156112fe57848403895281516112df8582611269565b94506112ea83611653565b925060208a019950506001810190506112c6565b50829750879550505050505092915050565b611319816116b0565b82525050565b611328816116b0565b82525050565b600061133982611648565b6113438185611671565b93506113538185602086016116f5565b61135c81611728565b840191505092915050565b600061137282611648565b61137c8185611682565b935061138c8185602086016116f5565b61139581611728565b840191505092915050565b60006113ab82611648565b6113b58185611693565b93506113c58185602086016116f5565b80840191505092915050565b60006113de602683611682565b91507f4f776e61626c653a206e6577206f776e657220697320746865207a65726f206160008301527f64647265737300000000000000000000000000000000000000000000000000006020830152604082019050919050565b6000611444602083611682565b91507f4f776e61626c653a2063616c6c6572206973206e6f7420746865206f776e65726000830152602082019050919050565b600060808301600083015161148f600086018261127d565b50602083015184820360208601526114a7828261132e565b915050604083015184820360408601526114c1828261132e565b91505060608301516114d66060860182611310565b508091505092915050565b60006114ed82846113a0565b915081905092915050565b600060208201905061150d600083018461128c565b92915050565b6000602082019050818103600083015261152d818461129b565b905092915050565b600060208201905061154a600083018461131f565b92915050565b6000602082019050818103600083015261156a8184611367565b905092915050565b6000602082019050818103600083015261158b816113d1565b9050919050565b600060208201905081810360008301526115ab81611437565b9050919050565b600060208201905081810360008301526115cc8184611477565b905092915050565b6000604051905081810181811067ffffffffffffffff821117156115f757600080fd5b8060405250919050565b600067ffffffffffffffff82111561161857600080fd5b601f19601f8301169050602081019050919050565b6000819050602082019050919050565b600081519050919050565b600081519050919050565b6000602082019050919050565b600082825260208201905092915050565b600082825260208201905092915050565b600082825260208201905092915050565b600081905092915050565b60006116a9826116bc565b9050919050565b60008115159050919050565b600073ffffffffffffffffffffffffffffffffffffffff82169050919050565b6000819050919050565b82818337600083830152505050565b60005b838110156117135780820151818401526020810190506116f8565b83811115611722576000848401525b50505050565b6000601f19601f8301169050919050565b6117428161169e565b811461174d57600080fd5b50565b611759816116dc565b811461176457600080fd5b5056fea2646970667358221220a6a237389090254c7561f7dd7db98932ae7e3ebae9c9c6167133379ae52b3d3264736f6c63430007010033",
  "immutableReferences": {},
  "source": "// SPDX-License-Identifier: MIT\r\npragma solidity >=0.7.0;\r\npragma experimental ABIEncoderV2;\r\n\r\n// Import User from User.sol\r\nimport \"./Users.sol\";\r\n// Import GLDToken from GLDToken.sol.sol\r\nimport \"./GLDToken.sol\";\r\nimport \"@openzeppelin/contracts/access/Ownable.sol\";\r\n\r\ncontract Repository is Ownable {\r\n    \r\n    GLDToken private token;\r\n    \r\n    constructor(address tokenAddress) {\r\n        token = GLDToken(tokenAddress);\r\n    }\r\n\r\n    struct Repo {\r\n        address owner;\r\n        string repoName;\r\n        string repoHash;\r\n        bool exists;\r\n    }\r\n    // mapping repo slug to Repo\r\n    mapping (string => Repo) repoNames;\r\n    // mapping User address to Repo\r\n    mapping (address => mapping (string => Repo)) userRepos;\r\n    string[] public allRepos;\r\n    // Repo[] public allRepos;\r\n\r\n    // Check RepoName is unique\r\n    function uniqueRepoSlug(string memory _projectSlug) public view returns(bool isUnique) {\r\n        if(repoNames[_projectSlug].exists != true){\r\n            return true;\r\n        } else{\r\n            return false;\r\n        }\r\n    }\r\n    // Create Repo\r\n    function createRepo(string memory _projectSlug, string memory _projectName, string memory _repoHash) public{\r\n        if(uniqueRepoSlug(_projectSlug)){\r\n            Repo memory newRepo = Repo(msg.sender, _projectName, _repoHash, true);\r\n            userRepos[msg.sender][_projectSlug] = newRepo;\r\n            repoNames[_projectSlug] = newRepo;\r\n            allRepos.push(_projectSlug);\r\n        }\r\n    }\r\n    // Update Repo\r\n    function updateRepo(string memory _projectSlug, string memory _repoHash) public{\r\n        if(msg.sender == repoNames[_projectSlug].owner){\r\n        userRepos[msg.sender][_projectSlug].repoHash =  _repoHash;\r\n        repoNames[_projectSlug].repoHash =  _repoHash;\r\n        }\r\n    }\r\n   // Get Repo\r\n    function getRepo(string memory _projectSlug) public view returns(Repo memory) {\r\n        return repoNames[_projectSlug];\r\n    }\r\n   // Get Repo Name\r\n    function getRepoName(string memory _projectSlug) public view returns(string memory) {\r\n        return repoNames[_projectSlug].repoName;\r\n    }\r\n   // Get Repo Name\r\n    function getRepoHash(string memory _projectSlug) public onlyOwner view returns(string memory) {\r\n        return repoNames[_projectSlug].repoHash;\r\n    }\r\n    // Get All Repos\r\n    function getAllRepos() public view returns(string[] memory) {\r\n        return allRepos;\r\n    }\r\n    // Get Repo Owner\r\n    function getRepoOwner(string memory _projectSlug) public view returns(address) {\r\n        return repoNames[_projectSlug].owner;\r\n    }\r\n    \r\n}",
  "sourcePath": "C:\\Users\\jamie\\Desktop\\Thesis\\planetGit\\src\\contracts\\Repository.sol",
  "compiler": {
    "name": "solc",
    "version": "0.7.1+commit.f4a555be.Emscripten.clang"
  },
  "schemaVersion": "3.2.5",
  "updatedAt": "2020-11-05T08:09:19.511Z",
  "networkType": "ethereum",
  "devdoc": {
    "kind": "dev",
    "methods": {
      "owner()": {
        "details": "Returns the address of the current owner."
      },
      "renounceOwnership()": {
        "details": "Leaves the contract without owner. It will not be possible to call `onlyOwner` functions anymore. Can only be called by the current owner. NOTE: Renouncing ownership will leave the contract without an owner, thereby removing any functionality that is only available to the owner."
      },
      "transferOwnership(address)": {
        "details": "Transfers ownership of the contract to a new account (`newOwner`). Can only be called by the current owner."
      }
    },
    "version": 1
  },
  "userdoc": {
    "kind": "user",
    "methods": {},
    "version": 1
  }
}