{
  "contractName": "repoContract",
  "abi": [
    {
      "inputs": [
        {
          "internalType": "uint256",
          "name": "",
          "type": "uint256"
        }
      ],
      "name": "allRepos",
      "outputs": [
        {
          "internalType": "bytes15",
          "name": "",
          "type": "bytes15"
        }
      ],
      "stateMutability": "view",
      "type": "function",
      "constant": true
    },
    {
      "inputs": [
        {
          "internalType": "bytes15",
          "name": "_userName",
          "type": "bytes15"
        }
      ],
      "name": "uniqueRepoName",
      "outputs": [
        {
          "internalType": "bool",
          "name": "isUnique",
          "type": "bool"
        }
      ],
      "stateMutability": "view",
      "type": "function",
      "constant": true
    },
    {
      "inputs": [
        {
          "internalType": "bytes15",
          "name": "_projectSlug",
          "type": "bytes15"
        },
        {
          "internalType": "bytes15",
          "name": "_projectName",
          "type": "bytes15"
        },
        {
          "internalType": "bytes",
          "name": "_repoHash",
          "type": "bytes"
        }
      ],
      "name": "createRepo",
      "outputs": [],
      "stateMutability": "nonpayable",
      "type": "function"
    },
    {
      "inputs": [
        {
          "internalType": "bytes15",
          "name": "_projectSlug",
          "type": "bytes15"
        },
        {
          "internalType": "bytes",
          "name": "_repoHash",
          "type": "bytes"
        }
      ],
      "name": "updateRepo",
      "outputs": [],
      "stateMutability": "nonpayable",
      "type": "function"
    },
    {
      "inputs": [
        {
          "internalType": "bytes15",
          "name": "_projectSlug",
          "type": "bytes15"
        }
      ],
      "name": "getRepoName",
      "outputs": [
        {
          "internalType": "bytes15",
          "name": "",
          "type": "bytes15"
        }
      ],
      "stateMutability": "view",
      "type": "function",
      "constant": true
    },
    {
      "inputs": [
        {
          "internalType": "bytes15",
          "name": "_projectSlug",
          "type": "bytes15"
        }
      ],
      "name": "getRepoHash",
      "outputs": [
        {
          "internalType": "bytes",
          "name": "",
          "type": "bytes"
        }
      ],
      "stateMutability": "view",
      "type": "function",
      "constant": true
    },
    {
      "inputs": [],
      "name": "getAllRepos",
      "outputs": [
        {
          "internalType": "bytes15[]",
          "name": "",
          "type": "bytes15[]"
        }
      ],
      "stateMutability": "view",
      "type": "function",
      "constant": true
    }
  ],
  "bytecode": "0x608060405234801561001057600080fd5b50610c67806100206000396000f3fe608060405234801561001057600080fd5b506004361061007d5760003560e01c80637a0202501161005b5780637a0202501461029e5780637f3b156f146102f6578063849132c41461034c578063f5cc98c9146104255761007d565b8063086d6ec014610082578063273da5bb1461017957806362d084cb14610234575b600080fd5b6101776004803603606081101561009857600080fd5b81019080803570ffffffffffffffffffffffffffffffffff19169060200190929190803570ffffffffffffffffffffffffffffffffff19169060200190929190803590602001906401000000008111156100f157600080fd5b82018360208201111561010357600080fd5b8035906020019184600183028401116401000000008311171561012557600080fd5b91908080601f016020809104026020016040519081016040528093929190818152602001838380828437600081840152601f19601f820116905080830192505050505050509192919290505050610484565b005b6101b96004803603602081101561018f57600080fd5b81019080803570ffffffffffffffffffffffffffffffffff19169060200190929190505050610767565b6040518080602001828103825283818151815260200191508051906020019080838360005b838110156101f95780820151818401526020810190506101de565b50505050905090810190601f1680156102265780820380516001836020036101000a031916815260200191505b509250505060405180910390f35b6102746004803603602081101561024a57600080fd5b81019080803570ffffffffffffffffffffffffffffffffff19169060200190929190505050610846565b604051808270ffffffffffffffffffffffffffffffffff1916815260200191505060405180910390f35b6102de600480360360208110156102b457600080fd5b81019080803570ffffffffffffffffffffffffffffffffff1916906020019092919050505061089a565b60405180821515815260200191505060405180910390f35b6103226004803603602081101561030c57600080fd5b8101908080359060200190929190505050610905565b604051808270ffffffffffffffffffffffffffffffffff1916815260200191505060405180910390f35b6104236004803603604081101561036257600080fd5b81019080803570ffffffffffffffffffffffffffffffffff191690602001909291908035906020019064010000000081111561039d57600080fd5b8201836020820111156103af57600080fd5b803590602001918460018302840111640100000000831117156103d157600080fd5b91908080601f016020809104026020016040519081016040528093929190818152602001838380828437600081840152601f19601f820116905080830192505050505050509192919290505050610939565b005b61042d610ab1565b6040518080602001828103825283818151815260200191508051906020019060200280838360005b83811015610470578082015181840152602081019050610455565b505050509050019250505060405180910390f35b61048d8361089a565b156107625761049a610b40565b60405180608001604052803373ffffffffffffffffffffffffffffffffffffffff1681526020018470ffffffffffffffffffffffffffffffffff1916815260200183815260200160011515815250905080600160003373ffffffffffffffffffffffffffffffffffffffff1673ffffffffffffffffffffffffffffffffffffffff16815260200190815260200160002060008670ffffffffffffffffffffffffffffffffff191670ffffffffffffffffffffffffffffffffff1916815260200190815260200160002060008201518160000160006101000a81548173ffffffffffffffffffffffffffffffffffffffff021916908373ffffffffffffffffffffffffffffffffffffffff16021790555060208201518160010160006101000a8154816effffffffffffffffffffffffffffff021916908360881c021790555060408201518160020190805190602001906105f5929190610b94565b5060608201518160030160006101000a81548160ff021916908315150217905550905050806000808670ffffffffffffffffffffffffffffffffff191670ffffffffffffffffffffffffffffffffff1916815260200190815260200160002060008201518160000160006101000a81548173ffffffffffffffffffffffffffffffffffffffff021916908373ffffffffffffffffffffffffffffffffffffffff16021790555060208201518160010160006101000a8154816effffffffffffffffffffffffffffff021916908360881c021790555060408201518160020190805190602001906106e6929190610b94565b5060608201518160030160006101000a81548160ff0219169083151502179055509050506002849080600181540180825580915050600190039060005260206000209060029182820401919006600f029091909190916101000a8154816effffffffffffffffffffffffffffff021916908360881c0217905550505b505050565b60606000808370ffffffffffffffffffffffffffffffffff191670ffffffffffffffffffffffffffffffffff191681526020019081526020016000206002018054600181600116156101000203166002900480601f01602080910402602001604051908101604052809291908181526020018280546001816001161561010002031660029004801561083a5780601f1061080f5761010080835404028352916020019161083a565b820191906000526020600020905b81548152906001019060200180831161081d57829003601f168201915b50505050509050919050565b60008060008370ffffffffffffffffffffffffffffffffff191670ffffffffffffffffffffffffffffffffff1916815260200190815260200160002060010160009054906101000a900460881b9050919050565b6000600115156000808470ffffffffffffffffffffffffffffffffff191670ffffffffffffffffffffffffffffffffff1916815260200190815260200160002060030160009054906101000a900460ff161515146108fb5760019050610900565b600090505b919050565b6002818154811061091257fe5b9060005260206000209060029182820401919006600f02915054906101000a900460881b81565b6000808370ffffffffffffffffffffffffffffffffff191670ffffffffffffffffffffffffffffffffff1916815260200190815260200160002060000160009054906101000a900473ffffffffffffffffffffffffffffffffffffffff1673ffffffffffffffffffffffffffffffffffffffff163373ffffffffffffffffffffffffffffffffffffffff161415610aad5780600160003373ffffffffffffffffffffffffffffffffffffffff1673ffffffffffffffffffffffffffffffffffffffff16815260200190815260200160002060008470ffffffffffffffffffffffffffffffffff191670ffffffffffffffffffffffffffffffffff191681526020019081526020016000206002019080519060200190610a59929190610b94565b50806000808470ffffffffffffffffffffffffffffffffff191670ffffffffffffffffffffffffffffffffff191681526020019081526020016000206002019080519060200190610aab929190610b94565b505b5050565b60606002805480602002602001604051908101604052809291908181526020018280548015610b3657602002820191906000526020600020906000905b82829054906101000a900460881b70ffffffffffffffffffffffffffffffffff1916815260200190600f0190602082600e01049283019260010382029150808411610aee5790505b5050505050905090565b6040518060800160405280600073ffffffffffffffffffffffffffffffffffffffff168152602001600070ffffffffffffffffffffffffffffffffff19168152602001606081526020016000151581525090565b828054600181600116156101000203166002900490600052602060002090601f016020900481019282601f10610bd557805160ff1916838001178555610c03565b82800160010185558215610c03579182015b82811115610c02578251825591602001919060010190610be7565b5b509050610c109190610c14565b5090565b5b80821115610c2d576000816000905550600101610c15565b509056fea2646970667358221220a89aba7fc113c729d98a04883385091f0846cfb274828adb3f8be8ce9596e72d64736f6c63430007010033",
  "immutableReferences": {},
  "source": "// SPDX-License-Identifier: MIT\r\npragma solidity >=0.7.0;\r\n\r\n// Import User from User.sol\r\nimport \"./UserContract.sol\";\r\n\r\ncontract repoContract {\r\n\r\n    struct Repo {\r\n        address owner;\r\n        bytes15 repoName;\r\n        bytes repoHash;\r\n        bool exists;\r\n    }\r\n    // mapping repo slug to Repo\r\n    mapping (bytes15 => Repo) repoNames;\r\n    // mapping User address to Repo\r\n    mapping (address => mapping (bytes15 => Repo)) userRepos;\r\n    bytes15[] public allRepos;\r\n\r\n    // Check RepoName is unique\r\n    function uniqueRepoName(bytes15 _userName) public view returns(bool isUnique) {\r\n        if(repoNames[_userName].exists != true){\r\n            return true;\r\n        } else{\r\n            return false;\r\n        }\r\n    }\r\n    // Create Repo\r\n    function createRepo(bytes15 _projectSlug, bytes15 _projectName, bytes memory _repoHash) public{\r\n        if(uniqueRepoName(_projectSlug)){\r\n            Repo memory newRepo = Repo(msg.sender, _projectName, _repoHash, true);\r\n            userRepos[msg.sender][_projectSlug] = newRepo;\r\n            repoNames[_projectSlug] = newRepo;\r\n            allRepos.push(_projectSlug);\r\n        }\r\n    }\r\n    // Update Repo\r\n    function updateRepo(bytes15 _projectSlug, bytes memory _repoHash) public{\r\n        if(msg.sender == repoNames[_projectSlug].owner){\r\n        userRepos[msg.sender][_projectSlug].repoHash =  _repoHash;\r\n        repoNames[_projectSlug].repoHash =  _repoHash;\r\n        }\r\n    }\r\n   // Get Repo Name\r\n    function getRepoName(bytes15 _projectSlug) public view returns(bytes15) {\r\n        return repoNames[_projectSlug].repoName;\r\n    }\r\n   // Get Repo Name\r\n    function getRepoHash(bytes15 _projectSlug) public view returns(bytes memory) {\r\n        return repoNames[_projectSlug].repoHash;\r\n    }\r\n    // Get All Repos\r\n    function getAllRepos() public view returns(bytes15[] memory) {\r\n        return allRepos;\r\n    }\r\n}",
  "sourcePath": "C:/Users/jamie/Desktop/Thesis/planetGit/src/contracts/RepoContract.sol",
  "compiler": {
    "name": "solc",
    "version": "0.7.1+commit.f4a555be.Emscripten.clang"
  },
  "schemaVersion": "3.2.5",
  "updatedAt": "2020-10-03T10:14:54.854Z",
  "networkType": "ethereum",
  "devdoc": {
    "kind": "dev",
    "methods": {},
    "version": 1
  },
  "userdoc": {
    "kind": "user",
    "methods": {},
    "version": 1
  }
}