{
  "contractName": "repoContract",
  "abi": [
    {
      "inputs": [
        {
          "internalType": "uint256",
          "name": "",
          "type": "uint256"
        }
      ],
      "name": "allRepos",
      "outputs": [
        {
          "internalType": "string",
          "name": "",
          "type": "string"
        }
      ],
      "stateMutability": "view",
      "type": "function",
      "constant": true
    },
    {
      "inputs": [
        {
          "internalType": "string",
          "name": "_projectSlug",
          "type": "string"
        }
      ],
      "name": "uniqueRepoSlug",
      "outputs": [
        {
          "internalType": "bool",
          "name": "isUnique",
          "type": "bool"
        }
      ],
      "stateMutability": "view",
      "type": "function",
      "constant": true
    },
    {
      "inputs": [
        {
          "internalType": "string",
          "name": "_projectSlug",
          "type": "string"
        },
        {
          "internalType": "string",
          "name": "_projectName",
          "type": "string"
        },
        {
          "internalType": "string",
          "name": "_repoHash",
          "type": "string"
        }
      ],
      "name": "createRepo",
      "outputs": [],
      "stateMutability": "nonpayable",
      "type": "function"
    },
    {
      "inputs": [
        {
          "internalType": "string",
          "name": "_projectSlug",
          "type": "string"
        },
        {
          "internalType": "string",
          "name": "_repoHash",
          "type": "string"
        }
      ],
      "name": "updateRepo",
      "outputs": [],
      "stateMutability": "nonpayable",
      "type": "function"
    },
    {
      "inputs": [
        {
          "internalType": "string",
          "name": "_projectSlug",
          "type": "string"
        }
      ],
      "name": "getRepoName",
      "outputs": [
        {
          "internalType": "string",
          "name": "",
          "type": "string"
        }
      ],
      "stateMutability": "view",
      "type": "function",
      "constant": true
    },
    {
      "inputs": [
        {
          "internalType": "string",
          "name": "_projectSlug",
          "type": "string"
        }
      ],
      "name": "getRepoHash",
      "outputs": [
        {
          "internalType": "string",
          "name": "",
          "type": "string"
        }
      ],
      "stateMutability": "view",
      "type": "function",
      "constant": true
    },
    {
      "inputs": [],
      "name": "getAllRepos",
      "outputs": [
        {
          "internalType": "string[]",
          "name": "",
          "type": "string[]"
        }
      ],
      "stateMutability": "view",
      "type": "function",
      "constant": true
    }
  ],
  "bytecode": "0x608060405234801561001057600080fd5b50610e6e806100206000396000f3fe608060405234801561001057600080fd5b506004361061007d5760003560e01c80639e20505a1161005b5780639e20505a146100fe578063b4bc07c21461011a578063f4845d871461014a578063f5cc98c91461017a5761007d565b80630446c519146100825780637f3b156f146100b257806390ec291d146100e2575b600080fd5b61009c600480360381019061009791906109d0565b610198565b6040516100a99190610ccc565b60405180910390f35b6100cc60048036038101906100c79190610b14565b61025b565b6040516100d99190610ccc565b60405180910390f35b6100fc60048036038101906100f79190610a7d565b610314565b005b61011860048036038101906101139190610a11565b61056c565b005b610134600480360381019061012f91906109d0565b61068f565b6040516101419190610cb1565b60405180910390f35b610164600480360381019061015f91906109d0565b6106de565b6040516101719190610ccc565b60405180910390f35b6101826107a1565b60405161018f9190610c8f565b60405180910390f35b60606000826040516101aa9190610c78565b90815260200160405180910390206001018054600181600116156101000203166002900480601f01602080910402602001604051908101604052809291908181526020018280546001816001161561010002031660029004801561024f5780601f106102245761010080835404028352916020019161024f565b820191906000526020600020905b81548152906001019060200180831161023257829003601f168201915b50505050509050919050565b6002818154811061026857fe5b906000526020600020016000915090508054600181600116156101000203166002900480601f01602080910402602001604051908101604052809291908181526020018280546001816001161561010002031660029004801561030c5780601f106102e15761010080835404028352916020019161030c565b820191906000526020600020905b8154815290600101906020018083116102ef57829003601f168201915b505050505081565b61031d8361068f565b156105675761032a61088a565b60405180608001604052803373ffffffffffffffffffffffffffffffffffffffff16815260200184815260200183815260200160011515815250905080600160003373ffffffffffffffffffffffffffffffffffffffff1673ffffffffffffffffffffffffffffffffffffffff168152602001908152602001600020856040516103b49190610c78565b908152602001604051809103902060008201518160000160006101000a81548173ffffffffffffffffffffffffffffffffffffffff021916908373ffffffffffffffffffffffffffffffffffffffff16021790555060208201518160010190805190602001906104259291906108ca565b5060408201518160020190805190602001906104429291906108ca565b5060608201518160030160006101000a81548160ff021916908315150217905550905050806000856040516104779190610c78565b908152602001604051809103902060008201518160000160006101000a81548173ffffffffffffffffffffffffffffffffffffffff021916908373ffffffffffffffffffffffffffffffffffffffff16021790555060208201518160010190805190602001906104e89291906108ca565b5060408201518160020190805190602001906105059291906108ca565b5060608201518160030160006101000a81548160ff0219169083151502179055509050506002849080600181540180825580915050600190039060005260206000200160009091909190915090805190602001906105649291906108ca565b50505b505050565b60008260405161057c9190610c78565b908152602001604051809103902060000160009054906101000a900473ffffffffffffffffffffffffffffffffffffffff1673ffffffffffffffffffffffffffffffffffffffff163373ffffffffffffffffffffffffffffffffffffffff16141561068b5780600160003373ffffffffffffffffffffffffffffffffffffffff1673ffffffffffffffffffffffffffffffffffffffff1681526020019081526020016000208360405161062f9190610c78565b908152602001604051809103902060020190805190602001906106539291906108ca565b50806000836040516106659190610c78565b908152602001604051809103902060020190805190602001906106899291906108ca565b505b5050565b6000600115156000836040516106a59190610c78565b908152602001604051809103902060030160009054906101000a900460ff161515146106d457600190506106d9565b600090505b919050565b60606000826040516106f09190610c78565b90815260200160405180910390206002018054600181600116156101000203166002900480601f0160208091040260200160405190810160405280929190818152602001828054600181600116156101000203166002900480156107955780601f1061076a57610100808354040283529160200191610795565b820191906000526020600020905b81548152906001019060200180831161077857829003601f168201915b50505050509050919050565b60606002805480602002602001604051908101604052809291908181526020016000905b82821015610881578382906000526020600020018054600181600116156101000203166002900480601f01602080910402602001604051908101604052809291908181526020018280546001816001161561010002031660029004801561086d5780601f106108425761010080835404028352916020019161086d565b820191906000526020600020905b81548152906001019060200180831161085057829003601f168201915b5050505050815260200190600101906107c5565b50505050905090565b6040518060800160405280600073ffffffffffffffffffffffffffffffffffffffff16815260200160608152602001606081526020016000151581525090565b828054600181600116156101000203166002900490600052602060002090601f016020900481019282601f1061090b57805160ff1916838001178555610939565b82800160010185558215610939579182015b8281111561093857825182559160200191906001019061091d565b5b509050610946919061094a565b5090565b5b8082111561096357600081600090555060010161094b565b5090565b600082601f83011261097857600080fd5b813561098b61098682610d1b565b610cee565b915080825260208301602083018583830111156109a757600080fd5b6109b2838284610dce565b50505092915050565b6000813590506109ca81610e21565b92915050565b6000602082840312156109e257600080fd5b600082013567ffffffffffffffff8111156109fc57600080fd5b610a0884828501610967565b91505092915050565b60008060408385031215610a2457600080fd5b600083013567ffffffffffffffff811115610a3e57600080fd5b610a4a85828601610967565b925050602083013567ffffffffffffffff811115610a6757600080fd5b610a7385828601610967565b9150509250929050565b600080600060608486031215610a9257600080fd5b600084013567ffffffffffffffff811115610aac57600080fd5b610ab886828701610967565b935050602084013567ffffffffffffffff811115610ad557600080fd5b610ae186828701610967565b925050604084013567ffffffffffffffff811115610afe57600080fd5b610b0a86828701610967565b9150509250925092565b600060208284031215610b2657600080fd5b6000610b34848285016109bb565b91505092915050565b6000610b498383610bd5565b905092915050565b6000610b5c82610d57565b610b668185610d7a565b935083602082028501610b7885610d47565b8060005b85811015610bb45784840389528151610b958582610b3d565b9450610ba083610d6d565b925060208a01995050600181019050610b7c565b50829750879550505050505092915050565b610bcf81610db8565b82525050565b6000610be082610d62565b610bea8185610d8b565b9350610bfa818560208601610ddd565b610c0381610e10565b840191505092915050565b6000610c1982610d62565b610c238185610d9c565b9350610c33818560208601610ddd565b610c3c81610e10565b840191505092915050565b6000610c5282610d62565b610c5c8185610dad565b9350610c6c818560208601610ddd565b80840191505092915050565b6000610c848284610c47565b915081905092915050565b60006020820190508181036000830152610ca98184610b51565b905092915050565b6000602082019050610cc66000830184610bc6565b92915050565b60006020820190508181036000830152610ce68184610c0e565b905092915050565b6000604051905081810181811067ffffffffffffffff82111715610d1157600080fd5b8060405250919050565b600067ffffffffffffffff821115610d3257600080fd5b601f19601f8301169050602081019050919050565b6000819050602082019050919050565b600081519050919050565b600081519050919050565b6000602082019050919050565b600082825260208201905092915050565b600082825260208201905092915050565b600082825260208201905092915050565b600081905092915050565b60008115159050919050565b6000819050919050565b82818337600083830152505050565b60005b83811015610dfb578082015181840152602081019050610de0565b83811115610e0a576000848401525b50505050565b6000601f19601f8301169050919050565b610e2a81610dc4565b8114610e3557600080fd5b5056fea26469706673582212206db104070764ec200904a54db463ba18110be06dd6d825d5081c9d408f13265a64736f6c63430007010033",
  "immutableReferences": {},
  "source": "// SPDX-License-Identifier: MIT\r\npragma solidity >=0.7.0;\r\npragma experimental ABIEncoderV2;\r\n\r\n// Import User from User.sol\r\nimport \"./UserContract.sol\";\r\n\r\ncontract repoContract {\r\n\r\n    struct Repo {\r\n        address owner;\r\n        string repoName;\r\n        string repoHash;\r\n        bool exists;\r\n    }\r\n    // mapping repo slug to Repo\r\n    mapping (string => Repo) repoNames;\r\n    // mapping User address to Repo\r\n    mapping (address => mapping (string => Repo)) userRepos;\r\n    string[] public allRepos;\r\n\r\n    // Check RepoName is unique\r\n    function uniqueRepoSlug(string memory _projectSlug) public view returns(bool isUnique) {\r\n        if(repoNames[_projectSlug].exists != true){\r\n            return true;\r\n        } else{\r\n            return false;\r\n        }\r\n    }\r\n    // Create Repo\r\n    function createRepo(string memory _projectSlug, string memory _projectName, string memory _repoHash) public{\r\n        if(uniqueRepoSlug(_projectSlug)){\r\n            Repo memory newRepo = Repo(msg.sender, _projectName, _repoHash, true);\r\n            userRepos[msg.sender][_projectSlug] = newRepo;\r\n            repoNames[_projectSlug] = newRepo;\r\n            allRepos.push(_projectSlug);\r\n        }\r\n    }\r\n    // Update Repo\r\n    function updateRepo(string memory _projectSlug, string memory _repoHash) public{\r\n        if(msg.sender == repoNames[_projectSlug].owner){\r\n        userRepos[msg.sender][_projectSlug].repoHash =  _repoHash;\r\n        repoNames[_projectSlug].repoHash =  _repoHash;\r\n        }\r\n    }\r\n   // Get Repo Name\r\n    function getRepoName(string memory _projectSlug) public view returns(string memory) {\r\n        return repoNames[_projectSlug].repoName;\r\n    }\r\n   // Get Repo Name\r\n    function getRepoHash(string memory _projectSlug) public view returns(string memory) {\r\n        return repoNames[_projectSlug].repoHash;\r\n    }\r\n    // Get All Repos\r\n    function getAllRepos() public view returns(string[] memory) {\r\n        return allRepos;\r\n    }\r\n}",
  "sourcePath": "C:/Users/jamie/Desktop/Thesis/planetGit/src/contracts/RepoContract.sol",
  "compiler": {
    "name": "solc",
    "version": "0.7.1+commit.f4a555be.Emscripten.clang"
  },
  "schemaVersion": "3.2.5",
  "updatedAt": "2020-10-25T07:59:39.041Z",
  "networkType": "ethereum",
  "devdoc": {
    "kind": "dev",
    "methods": {},
    "version": 1
  },
  "userdoc": {
    "kind": "user",
    "methods": {},
    "version": 1
  }
}