{
  "contractName": "userContract",
  "abi": [
    {
      "inputs": [
        {
          "internalType": "uint256",
          "name": "",
          "type": "uint256"
        }
      ],
      "name": "allUserAddrs",
      "outputs": [
        {
          "internalType": "address",
          "name": "",
          "type": "address"
        }
      ],
      "stateMutability": "view",
      "type": "function",
      "constant": true
    },
    {
      "inputs": [
        {
          "internalType": "uint256",
          "name": "",
          "type": "uint256"
        }
      ],
      "name": "allUserNames",
      "outputs": [
        {
          "internalType": "bytes15",
          "name": "",
          "type": "bytes15"
        }
      ],
      "stateMutability": "view",
      "type": "function",
      "constant": true
    },
    {
      "inputs": [
        {
          "internalType": "bytes15",
          "name": "_userName",
          "type": "bytes15"
        }
      ],
      "name": "uniqueUsername",
      "outputs": [
        {
          "internalType": "bool",
          "name": "isUnique",
          "type": "bool"
        }
      ],
      "stateMutability": "view",
      "type": "function",
      "constant": true
    },
    {
      "inputs": [
        {
          "internalType": "bytes15",
          "name": "_userName",
          "type": "bytes15"
        },
        {
          "internalType": "bytes",
          "name": "_imgHash",
          "type": "bytes"
        }
      ],
      "name": "createUser",
      "outputs": [],
      "stateMutability": "nonpayable",
      "type": "function"
    },
    {
      "inputs": [],
      "name": "getUserName",
      "outputs": [
        {
          "internalType": "bytes15",
          "name": "",
          "type": "bytes15"
        }
      ],
      "stateMutability": "view",
      "type": "function",
      "constant": true
    },
    {
      "inputs": [],
      "name": "getUserImg",
      "outputs": [
        {
          "internalType": "bytes15",
          "name": "",
          "type": "bytes15"
        }
      ],
      "stateMutability": "view",
      "type": "function",
      "constant": true
    },
    {
      "inputs": [],
      "name": "getAllUser",
      "outputs": [
        {
          "internalType": "bytes15[]",
          "name": "",
          "type": "bytes15[]"
        }
      ],
      "stateMutability": "view",
      "type": "function",
      "constant": true
    }
  ],
  "bytecode": "0x608060405234801561001057600080fd5b5061095b806100206000396000f3fe608060405234801561001057600080fd5b506004361061007d5760003560e01c806347531df81161005b57806347531df81461016257806351b93e02146101c15780636ef8fa3e1461029a57806395f4b27c146102cc5761007d565b806303a20fc61461008257806312958f1c146100da5780632eabe48c1461010c575b600080fd5b6100c26004803603602081101561009857600080fd5b81019080803570ffffffffffffffffffffffffffffffffff19169060200190929190505050610324565b60405180821515815260200191505060405180910390f35b6100e2610390565b604051808270ffffffffffffffffffffffffffffffffff1916815260200191505060405180910390f35b6101386004803603602081101561012257600080fd5b81019080803590602001909291905050506103e6565b604051808270ffffffffffffffffffffffffffffffffff1916815260200191505060405180910390f35b61016a61041a565b6040518080602001828103825283818151815260200191508051906020019060200280838360005b838110156101ad578082015181840152602081019050610192565b505050509050019250505060405180910390f35b610298600480360360408110156101d757600080fd5b81019080803570ffffffffffffffffffffffffffffffffff191690602001909291908035906020019064010000000081111561021257600080fd5b82018360208201111561022457600080fd5b8035906020019184600183028401116401000000008311171561024657600080fd5b91908080601f016020809104026020016040519081016040528093929190818152602001838380828437600081840152601f19601f8201169050808301925050505050505091929192905050506104a9565b005b6102a26107f6565b604051808270ffffffffffffffffffffffffffffffffff1916815260200191505060405180910390f35b6102f8600480360360208110156102e257600080fd5b810190808035906020019092919050505061084c565b604051808273ffffffffffffffffffffffffffffffffffffffff16815260200191505060405180910390f35b600060011515600260008470ffffffffffffffffffffffffffffffffff191670ffffffffffffffffffffffffffffffffff1916815260200190815260200160002060030160009054906101000a900460ff16151514610386576001905061038b565b600090505b919050565b60008060003373ffffffffffffffffffffffffffffffffffffffff1673ffffffffffffffffffffffffffffffffffffffff16815260200190815260200160002060010160009054906101000a900460881b905090565b600381815481106103f357fe5b9060005260206000209060029182820401919006600f02915054906101000a900460881b81565b6060600380548060200260200160405190810160405280929190818152602001828054801561049f57602002820191906000526020600020906000905b82829054906101000a900460881b70ffffffffffffffffffffffffffffffffff1916815260200190600f0190602082600e010492830192600103820291508084116104575790505b5050505050905090565b6104b282610324565b156107f25760405180608001604052803373ffffffffffffffffffffffffffffffffffffffff1681526020018370ffffffffffffffffffffffffffffffffff19168152602001828152602001600115158152506000803373ffffffffffffffffffffffffffffffffffffffff1673ffffffffffffffffffffffffffffffffffffffff16815260200190815260200160002060008201518160000160006101000a81548173ffffffffffffffffffffffffffffffffffffffff021916908373ffffffffffffffffffffffffffffffffffffffff16021790555060208201518160010160006101000a8154816effffffffffffffffffffffffffffff021916908360881c021790555060408201518160020190805190602001906105d5929190610888565b5060608201518160030160006101000a81548160ff02191690831515021790555090505060405180608001604052803373ffffffffffffffffffffffffffffffffffffffff1681526020018370ffffffffffffffffffffffffffffffffff1916815260200182815260200160011515815250600260008470ffffffffffffffffffffffffffffffffff191670ffffffffffffffffffffffffffffffffff1916815260200190815260200160002060008201518160000160006101000a81548173ffffffffffffffffffffffffffffffffffffffff021916908373ffffffffffffffffffffffffffffffffffffffff16021790555060208201518160010160006101000a8154816effffffffffffffffffffffffffffff021916908360881c02179055506040820151816002019080519060200190610714929190610888565b5060608201518160030160006101000a81548160ff0219169083151502179055509050506001339080600181540180825580915050600190039060005260206000200160009091909190916101000a81548173ffffffffffffffffffffffffffffffffffffffff021916908373ffffffffffffffffffffffffffffffffffffffff1602179055506003829080600181540180825580915050600190039060005260206000209060029182820401919006600f029091909190916101000a8154816effffffffffffffffffffffffffffff021916908360881c02179055505b5050565b60008060003373ffffffffffffffffffffffffffffffffffffffff1673ffffffffffffffffffffffffffffffffffffffff16815260200190815260200160002060010160009054906101000a900460881b905090565b6001818154811061085957fe5b906000526020600020016000915054906101000a900473ffffffffffffffffffffffffffffffffffffffff1681565b828054600181600116156101000203166002900490600052602060002090601f016020900481019282601f106108c957805160ff19168380011785556108f7565b828001600101855582156108f7579182015b828111156108f65782518255916020019190600101906108db565b5b5090506109049190610908565b5090565b5b80821115610921576000816000905550600101610909565b509056fea26469706673582212201ca178b287e8e5dd4aa229148401dd1969901f508e434b7fed2f0f2b2969ded264736f6c63430007010033",
  "immutableReferences": {},
  "source": "// SPDX-License-Identifier: MIT\r\npragma solidity >=0.7.0;\r\n\r\ncontract userContract {\r\n    \r\n    struct User {\r\n        address _address;\r\n        bytes15 userName;\r\n        bytes imgHash;\r\n        bool exists;\r\n    }\r\n\r\n    // mapping address to User \r\n    mapping (address => User) UserAddrsMap;\r\n    address[] public allUserAddrs;\r\n    // mapping address to User \r\n    mapping (bytes15 => User) userNameMap;\r\n    bytes15[] public allUserNames;\r\n    \r\n    \r\n    // Check Username is unique\r\n    function uniqueUsername(bytes15 _userName) public view returns(bool isUnique) {\r\n        if(userNameMap[_userName].exists != true){\r\n            return true;\r\n        } else{\r\n            return false;\r\n        }\r\n        \r\n    }\r\n    // Create User\r\n    function createUser(bytes15 _userName, bytes memory _imgHash) public{\r\n        if(uniqueUsername(_userName)){\r\n        UserAddrsMap[msg.sender] = User(msg.sender, _userName, _imgHash, true);\r\n        userNameMap[_userName] = User(msg.sender, _userName, _imgHash, true);\r\n        allUserAddrs.push(msg.sender);\r\n        allUserNames.push(_userName);\r\n        }\r\n    }\r\n    // Get Username with Address function\r\n    function getUserName() public view returns(bytes15) {\r\n        return UserAddrsMap[msg.sender].userName;\r\n    }\r\n    // Get User Img with Address function\r\n    function getUserImg() public view returns(bytes15) {\r\n        return UserAddrsMap[msg.sender].userName;\r\n    }\r\n    // Get All Users\r\n    function getAllUser() public view returns(bytes15[] memory) {\r\n        return allUserNames;\r\n    }\r\n}",
  "sourcePath": "C:\\Users\\jamie\\Desktop\\Thesis\\planetGit\\src\\contracts\\UserContract.sol",
  "compiler": {
    "name": "solc",
    "version": "0.7.1+commit.f4a555be.Emscripten.clang"
  },
  "schemaVersion": "3.2.5",
  "updatedAt": "2020-10-03T09:30:26.747Z",
  "networkType": "ethereum",
  "devdoc": {
    "kind": "dev",
    "methods": {},
    "version": 1
  },
  "userdoc": {
    "kind": "user",
    "methods": {},
    "version": 1
  }
}