{
  "contractName": "UserContract",
  "abi": [
    {
      "inputs": [
        {
          "internalType": "uint256",
          "name": "",
          "type": "uint256"
        }
      ],
      "name": "allUserAddrs",
      "outputs": [
        {
          "internalType": "address",
          "name": "",
          "type": "address"
        }
      ],
      "stateMutability": "view",
      "type": "function",
      "constant": true
    },
    {
      "inputs": [
        {
          "internalType": "uint256",
          "name": "",
          "type": "uint256"
        }
      ],
      "name": "allUserNames",
      "outputs": [
        {
          "internalType": "bytes15",
          "name": "",
          "type": "bytes15"
        }
      ],
      "stateMutability": "view",
      "type": "function",
      "constant": true
    },
    {
      "inputs": [
        {
          "internalType": "bytes15",
          "name": "_userName",
          "type": "bytes15"
        }
      ],
      "name": "uniqueUsername",
      "outputs": [
        {
          "internalType": "bool",
          "name": "isUnique",
          "type": "bool"
        }
      ],
      "stateMutability": "view",
      "type": "function",
      "constant": true
    },
    {
      "inputs": [
        {
          "internalType": "bytes15",
          "name": "_userName",
          "type": "bytes15"
        },
        {
          "internalType": "bytes",
          "name": "_imgHash",
          "type": "bytes"
        }
      ],
      "name": "createUser",
      "outputs": [],
      "stateMutability": "nonpayable",
      "type": "function"
    },
    {
      "inputs": [],
      "name": "getUserName",
      "outputs": [
        {
          "internalType": "bytes15",
          "name": "",
          "type": "bytes15"
        }
      ],
      "stateMutability": "view",
      "type": "function",
      "constant": true
    },
    {
      "inputs": [],
      "name": "getUserImg",
      "outputs": [
        {
          "internalType": "bytes",
          "name": "",
          "type": "bytes"
        }
      ],
      "stateMutability": "view",
      "type": "function",
      "constant": true
    },
    {
      "inputs": [],
      "name": "getAllUsers",
      "outputs": [
        {
          "internalType": "bytes15[]",
          "name": "",
          "type": "bytes15[]"
        }
      ],
      "stateMutability": "view",
      "type": "function",
      "constant": true
    }
  ],
  "bytecode": "0x608060405234801561001057600080fd5b50610a37806100206000396000f3fe608060405234801561001057600080fd5b506004361061007d5760003560e01c806351b93e021161005b57806351b93e02146101625780636ef8fa3e1461023b57806395f4b27c146102be578063e2842d79146103165761007d565b806303a20fc61461008257806312958f1c146100da5780632eabe48c1461010c575b600080fd5b6100c26004803603602081101561009857600080fd5b81019080803570ffffffffffffffffffffffffffffffffff19169060200190929190505050610375565b60405180821515815260200191505060405180910390f35b6100e26103e1565b604051808270ffffffffffffffffffffffffffffffffff1916815260200191505060405180910390f35b6101386004803603602081101561012257600080fd5b8101908080359060200190929190505050610437565b604051808270ffffffffffffffffffffffffffffffffff1916815260200191505060405180910390f35b6102396004803603604081101561017857600080fd5b81019080803570ffffffffffffffffffffffffffffffffff19169060200190929190803590602001906401000000008111156101b357600080fd5b8201836020820111156101c557600080fd5b803590602001918460018302840111640100000000831117156101e757600080fd5b91908080601f016020809104026020016040519081016040528093929190818152602001838380828437600081840152601f19601f82011690508083019250505050505050919291929050505061046b565b005b6102436107b8565b6040518080602001828103825283818151815260200191508051906020019080838360005b83811015610283578082015181840152602081019050610268565b50505050905090810190601f1680156102b05780820380516001836020036101000a031916815260200191505b509250505060405180910390f35b6102ea600480360360208110156102d457600080fd5b8101908080359060200190929190505050610899565b604051808273ffffffffffffffffffffffffffffffffffffffff16815260200191505060405180910390f35b61031e6108d5565b6040518080602001828103825283818151815260200191508051906020019060200280838360005b83811015610361578082015181840152602081019050610346565b505050509050019250505060405180910390f35b600060011515600260008470ffffffffffffffffffffffffffffffffff191670ffffffffffffffffffffffffffffffffff1916815260200190815260200160002060030160009054906101000a900460ff161515146103d757600190506103dc565b600090505b919050565b60008060003373ffffffffffffffffffffffffffffffffffffffff1673ffffffffffffffffffffffffffffffffffffffff16815260200190815260200160002060010160009054906101000a900460881b905090565b6003818154811061044457fe5b9060005260206000209060029182820401919006600f02915054906101000a900460881b81565b61047482610375565b156107b45760405180608001604052803373ffffffffffffffffffffffffffffffffffffffff1681526020018370ffffffffffffffffffffffffffffffffff19168152602001828152602001600115158152506000803373ffffffffffffffffffffffffffffffffffffffff1673ffffffffffffffffffffffffffffffffffffffff16815260200190815260200160002060008201518160000160006101000a81548173ffffffffffffffffffffffffffffffffffffffff021916908373ffffffffffffffffffffffffffffffffffffffff16021790555060208201518160010160006101000a8154816effffffffffffffffffffffffffffff021916908360881c02179055506040820151816002019080519060200190610597929190610964565b5060608201518160030160006101000a81548160ff02191690831515021790555090505060405180608001604052803373ffffffffffffffffffffffffffffffffffffffff1681526020018370ffffffffffffffffffffffffffffffffff1916815260200182815260200160011515815250600260008470ffffffffffffffffffffffffffffffffff191670ffffffffffffffffffffffffffffffffff1916815260200190815260200160002060008201518160000160006101000a81548173ffffffffffffffffffffffffffffffffffffffff021916908373ffffffffffffffffffffffffffffffffffffffff16021790555060208201518160010160006101000a8154816effffffffffffffffffffffffffffff021916908360881c021790555060408201518160020190805190602001906106d6929190610964565b5060608201518160030160006101000a81548160ff0219169083151502179055509050506001339080600181540180825580915050600190039060005260206000200160009091909190916101000a81548173ffffffffffffffffffffffffffffffffffffffff021916908373ffffffffffffffffffffffffffffffffffffffff1602179055506003829080600181540180825580915050600190039060005260206000209060029182820401919006600f029091909190916101000a8154816effffffffffffffffffffffffffffff021916908360881c02179055505b5050565b60606000803373ffffffffffffffffffffffffffffffffffffffff1673ffffffffffffffffffffffffffffffffffffffff1681526020019081526020016000206002018054600181600116156101000203166002900480601f01602080910402602001604051908101604052809291908181526020018280546001816001161561010002031660029004801561088f5780601f106108645761010080835404028352916020019161088f565b820191906000526020600020905b81548152906001019060200180831161087257829003601f168201915b5050505050905090565b600181815481106108a657fe5b906000526020600020016000915054906101000a900473ffffffffffffffffffffffffffffffffffffffff1681565b6060600380548060200260200160405190810160405280929190818152602001828054801561095a57602002820191906000526020600020906000905b82829054906101000a900460881b70ffffffffffffffffffffffffffffffffff1916815260200190600f0190602082600e010492830192600103820291508084116109125790505b5050505050905090565b828054600181600116156101000203166002900490600052602060002090601f016020900481019282601f106109a557805160ff19168380011785556109d3565b828001600101855582156109d3579182015b828111156109d25782518255916020019190600101906109b7565b5b5090506109e091906109e4565b5090565b5b808211156109fd5760008160009055506001016109e5565b509056fea264697066735822122041385b1374b532e8418e55e4352b529f095dbe18e181ff04ed17ecbaff083a3e64736f6c63430007010033",
  "immutableReferences": {},
  "source": "// SPDX-License-Identifier: MIT\r\npragma solidity >=0.7.0;\r\n\r\ncontract UserContract {\r\n    \r\n    struct User {\r\n        address _address;\r\n        bytes15 userName;\r\n        bytes imgHash;\r\n        bool exists;\r\n    }\r\n\r\n    // mapping address to User \r\n    mapping (address => User) UserAddrsMap;\r\n    address[] public allUserAddrs;\r\n    // mapping address to User \r\n    mapping (bytes15 => User) userNameMap;\r\n    bytes15[] public allUserNames;\r\n    \r\n    \r\n    // Check Username is unique\r\n    function uniqueUsername(bytes15 _userName) public view returns(bool isUnique) {\r\n        if(userNameMap[_userName].exists != true){\r\n            return true;\r\n        } else{\r\n            return false;\r\n        }\r\n        \r\n    }\r\n    // Create User with Img\r\n    function createUser(bytes15 _userName, bytes memory _imgHash) public{\r\n        if(uniqueUsername(_userName)){\r\n        UserAddrsMap[msg.sender] = User(msg.sender, _userName, _imgHash, true);\r\n        userNameMap[_userName] = User(msg.sender, _userName, _imgHash, true);\r\n        allUserAddrs.push(msg.sender);\r\n        allUserNames.push(_userName);\r\n        }\r\n    }\r\n    // Get Username with Address function\r\n    function getUserName() public view returns(bytes15) {\r\n        return UserAddrsMap[msg.sender].userName;\r\n    }\r\n    // Get User Img with Address function\r\n    function getUserImg() public view returns(bytes memory) {\r\n        return UserAddrsMap[msg.sender].imgHash;\r\n    }\r\n    // Get All Users\r\n    function getAllUsers() public view returns(bytes15[] memory) {\r\n        return allUserNames;\r\n    }\r\n}",
  "sourcePath": "C:\\Users\\jamie\\Desktop\\Thesis\\planetGit\\src\\contracts\\UserContract.sol",
  "compiler": {
    "name": "solc",
    "version": "0.7.1+commit.f4a555be.Emscripten.clang"
  },
  "schemaVersion": "3.2.5",
  "updatedAt": "2020-10-03T10:14:53.844Z",
  "networkType": "ethereum",
  "devdoc": {
    "kind": "dev",
    "methods": {},
    "version": 1
  },
  "userdoc": {
    "kind": "user",
    "methods": {},
    "version": 1
  }
}